{
  "_format": "hh-sol-artifact-1",
  "contractName": "LiquiSwapV4",
  "sourceName": "contracts/LiquiUniSwapV4.sol",
  "abi": [
    {
      "inputs": [],
      "stateMutability": "nonpayable",
      "type": "constructor"
    },
    {
      "anonymous": false,
      "inputs": [
        {
          "indexed": true,
          "internalType": "address",
          "name": "user",
          "type": "address"
        },
        {
          "indexed": false,
          "internalType": "string",
          "name": "token",
          "type": "string"
        },
        {
          "indexed": false,
          "internalType": "uint256",
          "name": "amount",
          "type": "uint256"
        }
      ],
      "name": "Deposit",
      "type": "event"
    },
    {
      "anonymous": false,
      "inputs": [
        {
          "indexed": true,
          "internalType": "int256",
          "name": "price",
          "type": "int256"
        },
        {
          "indexed": false,
          "internalType": "uint256",
          "name": "targetAmount",
          "type": "uint256"
        },
        {
          "indexed": false,
          "internalType": "uint256",
          "name": "actualAmount",
          "type": "uint256"
        }
      ],
      "name": "Liquidation",
      "type": "event"
    },
    {
      "anonymous": false,
      "inputs": [
        {
          "indexed": true,
          "internalType": "address",
          "name": "user",
          "type": "address"
        }
      ],
      "name": "UserAdded",
      "type": "event"
    },
    {
      "anonymous": false,
      "inputs": [
        {
          "indexed": true,
          "internalType": "address",
          "name": "user",
          "type": "address"
        }
      ],
      "name": "UserDeleted",
      "type": "event"
    },
    {
      "anonymous": false,
      "inputs": [
        {
          "indexed": true,
          "internalType": "address",
          "name": "user",
          "type": "address"
        },
        {
          "indexed": false,
          "internalType": "string",
          "name": "token",
          "type": "string"
        },
        {
          "indexed": false,
          "internalType": "uint256",
          "name": "amount",
          "type": "uint256"
        }
      ],
      "name": "Withdrawal",
      "type": "event"
    },
    {
      "stateMutability": "payable",
      "type": "fallback"
    },
    {
      "inputs": [],
      "name": "DAI",
      "outputs": [
        {
          "internalType": "address",
          "name": "",
          "type": "address"
        }
      ],
      "stateMutability": "view",
      "type": "function"
    },
    {
      "inputs": [],
      "name": "MATICvUSD",
      "outputs": [
        {
          "internalType": "address",
          "name": "",
          "type": "address"
        }
      ],
      "stateMutability": "view",
      "type": "function"
    },
    {
      "inputs": [],
      "name": "WETHGateway",
      "outputs": [
        {
          "internalType": "contract IWETHGateway",
          "name": "",
          "type": "address"
        }
      ],
      "stateMutability": "view",
      "type": "function"
    },
    {
      "inputs": [
        {
          "internalType": "address",
          "name": "_newOwner",
          "type": "address"
        }
      ],
      "name": "addOwner",
      "outputs": [],
      "stateMutability": "nonpayable",
      "type": "function"
    },
    {
      "inputs": [],
      "name": "addUser",
      "outputs": [],
      "stateMutability": "nonpayable",
      "type": "function"
    },
    {
      "inputs": [
        {
          "internalType": "bytes",
          "name": "checkData",
          "type": "bytes"
        }
      ],
      "name": "checkUpkeep",
      "outputs": [
        {
          "internalType": "bool",
          "name": "upkeepNeeded",
          "type": "bool"
        },
        {
          "internalType": "bytes",
          "name": "performData",
          "type": "bytes"
        }
      ],
      "stateMutability": "view",
      "type": "function"
    },
    {
      "inputs": [
        {
          "internalType": "address",
          "name": "_delOwner",
          "type": "address"
        }
      ],
      "name": "delOwner",
      "outputs": [],
      "stateMutability": "nonpayable",
      "type": "function"
    },
    {
      "inputs": [],
      "name": "delUser",
      "outputs": [],
      "stateMutability": "nonpayable",
      "type": "function"
    },
    {
      "inputs": [],
      "name": "depositMATIC",
      "outputs": [],
      "stateMutability": "payable",
      "type": "function"
    },
    {
      "inputs": [
        {
          "internalType": "int256",
          "name": "_liquidationPrice",
          "type": "int256"
        }
      ],
      "name": "depositMATIC",
      "outputs": [],
      "stateMutability": "payable",
      "type": "function"
    },
    {
      "inputs": [],
      "name": "getBalanceDAI",
      "outputs": [
        {
          "internalType": "uint256",
          "name": "",
          "type": "uint256"
        }
      ],
      "stateMutability": "view",
      "type": "function"
    },
    {
      "inputs": [],
      "name": "getBalanceMATIC",
      "outputs": [
        {
          "internalType": "uint256",
          "name": "",
          "type": "uint256"
        }
      ],
      "stateMutability": "view",
      "type": "function"
    },
    {
      "inputs": [],
      "name": "getContractBalanceDAI",
      "outputs": [
        {
          "internalType": "uint256",
          "name": "",
          "type": "uint256"
        }
      ],
      "stateMutability": "view",
      "type": "function"
    },
    {
      "inputs": [],
      "name": "getContractBalanceMATIC",
      "outputs": [
        {
          "internalType": "uint256",
          "name": "",
          "type": "uint256"
        }
      ],
      "stateMutability": "view",
      "type": "function"
    },
    {
      "inputs": [],
      "name": "getContractBalanceWMatic",
      "outputs": [
        {
          "internalType": "uint256",
          "name": "",
          "type": "uint256"
        }
      ],
      "stateMutability": "view",
      "type": "function"
    },
    {
      "inputs": [],
      "name": "getLatestPrice",
      "outputs": [
        {
          "internalType": "int256",
          "name": "",
          "type": "int256"
        }
      ],
      "stateMutability": "view",
      "type": "function"
    },
    {
      "inputs": [
        {
          "internalType": "address",
          "name": "_addr",
          "type": "address"
        }
      ],
      "name": "getLiquidationPrice",
      "outputs": [
        {
          "internalType": "int256",
          "name": "",
          "type": "int256"
        }
      ],
      "stateMutability": "view",
      "type": "function"
    },
    {
      "inputs": [],
      "name": "getLiquidationPrice",
      "outputs": [
        {
          "internalType": "int256",
          "name": "",
          "type": "int256"
        }
      ],
      "stateMutability": "view",
      "type": "function"
    },
    {
      "inputs": [],
      "name": "numOwners",
      "outputs": [
        {
          "internalType": "uint256",
          "name": "",
          "type": "uint256"
        }
      ],
      "stateMutability": "view",
      "type": "function"
    },
    {
      "inputs": [
        {
          "internalType": "address",
          "name": "",
          "type": "address"
        }
      ],
      "name": "owners",
      "outputs": [
        {
          "internalType": "bool",
          "name": "",
          "type": "bool"
        }
      ],
      "stateMutability": "view",
      "type": "function"
    },
    {
      "inputs": [
        {
          "internalType": "bytes",
          "name": "performData",
          "type": "bytes"
        }
      ],
      "name": "performUpkeep",
      "outputs": [],
      "stateMutability": "nonpayable",
      "type": "function"
    },
    {
      "inputs": [],
      "name": "poolFee",
      "outputs": [
        {
          "internalType": "uint24",
          "name": "",
          "type": "uint24"
        }
      ],
      "stateMutability": "view",
      "type": "function"
    },
    {
      "inputs": [],
      "name": "priceDropAmount",
      "outputs": [
        {
          "internalType": "int256",
          "name": "",
          "type": "int256"
        }
      ],
      "stateMutability": "view",
      "type": "function"
    },
    {
      "inputs": [],
      "name": "routerAddress",
      "outputs": [
        {
          "internalType": "address",
          "name": "",
          "type": "address"
        }
      ],
      "stateMutability": "view",
      "type": "function"
    },
    {
      "inputs": [],
      "name": "sendDAI",
      "outputs": [],
      "stateMutability": "nonpayable",
      "type": "function"
    },
    {
      "inputs": [],
      "name": "sendMATIC",
      "outputs": [],
      "stateMutability": "nonpayable",
      "type": "function"
    },
    {
      "inputs": [
        {
          "internalType": "int256",
          "name": "_liquidationPrice",
          "type": "int256"
        }
      ],
      "name": "setLiquidationPrice",
      "outputs": [],
      "stateMutability": "nonpayable",
      "type": "function"
    },
    {
      "inputs": [
        {
          "internalType": "int256",
          "name": "_priceDrop",
          "type": "int256"
        }
      ],
      "name": "setPriceDrop",
      "outputs": [],
      "stateMutability": "nonpayable",
      "type": "function"
    },
    {
      "inputs": [],
      "name": "transferWMatic",
      "outputs": [],
      "stateMutability": "nonpayable",
      "type": "function"
    },
    {
      "inputs": [
        {
          "internalType": "address",
          "name": "",
          "type": "address"
        }
      ],
      "name": "users",
      "outputs": [
        {
          "internalType": "uint256",
          "name": "usersIndexPosition",
          "type": "uint256"
        },
        {
          "internalType": "int256",
          "name": "liquidationPrice",
          "type": "int256"
        },
        {
          "internalType": "uint256",
          "name": "balanceMATIC",
          "type": "uint256"
        },
        {
          "internalType": "uint256",
          "name": "balanceDAI",
          "type": "uint256"
        }
      ],
      "stateMutability": "view",
      "type": "function"
    },
    {
      "inputs": [
        {
          "internalType": "uint256",
          "name": "",
          "type": "uint256"
        }
      ],
      "name": "usersIndex",
      "outputs": [
        {
          "internalType": "address",
          "name": "",
          "type": "address"
        }
      ],
      "stateMutability": "view",
      "type": "function"
    },
    {
      "inputs": [],
      "name": "wMatic",
      "outputs": [
        {
          "internalType": "contract IERC20",
          "name": "",
          "type": "address"
        }
      ],
      "stateMutability": "view",
      "type": "function"
    },
    {
      "inputs": [
        {
          "internalType": "uint256",
          "name": "_amount",
          "type": "uint256"
        }
      ],
      "name": "withdrawDAI",
      "outputs": [],
      "stateMutability": "nonpayable",
      "type": "function"
    },
    {
      "inputs": [
        {
          "internalType": "uint256",
          "name": "_amount",
          "type": "uint256"
        }
      ],
      "name": "withdrawMATIC",
      "outputs": [],
      "stateMutability": "nonpayable",
      "type": "function"
    },
    {
      "inputs": [],
      "name": "withdrawSendMatic",
      "outputs": [],
      "stateMutability": "nonpayable",
      "type": "function"
    },
    {
      "inputs": [],
      "name": "withdrawlLiquidity",
      "outputs": [],
      "stateMutability": "nonpayable",
      "type": "function"
    },
    {
      "stateMutability": "payable",
      "type": "receive"
    }
  ],
  "bytecode": "0x60c060405273d0d5e3db44de05e9f294bb0a3beeaf030de24ada6000806101000a81548173ffffffffffffffffffffffffffffffffffffffff021916908373ffffffffffffffffffffffffffffffffffffffff16021790555060008054906101000a900473ffffffffffffffffffffffffffffffffffffffff16600160006101000a81548173ffffffffffffffffffffffffffffffffffffffff021916908373ffffffffffffffffffffffffffffffffffffffff16021790555073e592427a0aece92de3edee1f18e0157c0586156473ffffffffffffffffffffffffffffffffffffffff1660809073ffffffffffffffffffffffffffffffffffffffff1660601b815250739c3c9283d3e44854697cd22d3faa240cfb032889600260006101000a81548173ffffffffffffffffffffffffffffffffffffffff021916908373ffffffffffffffffffffffffffffffffffffffff160217905550721b3b4d0f3714ca98ba10f6042daebf0b1b7b6f600360006101000a81548173ffffffffffffffffffffffffffffffffffffffff021916908373ffffffffffffffffffffffffffffffffffffffff160217905550736c9fb0d5bd9429eb9cd96b85b81d872281771e6b600460006101000a81548173ffffffffffffffffffffffffffffffffffffffff021916908373ffffffffffffffffffffffffffffffffffffffff160217905550732a58e9bbb5434fda7ff78051a4b82cb0ef669c1773ffffffffffffffffffffffffffffffffffffffff1660a09073ffffffffffffffffffffffffffffffffffffffff1660601b8152507389a6ae840b3f8f489418933a220315eea36d11ff600560006101000a81548173ffffffffffffffffffffffffffffffffffffffff021916908373ffffffffffffffffffffffffffffffffffffffff160217905550348015620002ad57600080fd5b506001600660003373ffffffffffffffffffffffffffffffffffffffff1673ffffffffffffffffffffffffffffffffffffffff16815260200190815260200160002060006101000a81548160ff021916908315150217905550600760008154620003179062000392565b91905081905550600860009080600181540180825580915050600190039060005260206000200160009091909190916101000a81548173ffffffffffffffffffffffffffffffffffffffff021916908373ffffffffffffffffffffffffffffffffffffffff1602179055506200040f565b6000819050919050565b60006200039f8262000388565b91507fffffffffffffffffffffffffffffffffffffffffffffffffffffffffffffffff821415620003d557620003d4620003e0565b5b600182019050919050565b7f4e487b7100000000000000000000000000000000000000000000000000000000600052601160045260246000fd5b60805160601c60a05160601c61422b6200047a60003960008181610abe01528181611228015281816112ba015281816117f80152818161188a015281816121b40152818161224601528181612ac201528181612c9a0152612d2c01526000612fd1015261422b6000f3fe6080604052600436106102135760003560e01c806373984188116101185780638e15f473116100a0578063b4576cd11161006f578063b4576cd114610708578063c8f52baf14610733578063ce79d74f1461074a578063e0bab4c414610766578063f4bf45e3146107915761021a565b80638e15f473146106495780639add743814610674578063a0367eb81461069d578063a87430ba146106c85761021a565b806384ef904e116100e757806384ef904e1461058657806384f2b9c3146105b157806387ab18e1146105dc5780638855d7fa14610607578063899478a6146106325761021a565b806373984188146104f4578063779b0b1d1461051d5780637d606cfc14610546578063816837e31461055d5761021a565b8063454765751161019b57806353315c6c1161016a57806353315c6c14610422578063659a0e961461044b5780636c716898146104625780636e04ff0d1461048d5780637065cb48146104cb5761021a565b806345476575146103a0578063455c928c146103b75780634585e33b146103ce57806346558d1b146103f75761021a565b806317d8de82116101e257806317d8de82146102ec5780631c3fb16f146103295780631d9053e0146103405780633268cc561461034a5780633c81fdb4146103755761021a565b8063022914a71461021c57806302f5547114610259578063089fe6aa1461028457806310fdda09146102af5761021a565b3661021a57005b005b34801561022857600080fd5b50610243600480360381019061023e919061316c565b6107bc565b604051610250919061377f565b60405180910390f35b34801561026557600080fd5b5061026e6107dc565b60405161027b91906139ce565b60405180910390f35b34801561029057600080fd5b50610299610826565b6040516102a691906139b3565b60405180910390f35b3480156102bb57600080fd5b506102d660048036038101906102d19190613240565b61082c565b6040516102e391906136cd565b60405180910390f35b3480156102f857600080fd5b50610313600480360381019061030e919061316c565b61086b565b6040516103209190613800565b60405180910390f35b34801561033557600080fd5b5061033e6108b7565b005b6103486109b4565b005b34801561035657600080fd5b5061035f610cd5565b60405161036c91906136cd565b60405180910390f35b34801561038157600080fd5b5061038a610ced565b60405161039791906137ca565b60405180910390f35b3480156103ac57600080fd5b506103b5610d13565b005b3480156103c357600080fd5b506103cc610f01565b005b3480156103da57600080fd5b506103f560048036038101906103f091906131c6565b6110e0565b005b34801561040357600080fd5b5061040c61155e565b6040516104199190613800565b60405180910390f35b34801561042e57600080fd5b5061044960048036038101906104449190613213565b6115a8565b005b34801561045757600080fd5b50610460611678565b005b34801561046e57600080fd5b506104776119ac565b60405161048491906139ce565b60405180910390f35b34801561049957600080fd5b506104b460048036038101906104af91906131c6565b6119f6565b6040516104c292919061379a565b60405180910390f35b3480156104d757600080fd5b506104f260048036038101906104ed919061316c565b611b78565b005b34801561050057600080fd5b5061051b6004803603810190610516919061316c565b611c75565b005b34801561052957600080fd5b50610544600480360381019061053f9190613213565b611e43565b005b34801561055257600080fd5b5061055b611ed9565b005b34801561056957600080fd5b50610584600480360381019061057f9190613240565b6120c7565b005b34801561059257600080fd5b5061059b6123f5565b6040516105a891906139ce565b60405180910390f35b3480156105bd57600080fd5b506105c66124a7565b6040516105d391906139ce565b60405180910390f35b3480156105e857600080fd5b506105f16124af565b6040516105fe91906139ce565b60405180910390f35b34801561061357600080fd5b5061061c6124b5565b60405161062991906136cd565b60405180910390f35b34801561063e57600080fd5b506106476124d9565b005b34801561065557600080fd5b5061065e61284b565b60405161066b9190613800565b60405180910390f35b34801561068057600080fd5b5061069b60048036038101906106969190613240565b612916565b005b3480156106a957600080fd5b506106b2612ac0565b6040516106bf91906137e5565b60405180910390f35b3480156106d457600080fd5b506106ef60048036038101906106ea919061316c565b612ae4565b6040516106ff94939291906139e9565b60405180910390f35b34801561071457600080fd5b5061071d612b14565b60405161072a9190613800565b60405180910390f35b34801561073f57600080fd5b50610748612b1a565b005b610764600480360381019061075f9190613213565b612ddf565b005b34801561077257600080fd5b5061077b612e31565b60405161078891906136cd565b60405180910390f35b34801561079d57600080fd5b506107a6612e48565b6040516107b391906139ce565b60405180910390f35b60066020528060005260406000206000915054906101000a900460ff1681565b6000600960003373ffffffffffffffffffffffffffffffffffffffff1673ffffffffffffffffffffffffffffffffffffffff16815260200190815260200160002060020154905090565b610bb881565b6008818154811061083c57600080fd5b906000526020600020016000915054906101000a900473ffffffffffffffffffffffffffffffffffffffff1681565b6000600960008373ffffffffffffffffffffffffffffffffffffffff1673ffffffffffffffffffffffffffffffffffffffff168152602001908152602001600020600101549050919050565b600660003373ffffffffffffffffffffffffffffffffffffffff1673ffffffffffffffffffffffffffffffffffffffff16815260200190815260200160002060009054906101000a900460ff16610943576040517f08c379a000000000000000000000000000000000000000000000000000000000815260040161093a906138d7565b60405180910390fd5b60004790503373ffffffffffffffffffffffffffffffffffffffff168160405161096c906136b8565b60006040518083038185875af1925050503d80600081146109a9576040519150601f19603f3d011682016040523d82523d6000602084013e6109ae565b606091505b50505050565b6000600960003373ffffffffffffffffffffffffffffffffffffffff1673ffffffffffffffffffffffffffffffffffffffff168152602001908152602001600020600001541415610a0857610a07610f01565b5b60003090506000600560009054906101000a900473ffffffffffffffffffffffffffffffffffffffff1673ffffffffffffffffffffffffffffffffffffffff166370a08231836040518263ffffffff1660e01b8152600401610a6a91906136cd565b60206040518083038186803b158015610a8257600080fd5b505afa158015610a96573d6000803e3d6000fd5b505050506040513d601f19601f82011682018060405250810190610aba919061326d565b90507f000000000000000000000000000000000000000000000000000000000000000073ffffffffffffffffffffffffffffffffffffffff1663474cf53d34600460009054906101000a900473ffffffffffffffffffffffffffffffffffffffff168560006040518563ffffffff1660e01b8152600401610b3d939291906136e8565b6000604051808303818588803b158015610b5657600080fd5b505af1158015610b6a573d6000803e3d6000fd5b5050505050600081600560009054906101000a900473ffffffffffffffffffffffffffffffffffffffff1673ffffffffffffffffffffffffffffffffffffffff166370a08231856040518263ffffffff1660e01b8152600401610bcd91906136cd565b60206040518083038186803b158015610be557600080fd5b505afa158015610bf9573d6000803e3d6000fd5b505050506040513d601f19601f82011682018060405250810190610c1d919061326d565b610c279190613c4a565b905080600960003373ffffffffffffffffffffffffffffffffffffffff1673ffffffffffffffffffffffffffffffffffffffff1681526020019081526020016000206002016000828254610c7b9190613ad5565b925050819055503373ffffffffffffffffffffffffffffffffffffffff167f2d4b597935f3cd67fb2eebf1db4debc934cee5c7baa7153f980fdbeb2e74084e82604051610cc891906138a9565b60405180910390a2505050565b73e592427a0aece92de3edee1f18e0157c0586156481565b600560009054906101000a900473ffffffffffffffffffffffffffffffffffffffff1681565b600660003373ffffffffffffffffffffffffffffffffffffffff1673ffffffffffffffffffffffffffffffffffffffff16815260200190815260200160002060009054906101000a900460ff16610d9f576040517f08c379a0000000000000000000000000000000000000000000000000000000008152600401610d96906138d7565b60405180910390fd5b6000600360009054906101000a900473ffffffffffffffffffffffffffffffffffffffff1673ffffffffffffffffffffffffffffffffffffffff166370a08231306040518263ffffffff1660e01b8152600401610dfc91906136cd565b60206040518083038186803b158015610e1457600080fd5b505afa158015610e28573d6000803e3d6000fd5b505050506040513d601f19601f82011682018060405250810190610e4c919061326d565b9050600360009054906101000a900473ffffffffffffffffffffffffffffffffffffffff1673ffffffffffffffffffffffffffffffffffffffff1663a9059cbb33836040518363ffffffff1660e01b8152600401610eab92919061371f565b602060405180830381600087803b158015610ec557600080fd5b505af1158015610ed9573d6000803e3d6000fd5b505050506040513d601f19601f82011682018060405250810190610efd9190613199565b5050565b6000600960003373ffffffffffffffffffffffffffffffffffffffff1673ffffffffffffffffffffffffffffffffffffffff1681526020019081526020016000206000015414610f86576040517f08c379a0000000000000000000000000000000000000000000000000000000008152600401610f7d9061381b565b60405180910390fd5b6008339080600181540180825580915050600190039060005260206000200160009091909190916101000a81548173ffffffffffffffffffffffffffffffffffffffff021916908373ffffffffffffffffffffffffffffffffffffffff160217905550604051806080016040528060088054905081526020017fffffffffffffffffffffffffffffffffffffffffffffffffffffffffffffffff8152602001600081526020016000815250600960003373ffffffffffffffffffffffffffffffffffffffff1673ffffffffffffffffffffffffffffffffffffffff168152602001908152602001600020600082015181600001556020820151816001015560408201518160020155606082015181600301559050503373ffffffffffffffffffffffffffffffffffffffff167f19ef9a4877199f89440a26acb26895ec02ed86f2df1aeaa90dc18041b892f71f60405160405180910390a2565b60006110ea61284b565b905060008060005b858590508110156111d9578585829060148461110e9190613ad5565b9261111b93929190613a9a565b906111269190613d2f565b60601c9150600960008373ffffffffffffffffffffffffffffffffffffffff1673ffffffffffffffffffffffffffffffffffffffff1681526020019081526020016000206001015484136111c557600960008373ffffffffffffffffffffffffffffffffffffffff1673ffffffffffffffffffffffffffffffffffffffff16815260200190815260200160002060020154836111c29190613ad5565b92505b6014816111d29190613ad5565b90506110f2565b506000821115611557576000309050600560009054906101000a900473ffffffffffffffffffffffffffffffffffffffff1673ffffffffffffffffffffffffffffffffffffffff1663095ea7b37f0000000000000000000000000000000000000000000000000000000000000000856040518363ffffffff1660e01b815260040161126592919061371f565b602060405180830381600087803b15801561127f57600080fd5b505af1158015611293573d6000803e3d6000fd5b505050506040513d601f19601f820116820180604052508101906112b79190613199565b507f000000000000000000000000000000000000000000000000000000000000000073ffffffffffffffffffffffffffffffffffffffff166380500d20600460009054906101000a900473ffffffffffffffffffffffffffffffffffffffff1685846040518463ffffffff1660e01b815260040161133793929190613748565b600060405180830381600087803b15801561135157600080fd5b505af1158015611365573d6000803e3d6000fd5b50505050600061137484612efa565b9050600081111561151a5760005b87879050811015611518578787829060148461139e9190613ad5565b926113ab93929190613a9a565b906113b69190613d2f565b60601c9350600960008573ffffffffffffffffffffffffffffffffffffffff1673ffffffffffffffffffffffffffffffffffffffff16815260200190815260200160002060010154861361150457600085600960008773ffffffffffffffffffffffffffffffffffffffff1673ffffffffffffffffffffffffffffffffffffffff16815260200190815260200160002060020154846114559190613b5c565b61145f9190613b2b565b905080600960008773ffffffffffffffffffffffffffffffffffffffff1673ffffffffffffffffffffffffffffffffffffffff16815260200190815260200160002060030160008282546114b39190613ad5565b925050819055506000600960008773ffffffffffffffffffffffffffffffffffffffff1673ffffffffffffffffffffffffffffffffffffffff16815260200190815260200160002060020181905550505b6014816115119190613ad5565b9050611382565b505b847f6d849981c611af330f71fdd5474d305fe6aaf66db1776f284d113e26b3967941858360405161154c929190613a2e565b60405180910390a250505b5050505050565b6000600960003373ffffffffffffffffffffffffffffffffffffffff1673ffffffffffffffffffffffffffffffffffffffff16815260200190815260200160002060010154905090565b6000600960003373ffffffffffffffffffffffffffffffffffffffff1673ffffffffffffffffffffffffffffffffffffffff16815260200190815260200160002060000154141561162e576040517f08c379a0000000000000000000000000000000000000000000000000000000008152600401611625906138f7565b60405180910390fd5b80600960003373ffffffffffffffffffffffffffffffffffffffff1673ffffffffffffffffffffffffffffffffffffffff1681526020019081526020016000206001018190555050565b600660003373ffffffffffffffffffffffffffffffffffffffff1673ffffffffffffffffffffffffffffffffffffffff16815260200190815260200160002060009054906101000a900460ff16611704576040517f08c379a00000000000000000000000000000000000000000000000000000000081526004016116fb906138d7565b60405180910390fd5b60003090506000600560009054906101000a900473ffffffffffffffffffffffffffffffffffffffff1673ffffffffffffffffffffffffffffffffffffffff166370a08231836040518263ffffffff1660e01b815260040161176691906136cd565b60206040518083038186803b15801561177e57600080fd5b505afa158015611792573d6000803e3d6000fd5b505050506040513d601f19601f820116820180604052508101906117b6919061326d565b9050600560009054906101000a900473ffffffffffffffffffffffffffffffffffffffff1673ffffffffffffffffffffffffffffffffffffffff1663095ea7b37f0000000000000000000000000000000000000000000000000000000000000000836040518363ffffffff1660e01b815260040161183592919061371f565b602060405180830381600087803b15801561184f57600080fd5b505af1158015611863573d6000803e3d6000fd5b505050506040513d601f19601f820116820180604052508101906118879190613199565b507f000000000000000000000000000000000000000000000000000000000000000073ffffffffffffffffffffffffffffffffffffffff166380500d20600460009054906101000a900473ffffffffffffffffffffffffffffffffffffffff1683856040518463ffffffff1660e01b815260040161190793929190613748565b600060405180830381600087803b15801561192157600080fd5b505af1158015611935573d6000803e3d6000fd5b5050505060004790503373ffffffffffffffffffffffffffffffffffffffff1681604051611962906136b8565b60006040518083038185875af1925050503d806000811461199f576040519150601f19603f3d011682016040523d82523d6000602084013e6119a4565b606091505b505050505050565b6000600960003373ffffffffffffffffffffffffffffffffffffffff1673ffffffffffffffffffffffffffffffffffffffff16815260200190815260200160002060030154905090565b600060606000611a0461284b565b90506000600190505b600880549050811015611b605760006009600060088481548110611a3457611a33613f3f565b5b9060005260206000200160009054906101000a900473ffffffffffffffffffffffffffffffffffffffff1673ffffffffffffffffffffffffffffffffffffffff1673ffffffffffffffffffffffffffffffffffffffff168152602001908152602001600020604051806080016040529081600082015481526020016001820154815260200160028201548152602001600382015481525050905080602001518313158015611ae6575060008160400151115b15611b4e578360088381548110611b0057611aff613f3f565b5b9060005260206000200160009054906101000a900473ffffffffffffffffffffffffffffffffffffffff16604051602001611b3c929190613690565b60405160208183030381529060405293505b5080611b5990613e45565b9050611a0d565b50600082511115611b7057600192505b509250929050565b600660003373ffffffffffffffffffffffffffffffffffffffff1673ffffffffffffffffffffffffffffffffffffffff16815260200190815260200160002060009054906101000a900460ff16611c04576040517f08c379a0000000000000000000000000000000000000000000000000000000008152600401611bfb906138d7565b60405180910390fd5b6001600660008373ffffffffffffffffffffffffffffffffffffffff1673ffffffffffffffffffffffffffffffffffffffff16815260200190815260200160002060006101000a81548160ff021916908315150217905550600760008154611c6b90613e45565b9190508190555050565b600660003373ffffffffffffffffffffffffffffffffffffffff1673ffffffffffffffffffffffffffffffffffffffff16815260200190815260200160002060009054906101000a900460ff16611d01576040517f08c379a0000000000000000000000000000000000000000000000000000000008152600401611cf8906138d7565b60405180910390fd5b600160075411611d46576040517f08c379a0000000000000000000000000000000000000000000000000000000008152600401611d3d9061383b565b60405180910390fd5b600660008273ffffffffffffffffffffffffffffffffffffffff1673ffffffffffffffffffffffffffffffffffffffff16815260200190815260200160002060009054906101000a900460ff16611dd2576040517f08c379a0000000000000000000000000000000000000000000000000000000008152600401611dc990613937565b60405180910390fd5b6000600660008373ffffffffffffffffffffffffffffffffffffffff1673ffffffffffffffffffffffffffffffffffffffff16815260200190815260200160002060006101000a81548160ff021916908315150217905550600760008154611e3990613e1b565b9190508190555050565b600660003373ffffffffffffffffffffffffffffffffffffffff1673ffffffffffffffffffffffffffffffffffffffff16815260200190815260200160002060009054906101000a900460ff16611ecf576040517f08c379a0000000000000000000000000000000000000000000000000000000008152600401611ec6906138d7565b60405180910390fd5b80600a8190555050565b600660003373ffffffffffffffffffffffffffffffffffffffff1673ffffffffffffffffffffffffffffffffffffffff16815260200190815260200160002060009054906101000a900460ff16611f65576040517f08c379a0000000000000000000000000000000000000000000000000000000008152600401611f5c906138d7565b60405180910390fd5b6000600560009054906101000a900473ffffffffffffffffffffffffffffffffffffffff1673ffffffffffffffffffffffffffffffffffffffff166370a08231306040518263ffffffff1660e01b8152600401611fc291906136cd565b60206040518083038186803b158015611fda57600080fd5b505afa158015611fee573d6000803e3d6000fd5b505050506040513d601f19601f82011682018060405250810190612012919061326d565b9050600560009054906101000a900473ffffffffffffffffffffffffffffffffffffffff1673ffffffffffffffffffffffffffffffffffffffff1663a9059cbb33836040518363ffffffff1660e01b815260040161207192919061371f565b602060405180830381600087803b15801561208b57600080fd5b505af115801561209f573d6000803e3d6000fd5b505050506040513d601f19601f820116820180604052508101906120c39190613199565b5050565b60006120d16107dc565b905080821115612116576040517f08c379a000000000000000000000000000000000000000000000000000000000815260040161210d9061385b565b60405180910390fd5b81600960003373ffffffffffffffffffffffffffffffffffffffff1673ffffffffffffffffffffffffffffffffffffffff16815260200190815260200160002060020160008282546121689190613c4a565b925050819055506000309050600560009054906101000a900473ffffffffffffffffffffffffffffffffffffffff1673ffffffffffffffffffffffffffffffffffffffff1663095ea7b37f0000000000000000000000000000000000000000000000000000000000000000856040518363ffffffff1660e01b81526004016121f192919061371f565b602060405180830381600087803b15801561220b57600080fd5b505af115801561221f573d6000803e3d6000fd5b505050506040513d601f19601f820116820180604052508101906122439190613199565b507f000000000000000000000000000000000000000000000000000000000000000073ffffffffffffffffffffffffffffffffffffffff166380500d20600460009054906101000a900473ffffffffffffffffffffffffffffffffffffffff1685846040518463ffffffff1660e01b81526004016122c393929190613748565b600060405180830381600087803b1580156122dd57600080fd5b505af11580156122f1573d6000803e3d6000fd5b5050505060003373ffffffffffffffffffffffffffffffffffffffff168460405161231b906136b8565b60006040518083038185875af1925050503d8060008114612358576040519150601f19603f3d011682016040523d82523d6000602084013e61235d565b606091505b50509050806123a1576040517f08c379a000000000000000000000000000000000000000000000000000000000815260040161239890613977565b60405180910390fd5b3373ffffffffffffffffffffffffffffffffffffffff167f323cefffcafc4dae937c4a852e3866ecde9e8c1d723e1187230b982201040fb6856040516123e791906138a9565b60405180910390a250505050565b6000600360009054906101000a900473ffffffffffffffffffffffffffffffffffffffff1673ffffffffffffffffffffffffffffffffffffffff166370a08231306040518263ffffffff1660e01b815260040161245291906136cd565b60206040518083038186803b15801561246a57600080fd5b505afa15801561247e573d6000803e3d6000fd5b505050506040513d601f19601f820116820180604052508101906124a2919061326d565b905090565b600047905090565b60075481565b60008054906101000a900473ffffffffffffffffffffffffffffffffffffffff1681565b6000600960003373ffffffffffffffffffffffffffffffffffffffff1673ffffffffffffffffffffffffffffffffffffffff16815260200190815260200160002060000154141561255f576040517f08c379a0000000000000000000000000000000000000000000000000000000008152600401612556906138f7565b60405180910390fd5b6000600960003373ffffffffffffffffffffffffffffffffffffffff1673ffffffffffffffffffffffffffffffffffffffff16815260200190815260200160002060020154146125e4576040517f08c379a00000000000000000000000000000000000000000000000000000000081526004016125db90613917565b60405180910390fd5b6000600960003373ffffffffffffffffffffffffffffffffffffffff1673ffffffffffffffffffffffffffffffffffffffff1681526020019081526020016000206003015414612669576040517f08c379a000000000000000000000000000000000000000000000000000000000815260040161266090613957565b60405180910390fd5b6000600960003373ffffffffffffffffffffffffffffffffffffffff1673ffffffffffffffffffffffffffffffffffffffff168152602001908152602001600020600001549050600860016008805490506126c49190613c4a565b815481106126d5576126d4613f3f565b5b9060005260206000200160009054906101000a900473ffffffffffffffffffffffffffffffffffffffff166008828154811061271457612713613f3f565b5b9060005260206000200160006101000a81548173ffffffffffffffffffffffffffffffffffffffff021916908373ffffffffffffffffffffffffffffffffffffffff160217905550600880548061276e5761276d613f10565b5b6001900381819060005260206000200160006101000a81549073ffffffffffffffffffffffffffffffffffffffff02191690559055600960003373ffffffffffffffffffffffffffffffffffffffff1673ffffffffffffffffffffffffffffffffffffffff16815260200190815260200160002060008082016000905560018201600090556002820160009055600382016000905550503373ffffffffffffffffffffffffffffffffffffffff167f4bc56f1321288dfb5b416cb3a7fd188723979f9e866c91d88eccf7fca039d03960405160405180910390a250565b600080600080600080600160009054906101000a900473ffffffffffffffffffffffffffffffffffffffff1673ffffffffffffffffffffffffffffffffffffffff1663feaf968c6040518163ffffffff1660e01b815260040160a06040518083038186803b1580156128bc57600080fd5b505afa1580156128d0573d6000803e3d6000fd5b505050506040513d601f19601f820116820180604052508101906128f4919061329a565b94509450945094509450600a548461290c9190613bb6565b9550505050505090565b60006129206119ac565b905080821115612965576040517f08c379a000000000000000000000000000000000000000000000000000000000815260040161295c9061385b565b60405180910390fd5b81600960003373ffffffffffffffffffffffffffffffffffffffff1673ffffffffffffffffffffffffffffffffffffffff16815260200190815260200160002060030160008282546129b79190613c4a565b92505081905550600360009054906101000a900473ffffffffffffffffffffffffffffffffffffffff1673ffffffffffffffffffffffffffffffffffffffff1663a9059cbb33846040518363ffffffff1660e01b8152600401612a1b92919061371f565b602060405180830381600087803b158015612a3557600080fd5b505af1158015612a49573d6000803e3d6000fd5b505050506040513d601f19601f82011682018060405250810190612a6d9190613199565b503373ffffffffffffffffffffffffffffffffffffffff167f323cefffcafc4dae937c4a852e3866ecde9e8c1d723e1187230b982201040fb683604051612ab4919061387b565b60405180910390a25050565b7f000000000000000000000000000000000000000000000000000000000000000081565b60096020528060005260406000206000915090508060000154908060010154908060020154908060030154905084565b600a5481565b600660003373ffffffffffffffffffffffffffffffffffffffff1673ffffffffffffffffffffffffffffffffffffffff16815260200190815260200160002060009054906101000a900460ff16612ba6576040517f08c379a0000000000000000000000000000000000000000000000000000000008152600401612b9d906138d7565b60405180910390fd5b60003090506000600560009054906101000a900473ffffffffffffffffffffffffffffffffffffffff1673ffffffffffffffffffffffffffffffffffffffff166370a08231306040518263ffffffff1660e01b8152600401612c0891906136cd565b60206040518083038186803b158015612c2057600080fd5b505afa158015612c34573d6000803e3d6000fd5b505050506040513d601f19601f82011682018060405250810190612c58919061326d565b9050600560009054906101000a900473ffffffffffffffffffffffffffffffffffffffff1673ffffffffffffffffffffffffffffffffffffffff1663095ea7b37f0000000000000000000000000000000000000000000000000000000000000000836040518363ffffffff1660e01b8152600401612cd792919061371f565b602060405180830381600087803b158015612cf157600080fd5b505af1158015612d05573d6000803e3d6000fd5b505050506040513d601f19601f82011682018060405250810190612d299190613199565b507f000000000000000000000000000000000000000000000000000000000000000073ffffffffffffffffffffffffffffffffffffffff166380500d20600460009054906101000a900473ffffffffffffffffffffffffffffffffffffffff1683856040518463ffffffff1660e01b8152600401612da993929190613748565b600060405180830381600087803b158015612dc357600080fd5b505af1158015612dd7573d6000803e3d6000fd5b505050505050565b612de76109b4565b80600960003373ffffffffffffffffffffffffffffffffffffffff1673ffffffffffffffffffffffffffffffffffffffff1681526020019081526020016000206001018190555050565b721b3b4d0f3714ca98ba10f6042daebf0b1b7b6f81565b6000600560009054906101000a900473ffffffffffffffffffffffffffffffffffffffff1673ffffffffffffffffffffffffffffffffffffffff166370a08231306040518263ffffffff1660e01b8152600401612ea591906136cd565b60206040518083038186803b158015612ebd57600080fd5b505afa158015612ed1573d6000803e3d6000fd5b505050506040513d601f19601f82011682018060405250810190612ef5919061326d565b905090565b600080604051806101000160405280600260009054906101000a900473ffffffffffffffffffffffffffffffffffffffff1673ffffffffffffffffffffffffffffffffffffffff168152602001721b3b4d0f3714ca98ba10f6042daebf0b1b7b6f73ffffffffffffffffffffffffffffffffffffffff168152602001610bb862ffffff1681526020013073ffffffffffffffffffffffffffffffffffffffff16815260200142815260200184815260200160008152602001600073ffffffffffffffffffffffffffffffffffffffff1681525090507f000000000000000000000000000000000000000000000000000000000000000073ffffffffffffffffffffffffffffffffffffffff1663414bf38984836040518363ffffffff1660e01b81526004016130299190613997565b6020604051808303818588803b15801561304257600080fd5b505af1158015613056573d6000803e3d6000fd5b50505050506040513d601f19601f8201168201806040525081019061307b919061326d565b915050919050565b60008135905061309281614182565b92915050565b6000815190506130a781614199565b92915050565b60008083601f8401126130c3576130c2613f73565b5b8235905067ffffffffffffffff8111156130e0576130df613f6e565b5b6020830191508360018202830111156130fc576130fb613f82565b5b9250929050565b600081359050613112816141b0565b92915050565b600081519050613127816141b0565b92915050565b60008135905061313c816141c7565b92915050565b600081519050613151816141c7565b92915050565b600081519050613166816141de565b92915050565b60006020828403121561318257613181613f8c565b5b600061319084828501613083565b91505092915050565b6000602082840312156131af576131ae613f8c565b5b60006131bd84828501613098565b91505092915050565b600080602083850312156131dd576131dc613f8c565b5b600083013567ffffffffffffffff8111156131fb576131fa613f87565b5b613207858286016130ad565b92509250509250929050565b60006020828403121561322957613228613f8c565b5b600061323784828501613103565b91505092915050565b60006020828403121561325657613255613f8c565b5b60006132648482850161312d565b91505092915050565b60006020828403121561328357613282613f8c565b5b600061329184828501613142565b91505092915050565b600080600080600060a086880312156132b6576132b5613f8c565b5b60006132c488828901613157565b95505060206132d588828901613118565b94505060406132e688828901613142565b93505060606132f788828901613142565b925050608061330888828901613157565b9150509295509295909350565b61331e81613c7e565b82525050565b61332d81613c7e565b82525050565b61334461333f82613c7e565b613e8e565b82525050565b61335381613c90565b82525050565b600061336482613a62565b61336e8185613a6d565b935061337e818560208601613de8565b61338781613f91565b840191505092915050565b600061339d82613a62565b6133a78185613a7e565b93506133b7818560208601613de8565b80840191505092915050565b6133cc81613d8e565b82525050565b6133db81613da0565b82525050565b6133ea81613cc8565b82525050565b6133f981613db2565b82525050565b600061340c601283613a89565b915061341782613fbc565b602082019050919050565b600061342f601483613a89565b915061343a82613fe5565b602082019050919050565b6000613452601083613a89565b915061345d8261400e565b602082019050919050565b6000613475600383613a89565b915061348082614037565b602082019050919050565b6000613498600583613a89565b91506134a382614060565b602082019050919050565b60006134bb600b83613a89565b91506134c682614089565b602082019050919050565b60006134de600a83613a89565b91506134e9826140b2565b602082019050919050565b6000613501600083613a7e565b915061350c826140db565b600082019050919050565b6000613524601183613a89565b915061352f826140de565b602082019050919050565b6000613547600c83613a89565b915061355282614107565b602082019050919050565b600061356a600f83613a89565b915061357582614130565b602082019050919050565b600061358d600f83613a89565b915061359882614159565b602082019050919050565b610100820160008201516135ba6000850182613315565b5060208201516135cd6020850182613315565b5060408201516135e06040850182613654565b5060608201516135f36060850182613315565b5060808201516136066080850182613672565b5060a082015161361960a0850182613672565b5060c082015161362c60c0850182613672565b5060e082015161363f60e0850182613645565b50505050565b61364e81613ce0565b82525050565b61365d81613d00565b82525050565b61366c81613d00565b82525050565b61367b81613d0f565b82525050565b61368a81613d0f565b82525050565b600061369c8285613392565b91506136a88284613333565b6014820191508190509392505050565b60006136c3826134f4565b9150819050919050565b60006020820190506136e26000830184613324565b92915050565b60006060820190506136fd6000830186613324565b61370a6020830185613324565b61371760408301846133f0565b949350505050565b60006040820190506137346000830185613324565b6137416020830184613681565b9392505050565b600060608201905061375d6000830186613324565b61376a6020830185613681565b6137776040830184613324565b949350505050565b6000602082019050613794600083018461334a565b92915050565b60006040820190506137af600083018561334a565b81810360208301526137c18184613359565b90509392505050565b60006020820190506137df60008301846133c3565b92915050565b60006020820190506137fa60008301846133d2565b92915050565b600060208201905061381560008301846133e1565b92915050565b60006020820190508181036000830152613834816133ff565b9050919050565b6000602082019050818103600083015261385481613422565b9050919050565b6000602082019050818103600083015261387481613445565b9050919050565b6000604082019050818103600083015261389481613468565b90506138a36020830184613681565b92915050565b600060408201905081810360008301526138c28161348b565b90506138d16020830184613681565b92915050565b600060208201905081810360008301526138f0816134ae565b9050919050565b60006020820190508181036000830152613910816134d1565b9050919050565b6000602082019050818103600083015261393081613517565b9050919050565b600060208201905081810360008301526139508161353a565b9050919050565b600060208201905081810360008301526139708161355d565b9050919050565b6000602082019050818103600083015261399081613580565b9050919050565b6000610100820190506139ad60008301846135a3565b92915050565b60006020820190506139c86000830184613663565b92915050565b60006020820190506139e36000830184613681565b92915050565b60006080820190506139fe6000830187613681565b613a0b60208301866133e1565b613a186040830185613681565b613a256060830184613681565b95945050505050565b6000604082019050613a436000830185613681565b613a506020830184613681565b9392505050565b600082905092915050565b600081519050919050565b600082825260208201905092915050565b600081905092915050565b600082825260208201905092915050565b60008085851115613aae57613aad613f7d565b5b83861115613abf57613abe613f78565b5b6001850283019150848603905094509492505050565b6000613ae082613d0f565b9150613aeb83613d0f565b9250827fffffffffffffffffffffffffffffffffffffffffffffffffffffffffffffffff03821115613b2057613b1f613eb2565b5b828201905092915050565b6000613b3682613d0f565b9150613b4183613d0f565b925082613b5157613b50613ee1565b5b828204905092915050565b6000613b6782613d0f565b9150613b7283613d0f565b9250817fffffffffffffffffffffffffffffffffffffffffffffffffffffffffffffffff0483118215151615613bab57613baa613eb2565b5b828202905092915050565b6000613bc182613cc8565b9150613bcc83613cc8565b9250827f800000000000000000000000000000000000000000000000000000000000000001821260008412151615613c0757613c06613eb2565b5b827f7fffffffffffffffffffffffffffffffffffffffffffffffffffffffffffffff018213600084121615613c3f57613c3e613eb2565b5b828203905092915050565b6000613c5582613d0f565b9150613c6083613d0f565b925082821015613c7357613c72613eb2565b5b828203905092915050565b6000613c8982613ce0565b9050919050565b60008115159050919050565b60007fffffffffffffffffffffffffffffffffffffffff00000000000000000000000082169050919050565b6000819050919050565b600061ffff82169050919050565b600073ffffffffffffffffffffffffffffffffffffffff82169050919050565b600062ffffff82169050919050565b6000819050919050565b600069ffffffffffffffffffff82169050919050565b6000613d3b8383613a57565b82613d468135613c9c565b92506014821015613d8657613d817fffffffffffffffffffffffffffffffffffffffff00000000000000000000000083601403600802613faf565b831692505b505092915050565b6000613d9982613dc4565b9050919050565b6000613dab82613dc4565b9050919050565b6000613dbd82613cd2565b9050919050565b6000613dcf82613dd6565b9050919050565b6000613de182613ce0565b9050919050565b60005b83811015613e06578082015181840152602081019050613deb565b83811115613e15576000848401525b50505050565b6000613e2682613d0f565b91506000821415613e3a57613e39613eb2565b5b600182039050919050565b6000613e5082613d0f565b91507fffffffffffffffffffffffffffffffffffffffffffffffffffffffffffffffff821415613e8357613e82613eb2565b5b600182019050919050565b6000613e9982613ea0565b9050919050565b6000613eab82613fa2565b9050919050565b7f4e487b7100000000000000000000000000000000000000000000000000000000600052601160045260246000fd5b7f4e487b7100000000000000000000000000000000000000000000000000000000600052601260045260246000fd5b7f4e487b7100000000000000000000000000000000000000000000000000000000600052603160045260246000fd5b7f4e487b7100000000000000000000000000000000000000000000000000000000600052603260045260246000fd5b600080fd5b600080fd5b600080fd5b600080fd5b600080fd5b600080fd5b600080fd5b6000601f19601f8301169050919050565b60008160601b9050919050565b600082821b905092915050565b7f7573657220616c72656164792061646465640000000000000000000000000000600082015250565b7f63616e27742064656c206c617374206f776e6572000000000000000000000000600082015250565b7f616d6f756e74203e2062616c616e636500000000000000000000000000000000600082015250565b7f4441490000000000000000000000000000000000000000000000000000000000600082015250565b7f4d41544943000000000000000000000000000000000000000000000000000000600082015250565b7f6f6e6c79206f776e657273000000000000000000000000000000000000000000600082015250565b7f6e6f742061207573657200000000000000000000000000000000000000000000600082015250565b50565b7f4d415449432062616c616e6365203e2030000000000000000000000000000000600082015250565b7f6e6f7420616e206f776e65720000000000000000000000000000000000000000600082015250565b7f4441492062616c616e6365203e20300000000000000000000000000000000000600082015250565b7f7769746864726177206661696c65640000000000000000000000000000000000600082015250565b61418b81613c7e565b811461419657600080fd5b50565b6141a281613c90565b81146141ad57600080fd5b50565b6141b981613cc8565b81146141c457600080fd5b50565b6141d081613d0f565b81146141db57600080fd5b50565b6141e781613d19565b81146141f257600080fd5b5056fea2646970667358221220d59f4b2e1e496c7281d5ccdb8daa74e08a44898fbcbf8f4c5f9d80acbf9ce39164736f6c63430008070033",
  "linkReferences": {},
  "deployedLinkReferences": {}
}