{
  "_format": "hh-sol-artifact-1",
  "contractName": "LiquiswapV7",
  "sourceName": "contracts/LiquiswapV7.sol",
  "abi": [
    {
      "inputs": [],
      "stateMutability": "nonpayable",
      "type": "constructor"
    },
    {
      "anonymous": false,
      "inputs": [
        {
          "indexed": true,
          "internalType": "address",
          "name": "user",
          "type": "address"
        },
        {
          "indexed": false,
          "internalType": "string",
          "name": "token",
          "type": "string"
        },
        {
          "indexed": false,
          "internalType": "uint256",
          "name": "amount",
          "type": "uint256"
        },
        {
          "indexed": false,
          "internalType": "uint256",
          "name": "balance",
          "type": "uint256"
        }
      ],
      "name": "Deposit",
      "type": "event"
    },
    {
      "anonymous": false,
      "inputs": [
        {
          "indexed": true,
          "internalType": "address",
          "name": "charity",
          "type": "address"
        },
        {
          "indexed": false,
          "internalType": "uint256",
          "name": "amount",
          "type": "uint256"
        }
      ],
      "name": "Donation",
      "type": "event"
    },
    {
      "anonymous": false,
      "inputs": [
        {
          "indexed": true,
          "internalType": "address",
          "name": "user",
          "type": "address"
        }
      ],
      "name": "EarnedNFT",
      "type": "event"
    },
    {
      "anonymous": false,
      "inputs": [
        {
          "indexed": true,
          "internalType": "address",
          "name": "user",
          "type": "address"
        },
        {
          "indexed": true,
          "internalType": "int256",
          "name": "price",
          "type": "int256"
        },
        {
          "indexed": false,
          "internalType": "uint256",
          "name": "amountMATIC",
          "type": "uint256"
        },
        {
          "indexed": false,
          "internalType": "uint256",
          "name": "amountDAI",
          "type": "uint256"
        }
      ],
      "name": "Liquidation",
      "type": "event"
    },
    {
      "anonymous": false,
      "inputs": [
        {
          "indexed": true,
          "internalType": "address",
          "name": "user",
          "type": "address"
        }
      ],
      "name": "UserAdded",
      "type": "event"
    },
    {
      "anonymous": false,
      "inputs": [
        {
          "indexed": true,
          "internalType": "address",
          "name": "user",
          "type": "address"
        }
      ],
      "name": "UserDeleted",
      "type": "event"
    },
    {
      "anonymous": false,
      "inputs": [
        {
          "indexed": true,
          "internalType": "address",
          "name": "user",
          "type": "address"
        },
        {
          "indexed": false,
          "internalType": "string",
          "name": "token",
          "type": "string"
        },
        {
          "indexed": false,
          "internalType": "uint256",
          "name": "amount",
          "type": "uint256"
        },
        {
          "indexed": false,
          "internalType": "uint256",
          "name": "donation",
          "type": "uint256"
        }
      ],
      "name": "Withdrawal",
      "type": "event"
    },
    {
      "anonymous": false,
      "inputs": [
        {
          "indexed": true,
          "internalType": "address",
          "name": "user",
          "type": "address"
        },
        {
          "indexed": false,
          "internalType": "string",
          "name": "token",
          "type": "string"
        },
        {
          "indexed": false,
          "internalType": "uint256",
          "name": "amount",
          "type": "uint256"
        }
      ],
      "name": "WithdrawalDAI",
      "type": "event"
    },
    {
      "stateMutability": "payable",
      "type": "fallback"
    },
    {
      "inputs": [
        {
          "internalType": "address",
          "name": "_newOwner",
          "type": "address"
        }
      ],
      "name": "addOwner",
      "outputs": [],
      "stateMutability": "nonpayable",
      "type": "function"
    },
    {
      "inputs": [],
      "name": "addUser",
      "outputs": [],
      "stateMutability": "nonpayable",
      "type": "function"
    },
    {
      "inputs": [
        {
          "internalType": "bytes",
          "name": "",
          "type": "bytes"
        }
      ],
      "name": "checkUpkeep",
      "outputs": [
        {
          "internalType": "bool",
          "name": "upkeepNeeded",
          "type": "bool"
        },
        {
          "internalType": "bytes",
          "name": "performData",
          "type": "bytes"
        }
      ],
      "stateMutability": "view",
      "type": "function"
    },
    {
      "inputs": [
        {
          "internalType": "address",
          "name": "_delOwner",
          "type": "address"
        }
      ],
      "name": "delOwner",
      "outputs": [],
      "stateMutability": "nonpayable",
      "type": "function"
    },
    {
      "inputs": [],
      "name": "delUser",
      "outputs": [],
      "stateMutability": "nonpayable",
      "type": "function"
    },
    {
      "inputs": [
        {
          "internalType": "address",
          "name": "_addr",
          "type": "address"
        }
      ],
      "name": "getAaveWMATICAllowance",
      "outputs": [
        {
          "internalType": "uint256",
          "name": "",
          "type": "uint256"
        }
      ],
      "stateMutability": "view",
      "type": "function"
    },
    {
      "inputs": [],
      "name": "getAaveWMATICAllowance",
      "outputs": [
        {
          "internalType": "uint256",
          "name": "",
          "type": "uint256"
        }
      ],
      "stateMutability": "view",
      "type": "function"
    },
    {
      "inputs": [],
      "name": "getBalanceAaveWMATIC",
      "outputs": [
        {
          "internalType": "uint256",
          "name": "",
          "type": "uint256"
        }
      ],
      "stateMutability": "view",
      "type": "function"
    },
    {
      "inputs": [
        {
          "internalType": "address",
          "name": "_addr",
          "type": "address"
        }
      ],
      "name": "getBalanceAaveWMaticAddr",
      "outputs": [
        {
          "internalType": "uint256",
          "name": "",
          "type": "uint256"
        }
      ],
      "stateMutability": "view",
      "type": "function"
    },
    {
      "inputs": [],
      "name": "getBalanceDAI",
      "outputs": [
        {
          "internalType": "uint256",
          "name": "",
          "type": "uint256"
        }
      ],
      "stateMutability": "view",
      "type": "function"
    },
    {
      "inputs": [],
      "name": "getContractBalanceAaveWMATIC",
      "outputs": [
        {
          "internalType": "uint256",
          "name": "",
          "type": "uint256"
        }
      ],
      "stateMutability": "view",
      "type": "function"
    },
    {
      "inputs": [],
      "name": "getContractBalanceDAI",
      "outputs": [
        {
          "internalType": "uint256",
          "name": "",
          "type": "uint256"
        }
      ],
      "stateMutability": "view",
      "type": "function"
    },
    {
      "inputs": [],
      "name": "getContractBalanceMATIC",
      "outputs": [
        {
          "internalType": "uint256",
          "name": "",
          "type": "uint256"
        }
      ],
      "stateMutability": "view",
      "type": "function"
    },
    {
      "inputs": [],
      "name": "getLatestPrice",
      "outputs": [
        {
          "internalType": "int256",
          "name": "",
          "type": "int256"
        }
      ],
      "stateMutability": "view",
      "type": "function"
    },
    {
      "inputs": [
        {
          "internalType": "address",
          "name": "_addr",
          "type": "address"
        }
      ],
      "name": "getLiquidationPrice",
      "outputs": [
        {
          "internalType": "int256",
          "name": "",
          "type": "int256"
        }
      ],
      "stateMutability": "view",
      "type": "function"
    },
    {
      "inputs": [],
      "name": "getLiquidationPrice",
      "outputs": [
        {
          "internalType": "int256",
          "name": "",
          "type": "int256"
        }
      ],
      "stateMutability": "view",
      "type": "function"
    },
    {
      "inputs": [],
      "name": "getNumNFTs",
      "outputs": [
        {
          "internalType": "uint256",
          "name": "",
          "type": "uint256"
        }
      ],
      "stateMutability": "view",
      "type": "function"
    },
    {
      "inputs": [
        {
          "internalType": "address",
          "name": "_user",
          "type": "address"
        }
      ],
      "name": "getNumNFTs",
      "outputs": [
        {
          "internalType": "uint256",
          "name": "",
          "type": "uint256"
        }
      ],
      "stateMutability": "view",
      "type": "function"
    },
    {
      "inputs": [],
      "name": "getPriceDecimals",
      "outputs": [
        {
          "internalType": "uint8",
          "name": "",
          "type": "uint8"
        }
      ],
      "stateMutability": "view",
      "type": "function"
    },
    {
      "inputs": [],
      "name": "getPrincipal",
      "outputs": [
        {
          "internalType": "uint256",
          "name": "",
          "type": "uint256"
        }
      ],
      "stateMutability": "view",
      "type": "function"
    },
    {
      "inputs": [],
      "name": "isApproved",
      "outputs": [
        {
          "internalType": "bool",
          "name": "",
          "type": "bool"
        }
      ],
      "stateMutability": "view",
      "type": "function"
    },
    {
      "inputs": [
        {
          "internalType": "address",
          "name": "_user",
          "type": "address"
        }
      ],
      "name": "isApproved",
      "outputs": [
        {
          "internalType": "bool",
          "name": "",
          "type": "bool"
        }
      ],
      "stateMutability": "view",
      "type": "function"
    },
    {
      "inputs": [
        {
          "internalType": "address",
          "name": "",
          "type": "address"
        }
      ],
      "name": "owners",
      "outputs": [
        {
          "internalType": "bool",
          "name": "",
          "type": "bool"
        }
      ],
      "stateMutability": "view",
      "type": "function"
    },
    {
      "inputs": [
        {
          "internalType": "bytes",
          "name": "performData",
          "type": "bytes"
        }
      ],
      "name": "performUpkeep",
      "outputs": [],
      "stateMutability": "nonpayable",
      "type": "function"
    },
    {
      "inputs": [],
      "name": "priceDropAmount",
      "outputs": [
        {
          "internalType": "int256",
          "name": "",
          "type": "int256"
        }
      ],
      "stateMutability": "view",
      "type": "function"
    },
    {
      "inputs": [
        {
          "internalType": "address",
          "name": "_charity",
          "type": "address"
        },
        {
          "internalType": "uint256",
          "name": "_amount",
          "type": "uint256"
        }
      ],
      "name": "sendDonation",
      "outputs": [],
      "stateMutability": "nonpayable",
      "type": "function"
    },
    {
      "inputs": [
        {
          "internalType": "int256",
          "name": "_liquidationPrice",
          "type": "int256"
        }
      ],
      "name": "setLiquidationPrice",
      "outputs": [],
      "stateMutability": "nonpayable",
      "type": "function"
    },
    {
      "inputs": [
        {
          "internalType": "address",
          "name": "_addr",
          "type": "address"
        }
      ],
      "name": "setLiquiswapNFT",
      "outputs": [],
      "stateMutability": "nonpayable",
      "type": "function"
    },
    {
      "inputs": [
        {
          "internalType": "uint256",
          "name": "_principal",
          "type": "uint256"
        }
      ],
      "name": "setPrincipal",
      "outputs": [],
      "stateMutability": "nonpayable",
      "type": "function"
    },
    {
      "inputs": [],
      "name": "supplyLiquidity",
      "outputs": [],
      "stateMutability": "payable",
      "type": "function"
    },
    {
      "inputs": [
        {
          "internalType": "int256",
          "name": "_liquidationPrice",
          "type": "int256"
        }
      ],
      "name": "supplyLiquidity",
      "outputs": [],
      "stateMutability": "payable",
      "type": "function"
    },
    {
      "inputs": [
        {
          "internalType": "address",
          "name": "",
          "type": "address"
        }
      ],
      "name": "users",
      "outputs": [
        {
          "internalType": "uint256",
          "name": "usersIndexPosition",
          "type": "uint256"
        },
        {
          "internalType": "uint256",
          "name": "principalMATIC",
          "type": "uint256"
        },
        {
          "internalType": "int256",
          "name": "liquidationPrice",
          "type": "int256"
        },
        {
          "internalType": "uint256",
          "name": "liquidationSharesIn",
          "type": "uint256"
        },
        {
          "internalType": "uint256",
          "name": "balanceDAI",
          "type": "uint256"
        },
        {
          "internalType": "bool",
          "name": "wasLiquidated",
          "type": "bool"
        }
      ],
      "stateMutability": "view",
      "type": "function"
    },
    {
      "inputs": [
        {
          "internalType": "uint256",
          "name": "",
          "type": "uint256"
        }
      ],
      "name": "usersIndex",
      "outputs": [
        {
          "internalType": "address",
          "name": "",
          "type": "address"
        }
      ],
      "stateMutability": "view",
      "type": "function"
    },
    {
      "inputs": [],
      "name": "wasLiquidated",
      "outputs": [
        {
          "internalType": "bool",
          "name": "",
          "type": "bool"
        }
      ],
      "stateMutability": "view",
      "type": "function"
    },
    {
      "inputs": [],
      "name": "withdrawDAI",
      "outputs": [],
      "stateMutability": "nonpayable",
      "type": "function"
    },
    {
      "inputs": [
        {
          "internalType": "uint256",
          "name": "_amount",
          "type": "uint256"
        }
      ],
      "name": "withdrawDAI",
      "outputs": [],
      "stateMutability": "nonpayable",
      "type": "function"
    },
    {
      "inputs": [
        {
          "internalType": "uint256",
          "name": "_amount",
          "type": "uint256"
        }
      ],
      "name": "withdrawLiquidity",
      "outputs": [],
      "stateMutability": "nonpayable",
      "type": "function"
    },
    {
      "inputs": [],
      "name": "withdrawLiquidity",
      "outputs": [],
      "stateMutability": "nonpayable",
      "type": "function"
    },
    {
      "inputs": [
        {
          "internalType": "address",
          "name": "_addr",
          "type": "address"
        },
        {
          "internalType": "uint256",
          "name": "_amount",
          "type": "uint256"
        }
      ],
      "name": "zdevAaveWMATICTransferFrom",
      "outputs": [
        {
          "internalType": "bool",
          "name": "",
          "type": "bool"
        }
      ],
      "stateMutability": "nonpayable",
      "type": "function"
    },
    {
      "inputs": [
        {
          "internalType": "address",
          "name": "_addr",
          "type": "address"
        }
      ],
      "name": "zdevAwardNFT",
      "outputs": [],
      "stateMutability": "nonpayable",
      "type": "function"
    },
    {
      "inputs": [],
      "name": "zdevBurnContractATokens",
      "outputs": [],
      "stateMutability": "nonpayable",
      "type": "function"
    },
    {
      "inputs": [],
      "name": "zdevGetAaveWMATICAllowanceGateway",
      "outputs": [
        {
          "internalType": "uint256",
          "name": "",
          "type": "uint256"
        }
      ],
      "stateMutability": "view",
      "type": "function"
    },
    {
      "inputs": [],
      "name": "zdevLoadMATIConATokenContract",
      "outputs": [],
      "stateMutability": "payable",
      "type": "function"
    },
    {
      "inputs": [],
      "name": "zdevRecoverAaveWMatic",
      "outputs": [],
      "stateMutability": "nonpayable",
      "type": "function"
    },
    {
      "inputs": [],
      "name": "zdevRecoverDAI",
      "outputs": [],
      "stateMutability": "nonpayable",
      "type": "function"
    },
    {
      "inputs": [],
      "name": "zdevRecoverMatic",
      "outputs": [],
      "stateMutability": "nonpayable",
      "type": "function"
    },
    {
      "inputs": [
        {
          "internalType": "int256",
          "name": "_priceDrop",
          "type": "int256"
        }
      ],
      "name": "zdevSetPriceDrop",
      "outputs": [],
      "stateMutability": "nonpayable",
      "type": "function"
    },
    {
      "inputs": [],
      "name": "zdevWithdrawRecoverMatic",
      "outputs": [],
      "stateMutability": "nonpayable",
      "type": "function"
    },
    {
      "stateMutability": "payable",
      "type": "receive"
    }
  ],
  "bytecode": "0x60a060405273d0d5e3db44de05e9f294bb0a3beeaf030de24ada600160006101000a81548173ffffffffffffffffffffffffffffffffffffffff021916908373ffffffffffffffffffffffffffffffffffffffff160217905550600160009054906101000a900473ffffffffffffffffffffffffffffffffffffffff16600260006101000a81548173ffffffffffffffffffffffffffffffffffffffff021916908373ffffffffffffffffffffffffffffffffffffffff16021790555073e592427a0aece92de3edee1f18e0157c0586156473ffffffffffffffffffffffffffffffffffffffff1660809073ffffffffffffffffffffffffffffffffffffffff1660601b815250739c3c9283d3e44854697cd22d3faa240cfb032889600360006101000a81548173ffffffffffffffffffffffffffffffffffffffff021916908373ffffffffffffffffffffffffffffffffffffffff160217905550721b3b4d0f3714ca98ba10f6042daebf0b1b7b6f600460006101000a81548173ffffffffffffffffffffffffffffffffffffffff021916908373ffffffffffffffffffffffffffffffffffffffff160217905550736c9fb0d5bd9429eb9cd96b85b81d872281771e6b600560006101000a81548173ffffffffffffffffffffffffffffffffffffffff021916908373ffffffffffffffffffffffffffffffffffffffff1602179055503480156200021157600080fd5b506001600660003373ffffffffffffffffffffffffffffffffffffffff1673ffffffffffffffffffffffffffffffffffffffff16815260200190815260200160002060006101000a81548160ff0219169083151502179055506200028f73a01c18793c1d8b94849da884fdbcda857af463ab6200033660201b60201c565b620002b473f9739cf1b992e62a1c5c18c33cacb2a27a91f8886200033660201b60201c565b600760008154620002c5906200049c565b91905081905550600860009080600181540180825580915050600190039060005260206000200160009091909190916101000a81548173ffffffffffffffffffffffffffffffffffffffff021916908373ffffffffffffffffffffffffffffffffffffffff16021790555062000542565b600660003373ffffffffffffffffffffffffffffffffffffffff1673ffffffffffffffffffffffffffffffffffffffff16815260200190815260200160002060009054906101000a900460ff16620003c5576040517f08c379a0000000000000000000000000000000000000000000000000000000008152600401620003bc906200045f565b60405180910390fd5b6001600660008373ffffffffffffffffffffffffffffffffffffffff1673ffffffffffffffffffffffffffffffffffffffff16815260200190815260200160002060006101000a81548160ff0219169083151502179055506007600081546200042e906200049c565b9190508190555050565b600062000447600b8362000481565b9150620004548262000519565b602082019050919050565b600060208201905081810360008301526200047a8162000438565b9050919050565b600082825260208201905092915050565b6000819050919050565b6000620004a98262000492565b91507fffffffffffffffffffffffffffffffffffffffffffffffffffffffffffffffff821415620004df57620004de620004ea565b5b600182019050919050565b7f4e487b7100000000000000000000000000000000000000000000000000000000600052601160045260246000fd5b7f6f6e6c79206f776e657273000000000000000000000000000000000000000000600082015250565b60805160601c6157cb6200056160003960006142c101526157cb6000f3fe6080604052600436106102975760003560e01c80637065cb481161015a578063b4576cd1116100c1578063cb6314711161007a578063cb63147114610951578063cd4646cb1461097c578063d34c4a7e146109a5578063d3c57a2f146109d0578063dd45f63b14610a0d578063f4d5f56b14610a385761029e565b8063b4576cd114610876578063bda4e797146108a1578063bdef476b146108cc578063c2d6ed14146108f5578063c7135dcd14610911578063c8ad554a146109285761029e565b80638e15f473116101135780638e15f473146107635780638f186aff1461078e5780639add7438146107b75780639d2035d2146107e0578063a69bdf1614610809578063a87430ba146108345761029e565b80637065cb481461068d57806373984188146106b65780637ea382c1146106df57806384ef904e146106f657806384f2b9c314610721578063899478a61461074c5761029e565b80634585e33b116101fe5780635dff7f25116101b75780635dff7f25146105af578063673448dd146105c657806368b0cb6a146106035780636be69ab01461060d5780636c716898146106245780636e04ff0d1461064f5761029e565b80634585e33b1461049f578063458c16ab146104c857806346558d1b146104f35780634bed907d1461051e57806353315c6c14610549578063534c197f146105725761029e565b80631a4c5def116102505780631a4c5def146103a15780631b30aafc146103b857806328f371aa146103e357806342a0cc311461040e578063438b9f0d1461044b578063455c928c146104885761029e565b8063020bcc9e146102a0578063022914a7146102b757806307a6bf69146102f45780630a861f2a146102fe57806310fdda091461032757806317d8de82146103645761029e565b3661029e57005b005b3480156102ac57600080fd5b506102b5610a4f565b005b3480156102c357600080fd5b506102de60048036038101906102d99190614471565b610a61565b6040516102eb9190614be2565b60405180910390f35b6102fc610a81565b005b34801561030a57600080fd5b5061032560048036038101906103209190614585565b610d13565b005b34801561033357600080fd5b5061034e60048036038101906103499190614585565b6111d8565b60405161035b9190614ad0565b60405180910390f35b34801561037057600080fd5b5061038b60048036038101906103869190614471565b611217565b6040516103989190614c2d565b60405180910390f35b3480156103ad57600080fd5b506103b6611263565b005b3480156103c457600080fd5b506103cd6115be565b6040516103da9190614f33565b60405180910390f35b3480156103ef57600080fd5b506103f8611665565b6040516104059190614be2565b60405180910390f35b34801561041a57600080fd5b5061043560048036038101906104309190614471565b611675565b6040516104429190614e8e565b60405180910390f35b34801561045757600080fd5b50610472600480360381019061046d919061449e565b61171d565b60405161047f9190614be2565b60405180910390f35b34801561049457600080fd5b5061049d6117ca565b005b3480156104ab57600080fd5b506104c660048036038101906104c1919061450b565b6119e3565b005b3480156104d457600080fd5b506104dd611fdf565b6040516104ea9190614e8e565b60405180910390f35b3480156104ff57600080fd5b50610508612083565b6040516105159190614c2d565b60405180910390f35b34801561052a57600080fd5b506105336120cd565b6040516105409190614e8e565b60405180910390f35b34801561055557600080fd5b50610570600480360381019061056b9190614558565b612187565b005b34801561057e57600080fd5b5061059960048036038101906105949190614471565b612257565b6040516105a69190614e8e565b60405180910390f35b3480156105bb57600080fd5b506105c46122fd565b005b3480156105d257600080fd5b506105ed60048036038101906105e89190614471565b61243e565b6040516105fa9190614be2565b60405180910390f35b61060b612452565b005b34801561061957600080fd5b506106226124fb565b005b34801561063057600080fd5b506106396126cd565b6040516106469190614e8e565b60405180910390f35b34801561065b57600080fd5b506106766004803603810190610671919061450b565b612717565b604051610684929190614bfd565b60405180910390f35b34801561069957600080fd5b506106b460048036038101906106af9190614471565b61289d565b005b3480156106c257600080fd5b506106dd60048036038101906106d89190614471565b61299a565b005b3480156106eb57600080fd5b506106f4612b68565b005b34801561070257600080fd5b5061070b612c15565b6040516107189190614e8e565b60405180910390f35b34801561072d57600080fd5b50610736612cc7565b6040516107439190614e8e565b60405180910390f35b34801561075857600080fd5b50610761612ccf565b005b34801561076f57600080fd5b50610778612fd8565b6040516107859190614c2d565b60405180910390f35b34801561079a57600080fd5b506107b560048036038101906107b09190614558565b613095565b005b3480156107c357600080fd5b506107de60048036038101906107d99190614585565b61312b565b005b3480156107ec57600080fd5b5061080760048036038101906108029190614471565b61334b565b005b34801561081557600080fd5b5061081e6133e3565b60405161082b9190614e8e565b60405180910390f35b34801561084057600080fd5b5061085b60048036038101906108569190614471565b61342d565b60405161086d96959493929190614ed2565b60405180910390f35b34801561088257600080fd5b5061088b613476565b6040516108989190614c2d565b60405180910390f35b3480156108ad57600080fd5b506108b661347c565b6040516108c39190614e8e565b60405180910390f35b3480156108d857600080fd5b506108f360048036038101906108ee9190614585565b61348c565b005b61090f600480360381019061090a9190614558565b6134d6565b005b34801561091d57600080fd5b50610926613528565b005b34801561093457600080fd5b5061094f600480360381019061094a9190614471565b613716565b005b34801561095d57600080fd5b506109666137e5565b6040516109739190614be2565b60405180910390f35b34801561098857600080fd5b506109a3600480360381019061099e919061449e565b61383c565b005b3480156109b157600080fd5b506109ba613a7a565b6040516109c79190614e8e565b60405180910390f35b3480156109dc57600080fd5b506109f760048036038101906109f29190614471565b613a8a565b604051610a049190614e8e565b60405180910390f35b348015610a1957600080fd5b50610a22613b3d565b604051610a2f9190614e8e565b60405180910390f35b348015610a4457600080fd5b50610a4d613be1565b005b610a5f610a5a6126cd565b61312b565b565b60066020528060005260406000206000915054906101000a900460ff1681565b6000600960003373ffffffffffffffffffffffffffffffffffffffff1673ffffffffffffffffffffffffffffffffffffffff168152602001908152602001600020600001541415610ad557610ad46117ca565b5b6000610adf613b3d565b9050732a58e9bbb5434fda7ff78051a4b82cb0ef669c1773ffffffffffffffffffffffffffffffffffffffff1663474cf53d34600560009054906101000a900473ffffffffffffffffffffffffffffffffffffffff163360006040518563ffffffff1660e01b8152600401610b5693929190614b14565b6000604051808303818588803b158015610b6f57600080fd5b505af1158015610b83573d6000803e3d6000fd5b50505050506000610b92613b3d565b9050600080831415610bed5781905080600960003373ffffffffffffffffffffffffffffffffffffffff1673ffffffffffffffffffffffffffffffffffffffff16815260200190815260200160002060010181905550610c55565b8282610bf99190615141565b905080600960003373ffffffffffffffffffffffffffffffffffffffff1673ffffffffffffffffffffffffffffffffffffffff1681526020019081526020016000206001016000828254610c4d9190614fcc565b925050819055505b3373ffffffffffffffffffffffffffffffffffffffff167fc9c6fab6ecbdd99f0fff2b919fb3ff1ef9ec3e382592cd5323cbb3571da624fc8284604051610c9d929190614d76565b60405180910390a2610cad6137e5565b15610d0e576000600960003373ffffffffffffffffffffffffffffffffffffffff1673ffffffffffffffffffffffffffffffffffffffff16815260200190815260200160002060050160006101000a81548160ff0219169083151502179055505b505050565b7389a6ae840b3f8f489418933a220315eea36d11ff73ffffffffffffffffffffffffffffffffffffffff166370a08231336040518263ffffffff1660e01b8152600401610d609190614ad0565b60206040518083038186803b158015610d7857600080fd5b505afa158015610d8c573d6000803e3d6000fd5b505050506040513d601f19601f82011682018060405250810190610db091906145b2565b811115610df2576040517f08c379a0000000000000000000000000000000000000000000000000000000008152600401610de990614d08565b60405180910390fd5b7389a6ae840b3f8f489418933a220315eea36d11ff73ffffffffffffffffffffffffffffffffffffffff1663dd62ed3e33306040518363ffffffff1660e01b8152600401610e41929190614aeb565b60206040518083038186803b158015610e5957600080fd5b505afa158015610e6d573d6000803e3d6000fd5b505050506040513d601f19601f82011682018060405250810190610e9191906145b2565b811115610ed3576040517f08c379a0000000000000000000000000000000000000000000000000000000008152600401610eca90614ca8565b60405180910390fd5b6000610edd611fdf565b9050610ee882613e72565b600081610ef3611fdf565b610efd9190615141565b9050610f07612cc7565b9150610f1281613f19565b81610f1b612cc7565b610f259190615141565b9050600080600960003373ffffffffffffffffffffffffffffffffffffffff1673ffffffffffffffffffffffffffffffffffffffff16815260200190815260200160002060010154831115611077576002600960003373ffffffffffffffffffffffffffffffffffffffff1673ffffffffffffffffffffffffffffffffffffffff1681526020019081526020016000206001015484610fc49190615141565b610fce9190615022565b90508083610fdc9190615141565b91506000600960003373ffffffffffffffffffffffffffffffffffffffff1673ffffffffffffffffffffffffffffffffffffffff1681526020019081526020016000206001018190555061102f3361415c565b3373ffffffffffffffffffffffffffffffffffffffff167f5a4252648a6f5824308d4144fc27606976cf02cf6e63fac18ccf88e6e6ddbc2f60405160405180910390a26110d4565b82915082600960003373ffffffffffffffffffffffffffffffffffffffff1673ffffffffffffffffffffffffffffffffffffffff16815260200190815260200160002060010160008282546110cc9190615141565b925050819055505b60003373ffffffffffffffffffffffffffffffffffffffff16846040516110fa90614abb565b60006040518083038185875af1925050503d8060008114611137576040519150601f19603f3d011682016040523d82523d6000602084013e61113c565b606091505b5050905080611180576040517f08c379a000000000000000000000000000000000000000000000000000000000815260040161117790614e52565b60405180910390fd5b3373ffffffffffffffffffffffffffffffffffffffff167f8abd2c969830597ba5ec419d56dd04a713cccf5cf1764ca5c55e9e8b2db0d8f184846040516111c8929190614d76565b60405180910390a2505050505050565b600881815481106111e857600080fd5b906000526020600020016000915054906101000a900473ffffffffffffffffffffffffffffffffffffffff1681565b6000600960008373ffffffffffffffffffffffffffffffffffffffff1673ffffffffffffffffffffffffffffffffffffffff168152602001908152602001600020600201549050919050565b600660003373ffffffffffffffffffffffffffffffffffffffff1673ffffffffffffffffffffffffffffffffffffffff16815260200190815260200160002060009054906101000a900460ff166112ef576040517f08c379a00000000000000000000000000000000000000000000000000000000081526004016112e690614db2565b60405180910390fd5b600030905060007389a6ae840b3f8f489418933a220315eea36d11ff73ffffffffffffffffffffffffffffffffffffffff166370a08231836040518263ffffffff1660e01b81526004016113439190614ad0565b60206040518083038186803b15801561135b57600080fd5b505afa15801561136f573d6000803e3d6000fd5b505050506040513d601f19601f8201168201806040525081019061139391906145b2565b90507389a6ae840b3f8f489418933a220315eea36d11ff73ffffffffffffffffffffffffffffffffffffffff1663095ea7b3732a58e9bbb5434fda7ff78051a4b82cb0ef669c17836040518363ffffffff1660e01b81526004016113f8929190614b82565b602060405180830381600087803b15801561141257600080fd5b505af1158015611426573d6000803e3d6000fd5b505050506040513d601f19601f8201168201806040525081019061144a91906144de565b50732a58e9bbb5434fda7ff78051a4b82cb0ef669c1773ffffffffffffffffffffffffffffffffffffffff166380500d20600560009054906101000a900473ffffffffffffffffffffffffffffffffffffffff1683856040518463ffffffff1660e01b81526004016114be93929190614bab565b600060405180830381600087803b1580156114d857600080fd5b505af11580156114ec573d6000803e3d6000fd5b5050505060008273ffffffffffffffffffffffffffffffffffffffff1631905060003373ffffffffffffffffffffffffffffffffffffffff168260405161153290614abb565b60006040518083038185875af1925050503d806000811461156f576040519150601f19603f3d011682016040523d82523d6000602084013e611574565b606091505b50509050806115b8576040517f08c379a00000000000000000000000000000000000000000000000000000000081526004016115af90614c88565b60405180910390fd5b50505050565b6000600260009054906101000a900473ffffffffffffffffffffffffffffffffffffffff1673ffffffffffffffffffffffffffffffffffffffff1663313ce5676040518163ffffffff1660e01b815260040160206040518083038186803b15801561162857600080fd5b505afa15801561163c573d6000803e3d6000fd5b505050506040513d601f19601f82011682018060405250810190611660919061465a565b905090565b60006116703361243e565b905090565b60007389a6ae840b3f8f489418933a220315eea36d11ff73ffffffffffffffffffffffffffffffffffffffff1663dd62ed3e83306040518363ffffffff1660e01b81526004016116c6929190614aeb565b60206040518083038186803b1580156116de57600080fd5b505afa1580156116f2573d6000803e3d6000fd5b505050506040513d601f19601f8201168201806040525081019061171691906145b2565b9050919050565b60007389a6ae840b3f8f489418933a220315eea36d11ff73ffffffffffffffffffffffffffffffffffffffff166323b872dd8430856040518463ffffffff1660e01b815260040161177093929190614b4b565b602060405180830381600087803b15801561178a57600080fd5b505af115801561179e573d6000803e3d6000fd5b505050506040513d601f19601f820116820180604052508101906117c291906144de565b905092915050565b6000600960003373ffffffffffffffffffffffffffffffffffffffff1673ffffffffffffffffffffffffffffffffffffffff168152602001908152602001600020600001541461184f576040517f08c379a000000000000000000000000000000000000000000000000000000000815260040161184690614c48565b60405180910390fd5b6008339080600181540180825580915050600190039060005260206000200160009091909190916101000a81548173ffffffffffffffffffffffffffffffffffffffff021916908373ffffffffffffffffffffffffffffffffffffffff1602179055506040518060c001604052806008805490508152602001600081526020017fffffffffffffffffffffffffffffffffffffffffffffffffffffffffffffffff8152602001600081526020016000815260200160001515815250600960003373ffffffffffffffffffffffffffffffffffffffff1673ffffffffffffffffffffffffffffffffffffffff168152602001908152602001600020600082015181600001556020820151816001015560408201518160020155606082015181600301556080820151816004015560a08201518160050160006101000a81548160ff0219169083151502179055509050503373ffffffffffffffffffffffffffffffffffffffff167f19ef9a4877199f89440a26acb26895ec02ed86f2df1aeaa90dc18041b892f71f60405160405180910390a2565b60006119ed612fd8565b905060008060005b85859050811015611bf25785858290601484611a119190614fcc565b92611a1e93929190614f91565b90611a299190615233565b60601c9150600960008373ffffffffffffffffffffffffffffffffffffffff1673ffffffffffffffffffffffffffffffffffffffff168152602001908152602001600020600201548413611bde576000611a8283612257565b90506000611a8f84611675565b9050600082118015611aa15750600081115b15611bdb576000818311611ab757829050611abb565b8190505b6000611ac5611fdf565b90507389a6ae840b3f8f489418933a220315eea36d11ff73ffffffffffffffffffffffffffffffffffffffff166323b872dd8730856040518463ffffffff1660e01b8152600401611b1893929190614b4b565b602060405180830381600087803b158015611b3257600080fd5b505af1158015611b46573d6000803e3d6000fd5b505050506040513d601f19601f82011682018060405250810190611b6a91906144de565b50600081611b76611fdf565b611b809190615141565b905080600960008973ffffffffffffffffffffffffffffffffffffffff1673ffffffffffffffffffffffffffffffffffffffff168152602001908152602001600020600301819055508088611bd59190614fcc565b97505050505b50505b601481611beb9190614fcc565b90506119f5565b506000821115611fd8576000611c06612cc7565b90507389a6ae840b3f8f489418933a220315eea36d11ff73ffffffffffffffffffffffffffffffffffffffff1663095ea7b3732a58e9bbb5434fda7ff78051a4b82cb0ef669c17856040518363ffffffff1660e01b8152600401611c6b929190614b82565b602060405180830381600087803b158015611c8557600080fd5b505af1158015611c99573d6000803e3d6000fd5b505050506040513d601f19601f82011682018060405250810190611cbd91906144de565b50732a58e9bbb5434fda7ff78051a4b82cb0ef669c1773ffffffffffffffffffffffffffffffffffffffff166380500d20600560009054906101000a900473ffffffffffffffffffffffffffffffffffffffff1685306040518463ffffffff1660e01b8152600401611d3193929190614bab565b600060405180830381600087803b158015611d4b57600080fd5b505af1158015611d5f573d6000803e3d6000fd5b50505050600081611d6e612cc7565b611d789190615141565b90506000611d85826141ea565b90506000811115611fd45760005b88889050811015611fd25788888290601484611daf9190614fcc565b92611dbc93929190614f91565b90611dc79190615233565b60601c94506000600960008773ffffffffffffffffffffffffffffffffffffffff1673ffffffffffffffffffffffffffffffffffffffff1681526020019081526020016000206040518060c001604052908160008201548152602001600182015481526020016002820154815260200160038201548152602001600482015481526020016005820160009054906101000a900460ff16151515158152505090506000816060015190506000811115611fbc576000888286611e889190615053565b611e929190615022565b90508083608001818151611ea69190614fcc565b9150818152505060018360a00190151590811515815250506000836020018181525050600083606001818152505082600960008a73ffffffffffffffffffffffffffffffffffffffff1673ffffffffffffffffffffffffffffffffffffffff168152602001908152602001600020600082015181600001556020820151816001015560408201518160020155606082015181600301556080820151816004015560a08201518160050160006101000a81548160ff021916908315150217905550905050898873ffffffffffffffffffffffffffffffffffffffff167fcb57c135cf147d5e7ab55a2b66f62235d5173407f0a341e6099d6d68f33acd5a8484604051611fb2929190614ea9565b60405180910390a3505b5050601481611fcb9190614fcc565b9050611d93565b505b5050505b5050505050565b60007389a6ae840b3f8f489418933a220315eea36d11ff73ffffffffffffffffffffffffffffffffffffffff166370a08231306040518263ffffffff1660e01b815260040161202e9190614ad0565b60206040518083038186803b15801561204657600080fd5b505afa15801561205a573d6000803e3d6000fd5b505050506040513d601f19601f8201168201806040525081019061207e91906145b2565b905090565b6000600960003373ffffffffffffffffffffffffffffffffffffffff1673ffffffffffffffffffffffffffffffffffffffff16815260200190815260200160002060020154905090565b60007389a6ae840b3f8f489418933a220315eea36d11ff73ffffffffffffffffffffffffffffffffffffffff1663dd62ed3e30732a58e9bbb5434fda7ff78051a4b82cb0ef669c176040518363ffffffff1660e01b8152600401612132929190614aeb565b60206040518083038186803b15801561214a57600080fd5b505afa15801561215e573d6000803e3d6000fd5b505050506040513d601f19601f8201168201806040525081019061218291906145b2565b905090565b6000600960003373ffffffffffffffffffffffffffffffffffffffff1673ffffffffffffffffffffffffffffffffffffffff16815260200190815260200160002060000154141561220d576040517f08c379a000000000000000000000000000000000000000000000000000000000815260040161220490614dd2565b60405180910390fd5b80600960003373ffffffffffffffffffffffffffffffffffffffff1673ffffffffffffffffffffffffffffffffffffffff1681526020019081526020016000206002018190555050565b60007389a6ae840b3f8f489418933a220315eea36d11ff73ffffffffffffffffffffffffffffffffffffffff166370a08231836040518263ffffffff1660e01b81526004016122a69190614ad0565b60206040518083038186803b1580156122be57600080fd5b505afa1580156122d2573d6000803e3d6000fd5b505050506040513d601f19601f820116820180604052508101906122f691906145b2565b9050919050565b600660003373ffffffffffffffffffffffffffffffffffffffff1673ffffffffffffffffffffffffffffffffffffffff16815260200190815260200160002060009054906101000a900460ff16612389576040517f08c379a000000000000000000000000000000000000000000000000000000000815260040161238090614db2565b60405180910390fd5b600047905060003373ffffffffffffffffffffffffffffffffffffffff16826040516123b490614abb565b60006040518083038185875af1925050503d80600081146123f1576040519150601f19603f3d011682016040523d82523d6000602084013e6123f6565b606091505b505090508061243a576040517f08c379a000000000000000000000000000000000000000000000000000000000815260040161243190614d28565b60405180910390fd5b5050565b60008061244a83611675565b119050919050565b732a58e9bbb5434fda7ff78051a4b82cb0ef669c1773ffffffffffffffffffffffffffffffffffffffff1663474cf53d34600560009054906101000a900473ffffffffffffffffffffffffffffffffffffffff163360006040518563ffffffff1660e01b81526004016124c793929190614b14565b6000604051808303818588803b1580156124e057600080fd5b505af11580156124f4573d6000803e3d6000fd5b5050505050565b600660003373ffffffffffffffffffffffffffffffffffffffff1673ffffffffffffffffffffffffffffffffffffffff16815260200190815260200160002060009054906101000a900460ff16612587576040517f08c379a000000000000000000000000000000000000000000000000000000000815260040161257e90614db2565b60405180910390fd5b60007389a6ae840b3f8f489418933a220315eea36d11ff73ffffffffffffffffffffffffffffffffffffffff166370a08231306040518263ffffffff1660e01b81526004016125d69190614ad0565b60206040518083038186803b1580156125ee57600080fd5b505afa158015612602573d6000803e3d6000fd5b505050506040513d601f19601f8201168201806040525081019061262691906145b2565b90507389a6ae840b3f8f489418933a220315eea36d11ff73ffffffffffffffffffffffffffffffffffffffff1663a9059cbb33836040518363ffffffff1660e01b8152600401612677929190614b82565b602060405180830381600087803b15801561269157600080fd5b505af11580156126a5573d6000803e3d6000fd5b505050506040513d601f19601f820116820180604052508101906126c991906144de565b5050565b6000600960003373ffffffffffffffffffffffffffffffffffffffff1673ffffffffffffffffffffffffffffffffffffffff16815260200190815260200160002060040154905090565b600060606000612725612fd8565b90506000600190505b60088054905081101561288557600060088281548110612751576127506153fb565b5b9060005260206000200160009054906101000a900473ffffffffffffffffffffffffffffffffffffffff1690506000600960008373ffffffffffffffffffffffffffffffffffffffff1673ffffffffffffffffffffffffffffffffffffffff1681526020019081526020016000206040518060c001604052908160008201548152602001600182015481526020016002820154815260200160038201548152602001600482015481526020016005820160009054906101000a900460ff16151515158152505090508060400151841361287257600061282f83612257565b905060008111801561284657506128458361243e565b5b1561287057858360405160200161285e929190614a93565b60405160208183030381529060405295505b505b50508061287e90615301565b905061272e565b5060008251111561289557600192505b509250929050565b600660003373ffffffffffffffffffffffffffffffffffffffff1673ffffffffffffffffffffffffffffffffffffffff16815260200190815260200160002060009054906101000a900460ff16612929576040517f08c379a000000000000000000000000000000000000000000000000000000000815260040161292090614db2565b60405180910390fd5b6001600660008373ffffffffffffffffffffffffffffffffffffffff1673ffffffffffffffffffffffffffffffffffffffff16815260200190815260200160002060006101000a81548160ff02191690831515021790555060076000815461299090615301565b9190508190555050565b600660003373ffffffffffffffffffffffffffffffffffffffff1673ffffffffffffffffffffffffffffffffffffffff16815260200190815260200160002060009054906101000a900460ff16612a26576040517f08c379a0000000000000000000000000000000000000000000000000000000008152600401612a1d90614db2565b60405180910390fd5b600160075411612a6b576040517f08c379a0000000000000000000000000000000000000000000000000000000008152600401612a6290614cc8565b60405180910390fd5b600660008273ffffffffffffffffffffffffffffffffffffffff1673ffffffffffffffffffffffffffffffffffffffff16815260200190815260200160002060009054906101000a900460ff16612af7576040517f08c379a0000000000000000000000000000000000000000000000000000000008152600401612aee90614df2565b60405180910390fd5b6000600660008373ffffffffffffffffffffffffffffffffffffffff1673ffffffffffffffffffffffffffffffffffffffff16815260200190815260200160002060006101000a81548160ff021916908315150217905550600760008154612b5e906152d7565b9190508190555050565b60007389a6ae840b3f8f489418933a220315eea36d11ff73ffffffffffffffffffffffffffffffffffffffff166370a08231336040518263ffffffff1660e01b8152600401612bb79190614ad0565b60206040518083038186803b158015612bcf57600080fd5b505afa158015612be3573d6000803e3d6000fd5b505050506040513d601f19601f82011682018060405250810190612c0791906145b2565b9050612c1281610d13565b50565b6000600460009054906101000a900473ffffffffffffffffffffffffffffffffffffffff1673ffffffffffffffffffffffffffffffffffffffff166370a08231306040518263ffffffff1660e01b8152600401612c729190614ad0565b60206040518083038186803b158015612c8a57600080fd5b505afa158015612c9e573d6000803e3d6000fd5b505050506040513d601f19601f82011682018060405250810190612cc291906145b2565b905090565b600047905090565b6000600960003373ffffffffffffffffffffffffffffffffffffffff1673ffffffffffffffffffffffffffffffffffffffff168152602001908152602001600020600001541415612d55576040517f08c379a0000000000000000000000000000000000000000000000000000000008152600401612d4c90614dd2565b60405180910390fd5b6000600960003373ffffffffffffffffffffffffffffffffffffffff1673ffffffffffffffffffffffffffffffffffffffff1681526020019081526020016000206004015414612dda576040517f08c379a0000000000000000000000000000000000000000000000000000000008152600401612dd190614e12565b60405180910390fd5b6000600960003373ffffffffffffffffffffffffffffffffffffffff1673ffffffffffffffffffffffffffffffffffffffff16815260200190815260200160002060000154905060086001600880549050612e359190615141565b81548110612e4657612e456153fb565b5b9060005260206000200160009054906101000a900473ffffffffffffffffffffffffffffffffffffffff1660088281548110612e8557612e846153fb565b5b9060005260206000200160006101000a81548173ffffffffffffffffffffffffffffffffffffffff021916908373ffffffffffffffffffffffffffffffffffffffff1602179055506008805480612edf57612ede6153cc565b5b6001900381819060005260206000200160006101000a81549073ffffffffffffffffffffffffffffffffffffffff02191690559055600960003373ffffffffffffffffffffffffffffffffffffffff1673ffffffffffffffffffffffffffffffffffffffff16815260200190815260200160002060008082016000905560018201600090556002820160009055600382016000905560048201600090556005820160006101000a81549060ff021916905550503373ffffffffffffffffffffffffffffffffffffffff167f4bc56f1321288dfb5b416cb3a7fd188723979f9e866c91d88eccf7fca039d03960405160405180910390a250565b600080600260009054906101000a900473ffffffffffffffffffffffffffffffffffffffff1673ffffffffffffffffffffffffffffffffffffffff1663feaf968c6040518163ffffffff1660e01b815260040160a06040518083038186803b15801561304357600080fd5b505afa158015613057573d6000803e3d6000fd5b505050506040513d601f19601f8201168201806040525081019061307b91906145df565b505050915050600a548161308f91906150ad565b91505090565b600660003373ffffffffffffffffffffffffffffffffffffffff1673ffffffffffffffffffffffffffffffffffffffff16815260200190815260200160002060009054906101000a900460ff16613121576040517f08c379a000000000000000000000000000000000000000000000000000000000815260040161311890614db2565b60405180910390fd5b80600a8190555050565b6131336126cd565b811115613175576040517f08c379a000000000000000000000000000000000000000000000000000000000815260040161316c90614d08565b60405180910390fd5b80600960003373ffffffffffffffffffffffffffffffffffffffff1673ffffffffffffffffffffffffffffffffffffffff16815260200190815260200160002060040160008282546131c79190615141565b92505081905550600460009054906101000a900473ffffffffffffffffffffffffffffffffffffffff1673ffffffffffffffffffffffffffffffffffffffff1663a9059cbb33836040518363ffffffff1660e01b815260040161322b929190614b82565b602060405180830381600087803b15801561324557600080fd5b505af1158015613259573d6000803e3d6000fd5b505050506040513d601f19601f8201168201806040525081019061327d91906144de565b503373ffffffffffffffffffffffffffffffffffffffff167f6fe5ac9f9a977355c31c5b06bd52779cc9ad723df5f6f798a5a310cba732e65e826040516132c49190614d48565b60405180910390a26132d46137e5565b80156132e7575060006132e56126cd565b145b15613348576000600960003373ffffffffffffffffffffffffffffffffffffffff1673ffffffffffffffffffffffffffffffffffffffff16815260200190815260200160002060050160006101000a81548160ff0219169083151502179055505b50565b600660003373ffffffffffffffffffffffffffffffffffffffff1673ffffffffffffffffffffffffffffffffffffffff16815260200190815260200160002060009054906101000a900460ff166133d7576040517f08c379a00000000000000000000000000000000000000000000000000000000081526004016133ce90614db2565b60405180910390fd5b6133e08161415c565b50565b6000600960003373ffffffffffffffffffffffffffffffffffffffff1673ffffffffffffffffffffffffffffffffffffffff16815260200190815260200160002060010154905090565b60096020528060005260406000206000915090508060000154908060010154908060020154908060030154908060040154908060050160009054906101000a900460ff16905086565b600a5481565b600061348733613a8a565b905090565b80600960003373ffffffffffffffffffffffffffffffffffffffff1673ffffffffffffffffffffffffffffffffffffffff1681526020019081526020016000206001018190555050565b6134de610a81565b80600960003373ffffffffffffffffffffffffffffffffffffffff1673ffffffffffffffffffffffffffffffffffffffff1681526020019081526020016000206002018190555050565b600660003373ffffffffffffffffffffffffffffffffffffffff1673ffffffffffffffffffffffffffffffffffffffff16815260200190815260200160002060009054906101000a900460ff166135b4576040517f08c379a00000000000000000000000000000000000000000000000000000000081526004016135ab90614db2565b60405180910390fd5b6000600460009054906101000a900473ffffffffffffffffffffffffffffffffffffffff1673ffffffffffffffffffffffffffffffffffffffff166370a08231306040518263ffffffff1660e01b81526004016136119190614ad0565b60206040518083038186803b15801561362957600080fd5b505afa15801561363d573d6000803e3d6000fd5b505050506040513d601f19601f8201168201806040525081019061366191906145b2565b9050600460009054906101000a900473ffffffffffffffffffffffffffffffffffffffff1673ffffffffffffffffffffffffffffffffffffffff1663a9059cbb33836040518363ffffffff1660e01b81526004016136c0929190614b82565b602060405180830381600087803b1580156136da57600080fd5b505af11580156136ee573d6000803e3d6000fd5b505050506040513d601f19601f8201168201806040525081019061371291906144de565b5050565b600660003373ffffffffffffffffffffffffffffffffffffffff1673ffffffffffffffffffffffffffffffffffffffff16815260200190815260200160002060009054906101000a900460ff166137a2576040517f08c379a000000000000000000000000000000000000000000000000000000000815260040161379990614db2565b60405180910390fd5b806000806101000a81548173ffffffffffffffffffffffffffffffffffffffff021916908373ffffffffffffffffffffffffffffffffffffffff16021790555050565b6000600960003373ffffffffffffffffffffffffffffffffffffffff1673ffffffffffffffffffffffffffffffffffffffff16815260200190815260200160002060050160009054906101000a900460ff16905090565b600660003373ffffffffffffffffffffffffffffffffffffffff1673ffffffffffffffffffffffffffffffffffffffff16815260200190815260200160002060009054906101000a900460ff166138c8576040517f08c379a00000000000000000000000000000000000000000000000000000000081526004016138bf90614db2565b60405180910390fd5b8047101561390b576040517f08c379a000000000000000000000000000000000000000000000000000000000815260040161390290614e32565b60405180910390fd5b600073ffffffffffffffffffffffffffffffffffffffff168273ffffffffffffffffffffffffffffffffffffffff16141561397b576040517f08c379a000000000000000000000000000000000000000000000000000000000815260040161397290614ce8565b60405180910390fd5b60008273ffffffffffffffffffffffffffffffffffffffff16826040516139a190614abb565b60006040518083038185875af1925050503d80600081146139de576040519150601f19603f3d011682016040523d82523d6000602084013e6139e3565b606091505b5050905080613a27576040517f08c379a0000000000000000000000000000000000000000000000000000000008152600401613a1e90614c68565b60405180910390fd5b8273ffffffffffffffffffffffffffffffffffffffff167f5d8bc849764969eb1bcc6d0a2f55999d0167c1ccec240a4f39cf664ca9c4148e83604051613a6d9190614e8e565b60405180910390a2505050565b6000613a8533611675565b905090565b60008060009054906101000a900473ffffffffffffffffffffffffffffffffffffffff1673ffffffffffffffffffffffffffffffffffffffff166370a08231836040518263ffffffff1660e01b8152600401613ae69190614ad0565b60206040518083038186803b158015613afe57600080fd5b505afa158015613b12573d6000803e3d6000fd5b505050506040513d601f19601f82011682018060405250810190613b3691906145b2565b9050919050565b60007389a6ae840b3f8f489418933a220315eea36d11ff73ffffffffffffffffffffffffffffffffffffffff166370a08231336040518263ffffffff1660e01b8152600401613b8c9190614ad0565b60206040518083038186803b158015613ba457600080fd5b505afa158015613bb8573d6000803e3d6000fd5b505050506040513d601f19601f82011682018060405250810190613bdc91906145b2565b905090565b600660003373ffffffffffffffffffffffffffffffffffffffff1673ffffffffffffffffffffffffffffffffffffffff16815260200190815260200160002060009054906101000a900460ff16613c6d576040517f08c379a0000000000000000000000000000000000000000000000000000000008152600401613c6490614db2565b60405180910390fd5b600030905060007389a6ae840b3f8f489418933a220315eea36d11ff73ffffffffffffffffffffffffffffffffffffffff166370a08231836040518263ffffffff1660e01b8152600401613cc19190614ad0565b60206040518083038186803b158015613cd957600080fd5b505afa158015613ced573d6000803e3d6000fd5b505050506040513d601f19601f82011682018060405250810190613d1191906145b2565b90507389a6ae840b3f8f489418933a220315eea36d11ff73ffffffffffffffffffffffffffffffffffffffff1663095ea7b3732a58e9bbb5434fda7ff78051a4b82cb0ef669c17836040518363ffffffff1660e01b8152600401613d76929190614b82565b602060405180830381600087803b158015613d9057600080fd5b505af1158015613da4573d6000803e3d6000fd5b505050506040513d601f19601f82011682018060405250810190613dc891906144de565b50732a58e9bbb5434fda7ff78051a4b82cb0ef669c1773ffffffffffffffffffffffffffffffffffffffff166380500d20600560009054906101000a900473ffffffffffffffffffffffffffffffffffffffff1683856040518463ffffffff1660e01b8152600401613e3c93929190614bab565b600060405180830381600087803b158015613e5657600080fd5b505af1158015613e6a573d6000803e3d6000fd5b505050505050565b7389a6ae840b3f8f489418933a220315eea36d11ff73ffffffffffffffffffffffffffffffffffffffff166323b872dd3330846040518463ffffffff1660e01b8152600401613ec393929190614b4b565b602060405180830381600087803b158015613edd57600080fd5b505af1158015613ef1573d6000803e3d6000fd5b505050506040513d601f19601f82011682018060405250810190613f1591906144de565b5050565b60007389a6ae840b3f8f489418933a220315eea36d11ff73ffffffffffffffffffffffffffffffffffffffff166370a08231306040518263ffffffff1660e01b8152600401613f689190614ad0565b60206040518083038186803b158015613f8057600080fd5b505afa158015613f94573d6000803e3d6000fd5b505050506040513d601f19601f82011682018060405250810190613fb891906145b2565b905080821115613ffd576040517f08c379a0000000000000000000000000000000000000000000000000000000008152600401613ff490614d08565b60405180910390fd5b7389a6ae840b3f8f489418933a220315eea36d11ff73ffffffffffffffffffffffffffffffffffffffff1663095ea7b3732a58e9bbb5434fda7ff78051a4b82cb0ef669c17846040518363ffffffff1660e01b8152600401614060929190614b82565b602060405180830381600087803b15801561407a57600080fd5b505af115801561408e573d6000803e3d6000fd5b505050506040513d601f19601f820116820180604052508101906140b291906144de565b50732a58e9bbb5434fda7ff78051a4b82cb0ef669c1773ffffffffffffffffffffffffffffffffffffffff166380500d20600560009054906101000a900473ffffffffffffffffffffffffffffffffffffffff1684306040518463ffffffff1660e01b815260040161412693929190614bab565b600060405180830381600087803b15801561414057600080fd5b505af1158015614154573d6000803e3d6000fd5b505050505050565b60008054906101000a900473ffffffffffffffffffffffffffffffffffffffff1673ffffffffffffffffffffffffffffffffffffffff1663ff1c628e826040518263ffffffff1660e01b81526004016141b59190614ad0565b600060405180830381600087803b1580156141cf57600080fd5b505af11580156141e3573d6000803e3d6000fd5b5050505050565b600080604051806101000160405280600360009054906101000a900473ffffffffffffffffffffffffffffffffffffffff1673ffffffffffffffffffffffffffffffffffffffff168152602001721b3b4d0f3714ca98ba10f6042daebf0b1b7b6f73ffffffffffffffffffffffffffffffffffffffff168152602001610bb862ffffff1681526020013073ffffffffffffffffffffffffffffffffffffffff16815260200142815260200184815260200160008152602001600073ffffffffffffffffffffffffffffffffffffffff1681525090507f000000000000000000000000000000000000000000000000000000000000000073ffffffffffffffffffffffffffffffffffffffff1663414bf38984836040518363ffffffff1660e01b81526004016143199190614e72565b6020604051808303818588803b15801561433257600080fd5b505af1158015614346573d6000803e3d6000fd5b50505050506040513d601f19601f8201168201806040525081019061436b91906145b2565b915050919050565b6000813590506143828161570b565b92915050565b60008151905061439781615722565b92915050565b60008083601f8401126143b3576143b261542f565b5b8235905067ffffffffffffffff8111156143d0576143cf61542a565b5b6020830191508360018202830111156143ec576143eb61543e565b5b9250929050565b60008135905061440281615739565b92915050565b60008151905061441781615739565b92915050565b60008135905061442c81615750565b92915050565b60008151905061444181615750565b92915050565b6000815190506144568161577e565b92915050565b60008151905061446b81615767565b92915050565b60006020828403121561448757614486615448565b5b600061449584828501614373565b91505092915050565b600080604083850312156144b5576144b4615448565b5b60006144c385828601614373565b92505060206144d48582860161441d565b9150509250929050565b6000602082840312156144f4576144f3615448565b5b600061450284828501614388565b91505092915050565b6000806020838503121561452257614521615448565b5b600083013567ffffffffffffffff8111156145405761453f615443565b5b61454c8582860161439d565b92509250509250929050565b60006020828403121561456e5761456d615448565b5b600061457c848285016143f3565b91505092915050565b60006020828403121561459b5761459a615448565b5b60006145a98482850161441d565b91505092915050565b6000602082840312156145c8576145c7615448565b5b60006145d684828501614432565b91505092915050565b600080600080600060a086880312156145fb576145fa615448565b5b600061460988828901614447565b955050602061461a88828901614408565b945050604061462b88828901614432565b935050606061463c88828901614432565b925050608061464d88828901614447565b9150509295509295909350565b6000602082840312156146705761466f615448565b5b600061467e8482850161445c565b91505092915050565b61469081615175565b82525050565b61469f81615175565b82525050565b6146b66146b182615175565b61534a565b82525050565b6146c581615187565b82525050565b60006146d682614f59565b6146e08185614f64565b93506146f08185602086016152a4565b6146f98161544d565b840191505092915050565b600061470f82614f59565b6147198185614f75565b93506147298185602086016152a4565b80840191505092915050565b61473e816151bf565b82525050565b61474d81615292565b82525050565b6000614760601283614f80565b915061476b82615478565b602082019050919050565b6000614783600f83614f80565b915061478e826154a1565b602082019050919050565b60006147a6601b83614f80565b91506147b1826154ca565b602082019050919050565b60006147c9601283614f80565b91506147d4826154f3565b602082019050919050565b60006147ec601483614f80565b91506147f78261551c565b602082019050919050565b600061480f600983614f80565b915061481a82615545565b602082019050919050565b6000614832601083614f80565b915061483d8261556e565b602082019050919050565b6000614855601383614f80565b915061486082615597565b602082019050919050565b6000614878600383614f80565b9150614883826155c0565b602082019050919050565b600061489b600583614f80565b91506148a6826155e9565b602082019050919050565b60006148be600b83614f80565b91506148c982615612565b602082019050919050565b60006148e1600a83614f80565b91506148ec8261563b565b602082019050919050565b6000614904600083614f75565b915061490f82615664565b600082019050919050565b6000614927600c83614f80565b915061493282615667565b602082019050919050565b600061494a600f83614f80565b915061495582615690565b602082019050919050565b600061496d601183614f80565b9150614978826156b9565b602082019050919050565b6000614990600f83614f80565b915061499b826156e2565b602082019050919050565b610100820160008201516149bd6000850182614687565b5060208201516149d06020850182614687565b5060408201516149e36040850182614a57565b5060608201516149f66060850182614687565b506080820151614a096080850182614a66565b5060a0820151614a1c60a0850182614a66565b5060c0820151614a2f60c0850182614a66565b5060e0820151614a4260e0850182614a48565b50505050565b614a51816151d7565b82525050565b614a60816151f7565b82525050565b614a6f81615206565b82525050565b614a7e81615206565b82525050565b614a8d81615210565b82525050565b6000614a9f8285614704565b9150614aab82846146a5565b6014820191508190509392505050565b6000614ac6826148f7565b9150819050919050565b6000602082019050614ae56000830184614696565b92915050565b6000604082019050614b006000830185614696565b614b0d6020830184614696565b9392505050565b6000606082019050614b296000830186614696565b614b366020830185614696565b614b436040830184614744565b949350505050565b6000606082019050614b606000830186614696565b614b6d6020830185614696565b614b7a6040830184614a75565b949350505050565b6000604082019050614b976000830185614696565b614ba46020830184614a75565b9392505050565b6000606082019050614bc06000830186614696565b614bcd6020830185614a75565b614bda6040830184614696565b949350505050565b6000602082019050614bf760008301846146bc565b92915050565b6000604082019050614c1260008301856146bc565b8181036020830152614c2481846146cb565b90509392505050565b6000602082019050614c426000830184614735565b92915050565b60006020820190508181036000830152614c6181614753565b9050919050565b60006020820190508181036000830152614c8181614776565b9050919050565b60006020820190508181036000830152614ca181614799565b9050919050565b60006020820190508181036000830152614cc1816147bc565b9050919050565b60006020820190508181036000830152614ce1816147df565b9050919050565b60006020820190508181036000830152614d0181614802565b9050919050565b60006020820190508181036000830152614d2181614825565b9050919050565b60006020820190508181036000830152614d4181614848565b9050919050565b60006040820190508181036000830152614d618161486b565b9050614d706020830184614a75565b92915050565b60006060820190508181036000830152614d8f8161488e565b9050614d9e6020830185614a75565b614dab6040830184614a75565b9392505050565b60006020820190508181036000830152614dcb816148b1565b9050919050565b60006020820190508181036000830152614deb816148d4565b9050919050565b60006020820190508181036000830152614e0b8161491a565b9050919050565b60006020820190508181036000830152614e2b8161493d565b9050919050565b60006020820190508181036000830152614e4b81614960565b9050919050565b60006020820190508181036000830152614e6b81614983565b9050919050565b600061010082019050614e8860008301846149a6565b92915050565b6000602082019050614ea36000830184614a75565b92915050565b6000604082019050614ebe6000830185614a75565b614ecb6020830184614a75565b9392505050565b600060c082019050614ee76000830189614a75565b614ef46020830188614a75565b614f016040830187614735565b614f0e6060830186614a75565b614f1b6080830185614a75565b614f2860a08301846146bc565b979650505050505050565b6000602082019050614f486000830184614a84565b92915050565b600082905092915050565b600081519050919050565b600082825260208201905092915050565b600081905092915050565b600082825260208201905092915050565b60008085851115614fa557614fa4615439565b5b83861115614fb657614fb5615434565b5b6001850283019150848603905094509492505050565b6000614fd782615206565b9150614fe283615206565b9250827fffffffffffffffffffffffffffffffffffffffffffffffffffffffffffffffff038211156150175761501661536e565b5b828201905092915050565b600061502d82615206565b915061503883615206565b9250826150485761504761539d565b5b828204905092915050565b600061505e82615206565b915061506983615206565b9250817fffffffffffffffffffffffffffffffffffffffffffffffffffffffffffffffff04831182151516156150a2576150a161536e565b5b828202905092915050565b60006150b8826151bf565b91506150c3836151bf565b9250827f8000000000000000000000000000000000000000000000000000000000000000018212600084121516156150fe576150fd61536e565b5b827f7fffffffffffffffffffffffffffffffffffffffffffffffffffffffffffffff0182136000841216156151365761513561536e565b5b828203905092915050565b600061514c82615206565b915061515783615206565b92508282101561516a5761516961536e565b5b828203905092915050565b6000615180826151d7565b9050919050565b60008115159050919050565b60007fffffffffffffffffffffffffffffffffffffffff00000000000000000000000082169050919050565b6000819050919050565b600061ffff82169050919050565b600073ffffffffffffffffffffffffffffffffffffffff82169050919050565b600062ffffff82169050919050565b6000819050919050565b600060ff82169050919050565b600069ffffffffffffffffffff82169050919050565b600061523f8383614f4e565b8261524a8135615193565b9250601482101561528a576152857fffffffffffffffffffffffffffffffffffffffff0000000000000000000000008360140360080261546b565b831692505b505092915050565b600061529d826151c9565b9050919050565b60005b838110156152c25780820151818401526020810190506152a7565b838111156152d1576000848401525b50505050565b60006152e282615206565b915060008214156152f6576152f561536e565b5b600182039050919050565b600061530c82615206565b91507fffffffffffffffffffffffffffffffffffffffffffffffffffffffffffffffff82141561533f5761533e61536e565b5b600182019050919050565b60006153558261535c565b9050919050565b60006153678261545e565b9050919050565b7f4e487b7100000000000000000000000000000000000000000000000000000000600052601160045260246000fd5b7f4e487b7100000000000000000000000000000000000000000000000000000000600052601260045260246000fd5b7f4e487b7100000000000000000000000000000000000000000000000000000000600052603160045260246000fd5b7f4e487b7100000000000000000000000000000000000000000000000000000000600052603260045260246000fd5b600080fd5b600080fd5b600080fd5b600080fd5b600080fd5b600080fd5b600080fd5b6000601f19601f8301169050919050565b60008160601b9050919050565b600082821b905092915050565b7f7573657220616c72656164792061646465640000000000000000000000000000600082015250565b7f646f6e6174696f6e206661696c65640000000000000000000000000000000000600082015250565b7f57697468647261775265636f7665724d61746963206661696c65640000000000600082015250565b7f616d6f756e74203e20616c6c6f77616e63650000000000000000000000000000600082015250565b7f63616e27742064656c206c617374206f776e6572000000000000000000000000600082015250565b7f3020616464726573730000000000000000000000000000000000000000000000600082015250565b7f616d6f756e74203e2062616c616e636500000000000000000000000000000000600082015250565b7f5265636f7665724d61746963206661696c656400000000000000000000000000600082015250565b7f4441490000000000000000000000000000000000000000000000000000000000600082015250565b7f4d41544943000000000000000000000000000000000000000000000000000000600082015250565b7f6f6e6c79206f776e657273000000000000000000000000000000000000000000600082015250565b7f6e6f742061207573657200000000000000000000000000000000000000000000600082015250565b50565b7f6e6f7420616e206f776e65720000000000000000000000000000000000000000600082015250565b7f4441492062616c616e6365203e20300000000000000000000000000000000000600082015250565b7f5f616d6f756e74203e2062616c616e6365000000000000000000000000000000600082015250565b7f7769746864726177206661696c65640000000000000000000000000000000000600082015250565b61571481615175565b811461571f57600080fd5b50565b61572b81615187565b811461573657600080fd5b50565b615742816151bf565b811461574d57600080fd5b50565b61575981615206565b811461576457600080fd5b50565b61577081615210565b811461577b57600080fd5b50565b6157878161521d565b811461579257600080fd5b5056fea2646970667358221220457a1d0c1c0b2eea54a351270427d69a4835d0bffc32895d2eea547388f1325864736f6c63430008070033",
  "linkReferences": {},
  "deployedLinkReferences": {}
}