{
  "_format": "hh-sol-artifact-1",
  "contractName": "LiquiSwap",
  "sourceName": "contracts/LiquiUniSwap.sol",
  "abi": [
    {
      "inputs": [],
      "stateMutability": "nonpayable",
      "type": "constructor"
    },
    {
      "anonymous": false,
      "inputs": [
        {
          "indexed": true,
          "internalType": "address",
          "name": "user",
          "type": "address"
        },
        {
          "indexed": false,
          "internalType": "string",
          "name": "token",
          "type": "string"
        },
        {
          "indexed": false,
          "internalType": "uint256",
          "name": "amount",
          "type": "uint256"
        }
      ],
      "name": "Deposit",
      "type": "event"
    },
    {
      "anonymous": false,
      "inputs": [
        {
          "indexed": true,
          "internalType": "int256",
          "name": "price",
          "type": "int256"
        },
        {
          "indexed": false,
          "internalType": "uint256",
          "name": "targetAmount",
          "type": "uint256"
        },
        {
          "indexed": false,
          "internalType": "uint256",
          "name": "actualAmount",
          "type": "uint256"
        }
      ],
      "name": "Liquidation",
      "type": "event"
    },
    {
      "anonymous": false,
      "inputs": [
        {
          "indexed": true,
          "internalType": "address",
          "name": "user",
          "type": "address"
        }
      ],
      "name": "UserAdded",
      "type": "event"
    },
    {
      "anonymous": false,
      "inputs": [
        {
          "indexed": true,
          "internalType": "address",
          "name": "user",
          "type": "address"
        }
      ],
      "name": "UserDeleted",
      "type": "event"
    },
    {
      "anonymous": false,
      "inputs": [
        {
          "indexed": true,
          "internalType": "address",
          "name": "user",
          "type": "address"
        },
        {
          "indexed": false,
          "internalType": "string",
          "name": "token",
          "type": "string"
        },
        {
          "indexed": false,
          "internalType": "uint256",
          "name": "amount",
          "type": "uint256"
        }
      ],
      "name": "Withdrawal",
      "type": "event"
    },
    {
      "inputs": [],
      "name": "DAI",
      "outputs": [
        {
          "internalType": "address",
          "name": "",
          "type": "address"
        }
      ],
      "stateMutability": "view",
      "type": "function"
    },
    {
      "inputs": [],
      "name": "ETHvUSD",
      "outputs": [
        {
          "internalType": "address",
          "name": "",
          "type": "address"
        }
      ],
      "stateMutability": "view",
      "type": "function"
    },
    {
      "inputs": [],
      "name": "WETH9",
      "outputs": [
        {
          "internalType": "address",
          "name": "",
          "type": "address"
        }
      ],
      "stateMutability": "view",
      "type": "function"
    },
    {
      "inputs": [
        {
          "internalType": "address",
          "name": "_newOwner",
          "type": "address"
        }
      ],
      "name": "addOwner",
      "outputs": [],
      "stateMutability": "nonpayable",
      "type": "function"
    },
    {
      "inputs": [],
      "name": "addUser",
      "outputs": [],
      "stateMutability": "nonpayable",
      "type": "function"
    },
    {
      "inputs": [
        {
          "internalType": "bytes",
          "name": "checkData",
          "type": "bytes"
        }
      ],
      "name": "checkUpkeep",
      "outputs": [
        {
          "internalType": "bool",
          "name": "upkeepNeeded",
          "type": "bool"
        },
        {
          "internalType": "bytes",
          "name": "performData",
          "type": "bytes"
        }
      ],
      "stateMutability": "view",
      "type": "function"
    },
    {
      "inputs": [
        {
          "internalType": "address",
          "name": "_delOwner",
          "type": "address"
        }
      ],
      "name": "delOwner",
      "outputs": [],
      "stateMutability": "nonpayable",
      "type": "function"
    },
    {
      "inputs": [],
      "name": "delUser",
      "outputs": [],
      "stateMutability": "nonpayable",
      "type": "function"
    },
    {
      "inputs": [
        {
          "internalType": "uint256",
          "name": "_amount",
          "type": "uint256"
        }
      ],
      "name": "depositWETH",
      "outputs": [],
      "stateMutability": "nonpayable",
      "type": "function"
    },
    {
      "inputs": [
        {
          "internalType": "uint256",
          "name": "_amount",
          "type": "uint256"
        },
        {
          "internalType": "int256",
          "name": "_liquidationPrice",
          "type": "int256"
        }
      ],
      "name": "depositWETH",
      "outputs": [],
      "stateMutability": "nonpayable",
      "type": "function"
    },
    {
      "inputs": [],
      "name": "getBalanceDAI",
      "outputs": [
        {
          "internalType": "uint256",
          "name": "",
          "type": "uint256"
        }
      ],
      "stateMutability": "view",
      "type": "function"
    },
    {
      "inputs": [],
      "name": "getBalanceWETH",
      "outputs": [
        {
          "internalType": "uint256",
          "name": "",
          "type": "uint256"
        }
      ],
      "stateMutability": "view",
      "type": "function"
    },
    {
      "inputs": [],
      "name": "getContractBalanceDAI",
      "outputs": [
        {
          "internalType": "uint256",
          "name": "",
          "type": "uint256"
        }
      ],
      "stateMutability": "view",
      "type": "function"
    },
    {
      "inputs": [],
      "name": "getContractBalanceWETH",
      "outputs": [
        {
          "internalType": "uint256",
          "name": "",
          "type": "uint256"
        }
      ],
      "stateMutability": "view",
      "type": "function"
    },
    {
      "inputs": [],
      "name": "getLatestPrice",
      "outputs": [
        {
          "internalType": "int256",
          "name": "",
          "type": "int256"
        }
      ],
      "stateMutability": "view",
      "type": "function"
    },
    {
      "inputs": [
        {
          "internalType": "address",
          "name": "_addr",
          "type": "address"
        }
      ],
      "name": "getLiquidationPrice",
      "outputs": [
        {
          "internalType": "int256",
          "name": "",
          "type": "int256"
        }
      ],
      "stateMutability": "view",
      "type": "function"
    },
    {
      "inputs": [],
      "name": "getLiquidationPrice",
      "outputs": [
        {
          "internalType": "int256",
          "name": "",
          "type": "int256"
        }
      ],
      "stateMutability": "view",
      "type": "function"
    },
    {
      "inputs": [],
      "name": "getWETHAllowance",
      "outputs": [
        {
          "internalType": "uint256",
          "name": "",
          "type": "uint256"
        }
      ],
      "stateMutability": "view",
      "type": "function"
    },
    {
      "inputs": [
        {
          "internalType": "address",
          "name": "_addr",
          "type": "address"
        }
      ],
      "name": "getWETHAllowance",
      "outputs": [
        {
          "internalType": "uint256",
          "name": "",
          "type": "uint256"
        }
      ],
      "stateMutability": "view",
      "type": "function"
    },
    {
      "inputs": [],
      "name": "numOwners",
      "outputs": [
        {
          "internalType": "uint256",
          "name": "",
          "type": "uint256"
        }
      ],
      "stateMutability": "view",
      "type": "function"
    },
    {
      "inputs": [
        {
          "internalType": "address",
          "name": "",
          "type": "address"
        }
      ],
      "name": "owners",
      "outputs": [
        {
          "internalType": "bool",
          "name": "",
          "type": "bool"
        }
      ],
      "stateMutability": "view",
      "type": "function"
    },
    {
      "inputs": [
        {
          "internalType": "bytes",
          "name": "performData",
          "type": "bytes"
        }
      ],
      "name": "performUpkeep",
      "outputs": [],
      "stateMutability": "nonpayable",
      "type": "function"
    },
    {
      "inputs": [],
      "name": "poolFee",
      "outputs": [
        {
          "internalType": "uint24",
          "name": "",
          "type": "uint24"
        }
      ],
      "stateMutability": "view",
      "type": "function"
    },
    {
      "inputs": [],
      "name": "priceDropAmount",
      "outputs": [
        {
          "internalType": "int256",
          "name": "",
          "type": "int256"
        }
      ],
      "stateMutability": "view",
      "type": "function"
    },
    {
      "inputs": [],
      "name": "routerAddress",
      "outputs": [
        {
          "internalType": "address",
          "name": "",
          "type": "address"
        }
      ],
      "stateMutability": "view",
      "type": "function"
    },
    {
      "inputs": [],
      "name": "sendDAI",
      "outputs": [],
      "stateMutability": "nonpayable",
      "type": "function"
    },
    {
      "inputs": [],
      "name": "sendWETH",
      "outputs": [],
      "stateMutability": "nonpayable",
      "type": "function"
    },
    {
      "inputs": [
        {
          "internalType": "int256",
          "name": "_liquidationPrice",
          "type": "int256"
        }
      ],
      "name": "setLiquidationPrice",
      "outputs": [],
      "stateMutability": "nonpayable",
      "type": "function"
    },
    {
      "inputs": [
        {
          "internalType": "int256",
          "name": "_priceDrop",
          "type": "int256"
        }
      ],
      "name": "setPriceDrop",
      "outputs": [],
      "stateMutability": "nonpayable",
      "type": "function"
    },
    {
      "inputs": [
        {
          "internalType": "address",
          "name": "",
          "type": "address"
        }
      ],
      "name": "users",
      "outputs": [
        {
          "internalType": "uint256",
          "name": "usersIndexPosition",
          "type": "uint256"
        },
        {
          "internalType": "int256",
          "name": "liquidationPrice",
          "type": "int256"
        },
        {
          "internalType": "uint256",
          "name": "balanceWETH",
          "type": "uint256"
        },
        {
          "internalType": "uint256",
          "name": "balanceDAI",
          "type": "uint256"
        }
      ],
      "stateMutability": "view",
      "type": "function"
    },
    {
      "inputs": [
        {
          "internalType": "uint256",
          "name": "",
          "type": "uint256"
        }
      ],
      "name": "usersIndex",
      "outputs": [
        {
          "internalType": "address",
          "name": "",
          "type": "address"
        }
      ],
      "stateMutability": "view",
      "type": "function"
    },
    {
      "inputs": [
        {
          "internalType": "uint256",
          "name": "_amount",
          "type": "uint256"
        }
      ],
      "name": "withdrawDAI",
      "outputs": [],
      "stateMutability": "nonpayable",
      "type": "function"
    },
    {
      "inputs": [
        {
          "internalType": "uint256",
          "name": "_amount",
          "type": "uint256"
        }
      ],
      "name": "withdrawWETH",
      "outputs": [],
      "stateMutability": "nonpayable",
      "type": "function"
    }
  ],
  "bytecode": "0x60a0604052730715a7794a1dc8e42615f059dd6e406a6594651a6000806101000a81548173ffffffffffffffffffffffffffffffffffffffff021916908373ffffffffffffffffffffffffffffffffffffffff16021790555060008054906101000a900473ffffffffffffffffffffffffffffffffffffffff16600160006101000a81548173ffffffffffffffffffffffffffffffffffffffff021916908373ffffffffffffffffffffffffffffffffffffffff16021790555073e592427a0aece92de3edee1f18e0157c0586156473ffffffffffffffffffffffffffffffffffffffff1660809073ffffffffffffffffffffffffffffffffffffffff1660601b81525073a6fa4fb5f76172d178d61b04b0ecd319c5d1c0aa600260006101000a81548173ffffffffffffffffffffffffffffffffffffffff021916908373ffffffffffffffffffffffffffffffffffffffff160217905550721b3b4d0f3714ca98ba10f6042daebf0b1b7b6f600360006101000a81548173ffffffffffffffffffffffffffffffffffffffff021916908373ffffffffffffffffffffffffffffffffffffffff160217905550348015620001b957600080fd5b506001600460003373ffffffffffffffffffffffffffffffffffffffff1673ffffffffffffffffffffffffffffffffffffffff16815260200190815260200160002060006101000a81548160ff02191690831515021790555060056000815462000223906200029e565b91905081905550600660009080600181540180825580915050600190039060005260206000200160009091909190916101000a81548173ffffffffffffffffffffffffffffffffffffffff021916908373ffffffffffffffffffffffffffffffffffffffff1602179055506200031b565b6000819050919050565b6000620002ab8262000294565b91507fffffffffffffffffffffffffffffffffffffffffffffffffffffffffffffffff821415620002e157620002e0620002ec565b5b600182019050919050565b7f4e487b7100000000000000000000000000000000000000000000000000000000600052601160045260246000fd5b60805160601c6136f8620003416000396000818161241b015261257301526136f86000f3fe608060405234801561001057600080fd5b50600436106101fb5760003560e01c80637065cb481161011a5780638e15f473116100ad578063cd64afc51161007c578063cd64afc51461055a578063cf9897c71461058a578063e0bab4c414610594578063e4e939a7146105b2578063fc4dd333146105d0576101fb565b80638e15f473146104cf5780639add7438146104ed578063a87430ba14610509578063b4576cd11461053c576101fb565b80638234e16e116100e95780638234e16e1461046b57806384ef904e1461048957806387ab18e1146104a7578063899478a6146104c5576101fb565b80637065cb48146103f95780637398418814610415578063765fd49914610431578063779b0b1d1461044f576101fb565b806346558d1b1161019257806369f03e821161016157806369f03e82146103705780636c7168981461038e5780636e04ff0d146103ac5780636ea16962146103dd576101fb565b806346558d1b146102fc5780634aa4a4fc1461031a57806353315c6c1461033857806366dd0f2414610354576101fb565b80633268cc56116101ce5780633268cc56146102ae57806345476575146102cc578063455c928c146102d65780634585e33b146102e0576101fb565b8063022914a714610200578063089fe6aa1461023057806310fdda091461024e57806317d8de821461027e575b600080fd5b61021a6004803603810190610215919061270d565b6105ec565b6040516102279190612ced565b60405180910390f35b61023861060c565b6040516102459190612eeb565b60405180910390f35b610268600480360381019061026391906127e1565b610612565b6040516102759190612c49565b60405180910390f35b6102986004803603810190610293919061270d565b610651565b6040516102a59190612d38565b60405180910390f35b6102b661069d565b6040516102c39190612c49565b60405180910390f35b6102d46106b5565b005b6102de6108a3565b005b6102fa60048036038101906102f59190612767565b610a82565b005b610304610d79565b6040516103119190612d38565b60405180910390f35b610322610dc3565b60405161032f9190612c49565b60405180910390f35b610352600480360381019061034d91906127b4565b610ddb565b005b61036e600480360381019061036991906127e1565b610eab565b005b61037861114a565b6040516103859190612f06565b60405180910390f35b6103966111fc565b6040516103a39190612f06565b60405180910390f35b6103c660048036038101906103c19190612767565b611246565b6040516103d4929190612d08565b60405180910390f35b6103f760048036038101906103f2919061283b565b6113c8565b005b610413600480360381019061040e919061270d565b61141c565b005b61042f600480360381019061042a919061270d565b611519565b005b6104396116e7565b6040516104469190612f06565b60405180910390f35b610469600480360381019061046491906127b4565b61179b565b005b610473611831565b6040516104809190612f06565b60405180910390f35b61049161187b565b60405161049e9190612f06565b60405180910390f35b6104af61192d565b6040516104bc9190612f06565b60405180910390f35b6104cd611933565b005b6104d7611ca5565b6040516104e49190612d38565b60405180910390f35b610507600480360381019061050291906127e1565b611d70565b005b610523600480360381019061051e919061270d565b611f1a565b6040516105339493929190612f21565b60405180910390f35b610544611f4a565b6040516105519190612d38565b60405180910390f35b610574600480360381019061056f919061270d565b611f50565b6040516105819190612f06565b60405180910390f35b610592612006565b005b61059c6121f4565b6040516105a99190612c49565b60405180910390f35b6105ba61220b565b6040516105c79190612c49565b60405180910390f35b6105ea60048036038101906105e591906127e1565b61222f565b005b60046020528060005260406000206000915054906101000a900460ff1681565b610bb881565b6006818154811061062257600080fd5b906000526020600020016000915054906101000a900473ffffffffffffffffffffffffffffffffffffffff1681565b6000600760008373ffffffffffffffffffffffffffffffffffffffff1673ffffffffffffffffffffffffffffffffffffffff168152602001908152602001600020600101549050919050565b73e592427a0aece92de3edee1f18e0157c0586156481565b600460003373ffffffffffffffffffffffffffffffffffffffff1673ffffffffffffffffffffffffffffffffffffffff16815260200190815260200160002060009054906101000a900460ff16610741576040517f08c379a000000000000000000000000000000000000000000000000000000000815260040161073890612e2f565b60405180910390fd5b6000600360009054906101000a900473ffffffffffffffffffffffffffffffffffffffff1673ffffffffffffffffffffffffffffffffffffffff166370a08231306040518263ffffffff1660e01b815260040161079e9190612c49565b60206040518083038186803b1580156107b657600080fd5b505afa1580156107ca573d6000803e3d6000fd5b505050506040513d601f19601f820116820180604052508101906107ee919061280e565b9050600360009054906101000a900473ffffffffffffffffffffffffffffffffffffffff1673ffffffffffffffffffffffffffffffffffffffff1663a9059cbb33836040518363ffffffff1660e01b815260040161084d929190612cc4565b602060405180830381600087803b15801561086757600080fd5b505af115801561087b573d6000803e3d6000fd5b505050506040513d601f19601f8201168201806040525081019061089f919061273a565b5050565b6000600760003373ffffffffffffffffffffffffffffffffffffffff1673ffffffffffffffffffffffffffffffffffffffff1681526020019081526020016000206000015414610928576040517f08c379a000000000000000000000000000000000000000000000000000000000815260040161091f90612d53565b60405180910390fd5b6006339080600181540180825580915050600190039060005260206000200160009091909190916101000a81548173ffffffffffffffffffffffffffffffffffffffff021916908373ffffffffffffffffffffffffffffffffffffffff160217905550604051806080016040528060068054905081526020017fffffffffffffffffffffffffffffffffffffffffffffffffffffffffffffffff8152602001600081526020016000815250600760003373ffffffffffffffffffffffffffffffffffffffff1673ffffffffffffffffffffffffffffffffffffffff168152602001908152602001600020600082015181600001556020820151816001015560408201518160020155606082015181600301559050503373ffffffffffffffffffffffffffffffffffffffff167f19ef9a4877199f89440a26acb26895ec02ed86f2df1aeaa90dc18041b892f71f60405160405180910390a2565b6000610a8c611ca5565b905060008060005b85859050811015610b7b5785858290601484610ab0919061300d565b92610abd93929190612fd2565b90610ac89190613259565b60601c9150600760008373ffffffffffffffffffffffffffffffffffffffff1673ffffffffffffffffffffffffffffffffffffffff168152602001908152602001600020600101548413610b6757600760008373ffffffffffffffffffffffffffffffffffffffff1673ffffffffffffffffffffffffffffffffffffffff1681526020019081526020016000206002015483610b64919061300d565b92505b601481610b74919061300d565b9050610a94565b506000821115610d72576000610b90836123d9565b90506000811115610d365760005b86869050811015610d345786868290601484610bba919061300d565b92610bc793929190612fd2565b90610bd29190613259565b60601c9250600760008473ffffffffffffffffffffffffffffffffffffffff1673ffffffffffffffffffffffffffffffffffffffff168152602001908152602001600020600101548513610d2057600084600760008673ffffffffffffffffffffffffffffffffffffffff1673ffffffffffffffffffffffffffffffffffffffff1681526020019081526020016000206002015484610c719190613094565b610c7b9190613063565b905080600760008673ffffffffffffffffffffffffffffffffffffffff1673ffffffffffffffffffffffffffffffffffffffff1681526020019081526020016000206003016000828254610ccf919061300d565b925050819055506000600760008673ffffffffffffffffffffffffffffffffffffffff1673ffffffffffffffffffffffffffffffffffffffff16815260200190815260200160002060020181905550505b601481610d2d919061300d565b9050610b9e565b505b837f6d849981c611af330f71fdd5474d305fe6aaf66db1776f284d113e26b39679418483604051610d68929190612f66565b60405180910390a2505b5050505050565b6000600760003373ffffffffffffffffffffffffffffffffffffffff1673ffffffffffffffffffffffffffffffffffffffff16815260200190815260200160002060010154905090565b73a6fa4fb5f76172d178d61b04b0ecd319c5d1c0aa81565b6000600760003373ffffffffffffffffffffffffffffffffffffffff1673ffffffffffffffffffffffffffffffffffffffff168152602001908152602001600020600001541415610e61576040517f08c379a0000000000000000000000000000000000000000000000000000000008152600401610e5890612e6f565b60405180910390fd5b80600760003373ffffffffffffffffffffffffffffffffffffffff1673ffffffffffffffffffffffffffffffffffffffff1681526020019081526020016000206001018190555050565b6000600760003373ffffffffffffffffffffffffffffffffffffffff1673ffffffffffffffffffffffffffffffffffffffff168152602001908152602001600020600001541415610eff57610efe6108a3565b5b600260009054906101000a900473ffffffffffffffffffffffffffffffffffffffff1673ffffffffffffffffffffffffffffffffffffffff1663dd62ed3e33306040518363ffffffff1660e01b8152600401610f5c929190612c64565b60206040518083038186803b158015610f7457600080fd5b505afa158015610f88573d6000803e3d6000fd5b505050506040513d601f19601f82011682018060405250810190610fac919061280e565b811115610fee576040517f08c379a0000000000000000000000000000000000000000000000000000000008152600401610fe590612e4f565b60405180910390fd5b600260009054906101000a900473ffffffffffffffffffffffffffffffffffffffff1673ffffffffffffffffffffffffffffffffffffffff166323b872dd3330846040518463ffffffff1660e01b815260040161104d93929190612c8d565b602060405180830381600087803b15801561106757600080fd5b505af115801561107b573d6000803e3d6000fd5b505050506040513d601f19601f8201168201806040525081019061109f919061273a565b5080600760003373ffffffffffffffffffffffffffffffffffffffff1673ffffffffffffffffffffffffffffffffffffffff16815260200190815260200160002060020160008282546110f2919061300d565b925050819055503373ffffffffffffffffffffffffffffffffffffffff167f2d4b597935f3cd67fb2eebf1db4debc934cee5c7baa7153f980fdbeb2e74084e8260405161113f9190612d73565b60405180910390a250565b6000600260009054906101000a900473ffffffffffffffffffffffffffffffffffffffff1673ffffffffffffffffffffffffffffffffffffffff166370a08231306040518263ffffffff1660e01b81526004016111a79190612c49565b60206040518083038186803b1580156111bf57600080fd5b505afa1580156111d3573d6000803e3d6000fd5b505050506040513d601f19601f820116820180604052508101906111f7919061280e565b905090565b6000600760003373ffffffffffffffffffffffffffffffffffffffff1673ffffffffffffffffffffffffffffffffffffffff16815260200190815260200160002060030154905090565b600060606000611254611ca5565b90506000600190505b6006805490508110156113b057600060076000600684815481106112845761128361340f565b5b9060005260206000200160009054906101000a900473ffffffffffffffffffffffffffffffffffffffff1673ffffffffffffffffffffffffffffffffffffffff1673ffffffffffffffffffffffffffffffffffffffff168152602001908152602001600020604051806080016040529081600082015481526020016001820154815260200160028201548152602001600382015481525050905080602001518313158015611336575060008160400151115b1561139e5783600683815481106113505761134f61340f565b5b9060005260206000200160009054906101000a900473ffffffffffffffffffffffffffffffffffffffff1660405160200161138c929190612c21565b60405160208183030381529060405293505b50806113a990613315565b905061125d565b506000825111156113c057600192505b509250929050565b6113d182610eab565b80600760003373ffffffffffffffffffffffffffffffffffffffff1673ffffffffffffffffffffffffffffffffffffffff168152602001908152602001600020600101819055505050565b600460003373ffffffffffffffffffffffffffffffffffffffff1673ffffffffffffffffffffffffffffffffffffffff16815260200190815260200160002060009054906101000a900460ff166114a8576040517f08c379a000000000000000000000000000000000000000000000000000000000815260040161149f90612e2f565b60405180910390fd5b6001600460008373ffffffffffffffffffffffffffffffffffffffff1673ffffffffffffffffffffffffffffffffffffffff16815260200190815260200160002060006101000a81548160ff02191690831515021790555060056000815461150f90613315565b9190508190555050565b600460003373ffffffffffffffffffffffffffffffffffffffff1673ffffffffffffffffffffffffffffffffffffffff16815260200190815260200160002060009054906101000a900460ff166115a5576040517f08c379a000000000000000000000000000000000000000000000000000000000815260040161159c90612e2f565b60405180910390fd5b6001600554116115ea576040517f08c379a00000000000000000000000000000000000000000000000000000000081526004016115e190612da1565b60405180910390fd5b600460008273ffffffffffffffffffffffffffffffffffffffff1673ffffffffffffffffffffffffffffffffffffffff16815260200190815260200160002060009054906101000a900460ff16611676576040517f08c379a000000000000000000000000000000000000000000000000000000000815260040161166d90612e8f565b60405180910390fd5b6000600460008373ffffffffffffffffffffffffffffffffffffffff1673ffffffffffffffffffffffffffffffffffffffff16815260200190815260200160002060006101000a81548160ff0219169083151502179055506005600081546116dd906132eb565b9190508190555050565b6000600260009054906101000a900473ffffffffffffffffffffffffffffffffffffffff1673ffffffffffffffffffffffffffffffffffffffff1663dd62ed3e33306040518363ffffffff1660e01b8152600401611746929190612c64565b60206040518083038186803b15801561175e57600080fd5b505afa158015611772573d6000803e3d6000fd5b505050506040513d601f19601f82011682018060405250810190611796919061280e565b905090565b600460003373ffffffffffffffffffffffffffffffffffffffff1673ffffffffffffffffffffffffffffffffffffffff16815260200190815260200160002060009054906101000a900460ff16611827576040517f08c379a000000000000000000000000000000000000000000000000000000000815260040161181e90612e2f565b60405180910390fd5b8060088190555050565b6000600760003373ffffffffffffffffffffffffffffffffffffffff1673ffffffffffffffffffffffffffffffffffffffff16815260200190815260200160002060020154905090565b6000600360009054906101000a900473ffffffffffffffffffffffffffffffffffffffff1673ffffffffffffffffffffffffffffffffffffffff166370a08231306040518263ffffffff1660e01b81526004016118d89190612c49565b60206040518083038186803b1580156118f057600080fd5b505afa158015611904573d6000803e3d6000fd5b505050506040513d601f19601f82011682018060405250810190611928919061280e565b905090565b60055481565b6000600760003373ffffffffffffffffffffffffffffffffffffffff1673ffffffffffffffffffffffffffffffffffffffff1681526020019081526020016000206000015414156119b9576040517f08c379a00000000000000000000000000000000000000000000000000000000081526004016119b090612e6f565b60405180910390fd5b6000600760003373ffffffffffffffffffffffffffffffffffffffff1673ffffffffffffffffffffffffffffffffffffffff1681526020019081526020016000206002015414611a3e576040517f08c379a0000000000000000000000000000000000000000000000000000000008152600401611a3590612dc1565b60405180910390fd5b6000600760003373ffffffffffffffffffffffffffffffffffffffff1673ffffffffffffffffffffffffffffffffffffffff1681526020019081526020016000206003015414611ac3576040517f08c379a0000000000000000000000000000000000000000000000000000000008152600401611aba90612eaf565b60405180910390fd5b6000600760003373ffffffffffffffffffffffffffffffffffffffff1673ffffffffffffffffffffffffffffffffffffffff16815260200190815260200160002060000154905060066001600680549050611b1e9190613182565b81548110611b2f57611b2e61340f565b5b9060005260206000200160009054906101000a900473ffffffffffffffffffffffffffffffffffffffff1660068281548110611b6e57611b6d61340f565b5b9060005260206000200160006101000a81548173ffffffffffffffffffffffffffffffffffffffff021916908373ffffffffffffffffffffffffffffffffffffffff1602179055506006805480611bc857611bc76133e0565b5b6001900381819060005260206000200160006101000a81549073ffffffffffffffffffffffffffffffffffffffff02191690559055600760003373ffffffffffffffffffffffffffffffffffffffff1673ffffffffffffffffffffffffffffffffffffffff16815260200190815260200160002060008082016000905560018201600090556002820160009055600382016000905550503373ffffffffffffffffffffffffffffffffffffffff167f4bc56f1321288dfb5b416cb3a7fd188723979f9e866c91d88eccf7fca039d03960405160405180910390a250565b600080600080600080600160009054906101000a900473ffffffffffffffffffffffffffffffffffffffff1673ffffffffffffffffffffffffffffffffffffffff1663feaf968c6040518163ffffffff1660e01b815260040160a06040518083038186803b158015611d1657600080fd5b505afa158015611d2a573d6000803e3d6000fd5b505050506040513d601f19601f82011682018060405250810190611d4e919061287b565b9450945094509450945060085484611d6691906130ee565b9550505050505090565b6000611d7a6111fc565b905080821115611dbf576040517f08c379a0000000000000000000000000000000000000000000000000000000008152600401611db690612de1565b60405180910390fd5b600360009054906101000a900473ffffffffffffffffffffffffffffffffffffffff1673ffffffffffffffffffffffffffffffffffffffff1663a9059cbb33846040518363ffffffff1660e01b8152600401611e1c929190612cc4565b602060405180830381600087803b158015611e3657600080fd5b505af1158015611e4a573d6000803e3d6000fd5b505050506040513d601f19601f82011682018060405250810190611e6e919061273a565b5081600760003373ffffffffffffffffffffffffffffffffffffffff1673ffffffffffffffffffffffffffffffffffffffff1681526020019081526020016000206003016000828254611ec19190613182565b925050819055503373ffffffffffffffffffffffffffffffffffffffff167f323cefffcafc4dae937c4a852e3866ecde9e8c1d723e1187230b982201040fb683604051611f0e9190612e01565b60405180910390a25050565b60076020528060005260406000206000915090508060000154908060010154908060020154908060030154905084565b60085481565b6000600260009054906101000a900473ffffffffffffffffffffffffffffffffffffffff1673ffffffffffffffffffffffffffffffffffffffff1663dd62ed3e83306040518363ffffffff1660e01b8152600401611faf929190612c64565b60206040518083038186803b158015611fc757600080fd5b505afa158015611fdb573d6000803e3d6000fd5b505050506040513d601f19601f82011682018060405250810190611fff919061280e565b9050919050565b600460003373ffffffffffffffffffffffffffffffffffffffff1673ffffffffffffffffffffffffffffffffffffffff16815260200190815260200160002060009054906101000a900460ff16612092576040517f08c379a000000000000000000000000000000000000000000000000000000000815260040161208990612e2f565b60405180910390fd5b6000600260009054906101000a900473ffffffffffffffffffffffffffffffffffffffff1673ffffffffffffffffffffffffffffffffffffffff166370a08231306040518263ffffffff1660e01b81526004016120ef9190612c49565b60206040518083038186803b15801561210757600080fd5b505afa15801561211b573d6000803e3d6000fd5b505050506040513d601f19601f8201168201806040525081019061213f919061280e565b9050600260009054906101000a900473ffffffffffffffffffffffffffffffffffffffff1673ffffffffffffffffffffffffffffffffffffffff1663a9059cbb33836040518363ffffffff1660e01b815260040161219e929190612cc4565b602060405180830381600087803b1580156121b857600080fd5b505af11580156121cc573d6000803e3d6000fd5b505050506040513d601f19601f820116820180604052508101906121f0919061273a565b5050565b721b3b4d0f3714ca98ba10f6042daebf0b1b7b6f81565b60008054906101000a900473ffffffffffffffffffffffffffffffffffffffff1681565b6000612239611831565b90508082111561227e576040517f08c379a000000000000000000000000000000000000000000000000000000000815260040161227590612de1565b60405180910390fd5b600260009054906101000a900473ffffffffffffffffffffffffffffffffffffffff1673ffffffffffffffffffffffffffffffffffffffff1663a9059cbb33846040518363ffffffff1660e01b81526004016122db929190612cc4565b602060405180830381600087803b1580156122f557600080fd5b505af1158015612309573d6000803e3d6000fd5b505050506040513d601f19601f8201168201806040525081019061232d919061273a565b5081600760003373ffffffffffffffffffffffffffffffffffffffff1673ffffffffffffffffffffffffffffffffffffffff16815260200190815260200160002060020160008282546123809190613182565b925050819055503373ffffffffffffffffffffffffffffffffffffffff167f323cefffcafc4dae937c4a852e3866ecde9e8c1d723e1187230b982201040fb6836040516123cd9190612d73565b60405180910390a25050565b6000600260009054906101000a900473ffffffffffffffffffffffffffffffffffffffff1673ffffffffffffffffffffffffffffffffffffffff1663095ea7b37f0000000000000000000000000000000000000000000000000000000000000000846040518363ffffffff1660e01b8152600401612458929190612cc4565b602060405180830381600087803b15801561247257600080fd5b505af1158015612486573d6000803e3d6000fd5b505050506040513d601f19601f820116820180604052508101906124aa919061273a565b50600060405180610100016040528073a6fa4fb5f76172d178d61b04b0ecd319c5d1c0aa73ffffffffffffffffffffffffffffffffffffffff168152602001721b3b4d0f3714ca98ba10f6042daebf0b1b7b6f73ffffffffffffffffffffffffffffffffffffffff168152602001610bb862ffffff1681526020013073ffffffffffffffffffffffffffffffffffffffff16815260200142815260200184815260200160008152602001600073ffffffffffffffffffffffffffffffffffffffff1681525090507f000000000000000000000000000000000000000000000000000000000000000073ffffffffffffffffffffffffffffffffffffffff1663414bf389826040518263ffffffff1660e01b81526004016125ca9190612ecf565b602060405180830381600087803b1580156125e457600080fd5b505af11580156125f8573d6000803e3d6000fd5b505050506040513d601f19601f8201168201806040525081019061261c919061280e565b915050919050565b6000813590506126338161364f565b92915050565b60008151905061264881613666565b92915050565b60008083601f84011261266457612663613443565b5b8235905067ffffffffffffffff8111156126815761268061343e565b5b60208301915083600182028301111561269d5761269c613452565b5b9250929050565b6000813590506126b38161367d565b92915050565b6000815190506126c88161367d565b92915050565b6000813590506126dd81613694565b92915050565b6000815190506126f281613694565b92915050565b600081519050612707816136ab565b92915050565b6000602082840312156127235761272261345c565b5b600061273184828501612624565b91505092915050565b6000602082840312156127505761274f61345c565b5b600061275e84828501612639565b91505092915050565b6000806020838503121561277e5761277d61345c565b5b600083013567ffffffffffffffff81111561279c5761279b613457565b5b6127a88582860161264e565b92509250509250929050565b6000602082840312156127ca576127c961345c565b5b60006127d8848285016126a4565b91505092915050565b6000602082840312156127f7576127f661345c565b5b6000612805848285016126ce565b91505092915050565b6000602082840312156128245761282361345c565b5b6000612832848285016126e3565b91505092915050565b600080604083850312156128525761285161345c565b5b6000612860858286016126ce565b9250506020612871858286016126a4565b9150509250929050565b600080600080600060a086880312156128975761289661345c565b5b60006128a5888289016126f8565b95505060206128b6888289016126b9565b94505060406128c7888289016126e3565b93505060606128d8888289016126e3565b92505060806128e9888289016126f8565b9150509295509295909350565b6128ff816131b6565b82525050565b61290e816131b6565b82525050565b612925612920826131b6565b61335e565b82525050565b612934816131c8565b82525050565b600061294582612f9a565b61294f8185612fa5565b935061295f8185602086016132b8565b61296881613461565b840191505092915050565b600061297e82612f9a565b6129888185612fb6565b93506129988185602086016132b8565b80840191505092915050565b6129ad81613200565b82525050565b60006129c0601283612fc1565b91506129cb8261348c565b602082019050919050565b60006129e3600483612fc1565b91506129ee826134b5565b602082019050919050565b6000612a06601483612fc1565b9150612a11826134de565b602082019050919050565b6000612a29601083612fc1565b9150612a3482613507565b602082019050919050565b6000612a4c601083612fc1565b9150612a5782613530565b602082019050919050565b6000612a6f600383612fc1565b9150612a7a82613559565b602082019050919050565b6000612a92600b83612fc1565b9150612a9d82613582565b602082019050919050565b6000612ab5601183612fc1565b9150612ac0826135ab565b602082019050919050565b6000612ad8600a83612fc1565b9150612ae3826135d4565b602082019050919050565b6000612afb600c83612fc1565b9150612b06826135fd565b602082019050919050565b6000612b1e600f83612fc1565b9150612b2982613626565b602082019050919050565b61010082016000820151612b4b60008501826128f6565b506020820151612b5e60208501826128f6565b506040820151612b716040850182612be5565b506060820151612b8460608501826128f6565b506080820151612b976080850182612c03565b5060a0820151612baa60a0850182612c03565b5060c0820151612bbd60c0850182612c03565b5060e0820151612bd060e0850182612bd6565b50505050565b612bdf8161320a565b82525050565b612bee8161322a565b82525050565b612bfd8161322a565b82525050565b612c0c81613239565b82525050565b612c1b81613239565b82525050565b6000612c2d8285612973565b9150612c398284612914565b6014820191508190509392505050565b6000602082019050612c5e6000830184612905565b92915050565b6000604082019050612c796000830185612905565b612c866020830184612905565b9392505050565b6000606082019050612ca26000830186612905565b612caf6020830185612905565b612cbc6040830184612c12565b949350505050565b6000604082019050612cd96000830185612905565b612ce66020830184612c12565b9392505050565b6000602082019050612d02600083018461292b565b92915050565b6000604082019050612d1d600083018561292b565b8181036020830152612d2f818461293a565b90509392505050565b6000602082019050612d4d60008301846129a4565b92915050565b60006020820190508181036000830152612d6c816129b3565b9050919050565b60006040820190508181036000830152612d8c816129d6565b9050612d9b6020830184612c12565b92915050565b60006020820190508181036000830152612dba816129f9565b9050919050565b60006020820190508181036000830152612dda81612a1c565b9050919050565b60006020820190508181036000830152612dfa81612a3f565b9050919050565b60006040820190508181036000830152612e1a81612a62565b9050612e296020830184612c12565b92915050565b60006020820190508181036000830152612e4881612a85565b9050919050565b60006020820190508181036000830152612e6881612aa8565b9050919050565b60006020820190508181036000830152612e8881612acb565b9050919050565b60006020820190508181036000830152612ea881612aee565b9050919050565b60006020820190508181036000830152612ec881612b11565b9050919050565b600061010082019050612ee56000830184612b34565b92915050565b6000602082019050612f006000830184612bf4565b92915050565b6000602082019050612f1b6000830184612c12565b92915050565b6000608082019050612f366000830187612c12565b612f4360208301866129a4565b612f506040830185612c12565b612f5d6060830184612c12565b95945050505050565b6000604082019050612f7b6000830185612c12565b612f886020830184612c12565b9392505050565b600082905092915050565b600081519050919050565b600082825260208201905092915050565b600081905092915050565b600082825260208201905092915050565b60008085851115612fe657612fe561344d565b5b83861115612ff757612ff6613448565b5b6001850283019150848603905094509492505050565b600061301882613239565b915061302383613239565b9250827fffffffffffffffffffffffffffffffffffffffffffffffffffffffffffffffff0382111561305857613057613382565b5b828201905092915050565b600061306e82613239565b915061307983613239565b925082613089576130886133b1565b5b828204905092915050565b600061309f82613239565b91506130aa83613239565b9250817fffffffffffffffffffffffffffffffffffffffffffffffffffffffffffffffff04831182151516156130e3576130e2613382565b5b828202905092915050565b60006130f982613200565b915061310483613200565b9250827f80000000000000000000000000000000000000000000000000000000000000000182126000841215161561313f5761313e613382565b5b827f7fffffffffffffffffffffffffffffffffffffffffffffffffffffffffffffff01821360008412161561317757613176613382565b5b828203905092915050565b600061318d82613239565b915061319883613239565b9250828210156131ab576131aa613382565b5b828203905092915050565b60006131c18261320a565b9050919050565b60008115159050919050565b60007fffffffffffffffffffffffffffffffffffffffff00000000000000000000000082169050919050565b6000819050919050565b600073ffffffffffffffffffffffffffffffffffffffff82169050919050565b600062ffffff82169050919050565b6000819050919050565b600069ffffffffffffffffffff82169050919050565b60006132658383612f8f565b8261327081356131d4565b925060148210156132b0576132ab7fffffffffffffffffffffffffffffffffffffffff0000000000000000000000008360140360080261347f565b831692505b505092915050565b60005b838110156132d65780820151818401526020810190506132bb565b838111156132e5576000848401525b50505050565b60006132f682613239565b9150600082141561330a57613309613382565b5b600182039050919050565b600061332082613239565b91507fffffffffffffffffffffffffffffffffffffffffffffffffffffffffffffffff82141561335357613352613382565b5b600182019050919050565b600061336982613370565b9050919050565b600061337b82613472565b9050919050565b7f4e487b7100000000000000000000000000000000000000000000000000000000600052601160045260246000fd5b7f4e487b7100000000000000000000000000000000000000000000000000000000600052601260045260246000fd5b7f4e487b7100000000000000000000000000000000000000000000000000000000600052603160045260246000fd5b7f4e487b7100000000000000000000000000000000000000000000000000000000600052603260045260246000fd5b600080fd5b600080fd5b600080fd5b600080fd5b600080fd5b600080fd5b600080fd5b6000601f19601f8301169050919050565b60008160601b9050919050565b600082821b905092915050565b7f7573657220616c72656164792061646465640000000000000000000000000000600082015250565b7f5745544800000000000000000000000000000000000000000000000000000000600082015250565b7f63616e27742064656c206c617374206f776e6572000000000000000000000000600082015250565b7f574554482062616c616e6365203e203000000000000000000000000000000000600082015250565b7f616d6f756e74203e2062616c616e636500000000000000000000000000000000600082015250565b7f4441490000000000000000000000000000000000000000000000000000000000600082015250565b7f6f6e6c79206f776e657273000000000000000000000000000000000000000000600082015250565b7f616d6f756e74203e20617070726f76616c000000000000000000000000000000600082015250565b7f6e6f742061207573657200000000000000000000000000000000000000000000600082015250565b7f6e6f7420616e206f776e65720000000000000000000000000000000000000000600082015250565b7f4441492062616c616e6365203e20300000000000000000000000000000000000600082015250565b613658816131b6565b811461366357600080fd5b50565b61366f816131c8565b811461367a57600080fd5b50565b61368681613200565b811461369157600080fd5b50565b61369d81613239565b81146136a857600080fd5b50565b6136b481613243565b81146136bf57600080fd5b5056fea2646970667358221220b0273909fbd2660b3f870a69fec48cc97edd451fa33e2a094d6023afa2cd32fb64736f6c63430008070033",
  "linkReferences": {},
  "deployedLinkReferences": {}
}