{
  "_format": "hh-sol-artifact-1",
  "contractName": "MarketInteractions",
  "sourceName": "contracts/Aave.sol",
  "abi": [
    {
      "inputs": [],
      "stateMutability": "nonpayable",
      "type": "constructor"
    },
    {
      "stateMutability": "payable",
      "type": "fallback"
    },
    {
      "inputs": [],
      "name": "WETHGateway",
      "outputs": [
        {
          "internalType": "contract IWETHGateway",
          "name": "",
          "type": "address"
        }
      ],
      "stateMutability": "view",
      "type": "function"
    },
    {
      "inputs": [],
      "name": "checkAllowance",
      "outputs": [
        {
          "internalType": "uint256",
          "name": "",
          "type": "uint256"
        }
      ],
      "stateMutability": "view",
      "type": "function"
    },
    {
      "inputs": [],
      "name": "getContractWMaticBalance",
      "outputs": [
        {
          "internalType": "uint256",
          "name": "",
          "type": "uint256"
        }
      ],
      "stateMutability": "view",
      "type": "function"
    },
    {
      "inputs": [],
      "name": "sendToOwner",
      "outputs": [],
      "stateMutability": "payable",
      "type": "function"
    },
    {
      "inputs": [],
      "name": "supplyLiquidity",
      "outputs": [],
      "stateMutability": "payable",
      "type": "function"
    },
    {
      "inputs": [],
      "name": "transferWMatic",
      "outputs": [],
      "stateMutability": "nonpayable",
      "type": "function"
    },
    {
      "inputs": [],
      "name": "wMatic",
      "outputs": [
        {
          "internalType": "contract IERC20",
          "name": "",
          "type": "address"
        }
      ],
      "stateMutability": "view",
      "type": "function"
    },
    {
      "inputs": [],
      "name": "withdrawlLiquidity",
      "outputs": [],
      "stateMutability": "nonpayable",
      "type": "function"
    },
    {
      "stateMutability": "payable",
      "type": "receive"
    }
  ],
  "bytecode": "0x60a0604052735343b5ba672ae99d627a1c87866b8e53f47db2e6600160006101000a81548173ffffffffffffffffffffffffffffffffffffffff021916908373ffffffffffffffffffffffffffffffffffffffff160217905550736c9fb0d5bd9429eb9cd96b85b81d872281771e6b600260006101000a81548173ffffffffffffffffffffffffffffffffffffffff021916908373ffffffffffffffffffffffffffffffffffffffff160217905550732a58e9bbb5434fda7ff78051a4b82cb0ef669c1773ffffffffffffffffffffffffffffffffffffffff1660809073ffffffffffffffffffffffffffffffffffffffff1660601b8152507389a6ae840b3f8f489418933a220315eea36d11ff600360006101000a81548173ffffffffffffffffffffffffffffffffffffffff021916908373ffffffffffffffffffffffffffffffffffffffff16021790555034801561015957600080fd5b50336000806101000a81548173ffffffffffffffffffffffffffffffffffffffff021916908373ffffffffffffffffffffffffffffffffffffffff16021790555060805160601c610b836101d46000396000818161017d01528181610485015281816105180152818161062e01526106c00152610b836000f3fe60806040526004361061007f5760003560e01c80639405de641161004e5780639405de64146100de578063a0367eb814610109578063c8f52baf14610134578063d36b56531461014b57610086565b806307a6bf69146100885780633c81fdb4146100925780636620a935146100bd5780637d606cfc146100c757610086565b3661008657005b005b610090610176565b005b34801561009e57600080fd5b506100a7610231565b6040516100b49190610a07565b60405180910390f35b6100c5610257565b005b3480156100d357600080fd5b506100dc6102c0565b005b3480156100ea57600080fd5b506100f3610442565b6040516101009190610a3d565b60405180910390f35b34801561011557600080fd5b5061011e610516565b60405161012b9190610a22565b60405180910390f35b34801561014057600080fd5b5061014961053a565b005b34801561015757600080fd5b50610160610773565b60405161016d9190610a3d565b60405180910390f35b60003090507f000000000000000000000000000000000000000000000000000000000000000073ffffffffffffffffffffffffffffffffffffffff1663474cf53d34600260009054906101000a900473ffffffffffffffffffffffffffffffffffffffff168460006040518563ffffffff1660e01b81526004016101fc93929190610970565b6000604051808303818588803b15801561021557600080fd5b505af1158015610229573d6000803e3d6000fd5b505050505050565b600360009054906101000a900473ffffffffffffffffffffffffffffffffffffffff1681565b60008054906101000a900473ffffffffffffffffffffffffffffffffffffffff1673ffffffffffffffffffffffffffffffffffffffff166108fc479081150290604051600060405180830381858888f193505050501580156102bd573d6000803e3d6000fd5b50565b6000600360009054906101000a900473ffffffffffffffffffffffffffffffffffffffff1673ffffffffffffffffffffffffffffffffffffffff166370a08231306040518263ffffffff1660e01b815260040161031d9190610903565b60206040518083038186803b15801561033557600080fd5b505afa158015610349573d6000803e3d6000fd5b505050506040513d601f19601f8201168201806040525081019061036d919061087c565b9050600360009054906101000a900473ffffffffffffffffffffffffffffffffffffffff1673ffffffffffffffffffffffffffffffffffffffff1663a9059cbb60008054906101000a900473ffffffffffffffffffffffffffffffffffffffff16836040518363ffffffff1660e01b81526004016103ec92919061091e565b602060405180830381600087803b15801561040657600080fd5b505af115801561041a573d6000803e3d6000fd5b505050506040513d601f19601f8201168201806040525081019061043e919061084f565b5050565b6000600360009054906101000a900473ffffffffffffffffffffffffffffffffffffffff1673ffffffffffffffffffffffffffffffffffffffff1663dd62ed3e307f00000000000000000000000000000000000000000000000000000000000000006040518363ffffffff1660e01b81526004016104c1929190610947565b60206040518083038186803b1580156104d957600080fd5b505afa1580156104ed573d6000803e3d6000fd5b505050506040513d601f19601f82011682018060405250810190610511919061087c565b905090565b7f000000000000000000000000000000000000000000000000000000000000000081565b60003090506000600360009054906101000a900473ffffffffffffffffffffffffffffffffffffffff1673ffffffffffffffffffffffffffffffffffffffff166370a08231306040518263ffffffff1660e01b815260040161059c9190610903565b60206040518083038186803b1580156105b457600080fd5b505afa1580156105c8573d6000803e3d6000fd5b505050506040513d601f19601f820116820180604052508101906105ec919061087c565b9050600360009054906101000a900473ffffffffffffffffffffffffffffffffffffffff1673ffffffffffffffffffffffffffffffffffffffff1663095ea7b37f0000000000000000000000000000000000000000000000000000000000000000836040518363ffffffff1660e01b815260040161066b9291906109a7565b602060405180830381600087803b15801561068557600080fd5b505af1158015610699573d6000803e3d6000fd5b505050506040513d601f19601f820116820180604052508101906106bd919061084f565b507f000000000000000000000000000000000000000000000000000000000000000073ffffffffffffffffffffffffffffffffffffffff166380500d20600260009054906101000a900473ffffffffffffffffffffffffffffffffffffffff1683856040518463ffffffff1660e01b815260040161073d939291906109d0565b600060405180830381600087803b15801561075757600080fd5b505af115801561076b573d6000803e3d6000fd5b505050505050565b6000600360009054906101000a900473ffffffffffffffffffffffffffffffffffffffff1673ffffffffffffffffffffffffffffffffffffffff166370a08231306040518263ffffffff1660e01b81526004016107d09190610903565b60206040518083038186803b1580156107e857600080fd5b505afa1580156107fc573d6000803e3d6000fd5b505050506040513d601f19601f82011682018060405250810190610820919061087c565b905090565b60008151905061083481610b1f565b92915050565b60008151905061084981610b36565b92915050565b60006020828403121561086557610864610b1a565b5b600061087384828501610825565b91505092915050565b60006020828403121561089257610891610b1a565b5b60006108a08482850161083a565b91505092915050565b6108b281610aae565b82525050565b6108c181610a58565b82525050565b6108d081610ac0565b82525050565b6108df81610ad2565b82525050565b6108ee81610ae4565b82525050565b6108fd81610aa4565b82525050565b600060208201905061091860008301846108b8565b92915050565b600060408201905061093360008301856108a9565b61094060208301846108f4565b9392505050565b600060408201905061095c60008301856108b8565b61096960208301846108b8565b9392505050565b600060608201905061098560008301866108b8565b61099260208301856108b8565b61099f60408301846108e5565b949350505050565b60006040820190506109bc60008301856108b8565b6109c960208301846108f4565b9392505050565b60006060820190506109e560008301866108b8565b6109f260208301856108f4565b6109ff60408301846108b8565b949350505050565b6000602082019050610a1c60008301846108c7565b92915050565b6000602082019050610a3760008301846108d6565b92915050565b6000602082019050610a5260008301846108f4565b92915050565b6000610a6382610a84565b9050919050565b60008115159050919050565b600061ffff82169050919050565b600073ffffffffffffffffffffffffffffffffffffffff82169050919050565b6000819050919050565b6000610ab982610af6565b9050919050565b6000610acb82610af6565b9050919050565b6000610add82610af6565b9050919050565b6000610aef82610a76565b9050919050565b6000610b0182610b08565b9050919050565b6000610b1382610a84565b9050919050565b600080fd5b610b2881610a6a565b8114610b3357600080fd5b50565b610b3f81610aa4565b8114610b4a57600080fd5b5056fea2646970667358221220bcf1bee77eff98fdc0aa3f47b4c50c38ad80494917b7aa3ffffedc03004bb83664736f6c63430008070033",
  "linkReferences": {},
  "deployedLinkReferences": {}
}