{
  "_format": "hh-sol-artifact-1",
  "contractName": "Uniswap_MATIC_DAI",
  "sourceName": "contracts/uniswap_MATIC_DAI.sol",
  "abi": [
    {
      "inputs": [],
      "stateMutability": "nonpayable",
      "type": "constructor"
    },
    {
      "stateMutability": "payable",
      "type": "fallback"
    },
    {
      "inputs": [],
      "name": "balanceOfDAI",
      "outputs": [
        {
          "internalType": "uint256",
          "name": "",
          "type": "uint256"
        }
      ],
      "stateMutability": "view",
      "type": "function"
    },
    {
      "inputs": [],
      "name": "balanceOfMATIC",
      "outputs": [
        {
          "internalType": "uint256",
          "name": "",
          "type": "uint256"
        }
      ],
      "stateMutability": "view",
      "type": "function"
    },
    {
      "inputs": [],
      "name": "recoverContractDAI",
      "outputs": [],
      "stateMutability": "nonpayable",
      "type": "function"
    },
    {
      "inputs": [],
      "name": "recoverContractMATIC",
      "outputs": [],
      "stateMutability": "nonpayable",
      "type": "function"
    },
    {
      "inputs": [
        {
          "internalType": "uint256",
          "name": "amountIn",
          "type": "uint256"
        }
      ],
      "name": "swapDAI_to_MATIC",
      "outputs": [
        {
          "internalType": "uint256",
          "name": "amountOut",
          "type": "uint256"
        }
      ],
      "stateMutability": "nonpayable",
      "type": "function"
    },
    {
      "inputs": [],
      "name": "swapMATIC_to_Dai",
      "outputs": [
        {
          "internalType": "uint256",
          "name": "amountOut",
          "type": "uint256"
        }
      ],
      "stateMutability": "payable",
      "type": "function"
    },
    {
      "inputs": [
        {
          "internalType": "uint256",
          "name": "amountIn",
          "type": "uint256"
        }
      ],
      "name": "swapMATIC_to_Dai",
      "outputs": [
        {
          "internalType": "uint256",
          "name": "amountOut",
          "type": "uint256"
        }
      ],
      "stateMutability": "nonpayable",
      "type": "function"
    },
    {
      "stateMutability": "payable",
      "type": "receive"
    }
  ],
  "bytecode": "0x6080604052739c3c9283d3e44854697cd22d3faa240cfb032889600160006101000a81548173ffffffffffffffffffffffffffffffffffffffff021916908373ffffffffffffffffffffffffffffffffffffffff16021790555034801561006557600080fd5b50336000806101000a81548173ffffffffffffffffffffffffffffffffffffffff021916908373ffffffffffffffffffffffffffffffffffffffff160217905550610c94806100b56000396000f3fe6080604052600436106100745760003560e01c806353da67161161004e57806353da6716146100dd578063884bcfe31461011a578063a444cea214610131578063e1ab8bdc1461016e5761007b565b806336a016d11461007d578063395505de146100945780635341befe146100bf5761007b565b3661007b57005b005b34801561008957600080fd5b50610092610199565b005b3480156100a057600080fd5b506100a961036b565b6040516100b69190610b71565b60405180910390f35b6100c7610373565b6040516100d49190610b71565b60405180910390f35b3480156100e957600080fd5b5061010460048036038101906100ff9190610940565b610383565b6040516101119190610b71565b60405180910390f35b34801561012657600080fd5b5061012f610500565b005b34801561013d57600080fd5b5061015860048036038101906101539190610940565b6105ff565b6040516101659190610b71565b60405180910390f35b34801561017a57600080fd5b50610183610831565b6040516101909190610b71565b60405180910390f35b60008054906101000a900473ffffffffffffffffffffffffffffffffffffffff1673ffffffffffffffffffffffffffffffffffffffff163373ffffffffffffffffffffffffffffffffffffffff1614610227576040517f08c379a000000000000000000000000000000000000000000000000000000000815260040161021e90610b35565b60405180910390fd5b6000721b3b4d0f3714ca98ba10f6042daebf0b1b7b6f73ffffffffffffffffffffffffffffffffffffffff166370a08231306040518263ffffffff1660e01b81526004016102759190610af1565b60206040518083038186803b15801561028d57600080fd5b505afa1580156102a1573d6000803e3d6000fd5b505050506040513d601f19601f820116820180604052508101906102c5919061096d565b9050721b3b4d0f3714ca98ba10f6042daebf0b1b7b6f73ffffffffffffffffffffffffffffffffffffffff1663a9059cbb33836040518363ffffffff1660e01b8152600401610315929190610b0c565b602060405180830381600087803b15801561032f57600080fd5b505af1158015610343573d6000803e3d6000fd5b505050506040513d601f19601f820116820180604052508101906103679190610913565b5050565b600047905090565b600061037e34610383565b905090565b600080604051806101000160405280600160009054906101000a900473ffffffffffffffffffffffffffffffffffffffff1673ffffffffffffffffffffffffffffffffffffffff168152602001721b3b4d0f3714ca98ba10f6042daebf0b1b7b6f73ffffffffffffffffffffffffffffffffffffffff168152602001610bb862ffffff1681526020013073ffffffffffffffffffffffffffffffffffffffff16815260200142815260200184815260200160008152602001600073ffffffffffffffffffffffffffffffffffffffff16815250905073e592427a0aece92de3edee1f18e0157c0586156473ffffffffffffffffffffffffffffffffffffffff1663414bf38984836040518363ffffffff1660e01b81526004016104a69190610b55565b6020604051808303818588803b1580156104bf57600080fd5b505af11580156104d3573d6000803e3d6000fd5b50505050506040513d601f19601f820116820180604052508101906104f8919061096d565b915050919050565b60008054906101000a900473ffffffffffffffffffffffffffffffffffffffff1673ffffffffffffffffffffffffffffffffffffffff163373ffffffffffffffffffffffffffffffffffffffff161461058e576040517f08c379a000000000000000000000000000000000000000000000000000000000815260040161058590610b35565b60405180910390fd5b60004790503373ffffffffffffffffffffffffffffffffffffffff16816040516105b790610adc565b60006040518083038185875af1925050503d80600081146105f4576040519150601f19603f3d011682016040523d82523d6000602084013e6105f9565b606091505b50505050565b6000721b3b4d0f3714ca98ba10f6042daebf0b1b7b6f73ffffffffffffffffffffffffffffffffffffffff1663095ea7b373e592427a0aece92de3edee1f18e0157c05861564846040518363ffffffff1660e01b8152600401610663929190610b0c565b602060405180830381600087803b15801561067d57600080fd5b505af1158015610691573d6000803e3d6000fd5b505050506040513d601f19601f820116820180604052508101906106b59190610913565b506000604051806101000160405280721b3b4d0f3714ca98ba10f6042daebf0b1b7b6f73ffffffffffffffffffffffffffffffffffffffff168152602001600160009054906101000a900473ffffffffffffffffffffffffffffffffffffffff1673ffffffffffffffffffffffffffffffffffffffff168152602001610bb862ffffff1681526020013373ffffffffffffffffffffffffffffffffffffffff16815260200142815260200184815260200160008152602001600073ffffffffffffffffffffffffffffffffffffffff16815250905073e592427a0aece92de3edee1f18e0157c0586156473ffffffffffffffffffffffffffffffffffffffff1663414bf389826040518263ffffffff1660e01b81526004016107d79190610b55565b602060405180830381600087803b1580156107f157600080fd5b505af1158015610805573d6000803e3d6000fd5b505050506040513d601f19601f82011682018060405250810190610829919061096d565b915050919050565b6000721b3b4d0f3714ca98ba10f6042daebf0b1b7b6f73ffffffffffffffffffffffffffffffffffffffff166370a08231306040518263ffffffff1660e01b815260040161087f9190610af1565b60206040518083038186803b15801561089757600080fd5b505afa1580156108ab573d6000803e3d6000fd5b505050506040513d601f19601f820116820180604052508101906108cf919061096d565b905090565b6000815190506108e381610c30565b92915050565b6000813590506108f881610c47565b92915050565b60008151905061090d81610c47565b92915050565b60006020828403121561092957610928610bff565b5b6000610937848285016108d4565b91505092915050565b60006020828403121561095657610955610bff565b5b6000610964848285016108e9565b91505092915050565b60006020828403121561098357610982610bff565b5b6000610991848285016108fe565b91505092915050565b6109a381610ba8565b82525050565b6109b281610ba8565b82525050565b60006109c5600a83610b97565b91506109d082610c04565b602082019050919050565b60006109e8600083610b8c565b91506109f382610c2d565b600082019050919050565b61010082016000820151610a15600085018261099a565b506020820151610a28602085018261099a565b506040820151610a3b6040850182610aaf565b506060820151610a4e606085018261099a565b506080820151610a616080850182610abe565b5060a0820151610a7460a0850182610abe565b5060c0820151610a8760c0850182610abe565b5060e0820151610a9a60e0850182610aa0565b50505050565b610aa981610bc6565b82525050565b610ab881610be6565b82525050565b610ac781610bf5565b82525050565b610ad681610bf5565b82525050565b6000610ae7826109db565b9150819050919050565b6000602082019050610b0660008301846109a9565b92915050565b6000604082019050610b2160008301856109a9565b610b2e6020830184610acd565b9392505050565b60006020820190508181036000830152610b4e816109b8565b9050919050565b600061010082019050610b6b60008301846109fe565b92915050565b6000602082019050610b866000830184610acd565b92915050565b600081905092915050565b600082825260208201905092915050565b6000610bb382610bc6565b9050919050565b60008115159050919050565b600073ffffffffffffffffffffffffffffffffffffffff82169050919050565b600062ffffff82169050919050565b6000819050919050565b600080fd5b7f6f6e6c79206f776e657200000000000000000000000000000000000000000000600082015250565b50565b610c3981610bba565b8114610c4457600080fd5b50565b610c5081610bf5565b8114610c5b57600080fd5b5056fea264697066735822122082574d489759908e7345d203336ba3fce31535c49af088d753fd824be910c90364736f6c63430008070033",
  "linkReferences": {},
  "deployedLinkReferences": {}
}