{
  "_format": "hh-sol-artifact-1",
  "contractName": "UpkeepIDConsumerExample",
  "sourceName": "contracts/AutomationTrial.sol",
  "abi": [
    {
      "inputs": [
        {
          "internalType": "contract LinkTokenInterface",
          "name": "_link",
          "type": "address"
        },
        {
          "internalType": "address",
          "name": "_registrar",
          "type": "address"
        },
        {
          "internalType": "contract AutomationRegistryInterface",
          "name": "_registry",
          "type": "address"
        }
      ],
      "stateMutability": "nonpayable",
      "type": "constructor"
    },
    {
      "inputs": [],
      "name": "i_link",
      "outputs": [
        {
          "internalType": "contract LinkTokenInterface",
          "name": "",
          "type": "address"
        }
      ],
      "stateMutability": "view",
      "type": "function"
    },
    {
      "inputs": [],
      "name": "i_registry",
      "outputs": [
        {
          "internalType": "contract AutomationRegistryInterface",
          "name": "",
          "type": "address"
        }
      ],
      "stateMutability": "view",
      "type": "function"
    },
    {
      "inputs": [
        {
          "internalType": "string",
          "name": "name",
          "type": "string"
        },
        {
          "internalType": "bytes",
          "name": "encryptedEmail",
          "type": "bytes"
        },
        {
          "internalType": "address",
          "name": "upkeepContract",
          "type": "address"
        },
        {
          "internalType": "uint32",
          "name": "gasLimit",
          "type": "uint32"
        },
        {
          "internalType": "address",
          "name": "adminAddress",
          "type": "address"
        },
        {
          "internalType": "bytes",
          "name": "checkData",
          "type": "bytes"
        },
        {
          "internalType": "uint96",
          "name": "amount",
          "type": "uint96"
        },
        {
          "internalType": "uint8",
          "name": "source",
          "type": "uint8"
        }
      ],
      "name": "registerAndPredictID",
      "outputs": [],
      "stateMutability": "nonpayable",
      "type": "function"
    },
    {
      "inputs": [],
      "name": "registrar",
      "outputs": [
        {
          "internalType": "address",
          "name": "",
          "type": "address"
        }
      ],
      "stateMutability": "view",
      "type": "function"
    }
  ],
  "bytecode": "0x60e0604052633659d66660e01b6000806101000a81548163ffffffff021916908360e01c02179055503480156200003557600080fd5b506040516200155f3803806200155f83398181016040528101906200005b91906200014e565b8273ffffffffffffffffffffffffffffffffffffffff1660808173ffffffffffffffffffffffffffffffffffffffff1660601b815250508173ffffffffffffffffffffffffffffffffffffffff1660a08173ffffffffffffffffffffffffffffffffffffffff1660601b815250508073ffffffffffffffffffffffffffffffffffffffff1660c08173ffffffffffffffffffffffffffffffffffffffff1660601b8152505050505062000259565b6000815190506200011a816200020b565b92915050565b600081519050620001318162000225565b92915050565b60008151905062000148816200023f565b92915050565b6000806000606084860312156200016a576200016962000206565b5b60006200017a8682870162000137565b93505060206200018d8682870162000109565b9250506040620001a08682870162000120565b9150509250925092565b6000620001b782620001e6565b9050919050565b6000620001cb82620001aa565b9050919050565b6000620001df82620001aa565b9050919050565b600073ffffffffffffffffffffffffffffffffffffffff82169050919050565b600080fd5b6200021681620001aa565b81146200022257600080fd5b50565b6200023081620001be565b81146200023c57600080fd5b50565b6200024a81620001d2565b81146200025657600080fd5b50565b60805160601c60a05160601c60c05160601c6112ab620002b46000396000818160ce015281816102bc0152818161039e01526104400152600081816101fa01526104640152600081816101be015261048801526112ab6000f3fe608060405234801561001057600080fd5b506004361061004c5760003560e01c806318a9fb8a146100515780632a6636061461006d5780632b20e3971461008b5780637d253aff146100a9575b600080fd5b61006b600480360381019061006691906108bc565b6100c7565b005b61007561043e565b6040516100829190610cb6565b60405180910390f35b610093610462565b6040516100a09190610c5d565b60405180910390f35b6100b1610486565b6040516100be9190610cd1565b60405180910390f35b60008060007f000000000000000000000000000000000000000000000000000000000000000073ffffffffffffffffffffffffffffffffffffffff16631865c57d6040518163ffffffff1660e01b815260040160006040518083038186803b15801561013257600080fd5b505afa158015610146573d6000803e3d6000fd5b505050506040513d6000823e3d601f19601f8201168201806040525081019061016f91906109cf565b9250925092506000836000015163ffffffff16905060008e8e8e8e8e8e8e8e8e8e306040516020016101ab9b9a99989796959493929190610cec565b60405160208183030381529060405290507f000000000000000000000000000000000000000000000000000000000000000073ffffffffffffffffffffffffffffffffffffffff16634000aea07f00000000000000000000000000000000000000000000000000000000000000008960008054906101000a900460e01b8560405160200161023a929190610c35565b6040516020818303038152906040526040518463ffffffff1660e01b815260040161026793929190610c78565b602060405180830381600087803b15801561028157600080fd5b505af1158015610295573d6000803e3d6000fd5b505050506040513d601f19601f820116820180604052508101906102b9919061088f565b507f000000000000000000000000000000000000000000000000000000000000000073ffffffffffffffffffffffffffffffffffffffff16631865c57d6040518163ffffffff1660e01b815260040160006040518083038186803b15801561032057600080fd5b505afa158015610334573d6000803e3d6000fd5b505050506040513d6000823e3d601f19601f8201168201806040525081019061035d91906109cf565b8095508196508297505050506000856000015163ffffffff1690506001836103859190610e77565b8114156103f157600060014361039b9190610ecd565b407f0000000000000000000000000000000000000000000000000000000000000000856040516020016103d093929190610bf8565b6040516020818303038152906040528051906020012060001c90505061042c565b6040517f08c379a000000000000000000000000000000000000000000000000000000000815260040161042390610d92565b60405180910390fd5b50505050505050505050505050505050565b7f000000000000000000000000000000000000000000000000000000000000000081565b7f000000000000000000000000000000000000000000000000000000000000000081565b7f000000000000000000000000000000000000000000000000000000000000000081565b60006104bd6104b884610dd7565b610db2565b905080838252602082019050828560208602820111156104e0576104df611155565b5b60005b8581101561051057816104f68882610571565b8452602084019350602083019250506001810190506104e3565b5050509392505050565b600061052d61052884610e03565b610db2565b9050828152602081018484840111156105495761054861115a565b5b61055484828561102b565b509392505050565b60008135905061056b816111bd565b92915050565b600081519050610580816111bd565b92915050565b600082601f83011261059b5761059a61114b565b5b81516105ab8482602086016104aa565b91505092915050565b6000815190506105c3816111d4565b92915050565b60008083601f8401126105df576105de61114b565b5b8235905067ffffffffffffffff8111156105fc576105fb611146565b5b60208301915083600182028301111561061857610617611155565b5b9250929050565b600082601f8301126106345761063361114b565b5b813561064484826020860161051a565b91505092915050565b6000610180828403121561066457610663611150565b5b61066f610180610db2565b9050600061067f8482850161083b565b60008301525060206106938482850161083b565b60208301525060406106a7848285016107fc565b60408301525060606106bb8482850161083b565b60608301525060806106cf848285016107fc565b60808301525060a06106e3848285016107e7565b60a08301525060c06106f78482850161087a565b60c08301525060e061070b8482850161083b565b60e08301525061010061072084828501610811565b6101008301525061012061073684828501610811565b6101208301525061014061074c84828501610571565b6101408301525061016061076284828501610571565b6101608301525092915050565b60006080828403121561078557610784611150565b5b61078f6080610db2565b9050600061079f8482850161083b565b60008301525060206107b38482850161087a565b60208301525060406107c784828501610811565b60408301525060606107db84828501610811565b60608301525092915050565b6000815190506107f6816111eb565b92915050565b60008151905061080b81611202565b92915050565b60008151905061082081611219565b92915050565b60008135905061083581611230565b92915050565b60008151905061084a81611230565b92915050565b60008135905061085f81611247565b92915050565b6000813590506108748161125e565b92915050565b6000815190506108898161125e565b92915050565b6000602082840312156108a5576108a4611164565b5b60006108b3848285016105b4565b91505092915050565b6000806000806000806000806000806101008b8d0312156108e0576108df611164565b5b60008b013567ffffffffffffffff8111156108fe576108fd61115f565b5b61090a8d828e0161061f565b9a505060208b013567ffffffffffffffff81111561092b5761092a61115f565b5b6109378d828e016105c9565b9950995050604061094a8d828e0161055c565b975050606061095b8d828e01610826565b965050608061096c8d828e0161055c565b95505060a08b013567ffffffffffffffff81111561098d5761098c61115f565b5b6109998d828e016105c9565b945094505060c06109ac8d828e01610865565b92505060e06109bd8d828e01610850565b9150509295989b9194979a5092959850565b600080600061022084860312156109e9576109e8611164565b5b60006109f78682870161076f565b9350506080610a088682870161064d565b92505061020084015167ffffffffffffffff811115610a2a57610a2961115f565b5b610a3686828701610586565b9150509250925092565b610a4981610f01565b82525050565b610a60610a5b82610f01565b61109e565b82525050565b610a77610a7282610f1f565b6110b0565b82525050565b610a8e610a8982610f29565b6110ba565b82525050565b6000610aa08385610e4a565b9350610aad83858461102b565b610ab683611169565b840190509392505050565b6000610acc82610e34565b610ad68185610e4a565b9350610ae681856020860161103a565b610aef81611169565b840191505092915050565b6000610b0582610e34565b610b0f8185610e5b565b9350610b1f81856020860161103a565b80840191505092915050565b610b3481610fd1565b82525050565b610b4381610fe3565b82525050565b6000610b5482610e3f565b610b5e8185610e66565b9350610b6e81856020860161103a565b610b7781611169565b840191505092915050565b6000610b8f601583610e66565b9150610b9a82611194565b602082019050919050565b610bae81610f9c565b82525050565b610bc5610bc082610f9c565b6110d6565b82525050565b610bd481610fac565b82525050565b610be381611019565b82525050565b610bf281610fb9565b82525050565b6000610c048286610a66565b602082019150610c148285610a4f565b601482019150610c248284610bb4565b600482019150819050949350505050565b6000610c418285610a7d565b600482019150610c518284610afa565b91508190509392505050565b6000602082019050610c726000830184610a40565b92915050565b6000606082019050610c8d6000830186610a40565b610c9a6020830185610bda565b8181036040830152610cac8184610ac1565b9050949350505050565b6000602082019050610ccb6000830184610b2b565b92915050565b6000602082019050610ce66000830184610b3a565b92915050565b6000610120820190508181036000830152610d07818e610b49565b90508181036020830152610d1c818c8e610a94565b9050610d2b604083018b610a40565b610d38606083018a610ba5565b610d456080830189610a40565b81810360a0830152610d58818789610a94565b9050610d6760c0830186610be9565b610d7460e0830185610bcb565b610d82610100830184610a40565b9c9b505050505050505050505050565b60006020820190508181036000830152610dab81610b82565b9050919050565b6000610dbc610dcd565b9050610dc8828261106d565b919050565b6000604051905090565b600067ffffffffffffffff821115610df257610df1611117565b5b602082029050602081019050919050565b600067ffffffffffffffff821115610e1e57610e1d611117565b5b610e2782611169565b9050602081019050919050565b600081519050919050565b600081519050919050565b600082825260208201905092915050565b600081905092915050565b600082825260208201905092915050565b6000610e8282610f92565b9150610e8d83610f92565b9250827fffffffffffffffffffffffffffffffffffffffffffffffffffffffffffffffff03821115610ec257610ec16110e8565b5b828201905092915050565b6000610ed882610f92565b9150610ee383610f92565b925082821015610ef657610ef56110e8565b5b828203905092915050565b6000610f0c82610f63565b9050919050565b60008115159050919050565b6000819050919050565b60007fffffffff0000000000000000000000000000000000000000000000000000000082169050919050565b600061ffff82169050919050565b600073ffffffffffffffffffffffffffffffffffffffff82169050919050565b600062ffffff82169050919050565b6000819050919050565b600063ffffffff82169050919050565b600060ff82169050919050565b60006bffffffffffffffffffffffff82169050919050565b6000610fdc82610ff5565b9050919050565b6000610fee82610ff5565b9050919050565b600061100082611007565b9050919050565b600061101282610f63565b9050919050565b600061102482610fb9565b9050919050565b82818337600083830152505050565b60005b8381101561105857808201518184015260208101905061103d565b83811115611067576000848401525b50505050565b61107682611169565b810181811067ffffffffffffffff8211171561109557611094611117565b5b80604052505050565b60006110a9826110c4565b9050919050565b6000819050919050565b6000819050919050565b60006110cf82611187565b9050919050565b60006110e18261117a565b9050919050565b7f4e487b7100000000000000000000000000000000000000000000000000000000600052601160045260246000fd5b7f4e487b7100000000000000000000000000000000000000000000000000000000600052604160045260246000fd5b600080fd5b600080fd5b600080fd5b600080fd5b600080fd5b600080fd5b600080fd5b6000601f19601f8301169050919050565b60008160e01b9050919050565b60008160601b9050919050565b7f6175746f2d617070726f76652064697361626c65640000000000000000000000600082015250565b6111c681610f01565b81146111d157600080fd5b50565b6111dd81610f13565b81146111e857600080fd5b50565b6111f481610f55565b81146111ff57600080fd5b50565b61120b81610f83565b811461121657600080fd5b50565b61122281610f92565b811461122d57600080fd5b50565b61123981610f9c565b811461124457600080fd5b50565b61125081610fac565b811461125b57600080fd5b50565b61126781610fb9565b811461127257600080fd5b5056fea26469706673582212204061ec0ab0c0325f8b888da87df92c85b353a02c785cb4780cd4c884d442ae4e64736f6c63430008070033",
  "linkReferences": {},
  "deployedLinkReferences": {}
}