{
  "_format": "hh-sol-artifact-1",
  "contractName": "LiquiSwap",
  "sourceName": "contracts/LiquiswapVtest.sol",
  "abi": [
    {
      "inputs": [],
      "stateMutability": "nonpayable",
      "type": "constructor"
    },
    {
      "anonymous": false,
      "inputs": [
        {
          "indexed": true,
          "internalType": "address",
          "name": "user",
          "type": "address"
        },
        {
          "indexed": false,
          "internalType": "string",
          "name": "token",
          "type": "string"
        },
        {
          "indexed": false,
          "internalType": "uint256",
          "name": "amount",
          "type": "uint256"
        }
      ],
      "name": "Deposit",
      "type": "event"
    },
    {
      "anonymous": false,
      "inputs": [
        {
          "indexed": true,
          "internalType": "int256",
          "name": "price",
          "type": "int256"
        },
        {
          "indexed": false,
          "internalType": "uint256",
          "name": "targetAmount",
          "type": "uint256"
        },
        {
          "indexed": false,
          "internalType": "uint256",
          "name": "actualAmount",
          "type": "uint256"
        }
      ],
      "name": "Liquidation",
      "type": "event"
    },
    {
      "anonymous": false,
      "inputs": [
        {
          "indexed": true,
          "internalType": "address",
          "name": "user",
          "type": "address"
        }
      ],
      "name": "UserAdded",
      "type": "event"
    },
    {
      "anonymous": false,
      "inputs": [
        {
          "indexed": true,
          "internalType": "address",
          "name": "user",
          "type": "address"
        }
      ],
      "name": "UserDeleted",
      "type": "event"
    },
    {
      "anonymous": false,
      "inputs": [
        {
          "indexed": true,
          "internalType": "address",
          "name": "user",
          "type": "address"
        },
        {
          "indexed": false,
          "internalType": "string",
          "name": "token",
          "type": "string"
        },
        {
          "indexed": false,
          "internalType": "uint256",
          "name": "amount",
          "type": "uint256"
        }
      ],
      "name": "Withdrawal",
      "type": "event"
    },
    {
      "inputs": [],
      "name": "DAI",
      "outputs": [
        {
          "internalType": "address",
          "name": "",
          "type": "address"
        }
      ],
      "stateMutability": "view",
      "type": "function"
    },
    {
      "inputs": [],
      "name": "ETHvUSD",
      "outputs": [
        {
          "internalType": "address",
          "name": "",
          "type": "address"
        }
      ],
      "stateMutability": "view",
      "type": "function"
    },
    {
      "inputs": [],
      "name": "WETH9",
      "outputs": [
        {
          "internalType": "address",
          "name": "",
          "type": "address"
        }
      ],
      "stateMutability": "view",
      "type": "function"
    },
    {
      "inputs": [
        {
          "internalType": "address",
          "name": "_newOwner",
          "type": "address"
        }
      ],
      "name": "addOwner",
      "outputs": [],
      "stateMutability": "nonpayable",
      "type": "function"
    },
    {
      "inputs": [],
      "name": "addUser",
      "outputs": [],
      "stateMutability": "nonpayable",
      "type": "function"
    },
    {
      "inputs": [
        {
          "internalType": "bytes",
          "name": "checkData",
          "type": "bytes"
        }
      ],
      "name": "checkUpkeep",
      "outputs": [
        {
          "internalType": "bool",
          "name": "upkeepNeeded",
          "type": "bool"
        },
        {
          "internalType": "bytes",
          "name": "performData",
          "type": "bytes"
        }
      ],
      "stateMutability": "view",
      "type": "function"
    },
    {
      "inputs": [
        {
          "internalType": "address",
          "name": "_delOwner",
          "type": "address"
        }
      ],
      "name": "delOwner",
      "outputs": [],
      "stateMutability": "nonpayable",
      "type": "function"
    },
    {
      "inputs": [],
      "name": "delUser",
      "outputs": [],
      "stateMutability": "nonpayable",
      "type": "function"
    },
    {
      "inputs": [
        {
          "internalType": "uint256",
          "name": "_amount",
          "type": "uint256"
        },
        {
          "internalType": "int256",
          "name": "_liquidationPrice",
          "type": "int256"
        }
      ],
      "name": "depositWETH",
      "outputs": [],
      "stateMutability": "nonpayable",
      "type": "function"
    },
    {
      "inputs": [],
      "name": "getBalanceDAI",
      "outputs": [
        {
          "internalType": "uint256",
          "name": "",
          "type": "uint256"
        }
      ],
      "stateMutability": "view",
      "type": "function"
    },
    {
      "inputs": [],
      "name": "getBalanceWETH",
      "outputs": [
        {
          "internalType": "uint256",
          "name": "",
          "type": "uint256"
        }
      ],
      "stateMutability": "view",
      "type": "function"
    },
    {
      "inputs": [],
      "name": "getContractBalanceDAI",
      "outputs": [
        {
          "internalType": "uint256",
          "name": "",
          "type": "uint256"
        }
      ],
      "stateMutability": "view",
      "type": "function"
    },
    {
      "inputs": [],
      "name": "getContractBalanceWETH",
      "outputs": [
        {
          "internalType": "uint256",
          "name": "",
          "type": "uint256"
        }
      ],
      "stateMutability": "view",
      "type": "function"
    },
    {
      "inputs": [],
      "name": "getLatestPrice",
      "outputs": [
        {
          "internalType": "int256",
          "name": "",
          "type": "int256"
        }
      ],
      "stateMutability": "view",
      "type": "function"
    },
    {
      "inputs": [
        {
          "internalType": "address",
          "name": "_addr",
          "type": "address"
        }
      ],
      "name": "getLiquidationPrice",
      "outputs": [
        {
          "internalType": "int256",
          "name": "",
          "type": "int256"
        }
      ],
      "stateMutability": "view",
      "type": "function"
    },
    {
      "inputs": [],
      "name": "getLiquidationPrice",
      "outputs": [
        {
          "internalType": "int256",
          "name": "",
          "type": "int256"
        }
      ],
      "stateMutability": "view",
      "type": "function"
    },
    {
      "inputs": [],
      "name": "getWETHAllowance",
      "outputs": [
        {
          "internalType": "uint256",
          "name": "",
          "type": "uint256"
        }
      ],
      "stateMutability": "view",
      "type": "function"
    },
    {
      "inputs": [
        {
          "internalType": "address",
          "name": "_addr",
          "type": "address"
        }
      ],
      "name": "getWETHAllowance",
      "outputs": [
        {
          "internalType": "uint256",
          "name": "",
          "type": "uint256"
        }
      ],
      "stateMutability": "view",
      "type": "function"
    },
    {
      "inputs": [],
      "name": "numOwners",
      "outputs": [
        {
          "internalType": "uint256",
          "name": "",
          "type": "uint256"
        }
      ],
      "stateMutability": "view",
      "type": "function"
    },
    {
      "inputs": [
        {
          "internalType": "address",
          "name": "",
          "type": "address"
        }
      ],
      "name": "owners",
      "outputs": [
        {
          "internalType": "bool",
          "name": "",
          "type": "bool"
        }
      ],
      "stateMutability": "view",
      "type": "function"
    },
    {
      "inputs": [
        {
          "internalType": "bytes",
          "name": "performData",
          "type": "bytes"
        }
      ],
      "name": "performUpkeep",
      "outputs": [],
      "stateMutability": "nonpayable",
      "type": "function"
    },
    {
      "inputs": [],
      "name": "poolFee",
      "outputs": [
        {
          "internalType": "uint24",
          "name": "",
          "type": "uint24"
        }
      ],
      "stateMutability": "view",
      "type": "function"
    },
    {
      "inputs": [],
      "name": "priceDropAmount",
      "outputs": [
        {
          "internalType": "int256",
          "name": "",
          "type": "int256"
        }
      ],
      "stateMutability": "view",
      "type": "function"
    },
    {
      "inputs": [],
      "name": "routerAddress",
      "outputs": [
        {
          "internalType": "address",
          "name": "",
          "type": "address"
        }
      ],
      "stateMutability": "view",
      "type": "function"
    },
    {
      "inputs": [],
      "name": "sendDAI",
      "outputs": [],
      "stateMutability": "nonpayable",
      "type": "function"
    },
    {
      "inputs": [],
      "name": "sendWETH",
      "outputs": [],
      "stateMutability": "nonpayable",
      "type": "function"
    },
    {
      "inputs": [
        {
          "internalType": "int256",
          "name": "_liquidationPrice",
          "type": "int256"
        }
      ],
      "name": "setLiquidationPrice",
      "outputs": [],
      "stateMutability": "nonpayable",
      "type": "function"
    },
    {
      "inputs": [
        {
          "internalType": "int256",
          "name": "_priceDrop",
          "type": "int256"
        }
      ],
      "name": "setPriceDrop",
      "outputs": [],
      "stateMutability": "nonpayable",
      "type": "function"
    },
    {
      "inputs": [
        {
          "internalType": "address",
          "name": "",
          "type": "address"
        }
      ],
      "name": "users",
      "outputs": [
        {
          "internalType": "uint256",
          "name": "usersIndexPosition",
          "type": "uint256"
        },
        {
          "internalType": "int256",
          "name": "liquidationPrice",
          "type": "int256"
        },
        {
          "internalType": "uint256",
          "name": "balanceWETH",
          "type": "uint256"
        },
        {
          "internalType": "uint256",
          "name": "balanceDAI",
          "type": "uint256"
        }
      ],
      "stateMutability": "view",
      "type": "function"
    },
    {
      "inputs": [
        {
          "internalType": "uint256",
          "name": "",
          "type": "uint256"
        }
      ],
      "name": "usersIndex",
      "outputs": [
        {
          "internalType": "address",
          "name": "",
          "type": "address"
        }
      ],
      "stateMutability": "view",
      "type": "function"
    },
    {
      "inputs": [
        {
          "internalType": "uint256",
          "name": "_amount",
          "type": "uint256"
        }
      ],
      "name": "withdrawDAI",
      "outputs": [],
      "stateMutability": "nonpayable",
      "type": "function"
    },
    {
      "inputs": [
        {
          "internalType": "uint256",
          "name": "_amount",
          "type": "uint256"
        }
      ],
      "name": "withdrawWETH",
      "outputs": [],
      "stateMutability": "nonpayable",
      "type": "function"
    }
  ],
  "bytecode": "0x60a0604052730715a7794a1dc8e42615f059dd6e406a6594651a6000806101000a81548173ffffffffffffffffffffffffffffffffffffffff021916908373ffffffffffffffffffffffffffffffffffffffff16021790555060008054906101000a900473ffffffffffffffffffffffffffffffffffffffff16600160006101000a81548173ffffffffffffffffffffffffffffffffffffffff021916908373ffffffffffffffffffffffffffffffffffffffff16021790555073e592427a0aece92de3edee1f18e0157c0586156473ffffffffffffffffffffffffffffffffffffffff1660809073ffffffffffffffffffffffffffffffffffffffff1660601b81525073a6fa4fb5f76172d178d61b04b0ecd319c5d1c0aa600260006101000a81548173ffffffffffffffffffffffffffffffffffffffff021916908373ffffffffffffffffffffffffffffffffffffffff160217905550721b3b4d0f3714ca98ba10f6042daebf0b1b7b6f600360006101000a81548173ffffffffffffffffffffffffffffffffffffffff021916908373ffffffffffffffffffffffffffffffffffffffff160217905550348015620001b957600080fd5b506001600460003373ffffffffffffffffffffffffffffffffffffffff1673ffffffffffffffffffffffffffffffffffffffff16815260200190815260200160002060006101000a81548160ff02191690831515021790555060056000815462000223906200029e565b91905081905550600660009080600181540180825580915050600190039060005260206000200160009091909190916101000a81548173ffffffffffffffffffffffffffffffffffffffff021916908373ffffffffffffffffffffffffffffffffffffffff1602179055506200031b565b6000819050919050565b6000620002ab8262000294565b91507fffffffffffffffffffffffffffffffffffffffffffffffffffffffffffffffff821415620002e157620002e0620002ec565b5b600182019050919050565b7f4e487b7100000000000000000000000000000000000000000000000000000000600052601160045260246000fd5b60805160601c6136c562000341600039600081816123e8015261254001526136c56000f3fe608060405234801561001057600080fd5b50600436106101f05760003560e01c8063739841881161010f5780639add7438116100a2578063cf9897c711610071578063cf9897c714610563578063e0bab4c41461056d578063e4e939a71461058b578063fc4dd333146105a9576101f0565b80639add7438146104c6578063a87430ba146104e2578063b4576cd114610515578063cd64afc514610533576101f0565b806384ef904e116100de57806384ef904e1461046257806387ab18e114610480578063899478a61461049e5780638e15f473146104a8576101f0565b806373984188146103ee578063765fd4991461040a578063779b0b1d146104285780638234e16e14610444576101f0565b806346558d1b116101875780636c716898116101565780636c716898146103675780636e04ff0d146103855780636ea16962146103b65780637065cb48146103d2576101f0565b806346558d1b146102f15780634aa4a4fc1461030f57806353315c6c1461032d57806369f03e8214610349576101f0565b80633268cc56116101c35780633268cc56146102a357806345476575146102c1578063455c928c146102cb5780634585e33b146102d5576101f0565b8063022914a7146101f5578063089fe6aa1461022557806310fdda091461024357806317d8de8214610273575b600080fd5b61020f600480360381019061020a91906126da565b6105c5565b60405161021c9190612cba565b60405180910390f35b61022d6105e5565b60405161023a9190612eb8565b60405180910390f35b61025d600480360381019061025891906127ae565b6105eb565b60405161026a9190612c16565b60405180910390f35b61028d600480360381019061028891906126da565b61062a565b60405161029a9190612d05565b60405180910390f35b6102ab610676565b6040516102b89190612c16565b60405180910390f35b6102c961068e565b005b6102d361087c565b005b6102ef60048036038101906102ea9190612734565b610a5b565b005b6102f9610d52565b6040516103069190612d05565b60405180910390f35b610317610d9c565b6040516103249190612c16565b60405180910390f35b61034760048036038101906103429190612781565b610db4565b005b610351610e84565b60405161035e9190612ed3565b60405180910390f35b61036f610f36565b60405161037c9190612ed3565b60405180910390f35b61039f600480360381019061039a9190612734565b610f80565b6040516103ad929190612cd5565b60405180910390f35b6103d060048036038101906103cb9190612808565b611102565b005b6103ec60048036038101906103e791906126da565b6113e9565b005b610408600480360381019061040391906126da565b6114e6565b005b6104126116b4565b60405161041f9190612ed3565b60405180910390f35b610442600480360381019061043d9190612781565b611768565b005b61044c6117fe565b6040516104599190612ed3565b60405180910390f35b61046a611848565b6040516104779190612ed3565b60405180910390f35b6104886118fa565b6040516104959190612ed3565b60405180910390f35b6104a6611900565b005b6104b0611c72565b6040516104bd9190612d05565b60405180910390f35b6104e060048036038101906104db91906127ae565b611d3d565b005b6104fc60048036038101906104f791906126da565b611ee7565b60405161050c9493929190612eee565b60405180910390f35b61051d611f17565b60405161052a9190612d05565b60405180910390f35b61054d600480360381019061054891906126da565b611f1d565b60405161055a9190612ed3565b60405180910390f35b61056b611fd3565b005b6105756121c1565b6040516105829190612c16565b60405180910390f35b6105936121d8565b6040516105a09190612c16565b60405180910390f35b6105c360048036038101906105be91906127ae565b6121fc565b005b60046020528060005260406000206000915054906101000a900460ff1681565b610bb881565b600681815481106105fb57600080fd5b906000526020600020016000915054906101000a900473ffffffffffffffffffffffffffffffffffffffff1681565b6000600760008373ffffffffffffffffffffffffffffffffffffffff1673ffffffffffffffffffffffffffffffffffffffff168152602001908152602001600020600101549050919050565b73e592427a0aece92de3edee1f18e0157c0586156481565b600460003373ffffffffffffffffffffffffffffffffffffffff1673ffffffffffffffffffffffffffffffffffffffff16815260200190815260200160002060009054906101000a900460ff1661071a576040517f08c379a000000000000000000000000000000000000000000000000000000000815260040161071190612dfc565b60405180910390fd5b6000600360009054906101000a900473ffffffffffffffffffffffffffffffffffffffff1673ffffffffffffffffffffffffffffffffffffffff166370a08231306040518263ffffffff1660e01b81526004016107779190612c16565b60206040518083038186803b15801561078f57600080fd5b505afa1580156107a3573d6000803e3d6000fd5b505050506040513d601f19601f820116820180604052508101906107c791906127db565b9050600360009054906101000a900473ffffffffffffffffffffffffffffffffffffffff1673ffffffffffffffffffffffffffffffffffffffff1663a9059cbb33836040518363ffffffff1660e01b8152600401610826929190612c91565b602060405180830381600087803b15801561084057600080fd5b505af1158015610854573d6000803e3d6000fd5b505050506040513d601f19601f820116820180604052508101906108789190612707565b5050565b6000600760003373ffffffffffffffffffffffffffffffffffffffff1673ffffffffffffffffffffffffffffffffffffffff1681526020019081526020016000206000015414610901576040517f08c379a00000000000000000000000000000000000000000000000000000000081526004016108f890612d20565b60405180910390fd5b6006339080600181540180825580915050600190039060005260206000200160009091909190916101000a81548173ffffffffffffffffffffffffffffffffffffffff021916908373ffffffffffffffffffffffffffffffffffffffff160217905550604051806080016040528060068054905081526020017fffffffffffffffffffffffffffffffffffffffffffffffffffffffffffffffff8152602001600081526020016000815250600760003373ffffffffffffffffffffffffffffffffffffffff1673ffffffffffffffffffffffffffffffffffffffff168152602001908152602001600020600082015181600001556020820151816001015560408201518160020155606082015181600301559050503373ffffffffffffffffffffffffffffffffffffffff167f19ef9a4877199f89440a26acb26895ec02ed86f2df1aeaa90dc18041b892f71f60405160405180910390a2565b6000610a65611c72565b905060008060005b85859050811015610b545785858290601484610a899190612fda565b92610a9693929190612f9f565b90610aa19190613226565b60601c9150600760008373ffffffffffffffffffffffffffffffffffffffff1673ffffffffffffffffffffffffffffffffffffffff168152602001908152602001600020600101548413610b4057600760008373ffffffffffffffffffffffffffffffffffffffff1673ffffffffffffffffffffffffffffffffffffffff1681526020019081526020016000206002015483610b3d9190612fda565b92505b601481610b4d9190612fda565b9050610a6d565b506000821115610d4b576000610b69836123a6565b90506000811115610d0f5760005b86869050811015610d0d5786868290601484610b939190612fda565b92610ba093929190612f9f565b90610bab9190613226565b60601c9250600760008473ffffffffffffffffffffffffffffffffffffffff1673ffffffffffffffffffffffffffffffffffffffff168152602001908152602001600020600101548513610cf957600084600760008673ffffffffffffffffffffffffffffffffffffffff1673ffffffffffffffffffffffffffffffffffffffff1681526020019081526020016000206002015484610c4a9190613061565b610c549190613030565b905080600760008673ffffffffffffffffffffffffffffffffffffffff1673ffffffffffffffffffffffffffffffffffffffff1681526020019081526020016000206003016000828254610ca89190612fda565b925050819055506000600760008673ffffffffffffffffffffffffffffffffffffffff1673ffffffffffffffffffffffffffffffffffffffff16815260200190815260200160002060020181905550505b601481610d069190612fda565b9050610b77565b505b837f6d849981c611af330f71fdd5474d305fe6aaf66db1776f284d113e26b39679418483604051610d41929190612f33565b60405180910390a2505b5050505050565b6000600760003373ffffffffffffffffffffffffffffffffffffffff1673ffffffffffffffffffffffffffffffffffffffff16815260200190815260200160002060010154905090565b73a6fa4fb5f76172d178d61b04b0ecd319c5d1c0aa81565b6000600760003373ffffffffffffffffffffffffffffffffffffffff1673ffffffffffffffffffffffffffffffffffffffff168152602001908152602001600020600001541415610e3a576040517f08c379a0000000000000000000000000000000000000000000000000000000008152600401610e3190612e3c565b60405180910390fd5b80600760003373ffffffffffffffffffffffffffffffffffffffff1673ffffffffffffffffffffffffffffffffffffffff1681526020019081526020016000206001018190555050565b6000600260009054906101000a900473ffffffffffffffffffffffffffffffffffffffff1673ffffffffffffffffffffffffffffffffffffffff166370a08231306040518263ffffffff1660e01b8152600401610ee19190612c16565b60206040518083038186803b158015610ef957600080fd5b505afa158015610f0d573d6000803e3d6000fd5b505050506040513d601f19601f82011682018060405250810190610f3191906127db565b905090565b6000600760003373ffffffffffffffffffffffffffffffffffffffff1673ffffffffffffffffffffffffffffffffffffffff16815260200190815260200160002060030154905090565b600060606000610f8e611c72565b90506000600190505b6006805490508110156110ea5760006007600060068481548110610fbe57610fbd6133dc565b5b9060005260206000200160009054906101000a900473ffffffffffffffffffffffffffffffffffffffff1673ffffffffffffffffffffffffffffffffffffffff1673ffffffffffffffffffffffffffffffffffffffff168152602001908152602001600020604051806080016040529081600082015481526020016001820154815260200160028201548152602001600382015481525050905080602001518313158015611070575060008160400151115b156110d857836006838154811061108a576110896133dc565b5b9060005260206000200160009054906101000a900473ffffffffffffffffffffffffffffffffffffffff166040516020016110c6929190612bee565b60405160208183030381529060405293505b50806110e3906132e2565b9050610f97565b506000825111156110fa57600192505b509250929050565b6000600760003373ffffffffffffffffffffffffffffffffffffffff1673ffffffffffffffffffffffffffffffffffffffff1681526020019081526020016000206000015414156111565761115561087c565b5b600260009054906101000a900473ffffffffffffffffffffffffffffffffffffffff1673ffffffffffffffffffffffffffffffffffffffff1663dd62ed3e33306040518363ffffffff1660e01b81526004016111b3929190612c31565b60206040518083038186803b1580156111cb57600080fd5b505afa1580156111df573d6000803e3d6000fd5b505050506040513d601f19601f8201168201806040525081019061120391906127db565b821115611245576040517f08c379a000000000000000000000000000000000000000000000000000000000815260040161123c90612e1c565b60405180910390fd5b600260009054906101000a900473ffffffffffffffffffffffffffffffffffffffff1673ffffffffffffffffffffffffffffffffffffffff166323b872dd3330856040518463ffffffff1660e01b81526004016112a493929190612c5a565b602060405180830381600087803b1580156112be57600080fd5b505af11580156112d2573d6000803e3d6000fd5b505050506040513d601f19601f820116820180604052508101906112f69190612707565b5081600760003373ffffffffffffffffffffffffffffffffffffffff1673ffffffffffffffffffffffffffffffffffffffff16815260200190815260200160002060020160008282546113499190612fda565b9250508190555080600760003373ffffffffffffffffffffffffffffffffffffffff1673ffffffffffffffffffffffffffffffffffffffff168152602001908152602001600020600101819055503373ffffffffffffffffffffffffffffffffffffffff167f2d4b597935f3cd67fb2eebf1db4debc934cee5c7baa7153f980fdbeb2e74084e836040516113dd9190612d40565b60405180910390a25050565b600460003373ffffffffffffffffffffffffffffffffffffffff1673ffffffffffffffffffffffffffffffffffffffff16815260200190815260200160002060009054906101000a900460ff16611475576040517f08c379a000000000000000000000000000000000000000000000000000000000815260040161146c90612dfc565b60405180910390fd5b6001600460008373ffffffffffffffffffffffffffffffffffffffff1673ffffffffffffffffffffffffffffffffffffffff16815260200190815260200160002060006101000a81548160ff0219169083151502179055506005600081546114dc906132e2565b9190508190555050565b600460003373ffffffffffffffffffffffffffffffffffffffff1673ffffffffffffffffffffffffffffffffffffffff16815260200190815260200160002060009054906101000a900460ff16611572576040517f08c379a000000000000000000000000000000000000000000000000000000000815260040161156990612dfc565b60405180910390fd5b6001600554116115b7576040517f08c379a00000000000000000000000000000000000000000000000000000000081526004016115ae90612d6e565b60405180910390fd5b600460008273ffffffffffffffffffffffffffffffffffffffff1673ffffffffffffffffffffffffffffffffffffffff16815260200190815260200160002060009054906101000a900460ff16611643576040517f08c379a000000000000000000000000000000000000000000000000000000000815260040161163a90612e5c565b60405180910390fd5b6000600460008373ffffffffffffffffffffffffffffffffffffffff1673ffffffffffffffffffffffffffffffffffffffff16815260200190815260200160002060006101000a81548160ff0219169083151502179055506005600081546116aa906132b8565b9190508190555050565b6000600260009054906101000a900473ffffffffffffffffffffffffffffffffffffffff1673ffffffffffffffffffffffffffffffffffffffff1663dd62ed3e33306040518363ffffffff1660e01b8152600401611713929190612c31565b60206040518083038186803b15801561172b57600080fd5b505afa15801561173f573d6000803e3d6000fd5b505050506040513d601f19601f8201168201806040525081019061176391906127db565b905090565b600460003373ffffffffffffffffffffffffffffffffffffffff1673ffffffffffffffffffffffffffffffffffffffff16815260200190815260200160002060009054906101000a900460ff166117f4576040517f08c379a00000000000000000000000000000000000000000000000000000000081526004016117eb90612dfc565b60405180910390fd5b8060088190555050565b6000600760003373ffffffffffffffffffffffffffffffffffffffff1673ffffffffffffffffffffffffffffffffffffffff16815260200190815260200160002060020154905090565b6000600360009054906101000a900473ffffffffffffffffffffffffffffffffffffffff1673ffffffffffffffffffffffffffffffffffffffff166370a08231306040518263ffffffff1660e01b81526004016118a59190612c16565b60206040518083038186803b1580156118bd57600080fd5b505afa1580156118d1573d6000803e3d6000fd5b505050506040513d601f19601f820116820180604052508101906118f591906127db565b905090565b60055481565b6000600760003373ffffffffffffffffffffffffffffffffffffffff1673ffffffffffffffffffffffffffffffffffffffff168152602001908152602001600020600001541415611986576040517f08c379a000000000000000000000000000000000000000000000000000000000815260040161197d90612e3c565b60405180910390fd5b6000600760003373ffffffffffffffffffffffffffffffffffffffff1673ffffffffffffffffffffffffffffffffffffffff1681526020019081526020016000206002015414611a0b576040517f08c379a0000000000000000000000000000000000000000000000000000000008152600401611a0290612d8e565b60405180910390fd5b6000600760003373ffffffffffffffffffffffffffffffffffffffff1673ffffffffffffffffffffffffffffffffffffffff1681526020019081526020016000206003015414611a90576040517f08c379a0000000000000000000000000000000000000000000000000000000008152600401611a8790612e7c565b60405180910390fd5b6000600760003373ffffffffffffffffffffffffffffffffffffffff1673ffffffffffffffffffffffffffffffffffffffff16815260200190815260200160002060000154905060066001600680549050611aeb919061314f565b81548110611afc57611afb6133dc565b5b9060005260206000200160009054906101000a900473ffffffffffffffffffffffffffffffffffffffff1660068281548110611b3b57611b3a6133dc565b5b9060005260206000200160006101000a81548173ffffffffffffffffffffffffffffffffffffffff021916908373ffffffffffffffffffffffffffffffffffffffff1602179055506006805480611b9557611b946133ad565b5b6001900381819060005260206000200160006101000a81549073ffffffffffffffffffffffffffffffffffffffff02191690559055600760003373ffffffffffffffffffffffffffffffffffffffff1673ffffffffffffffffffffffffffffffffffffffff16815260200190815260200160002060008082016000905560018201600090556002820160009055600382016000905550503373ffffffffffffffffffffffffffffffffffffffff167f4bc56f1321288dfb5b416cb3a7fd188723979f9e866c91d88eccf7fca039d03960405160405180910390a250565b600080600080600080600160009054906101000a900473ffffffffffffffffffffffffffffffffffffffff1673ffffffffffffffffffffffffffffffffffffffff1663feaf968c6040518163ffffffff1660e01b815260040160a06040518083038186803b158015611ce357600080fd5b505afa158015611cf7573d6000803e3d6000fd5b505050506040513d601f19601f82011682018060405250810190611d1b9190612848565b9450945094509450945060085484611d3391906130bb565b9550505050505090565b6000611d47610f36565b905080821115611d8c576040517f08c379a0000000000000000000000000000000000000000000000000000000008152600401611d8390612dae565b60405180910390fd5b600360009054906101000a900473ffffffffffffffffffffffffffffffffffffffff1673ffffffffffffffffffffffffffffffffffffffff1663a9059cbb33846040518363ffffffff1660e01b8152600401611de9929190612c91565b602060405180830381600087803b158015611e0357600080fd5b505af1158015611e17573d6000803e3d6000fd5b505050506040513d601f19601f82011682018060405250810190611e3b9190612707565b5081600760003373ffffffffffffffffffffffffffffffffffffffff1673ffffffffffffffffffffffffffffffffffffffff1681526020019081526020016000206003016000828254611e8e919061314f565b925050819055503373ffffffffffffffffffffffffffffffffffffffff167f323cefffcafc4dae937c4a852e3866ecde9e8c1d723e1187230b982201040fb683604051611edb9190612dce565b60405180910390a25050565b60076020528060005260406000206000915090508060000154908060010154908060020154908060030154905084565b60085481565b6000600260009054906101000a900473ffffffffffffffffffffffffffffffffffffffff1673ffffffffffffffffffffffffffffffffffffffff1663dd62ed3e83306040518363ffffffff1660e01b8152600401611f7c929190612c31565b60206040518083038186803b158015611f9457600080fd5b505afa158015611fa8573d6000803e3d6000fd5b505050506040513d601f19601f82011682018060405250810190611fcc91906127db565b9050919050565b600460003373ffffffffffffffffffffffffffffffffffffffff1673ffffffffffffffffffffffffffffffffffffffff16815260200190815260200160002060009054906101000a900460ff1661205f576040517f08c379a000000000000000000000000000000000000000000000000000000000815260040161205690612dfc565b60405180910390fd5b6000600260009054906101000a900473ffffffffffffffffffffffffffffffffffffffff1673ffffffffffffffffffffffffffffffffffffffff166370a08231306040518263ffffffff1660e01b81526004016120bc9190612c16565b60206040518083038186803b1580156120d457600080fd5b505afa1580156120e8573d6000803e3d6000fd5b505050506040513d601f19601f8201168201806040525081019061210c91906127db565b9050600260009054906101000a900473ffffffffffffffffffffffffffffffffffffffff1673ffffffffffffffffffffffffffffffffffffffff1663a9059cbb33836040518363ffffffff1660e01b815260040161216b929190612c91565b602060405180830381600087803b15801561218557600080fd5b505af1158015612199573d6000803e3d6000fd5b505050506040513d601f19601f820116820180604052508101906121bd9190612707565b5050565b721b3b4d0f3714ca98ba10f6042daebf0b1b7b6f81565b60008054906101000a900473ffffffffffffffffffffffffffffffffffffffff1681565b60006122066117fe565b90508082111561224b576040517f08c379a000000000000000000000000000000000000000000000000000000000815260040161224290612dae565b60405180910390fd5b600260009054906101000a900473ffffffffffffffffffffffffffffffffffffffff1673ffffffffffffffffffffffffffffffffffffffff1663a9059cbb33846040518363ffffffff1660e01b81526004016122a8929190612c91565b602060405180830381600087803b1580156122c257600080fd5b505af11580156122d6573d6000803e3d6000fd5b505050506040513d601f19601f820116820180604052508101906122fa9190612707565b5081600760003373ffffffffffffffffffffffffffffffffffffffff1673ffffffffffffffffffffffffffffffffffffffff168152602001908152602001600020600201600082825461234d919061314f565b925050819055503373ffffffffffffffffffffffffffffffffffffffff167f323cefffcafc4dae937c4a852e3866ecde9e8c1d723e1187230b982201040fb68360405161239a9190612d40565b60405180910390a25050565b6000600260009054906101000a900473ffffffffffffffffffffffffffffffffffffffff1673ffffffffffffffffffffffffffffffffffffffff1663095ea7b37f0000000000000000000000000000000000000000000000000000000000000000846040518363ffffffff1660e01b8152600401612425929190612c91565b602060405180830381600087803b15801561243f57600080fd5b505af1158015612453573d6000803e3d6000fd5b505050506040513d601f19601f820116820180604052508101906124779190612707565b50600060405180610100016040528073a6fa4fb5f76172d178d61b04b0ecd319c5d1c0aa73ffffffffffffffffffffffffffffffffffffffff168152602001721b3b4d0f3714ca98ba10f6042daebf0b1b7b6f73ffffffffffffffffffffffffffffffffffffffff168152602001610bb862ffffff1681526020013073ffffffffffffffffffffffffffffffffffffffff16815260200142815260200184815260200160008152602001600073ffffffffffffffffffffffffffffffffffffffff1681525090507f000000000000000000000000000000000000000000000000000000000000000073ffffffffffffffffffffffffffffffffffffffff1663414bf389826040518263ffffffff1660e01b81526004016125979190612e9c565b602060405180830381600087803b1580156125b157600080fd5b505af11580156125c5573d6000803e3d6000fd5b505050506040513d601f19601f820116820180604052508101906125e991906127db565b915050919050565b6000813590506126008161361c565b92915050565b60008151905061261581613633565b92915050565b60008083601f84011261263157612630613410565b5b8235905067ffffffffffffffff81111561264e5761264d61340b565b5b60208301915083600182028301111561266a5761266961341f565b5b9250929050565b6000813590506126808161364a565b92915050565b6000815190506126958161364a565b92915050565b6000813590506126aa81613661565b92915050565b6000815190506126bf81613661565b92915050565b6000815190506126d481613678565b92915050565b6000602082840312156126f0576126ef613429565b5b60006126fe848285016125f1565b91505092915050565b60006020828403121561271d5761271c613429565b5b600061272b84828501612606565b91505092915050565b6000806020838503121561274b5761274a613429565b5b600083013567ffffffffffffffff81111561276957612768613424565b5b6127758582860161261b565b92509250509250929050565b60006020828403121561279757612796613429565b5b60006127a584828501612671565b91505092915050565b6000602082840312156127c4576127c3613429565b5b60006127d28482850161269b565b91505092915050565b6000602082840312156127f1576127f0613429565b5b60006127ff848285016126b0565b91505092915050565b6000806040838503121561281f5761281e613429565b5b600061282d8582860161269b565b925050602061283e85828601612671565b9150509250929050565b600080600080600060a0868803121561286457612863613429565b5b6000612872888289016126c5565b955050602061288388828901612686565b9450506040612894888289016126b0565b93505060606128a5888289016126b0565b92505060806128b6888289016126c5565b9150509295509295909350565b6128cc81613183565b82525050565b6128db81613183565b82525050565b6128f26128ed82613183565b61332b565b82525050565b61290181613195565b82525050565b600061291282612f67565b61291c8185612f72565b935061292c818560208601613285565b6129358161342e565b840191505092915050565b600061294b82612f67565b6129558185612f83565b9350612965818560208601613285565b80840191505092915050565b61297a816131cd565b82525050565b600061298d601283612f8e565b915061299882613459565b602082019050919050565b60006129b0600483612f8e565b91506129bb82613482565b602082019050919050565b60006129d3601483612f8e565b91506129de826134ab565b602082019050919050565b60006129f6601083612f8e565b9150612a01826134d4565b602082019050919050565b6000612a19601083612f8e565b9150612a24826134fd565b602082019050919050565b6000612a3c600383612f8e565b9150612a4782613526565b602082019050919050565b6000612a5f600b83612f8e565b9150612a6a8261354f565b602082019050919050565b6000612a82601183612f8e565b9150612a8d82613578565b602082019050919050565b6000612aa5600a83612f8e565b9150612ab0826135a1565b602082019050919050565b6000612ac8600c83612f8e565b9150612ad3826135ca565b602082019050919050565b6000612aeb600f83612f8e565b9150612af6826135f3565b602082019050919050565b61010082016000820151612b1860008501826128c3565b506020820151612b2b60208501826128c3565b506040820151612b3e6040850182612bb2565b506060820151612b5160608501826128c3565b506080820151612b646080850182612bd0565b5060a0820151612b7760a0850182612bd0565b5060c0820151612b8a60c0850182612bd0565b5060e0820151612b9d60e0850182612ba3565b50505050565b612bac816131d7565b82525050565b612bbb816131f7565b82525050565b612bca816131f7565b82525050565b612bd981613206565b82525050565b612be881613206565b82525050565b6000612bfa8285612940565b9150612c0682846128e1565b6014820191508190509392505050565b6000602082019050612c2b60008301846128d2565b92915050565b6000604082019050612c4660008301856128d2565b612c5360208301846128d2565b9392505050565b6000606082019050612c6f60008301866128d2565b612c7c60208301856128d2565b612c896040830184612bdf565b949350505050565b6000604082019050612ca660008301856128d2565b612cb36020830184612bdf565b9392505050565b6000602082019050612ccf60008301846128f8565b92915050565b6000604082019050612cea60008301856128f8565b8181036020830152612cfc8184612907565b90509392505050565b6000602082019050612d1a6000830184612971565b92915050565b60006020820190508181036000830152612d3981612980565b9050919050565b60006040820190508181036000830152612d59816129a3565b9050612d686020830184612bdf565b92915050565b60006020820190508181036000830152612d87816129c6565b9050919050565b60006020820190508181036000830152612da7816129e9565b9050919050565b60006020820190508181036000830152612dc781612a0c565b9050919050565b60006040820190508181036000830152612de781612a2f565b9050612df66020830184612bdf565b92915050565b60006020820190508181036000830152612e1581612a52565b9050919050565b60006020820190508181036000830152612e3581612a75565b9050919050565b60006020820190508181036000830152612e5581612a98565b9050919050565b60006020820190508181036000830152612e7581612abb565b9050919050565b60006020820190508181036000830152612e9581612ade565b9050919050565b600061010082019050612eb26000830184612b01565b92915050565b6000602082019050612ecd6000830184612bc1565b92915050565b6000602082019050612ee86000830184612bdf565b92915050565b6000608082019050612f036000830187612bdf565b612f106020830186612971565b612f1d6040830185612bdf565b612f2a6060830184612bdf565b95945050505050565b6000604082019050612f486000830185612bdf565b612f556020830184612bdf565b9392505050565b600082905092915050565b600081519050919050565b600082825260208201905092915050565b600081905092915050565b600082825260208201905092915050565b60008085851115612fb357612fb261341a565b5b83861115612fc457612fc3613415565b5b6001850283019150848603905094509492505050565b6000612fe582613206565b9150612ff083613206565b9250827fffffffffffffffffffffffffffffffffffffffffffffffffffffffffffffffff038211156130255761302461334f565b5b828201905092915050565b600061303b82613206565b915061304683613206565b9250826130565761305561337e565b5b828204905092915050565b600061306c82613206565b915061307783613206565b9250817fffffffffffffffffffffffffffffffffffffffffffffffffffffffffffffffff04831182151516156130b0576130af61334f565b5b828202905092915050565b60006130c6826131cd565b91506130d1836131cd565b9250827f80000000000000000000000000000000000000000000000000000000000000000182126000841215161561310c5761310b61334f565b5b827f7fffffffffffffffffffffffffffffffffffffffffffffffffffffffffffffff0182136000841216156131445761314361334f565b5b828203905092915050565b600061315a82613206565b915061316583613206565b9250828210156131785761317761334f565b5b828203905092915050565b600061318e826131d7565b9050919050565b60008115159050919050565b60007fffffffffffffffffffffffffffffffffffffffff00000000000000000000000082169050919050565b6000819050919050565b600073ffffffffffffffffffffffffffffffffffffffff82169050919050565b600062ffffff82169050919050565b6000819050919050565b600069ffffffffffffffffffff82169050919050565b60006132328383612f5c565b8261323d81356131a1565b9250601482101561327d576132787fffffffffffffffffffffffffffffffffffffffff0000000000000000000000008360140360080261344c565b831692505b505092915050565b60005b838110156132a3578082015181840152602081019050613288565b838111156132b2576000848401525b50505050565b60006132c382613206565b915060008214156132d7576132d661334f565b5b600182039050919050565b60006132ed82613206565b91507fffffffffffffffffffffffffffffffffffffffffffffffffffffffffffffffff8214156133205761331f61334f565b5b600182019050919050565b60006133368261333d565b9050919050565b60006133488261343f565b9050919050565b7f4e487b7100000000000000000000000000000000000000000000000000000000600052601160045260246000fd5b7f4e487b7100000000000000000000000000000000000000000000000000000000600052601260045260246000fd5b7f4e487b7100000000000000000000000000000000000000000000000000000000600052603160045260246000fd5b7f4e487b7100000000000000000000000000000000000000000000000000000000600052603260045260246000fd5b600080fd5b600080fd5b600080fd5b600080fd5b600080fd5b600080fd5b600080fd5b6000601f19601f8301169050919050565b60008160601b9050919050565b600082821b905092915050565b7f7573657220616c72656164792061646465640000000000000000000000000000600082015250565b7f5745544800000000000000000000000000000000000000000000000000000000600082015250565b7f63616e27742064656c206c617374206f776e6572000000000000000000000000600082015250565b7f574554482062616c616e6365203e203000000000000000000000000000000000600082015250565b7f616d6f756e74203e2062616c616e636500000000000000000000000000000000600082015250565b7f4441490000000000000000000000000000000000000000000000000000000000600082015250565b7f6f6e6c79206f776e657273000000000000000000000000000000000000000000600082015250565b7f616d6f756e74203e20617070726f76616c000000000000000000000000000000600082015250565b7f6e6f742061207573657200000000000000000000000000000000000000000000600082015250565b7f6e6f7420616e206f776e65720000000000000000000000000000000000000000600082015250565b7f4441492062616c616e6365203e20300000000000000000000000000000000000600082015250565b61362581613183565b811461363057600080fd5b50565b61363c81613195565b811461364757600080fd5b50565b613653816131cd565b811461365e57600080fd5b50565b61366a81613206565b811461367557600080fd5b50565b61368181613210565b811461368c57600080fd5b5056fea26469706673582212204228eabc00bad5b89c447f965af133588cd5b86984bb79234bbde3102d0d1b4864736f6c63430008070033",
  "linkReferences": {},
  "deployedLinkReferences": {}
}