{
  "_format": "hh-sol-artifact-1",
  "contractName": "FetchVotes",
  "sourceName": "contracts/AnyApiTrial.sol",
  "abi": [
    {
      "inputs": [],
      "stateMutability": "nonpayable",
      "type": "constructor"
    },
    {
      "anonymous": false,
      "inputs": [
        {
          "indexed": true,
          "internalType": "bytes32",
          "name": "id",
          "type": "bytes32"
        }
      ],
      "name": "ChainlinkCancelled",
      "type": "event"
    },
    {
      "anonymous": false,
      "inputs": [
        {
          "indexed": true,
          "internalType": "bytes32",
          "name": "id",
          "type": "bytes32"
        }
      ],
      "name": "ChainlinkFulfilled",
      "type": "event"
    },
    {
      "anonymous": false,
      "inputs": [
        {
          "indexed": true,
          "internalType": "bytes32",
          "name": "id",
          "type": "bytes32"
        }
      ],
      "name": "ChainlinkRequested",
      "type": "event"
    },
    {
      "inputs": [],
      "name": "blockNumber",
      "outputs": [
        {
          "internalType": "string",
          "name": "",
          "type": "string"
        }
      ],
      "stateMutability": "view",
      "type": "function"
    },
    {
      "inputs": [
        {
          "internalType": "bytes32",
          "name": "_requestId",
          "type": "bytes32"
        },
        {
          "internalType": "string",
          "name": "_votes",
          "type": "string"
        }
      ],
      "name": "fulfill",
      "outputs": [],
      "stateMutability": "nonpayable",
      "type": "function"
    },
    {
      "inputs": [],
      "name": "requestVotes",
      "outputs": [
        {
          "internalType": "bytes32",
          "name": "requestId",
          "type": "bytes32"
        }
      ],
      "stateMutability": "nonpayable",
      "type": "function"
    }
  ],
  "bytecode": "0x6080604052600160045534801561001557600080fd5b5061003973326c977e6efc84e512bb9c30f76e30c160ed06fb61009760201b60201c565b61005c7340193c8518bb267228fc409a613bdbd8ec5a97b36100db60201b60201c565b7f376438306136333836656635343361336162623532383137663637303765336260078190555067016345785d8a000060088190555061011f565b80600260006101000a81548173ffffffffffffffffffffffffffffffffffffffff021916908373ffffffffffffffffffffffffffffffffffffffff16021790555050565b80600360006101000a81548173ffffffffffffffffffffffffffffffffffffffff021916908373ffffffffffffffffffffffffffffffffffffffff16021790555050565b6117a08061012e6000396000f3fe608060405234801561001057600080fd5b50600436106100415760003560e01c8063374419961461004657806357e871e714610062578063c44bee1e14610080575b600080fd5b610060600480360381019061005b9190610d91565b61009e565b005b61006a6101bf565b6040516100779190611019565b60405180910390f35b61008861024d565b6040516100959190610ffe565b60405180910390f35b816005600082815260200190815260200160002060009054906101000a900473ffffffffffffffffffffffffffffffffffffffff1673ffffffffffffffffffffffffffffffffffffffff163373ffffffffffffffffffffffffffffffffffffffff1614610140576040517f08c379a00000000000000000000000000000000000000000000000000000000081526004016101379061105b565b60405180910390fd5b6005600082815260200190815260200160002060006101000a81549073ffffffffffffffffffffffffffffffffffffffff0219169055807f7cc135e0cebb02c3480ae5d74d377283180a2601f8f644edf7987b009316c63a60405160405180910390a281600690805190602001906101b9929190610ba0565b50505050565b600680546101cc90611454565b80601f01602080910402602001604051908101604052809291908181526020018280546101f890611454565b80156102455780601f1061021a57610100808354040283529160200191610245565b820191906000526020600020905b81548152906001019060200180831161022857829003601f168201915b505050505081565b60008061026460075430633744199660e01b610359565b90506102c86040518060400160405280600381526020017f67657400000000000000000000000000000000000000000000000000000000008152506040518060c00160405280608d81526020016116de608d91398361038a9092919063ffffffff16565b6103476040518060400160405280600481526020017f70617468000000000000000000000000000000000000000000000000000000008152506040518060400160405280600b81526020017f626c6f636b4e756d6265720000000000000000000000000000000000000000008152508361038a9092919063ffffffff16565b610353816008546103bd565b91505090565b610361610c26565b610369610c26565b610380858585846103f4909392919063ffffffff16565b9150509392505050565b6103a18284608001516104a490919063ffffffff16565b6103b88184608001516104a490919063ffffffff16565b505050565b60006103ec600360009054906101000a900473ffffffffffffffffffffffffffffffffffffffff1684846104c9565b905092915050565b6103fc610c26565b61040c8560800151610100610595565b508385600001818152505082856020019073ffffffffffffffffffffffffffffffffffffffff16908173ffffffffffffffffffffffffffffffffffffffff16815250508185604001907bffffffffffffffffffffffffffffffffffffffffffffffffffffffff191690817bffffffffffffffffffffffffffffffffffffffffffffffffffffffff191681525050849050949350505050565b6104b182600383516105ff565b6104c4818361078490919063ffffffff16565b505050565b60008060045490506001816104de9190611109565b6004819055506000634042994660e01b60008087600001513089604001518760018c608001516000015160405160240161051f989796959493929190610f3b565b604051602081830303815290604052907bffffffffffffffffffffffffffffffffffffffffffffffffffffffff19166020820180517bffffffffffffffffffffffffffffffffffffffffffffffffffffffff8381831617835250505050905061058a868386846107a6565b925050509392505050565b61059d610c93565b60006020836105ac91906114e5565b146105d8576020826105be91906114e5565b60206105ca919061132a565b826105d59190611109565b91505b81836020018181525050604051808452600081528281016020016040525082905092915050565b60178167ffffffffffffffff1611610636576106308160058460ff16901b60ff16178461094a90919063ffffffff16565b5061077f565b60ff8167ffffffffffffffff161161068c57610665601860058460ff16901b178461094a90919063ffffffff16565b506106868167ffffffffffffffff1660018561096a9092919063ffffffff16565b5061077e565b61ffff8167ffffffffffffffff16116106e3576106bc601960058460ff16901b178461094a90919063ffffffff16565b506106dd8167ffffffffffffffff1660028561096a9092919063ffffffff16565b5061077d565b63ffffffff8167ffffffffffffffff161161073c57610715601a60058460ff16901b178461094a90919063ffffffff16565b506107368167ffffffffffffffff1660048561096a9092919063ffffffff16565b5061077c565b610759601b60058460ff16901b178461094a90919063ffffffff16565b5061077a8167ffffffffffffffff1660088561096a9092919063ffffffff16565b505b5b5b5b505050565b61078c610c93565b61079e8384600001515184855161098c565b905092915050565b600030846040516020016107bb929190610f0f565b604051602081830303815290604052805190602001209050846005600083815260200190815260200160002060006101000a81548173ffffffffffffffffffffffffffffffffffffffff021916908373ffffffffffffffffffffffffffffffffffffffff160217905550807fb5e6e01e79f91267dc17b4e6314d5d4d03593d2ceee0fbb452b750bd70ea5af960405160405180910390a2600260009054906101000a900473ffffffffffffffffffffffffffffffffffffffff1673ffffffffffffffffffffffffffffffffffffffff16634000aea08685856040518463ffffffff1660e01b81526004016108b193929190610fc0565b602060405180830381600087803b1580156108cb57600080fd5b505af11580156108df573d6000803e3d6000fd5b505050506040513d601f19601f820116820180604052508101906109039190610d64565b610942576040517f08c379a00000000000000000000000000000000000000000000000000000000081526004016109399061103b565b60405180910390fd5b949350505050565b610952610c93565b6109628384600001515184610a7b565b905092915050565b610972610c93565b610983848560000151518585610ad2565b90509392505050565b610994610c93565b82518211156109a257600080fd5b846020015182856109b39190611109565b11156109e8576109e78560026109d8886020015188876109d39190611109565b610b60565b6109e291906112d0565b610b7c565b5b600080865180518760208301019350808887011115610a075787860182525b60208701925050505b60208410610a4e5780518252602082610a299190611109565b9150602081610a389190611109565b9050602084610a47919061132a565b9350610a10565b60006001856020036101000a03905080198251168184511681811785525050508692505050949350505050565b610a83610c93565b83602001518310610aa957610aa88460028660200151610aa391906112d0565b610b7c565b5b8351805160208583010184815381861415610ac5576001820183525b5050508390509392505050565b610ada610c93565b84602001518483610aeb9190611109565b1115610b1357610b128560028685610b039190611109565b610b0d91906112d0565b610b7c565b5b6000600183610100610b2591906111b2565b610b2f919061132a565b90508551838682010185831982511617815281518588011115610b525784870182525b505085915050949350505050565b600081831115610b7257829050610b76565b8190505b92915050565b600082600001519050610b8f8383610595565b50610b9a8382610784565b50505050565b828054610bac90611454565b90600052602060002090601f016020900481019282610bce5760008555610c15565b82601f10610be757805160ff1916838001178555610c15565b82800160010185558215610c15579182015b82811115610c14578251825591602001919060010190610bf9565b5b509050610c229190610cad565b5090565b6040518060a0016040528060008019168152602001600073ffffffffffffffffffffffffffffffffffffffff16815260200160007bffffffffffffffffffffffffffffffffffffffffffffffffffffffff1916815260200160008152602001610c8d610c93565b81525090565b604051806040016040528060608152602001600081525090565b5b80821115610cc6576000816000905550600101610cae565b5090565b6000610cdd610cd8846110a0565b61107b565b905082815260208101848484011115610cf957610cf86115d7565b5b610d04848285611412565b509392505050565b600081519050610d1b816116af565b92915050565b600081359050610d30816116c6565b92915050565b600082601f830112610d4b57610d4a6115d2565b5b8135610d5b848260208601610cca565b91505092915050565b600060208284031215610d7a57610d796115e1565b5b6000610d8884828501610d0c565b91505092915050565b60008060408385031215610da857610da76115e1565b5b6000610db685828601610d21565b925050602083013567ffffffffffffffff811115610dd757610dd66115dc565b5b610de385828601610d36565b9150509250929050565b610df68161135e565b82525050565b610e058161137c565b82525050565b610e1481611386565b82525050565b6000610e25826110d1565b610e2f81856110e7565b9350610e3f818560208601611421565b610e48816115e6565b840191505092915050565b610e64610e5f826113dc565b6114b7565b82525050565b6000610e75826110dc565b610e7f81856110f8565b9350610e8f818560208601611421565b610e98816115e6565b840191505092915050565b6000610eb06023836110f8565b9150610ebb82611611565b604082019050919050565b6000610ed36028836110f8565b9150610ede82611660565b604082019050919050565b610ef2816113d2565b82525050565b610f09610f04826113d2565b6114db565b82525050565b6000610f1b8285610e53565b601482019150610f2b8284610ef8565b6020820191508190509392505050565b600061010082019050610f51600083018b610ded565b610f5e602083018a610ee9565b610f6b6040830189610dfc565b610f786060830188610ded565b610f856080830187610e0b565b610f9260a0830186610ee9565b610f9f60c0830185610ee9565b81810360e0830152610fb18184610e1a565b90509998505050505050505050565b6000606082019050610fd56000830186610ded565b610fe26020830185610ee9565b8181036040830152610ff48184610e1a565b9050949350505050565b60006020820190506110136000830184610dfc565b92915050565b600060208201905081810360008301526110338184610e6a565b905092915050565b6000602082019050818103600083015261105481610ea3565b9050919050565b6000602082019050818103600083015261107481610ec6565b9050919050565b6000611085611096565b90506110918282611486565b919050565b6000604051905090565b600067ffffffffffffffff8211156110bb576110ba6115a3565b5b6110c4826115e6565b9050602081019050919050565b600081519050919050565b600081519050919050565b600082825260208201905092915050565b600082825260208201905092915050565b6000611114826113d2565b915061111f836113d2565b9250827fffffffffffffffffffffffffffffffffffffffffffffffffffffffffffffffff0382111561115457611153611516565b5b828201905092915050565b6000808291508390505b60018511156111a95780860481111561118557611184611516565b5b60018516156111945780820291505b80810290506111a285611604565b9450611169565b94509492505050565b60006111bd826113d2565b91506111c8836113d2565b92506111f57fffffffffffffffffffffffffffffffffffffffffffffffffffffffffffffffff84846111fd565b905092915050565b60008261120d57600190506112c9565b8161121b57600090506112c9565b8160018114611231576002811461123b5761126a565b60019150506112c9565b60ff84111561124d5761124c611516565b5b8360020a91508482111561126457611263611516565b5b506112c9565b5060208310610133831016604e8410600b841016171561129f5782820a90508381111561129a57611299611516565b5b6112c9565b6112ac848484600161115f565b925090508184048111156112c3576112c2611516565b5b81810290505b9392505050565b60006112db826113d2565b91506112e6836113d2565b9250817fffffffffffffffffffffffffffffffffffffffffffffffffffffffffffffffff048311821515161561131f5761131e611516565b5b828202905092915050565b6000611335826113d2565b9150611340836113d2565b92508282101561135357611352611516565b5b828203905092915050565b6000611369826113b2565b9050919050565b60008115159050919050565b6000819050919050565b60007fffffffff0000000000000000000000000000000000000000000000000000000082169050919050565b600073ffffffffffffffffffffffffffffffffffffffff82169050919050565b6000819050919050565b60006113e7826113ee565b9050919050565b60006113f982611400565b9050919050565b600061140b826113b2565b9050919050565b82818337600083830152505050565b60005b8381101561143f578082015181840152602081019050611424565b8381111561144e576000848401525b50505050565b6000600282049050600182168061146c57607f821691505b602082108114156114805761147f611574565b5b50919050565b61148f826115e6565b810181811067ffffffffffffffff821117156114ae576114ad6115a3565b5b80604052505050565b60006114c2826114c9565b9050919050565b60006114d4826115f7565b9050919050565b6000819050919050565b60006114f0826113d2565b91506114fb836113d2565b92508261150b5761150a611545565b5b828206905092915050565b7f4e487b7100000000000000000000000000000000000000000000000000000000600052601160045260246000fd5b7f4e487b7100000000000000000000000000000000000000000000000000000000600052601260045260246000fd5b7f4e487b7100000000000000000000000000000000000000000000000000000000600052602260045260246000fd5b7f4e487b7100000000000000000000000000000000000000000000000000000000600052604160045260246000fd5b600080fd5b600080fd5b600080fd5b600080fd5b6000601f19601f8301169050919050565b60008160601b9050919050565b60008160011c9050919050565b7f756e61626c6520746f207472616e73666572416e6443616c6c20746f206f726160008201527f636c650000000000000000000000000000000000000000000000000000000000602082015250565b7f536f75726365206d75737420626520746865206f7261636c65206f662074686560008201527f2072657175657374000000000000000000000000000000000000000000000000602082015250565b6116b881611370565b81146116c357600080fd5b50565b6116cf8161137c565b81146116da57600080fd5b5056fe68747470733a2f2f676973742e67697468756275736572636f6e74656e742e636f6d2f4268616b74693038372f66666435336138343038663130653263323238626234613231633731663530332f7261772f343131303461313130313232363734353761316137323366323262343665366133303838653562622f62797465732d6578616d706c652e6a736f6ea2646970667358221220256ba130c9b005ebffe87f0067ba0a67a65401904421f1ee10243a789b8ed99d64736f6c63430008070033",
  "linkReferences": {},
  "deployedLinkReferences": {}
}