{
  "_format": "hh-sol-artifact-1",
  "contractName": "LiquiswapV6",
  "sourceName": "contracts/LiquiswapV6.sol",
  "abi": [
    {
      "inputs": [],
      "stateMutability": "nonpayable",
      "type": "constructor"
    },
    {
      "anonymous": false,
      "inputs": [
        {
          "indexed": true,
          "internalType": "address",
          "name": "user",
          "type": "address"
        },
        {
          "indexed": false,
          "internalType": "string",
          "name": "token",
          "type": "string"
        },
        {
          "indexed": false,
          "internalType": "uint256",
          "name": "amount",
          "type": "uint256"
        },
        {
          "indexed": false,
          "internalType": "uint256",
          "name": "balance",
          "type": "uint256"
        }
      ],
      "name": "Deposit",
      "type": "event"
    },
    {
      "anonymous": false,
      "inputs": [
        {
          "indexed": true,
          "internalType": "address",
          "name": "charity",
          "type": "address"
        },
        {
          "indexed": false,
          "internalType": "uint256",
          "name": "amount",
          "type": "uint256"
        }
      ],
      "name": "Donation",
      "type": "event"
    },
    {
      "anonymous": false,
      "inputs": [
        {
          "indexed": true,
          "internalType": "address",
          "name": "user",
          "type": "address"
        },
        {
          "indexed": false,
          "internalType": "uint256",
          "name": "numNFTs",
          "type": "uint256"
        }
      ],
      "name": "EarnedNFT",
      "type": "event"
    },
    {
      "anonymous": false,
      "inputs": [
        {
          "indexed": true,
          "internalType": "address",
          "name": "user",
          "type": "address"
        },
        {
          "indexed": true,
          "internalType": "int256",
          "name": "price",
          "type": "int256"
        },
        {
          "indexed": false,
          "internalType": "uint256",
          "name": "amountMATIC",
          "type": "uint256"
        },
        {
          "indexed": false,
          "internalType": "uint256",
          "name": "amountDAI",
          "type": "uint256"
        }
      ],
      "name": "Liquidation",
      "type": "event"
    },
    {
      "anonymous": false,
      "inputs": [
        {
          "indexed": true,
          "internalType": "address",
          "name": "user",
          "type": "address"
        }
      ],
      "name": "UserAdded",
      "type": "event"
    },
    {
      "anonymous": false,
      "inputs": [
        {
          "indexed": true,
          "internalType": "address",
          "name": "user",
          "type": "address"
        }
      ],
      "name": "UserDeleted",
      "type": "event"
    },
    {
      "anonymous": false,
      "inputs": [
        {
          "indexed": true,
          "internalType": "address",
          "name": "user",
          "type": "address"
        },
        {
          "indexed": false,
          "internalType": "string",
          "name": "token",
          "type": "string"
        },
        {
          "indexed": false,
          "internalType": "uint256",
          "name": "amount",
          "type": "uint256"
        },
        {
          "indexed": false,
          "internalType": "uint256",
          "name": "donation",
          "type": "uint256"
        }
      ],
      "name": "Withdrawal",
      "type": "event"
    },
    {
      "anonymous": false,
      "inputs": [
        {
          "indexed": true,
          "internalType": "address",
          "name": "user",
          "type": "address"
        },
        {
          "indexed": false,
          "internalType": "string",
          "name": "token",
          "type": "string"
        },
        {
          "indexed": false,
          "internalType": "uint256",
          "name": "amount",
          "type": "uint256"
        }
      ],
      "name": "WithdrawalDAI",
      "type": "event"
    },
    {
      "stateMutability": "payable",
      "type": "fallback"
    },
    {
      "inputs": [
        {
          "internalType": "address",
          "name": "_newOwner",
          "type": "address"
        }
      ],
      "name": "addOwner",
      "outputs": [],
      "stateMutability": "nonpayable",
      "type": "function"
    },
    {
      "inputs": [],
      "name": "addUser",
      "outputs": [],
      "stateMutability": "nonpayable",
      "type": "function"
    },
    {
      "inputs": [
        {
          "internalType": "bytes",
          "name": "",
          "type": "bytes"
        }
      ],
      "name": "checkUpkeep",
      "outputs": [
        {
          "internalType": "bool",
          "name": "upkeepNeeded",
          "type": "bool"
        },
        {
          "internalType": "bytes",
          "name": "performData",
          "type": "bytes"
        }
      ],
      "stateMutability": "view",
      "type": "function"
    },
    {
      "inputs": [
        {
          "internalType": "address",
          "name": "_delOwner",
          "type": "address"
        }
      ],
      "name": "delOwner",
      "outputs": [],
      "stateMutability": "nonpayable",
      "type": "function"
    },
    {
      "inputs": [],
      "name": "delUser",
      "outputs": [],
      "stateMutability": "nonpayable",
      "type": "function"
    },
    {
      "inputs": [
        {
          "internalType": "address",
          "name": "_addr",
          "type": "address"
        }
      ],
      "name": "getAaveWMATICAllowance",
      "outputs": [
        {
          "internalType": "uint256",
          "name": "",
          "type": "uint256"
        }
      ],
      "stateMutability": "view",
      "type": "function"
    },
    {
      "inputs": [],
      "name": "getAaveWMATICAllowance",
      "outputs": [
        {
          "internalType": "uint256",
          "name": "",
          "type": "uint256"
        }
      ],
      "stateMutability": "view",
      "type": "function"
    },
    {
      "inputs": [],
      "name": "getBalanceAaveWMATIC",
      "outputs": [
        {
          "internalType": "uint256",
          "name": "",
          "type": "uint256"
        }
      ],
      "stateMutability": "view",
      "type": "function"
    },
    {
      "inputs": [
        {
          "internalType": "address",
          "name": "_addr",
          "type": "address"
        }
      ],
      "name": "getBalanceAaveWMaticAddr",
      "outputs": [
        {
          "internalType": "uint256",
          "name": "",
          "type": "uint256"
        }
      ],
      "stateMutability": "view",
      "type": "function"
    },
    {
      "inputs": [],
      "name": "getBalanceDAI",
      "outputs": [
        {
          "internalType": "uint256",
          "name": "",
          "type": "uint256"
        }
      ],
      "stateMutability": "view",
      "type": "function"
    },
    {
      "inputs": [],
      "name": "getContractBalanceAaveWMATIC",
      "outputs": [
        {
          "internalType": "uint256",
          "name": "",
          "type": "uint256"
        }
      ],
      "stateMutability": "view",
      "type": "function"
    },
    {
      "inputs": [],
      "name": "getContractBalanceDAI",
      "outputs": [
        {
          "internalType": "uint256",
          "name": "",
          "type": "uint256"
        }
      ],
      "stateMutability": "view",
      "type": "function"
    },
    {
      "inputs": [],
      "name": "getContractBalanceMATIC",
      "outputs": [
        {
          "internalType": "uint256",
          "name": "",
          "type": "uint256"
        }
      ],
      "stateMutability": "view",
      "type": "function"
    },
    {
      "inputs": [],
      "name": "getLatestPrice",
      "outputs": [
        {
          "internalType": "int256",
          "name": "",
          "type": "int256"
        }
      ],
      "stateMutability": "view",
      "type": "function"
    },
    {
      "inputs": [
        {
          "internalType": "address",
          "name": "_addr",
          "type": "address"
        }
      ],
      "name": "getLiquidationPrice",
      "outputs": [
        {
          "internalType": "int256",
          "name": "",
          "type": "int256"
        }
      ],
      "stateMutability": "view",
      "type": "function"
    },
    {
      "inputs": [],
      "name": "getLiquidationPrice",
      "outputs": [
        {
          "internalType": "int256",
          "name": "",
          "type": "int256"
        }
      ],
      "stateMutability": "view",
      "type": "function"
    },
    {
      "inputs": [],
      "name": "getNumNFTs",
      "outputs": [
        {
          "internalType": "uint256",
          "name": "",
          "type": "uint256"
        }
      ],
      "stateMutability": "view",
      "type": "function"
    },
    {
      "inputs": [],
      "name": "getPrincipal",
      "outputs": [
        {
          "internalType": "uint256",
          "name": "",
          "type": "uint256"
        }
      ],
      "stateMutability": "view",
      "type": "function"
    },
    {
      "inputs": [],
      "name": "isApproved",
      "outputs": [
        {
          "internalType": "bool",
          "name": "",
          "type": "bool"
        }
      ],
      "stateMutability": "view",
      "type": "function"
    },
    {
      "inputs": [
        {
          "internalType": "address",
          "name": "_user",
          "type": "address"
        }
      ],
      "name": "isApproved",
      "outputs": [
        {
          "internalType": "bool",
          "name": "",
          "type": "bool"
        }
      ],
      "stateMutability": "view",
      "type": "function"
    },
    {
      "inputs": [
        {
          "internalType": "address",
          "name": "",
          "type": "address"
        }
      ],
      "name": "owners",
      "outputs": [
        {
          "internalType": "bool",
          "name": "",
          "type": "bool"
        }
      ],
      "stateMutability": "view",
      "type": "function"
    },
    {
      "inputs": [
        {
          "internalType": "bytes",
          "name": "performData",
          "type": "bytes"
        }
      ],
      "name": "performUpkeep",
      "outputs": [],
      "stateMutability": "nonpayable",
      "type": "function"
    },
    {
      "inputs": [],
      "name": "priceDropAmount",
      "outputs": [
        {
          "internalType": "int256",
          "name": "",
          "type": "int256"
        }
      ],
      "stateMutability": "view",
      "type": "function"
    },
    {
      "inputs": [
        {
          "internalType": "address",
          "name": "_charity",
          "type": "address"
        },
        {
          "internalType": "uint256",
          "name": "_amount",
          "type": "uint256"
        }
      ],
      "name": "sendDonation",
      "outputs": [],
      "stateMutability": "nonpayable",
      "type": "function"
    },
    {
      "inputs": [
        {
          "internalType": "int256",
          "name": "_liquidationPrice",
          "type": "int256"
        }
      ],
      "name": "setLiquidationPrice",
      "outputs": [],
      "stateMutability": "nonpayable",
      "type": "function"
    },
    {
      "inputs": [
        {
          "internalType": "uint256",
          "name": "_principal",
          "type": "uint256"
        }
      ],
      "name": "setPrincipal",
      "outputs": [],
      "stateMutability": "nonpayable",
      "type": "function"
    },
    {
      "inputs": [],
      "name": "supplyLiquidity",
      "outputs": [],
      "stateMutability": "payable",
      "type": "function"
    },
    {
      "inputs": [
        {
          "internalType": "int256",
          "name": "_liquidationPrice",
          "type": "int256"
        }
      ],
      "name": "supplyLiquidity",
      "outputs": [],
      "stateMutability": "payable",
      "type": "function"
    },
    {
      "inputs": [
        {
          "internalType": "address",
          "name": "",
          "type": "address"
        }
      ],
      "name": "users",
      "outputs": [
        {
          "internalType": "uint256",
          "name": "usersIndexPosition",
          "type": "uint256"
        },
        {
          "internalType": "uint256",
          "name": "principalMATIC",
          "type": "uint256"
        },
        {
          "internalType": "int256",
          "name": "liquidationPrice",
          "type": "int256"
        },
        {
          "internalType": "uint256",
          "name": "liquidationSharesIn",
          "type": "uint256"
        },
        {
          "internalType": "uint256",
          "name": "balanceDAI",
          "type": "uint256"
        },
        {
          "internalType": "bool",
          "name": "wasLiquidated",
          "type": "bool"
        },
        {
          "internalType": "uint256",
          "name": "numNFTs",
          "type": "uint256"
        }
      ],
      "stateMutability": "view",
      "type": "function"
    },
    {
      "inputs": [
        {
          "internalType": "uint256",
          "name": "",
          "type": "uint256"
        }
      ],
      "name": "usersIndex",
      "outputs": [
        {
          "internalType": "address",
          "name": "",
          "type": "address"
        }
      ],
      "stateMutability": "view",
      "type": "function"
    },
    {
      "inputs": [],
      "name": "wasLiquidated",
      "outputs": [
        {
          "internalType": "bool",
          "name": "",
          "type": "bool"
        }
      ],
      "stateMutability": "view",
      "type": "function"
    },
    {
      "inputs": [],
      "name": "withdrawDAI",
      "outputs": [],
      "stateMutability": "nonpayable",
      "type": "function"
    },
    {
      "inputs": [
        {
          "internalType": "uint256",
          "name": "_amount",
          "type": "uint256"
        }
      ],
      "name": "withdrawDAI",
      "outputs": [],
      "stateMutability": "nonpayable",
      "type": "function"
    },
    {
      "inputs": [
        {
          "internalType": "uint256",
          "name": "_amount",
          "type": "uint256"
        }
      ],
      "name": "withdrawLiquidity",
      "outputs": [],
      "stateMutability": "nonpayable",
      "type": "function"
    },
    {
      "inputs": [],
      "name": "withdrawLiquidity",
      "outputs": [],
      "stateMutability": "nonpayable",
      "type": "function"
    },
    {
      "inputs": [
        {
          "internalType": "address",
          "name": "_addr",
          "type": "address"
        },
        {
          "internalType": "uint256",
          "name": "_amount",
          "type": "uint256"
        }
      ],
      "name": "zdevAaveWMATICTransferFrom",
      "outputs": [
        {
          "internalType": "bool",
          "name": "",
          "type": "bool"
        }
      ],
      "stateMutability": "nonpayable",
      "type": "function"
    },
    {
      "inputs": [],
      "name": "zdevBurnContractATokens",
      "outputs": [],
      "stateMutability": "nonpayable",
      "type": "function"
    },
    {
      "inputs": [],
      "name": "zdevGetAaveWMATICAllowanceGateway",
      "outputs": [
        {
          "internalType": "uint256",
          "name": "",
          "type": "uint256"
        }
      ],
      "stateMutability": "view",
      "type": "function"
    },
    {
      "inputs": [],
      "name": "zdevLoadMATIConATokenContract",
      "outputs": [],
      "stateMutability": "payable",
      "type": "function"
    },
    {
      "inputs": [],
      "name": "zdevRecoverAaveWMatic",
      "outputs": [],
      "stateMutability": "nonpayable",
      "type": "function"
    },
    {
      "inputs": [],
      "name": "zdevRecoverDAI",
      "outputs": [],
      "stateMutability": "nonpayable",
      "type": "function"
    },
    {
      "inputs": [],
      "name": "zdevRecoverMatic",
      "outputs": [],
      "stateMutability": "nonpayable",
      "type": "function"
    },
    {
      "inputs": [
        {
          "internalType": "int256",
          "name": "_priceDrop",
          "type": "int256"
        }
      ],
      "name": "zdevSetPriceDrop",
      "outputs": [],
      "stateMutability": "nonpayable",
      "type": "function"
    },
    {
      "inputs": [],
      "name": "zdevWithdrawRecoverMatic",
      "outputs": [],
      "stateMutability": "nonpayable",
      "type": "function"
    },
    {
      "stateMutability": "payable",
      "type": "receive"
    }
  ],
  "bytecode": "0x60c060405273d0d5e3db44de05e9f294bb0a3beeaf030de24ada6000806101000a81548173ffffffffffffffffffffffffffffffffffffffff021916908373ffffffffffffffffffffffffffffffffffffffff16021790555060008054906101000a900473ffffffffffffffffffffffffffffffffffffffff16600160006101000a81548173ffffffffffffffffffffffffffffffffffffffff021916908373ffffffffffffffffffffffffffffffffffffffff16021790555073e592427a0aece92de3edee1f18e0157c0586156473ffffffffffffffffffffffffffffffffffffffff1660809073ffffffffffffffffffffffffffffffffffffffff1660601b815250739c3c9283d3e44854697cd22d3faa240cfb032889600260006101000a81548173ffffffffffffffffffffffffffffffffffffffff021916908373ffffffffffffffffffffffffffffffffffffffff160217905550721b3b4d0f3714ca98ba10f6042daebf0b1b7b6f600360006101000a81548173ffffffffffffffffffffffffffffffffffffffff021916908373ffffffffffffffffffffffffffffffffffffffff160217905550736c9fb0d5bd9429eb9cd96b85b81d872281771e6b600460006101000a81548173ffffffffffffffffffffffffffffffffffffffff021916908373ffffffffffffffffffffffffffffffffffffffff160217905550732a58e9bbb5434fda7ff78051a4b82cb0ef669c1773ffffffffffffffffffffffffffffffffffffffff1660a09073ffffffffffffffffffffffffffffffffffffffff1660601b8152507389a6ae840b3f8f489418933a220315eea36d11ff600560006101000a81548173ffffffffffffffffffffffffffffffffffffffff021916908373ffffffffffffffffffffffffffffffffffffffff160217905550348015620002ad57600080fd5b506001600660003373ffffffffffffffffffffffffffffffffffffffff1673ffffffffffffffffffffffffffffffffffffffff16815260200190815260200160002060006101000a81548160ff0219169083151502179055506200032b73a01c18793c1d8b94849da884fdbcda857af463ab620003d260201b60201c565b6200035073f9739cf1b992e62a1c5c18c33cacb2a27a91f888620003d260201b60201c565b600760008154620003619062000538565b91905081905550600860009080600181540180825580915050600190039060005260206000200160009091909190916101000a81548173ffffffffffffffffffffffffffffffffffffffff021916908373ffffffffffffffffffffffffffffffffffffffff160217905550620005de565b600660003373ffffffffffffffffffffffffffffffffffffffff1673ffffffffffffffffffffffffffffffffffffffff16815260200190815260200160002060009054906101000a900460ff1662000461576040517f08c379a00000000000000000000000000000000000000000000000000000000081526004016200045890620004fb565b60405180910390fd5b6001600660008373ffffffffffffffffffffffffffffffffffffffff1673ffffffffffffffffffffffffffffffffffffffff16815260200190815260200160002060006101000a81548160ff021916908315150217905550600760008154620004ca9062000538565b9190508190555050565b6000620004e3600b836200051d565b9150620004f082620005b5565b602082019050919050565b600060208201905081810360008301526200051681620004d4565b9050919050565b600082825260208201905092915050565b6000819050919050565b600062000545826200052e565b91507fffffffffffffffffffffffffffffffffffffffffffffffffffffffffffffffff8214156200057b576200057a62000586565b5b600182019050919050565b7f4e487b7100000000000000000000000000000000000000000000000000000000600052601160045260246000fd5b7f6f6e6c79206f776e657273000000000000000000000000000000000000000000600082015250565b60805160601c60a05160601c6155c262000650600039600081816109fe015281816113c00152818161145201528181611bed01528181611c7f015281816120fd0152818161246901528181613bf201528181613c8401528181613f1e0152613fb00152600061413a01526155c26000f3fe60806040526004361061026b5760003560e01c80636e04ff0d11610144578063a87430ba116100b6578063c7135dcd1161007a578063c7135dcd14610892578063cb631471146108a9578063cd4646cb146108d4578063d34c4a7e146108fd578063dd45f63b14610928578063f4d5f56b1461095357610272565b8063a87430ba146107b4578063b4576cd1146107f7578063bda4e79714610822578063bdef476b1461084d578063c2d6ed141461087657610272565b806384f2b9c31161010857806384f2b9c3146106ca578063899478a6146106f55780638e15f4731461070c5780638f186aff146107375780639add743814610760578063a69bdf161461078957610272565b80636e04ff0d146105f85780637065cb4814610636578063739841881461065f5780637ea382c11461068857806384ef904e1461069f57610272565b80634585e33b116101dd578063534c197f116101a1578063534c197f1461051b5780635dff7f2514610558578063673448dd1461056f57806368b0cb6a146105ac5780636be69ab0146105b65780636c716898146105cd57610272565b80634585e33b14610448578063458c16ab1461047157806346558d1b1461049c5780634bed907d146104c757806353315c6c146104f257610272565b806317d8de821161022f57806317d8de82146103385780631a4c5def1461037557806328f371aa1461038c57806342a0cc31146103b7578063438b9f0d146103f4578063455c928c1461043157610272565b8063020bcc9e14610274578063022914a71461028b57806307a6bf69146102c85780630a861f2a146102d257806310fdda09146102fb57610272565b3661027257005b005b34801561028057600080fd5b5061028961096a565b005b34801561029757600080fd5b506102b260048036038101906102ad91906142d5565b61097c565b6040516102bf9190614a0a565b60405180910390f35b6102d061099c565b005b3480156102de57600080fd5b506102f960048036038101906102f491906143e9565b610c3a565b005b34801561030757600080fd5b50610322600480360381019061031d91906143e9565b6111b5565b60405161032f91906148f8565b60405180910390f35b34801561034457600080fd5b5061035f600480360381019061035a91906142d5565b6111f4565b60405161036c9190614a55565b60405180910390f35b34801561038157600080fd5b5061038a611240565b005b34801561039857600080fd5b506103a16115cf565b6040516103ae9190614a0a565b60405180910390f35b3480156103c357600080fd5b506103de60048036038101906103d991906142d5565b6115df565b6040516103eb9190614cb6565b60405180910390f35b34801561040057600080fd5b5061041b60048036038101906104169190614302565b611695565b6040516104289190614a0a565b60405180910390f35b34801561043d57600080fd5b50610446611750565b005b34801561045457600080fd5b5061046f600480360381019061046a919061436f565b61197a565b005b34801561047d57600080fd5b50610486611fbe565b6040516104939190614cb6565b60405180910390f35b3480156104a857600080fd5b506104b1612070565b6040516104be9190614a55565b60405180910390f35b3480156104d357600080fd5b506104dc6120ba565b6040516104e99190614cb6565b60405180910390f35b3480156104fe57600080fd5b50610519600480360381019061051491906143bc565b61218e565b005b34801561052757600080fd5b50610542600480360381019061053d91906142d5565b61225e565b60405161054f9190614cb6565b60405180910390f35b34801561056457600080fd5b5061056d612312565b005b34801561057b57600080fd5b50610596600480360381019061059191906142d5565b612453565b6040516105a39190614a0a565b60405180910390f35b6105b4612467565b005b3480156105c257600080fd5b506105cb61251c565b005b3480156105d957600080fd5b506105e261270a565b6040516105ef9190614cb6565b60405180910390f35b34801561060457600080fd5b5061061f600480360381019061061a919061436f565b612754565b60405161062d929190614a25565b60405180910390f35b34801561064257600080fd5b5061065d600480360381019061065891906142d5565b6128e4565b005b34801561066b57600080fd5b50610686600480360381019061068191906142d5565b6129e1565b005b34801561069457600080fd5b5061069d612baf565b005b3480156106ab57600080fd5b506106b4612c6a565b6040516106c19190614cb6565b60405180910390f35b3480156106d657600080fd5b506106df612d1c565b6040516106ec9190614cb6565b60405180910390f35b34801561070157600080fd5b5061070a612d24565b005b34801561071857600080fd5b50610721613035565b60405161072e9190614a55565b60405180910390f35b34801561074357600080fd5b5061075e600480360381019061075991906143bc565b6130f2565b005b34801561076c57600080fd5b50610787600480360381019061078291906143e9565b613188565b005b34801561079557600080fd5b5061079e6133a8565b6040516107ab9190614cb6565b60405180910390f35b3480156107c057600080fd5b506107db60048036038101906107d691906142d5565b6133f2565b6040516107ee9796959493929190614cfa565b60405180910390f35b34801561080357600080fd5b5061080c613441565b6040516108199190614a55565b60405180910390f35b34801561082e57600080fd5b50610837613447565b6040516108449190614cb6565b60405180910390f35b34801561085957600080fd5b50610874600480360381019061086f91906143e9565b613491565b005b610890600480360381019061088b91906143bc565b6134db565b005b34801561089e57600080fd5b506108a761352d565b005b3480156108b557600080fd5b506108be61371b565b6040516108cb9190614a0a565b60405180910390f35b3480156108e057600080fd5b506108fb60048036038101906108f69190614302565b613772565b005b34801561090957600080fd5b506109126139b0565b60405161091f9190614cb6565b60405180910390f35b34801561093457600080fd5b5061093d6139c0565b60405161094a9190614cb6565b60405180910390f35b34801561095f57600080fd5b50610968613a72565b005b61097a61097561270a565b613188565b565b60066020528060005260406000206000915054906101000a900460ff1681565b6000600960003373ffffffffffffffffffffffffffffffffffffffff1673ffffffffffffffffffffffffffffffffffffffff1681526020019081526020016000206000015414156109f0576109ef611750565b5b60006109fa6139c0565b90507f000000000000000000000000000000000000000000000000000000000000000073ffffffffffffffffffffffffffffffffffffffff1663474cf53d34600460009054906101000a900473ffffffffffffffffffffffffffffffffffffffff163360006040518563ffffffff1660e01b8152600401610a7d9392919061493c565b6000604051808303818588803b158015610a9657600080fd5b505af1158015610aaa573d6000803e3d6000fd5b50505050506000610ab96139c0565b9050600080831415610b145781905080600960003373ffffffffffffffffffffffffffffffffffffffff1673ffffffffffffffffffffffffffffffffffffffff16815260200190815260200160002060010181905550610b7c565b8282610b209190614f5c565b905080600960003373ffffffffffffffffffffffffffffffffffffffff1673ffffffffffffffffffffffffffffffffffffffff1681526020019081526020016000206001016000828254610b749190614de7565b925050819055505b3373ffffffffffffffffffffffffffffffffffffffff167fc9c6fab6ecbdd99f0fff2b919fb3ff1ef9ec3e382592cd5323cbb3571da624fc8284604051610bc4929190614b9e565b60405180910390a2610bd461371b565b15610c35576000600960003373ffffffffffffffffffffffffffffffffffffffff1673ffffffffffffffffffffffffffffffffffffffff16815260200190815260200160002060050160006101000a81548160ff0219169083151502179055505b505050565b600560009054906101000a900473ffffffffffffffffffffffffffffffffffffffff1673ffffffffffffffffffffffffffffffffffffffff166370a08231336040518263ffffffff1660e01b8152600401610c9591906148f8565b60206040518083038186803b158015610cad57600080fd5b505afa158015610cc1573d6000803e3d6000fd5b505050506040513d601f19601f82011682018060405250810190610ce59190614416565b811115610d27576040517f08c379a0000000000000000000000000000000000000000000000000000000008152600401610d1e90614b30565b60405180910390fd5b600560009054906101000a900473ffffffffffffffffffffffffffffffffffffffff1673ffffffffffffffffffffffffffffffffffffffff1663dd62ed3e33306040518363ffffffff1660e01b8152600401610d84929190614913565b60206040518083038186803b158015610d9c57600080fd5b505afa158015610db0573d6000803e3d6000fd5b505050506040513d601f19601f82011682018060405250810190610dd49190614416565b811115610e16576040517f08c379a0000000000000000000000000000000000000000000000000000000008152600401610e0d90614ad0565b60405180910390fd5b6000610e20611fbe565b9050610e2b82613d37565b600081610e36611fbe565b610e409190614f5c565b9050610e4a612d1c565b9150610e5581613dec565b81610e5e612d1c565b610e689190614f5c565b9050600080600960003373ffffffffffffffffffffffffffffffffffffffff1673ffffffffffffffffffffffffffffffffffffffff16815260200190815260200160002060010154831115611054576002600960003373ffffffffffffffffffffffffffffffffffffffff1673ffffffffffffffffffffffffffffffffffffffff1681526020019081526020016000206001015484610f079190614f5c565b610f119190614e3d565b90508083610f1f9190614f5c565b9150600960003373ffffffffffffffffffffffffffffffffffffffff1673ffffffffffffffffffffffffffffffffffffffff16815260200190815260200160002060060160008154610f709061510f565b919050819055506000600960003373ffffffffffffffffffffffffffffffffffffffff1673ffffffffffffffffffffffffffffffffffffffff168152602001908152602001600020600101819055503373ffffffffffffffffffffffffffffffffffffffff167f57958548394d02387e4204984f7d693567c1fd729fe1ed83ae8b233332e7319e600960003373ffffffffffffffffffffffffffffffffffffffff1673ffffffffffffffffffffffffffffffffffffffff168152602001908152602001600020600601546040516110479190614cb6565b60405180910390a26110b1565b82915082600960003373ffffffffffffffffffffffffffffffffffffffff1673ffffffffffffffffffffffffffffffffffffffff16815260200190815260200160002060010160008282546110a99190614f5c565b925050819055505b60003373ffffffffffffffffffffffffffffffffffffffff16846040516110d7906148e3565b60006040518083038185875af1925050503d8060008114611114576040519150601f19603f3d011682016040523d82523d6000602084013e611119565b606091505b505090508061115d576040517f08c379a000000000000000000000000000000000000000000000000000000000815260040161115490614c7a565b60405180910390fd5b3373ffffffffffffffffffffffffffffffffffffffff167f8abd2c969830597ba5ec419d56dd04a713cccf5cf1764ca5c55e9e8b2db0d8f184846040516111a5929190614b9e565b60405180910390a2505050505050565b600881815481106111c557600080fd5b906000526020600020016000915054906101000a900473ffffffffffffffffffffffffffffffffffffffff1681565b6000600960008373ffffffffffffffffffffffffffffffffffffffff1673ffffffffffffffffffffffffffffffffffffffff168152602001908152602001600020600201549050919050565b600660003373ffffffffffffffffffffffffffffffffffffffff1673ffffffffffffffffffffffffffffffffffffffff16815260200190815260200160002060009054906101000a900460ff166112cc576040517f08c379a00000000000000000000000000000000000000000000000000000000081526004016112c390614bda565b60405180910390fd5b60003090506000600560009054906101000a900473ffffffffffffffffffffffffffffffffffffffff1673ffffffffffffffffffffffffffffffffffffffff166370a08231836040518263ffffffff1660e01b815260040161132e91906148f8565b60206040518083038186803b15801561134657600080fd5b505afa15801561135a573d6000803e3d6000fd5b505050506040513d601f19601f8201168201806040525081019061137e9190614416565b9050600560009054906101000a900473ffffffffffffffffffffffffffffffffffffffff1673ffffffffffffffffffffffffffffffffffffffff1663095ea7b37f0000000000000000000000000000000000000000000000000000000000000000836040518363ffffffff1660e01b81526004016113fd9291906149aa565b602060405180830381600087803b15801561141757600080fd5b505af115801561142b573d6000803e3d6000fd5b505050506040513d601f19601f8201168201806040525081019061144f9190614342565b507f000000000000000000000000000000000000000000000000000000000000000073ffffffffffffffffffffffffffffffffffffffff166380500d20600460009054906101000a900473ffffffffffffffffffffffffffffffffffffffff1683856040518463ffffffff1660e01b81526004016114cf939291906149d3565b600060405180830381600087803b1580156114e957600080fd5b505af11580156114fd573d6000803e3d6000fd5b5050505060008273ffffffffffffffffffffffffffffffffffffffff1631905060003373ffffffffffffffffffffffffffffffffffffffff1682604051611543906148e3565b60006040518083038185875af1925050503d8060008114611580576040519150601f19603f3d011682016040523d82523d6000602084013e611585565b606091505b50509050806115c9576040517f08c379a00000000000000000000000000000000000000000000000000000000081526004016115c090614ab0565b60405180910390fd5b50505050565b60006115da33612453565b905090565b6000600560009054906101000a900473ffffffffffffffffffffffffffffffffffffffff1673ffffffffffffffffffffffffffffffffffffffff1663dd62ed3e83306040518363ffffffff1660e01b815260040161163e929190614913565b60206040518083038186803b15801561165657600080fd5b505afa15801561166a573d6000803e3d6000fd5b505050506040513d601f19601f8201168201806040525081019061168e9190614416565b9050919050565b6000600560009054906101000a900473ffffffffffffffffffffffffffffffffffffffff1673ffffffffffffffffffffffffffffffffffffffff166323b872dd8430856040518463ffffffff1660e01b81526004016116f693929190614973565b602060405180830381600087803b15801561171057600080fd5b505af1158015611724573d6000803e3d6000fd5b505050506040513d601f19601f820116820180604052508101906117489190614342565b905092915050565b6000600960003373ffffffffffffffffffffffffffffffffffffffff1673ffffffffffffffffffffffffffffffffffffffff16815260200190815260200160002060000154146117d5576040517f08c379a00000000000000000000000000000000000000000000000000000000081526004016117cc90614a70565b60405180910390fd5b6008339080600181540180825580915050600190039060005260206000200160009091909190916101000a81548173ffffffffffffffffffffffffffffffffffffffff021916908373ffffffffffffffffffffffffffffffffffffffff1602179055506040518060e001604052806008805490508152602001600081526020017fffffffffffffffffffffffffffffffffffffffffffffffffffffffffffffffff815260200160008152602001600081526020016000151581526020016000815250600960003373ffffffffffffffffffffffffffffffffffffffff1673ffffffffffffffffffffffffffffffffffffffff168152602001908152602001600020600082015181600001556020820151816001015560408201518160020155606082015181600301556080820151816004015560a08201518160050160006101000a81548160ff02191690831515021790555060c082015181600601559050503373ffffffffffffffffffffffffffffffffffffffff167f19ef9a4877199f89440a26acb26895ec02ed86f2df1aeaa90dc18041b892f71f60405160405180910390a2565b6000611984613035565b905060008060005b85859050811015611b9757858582906014846119a89190614de7565b926119b593929190614dac565b906119c09190615041565b60601c9150600960008373ffffffffffffffffffffffffffffffffffffffff1673ffffffffffffffffffffffffffffffffffffffff168152602001908152602001600020600201548413611b83576000611a198361225e565b90506000611a26846115df565b9050600082118015611a385750600081115b15611b80576000818311611a4e57829050611a52565b8190505b6000611a5c611fbe565b9050600560009054906101000a900473ffffffffffffffffffffffffffffffffffffffff1673ffffffffffffffffffffffffffffffffffffffff166323b872dd8730856040518463ffffffff1660e01b8152600401611abd93929190614973565b602060405180830381600087803b158015611ad757600080fd5b505af1158015611aeb573d6000803e3d6000fd5b505050506040513d601f19601f82011682018060405250810190611b0f9190614342565b50600081611b1b611fbe565b611b259190614f5c565b905080600960008973ffffffffffffffffffffffffffffffffffffffff1673ffffffffffffffffffffffffffffffffffffffff168152602001908152602001600020600301819055508088611b7a9190614de7565b97505050505b50505b601481611b909190614de7565b905061198c565b506000821115611fb7576000611bab612d1c565b9050600560009054906101000a900473ffffffffffffffffffffffffffffffffffffffff1673ffffffffffffffffffffffffffffffffffffffff1663095ea7b37f0000000000000000000000000000000000000000000000000000000000000000856040518363ffffffff1660e01b8152600401611c2a9291906149aa565b602060405180830381600087803b158015611c4457600080fd5b505af1158015611c58573d6000803e3d6000fd5b505050506040513d601f19601f82011682018060405250810190611c7c9190614342565b507f000000000000000000000000000000000000000000000000000000000000000073ffffffffffffffffffffffffffffffffffffffff166380500d20600460009054906101000a900473ffffffffffffffffffffffffffffffffffffffff1685306040518463ffffffff1660e01b8152600401611cfc939291906149d3565b600060405180830381600087803b158015611d1657600080fd5b505af1158015611d2a573d6000803e3d6000fd5b50505050600081611d39612d1c565b611d439190614f5c565b90506000611d5082614063565b90506000811115611fb35760005b88889050811015611fb15788888290601484611d7a9190614de7565b92611d8793929190614dac565b90611d929190615041565b60601c94506000600960008773ffffffffffffffffffffffffffffffffffffffff1673ffffffffffffffffffffffffffffffffffffffff1681526020019081526020016000206040518060e001604052908160008201548152602001600182015481526020016002820154815260200160038201548152602001600482015481526020016005820160009054906101000a900460ff1615151515815260200160068201548152505090506000816060015190506000811115611f9b576000888286611e5d9190614e6e565b611e679190614e3d565b90508083608001818151611e7b9190614de7565b9150818152505060018360a00190151590811515815250506000836020018181525050600083606001818152505082600960008a73ffffffffffffffffffffffffffffffffffffffff1673ffffffffffffffffffffffffffffffffffffffff168152602001908152602001600020600082015181600001556020820151816001015560408201518160020155606082015181600301556080820151816004015560a08201518160050160006101000a81548160ff02191690831515021790555060c08201518160060155905050898873ffffffffffffffffffffffffffffffffffffffff167fcb57c135cf147d5e7ab55a2b66f62235d5173407f0a341e6099d6d68f33acd5a8484604051611f91929190614cd1565b60405180910390a3505b5050601481611faa9190614de7565b9050611d5e565b505b5050505b5050505050565b6000600560009054906101000a900473ffffffffffffffffffffffffffffffffffffffff1673ffffffffffffffffffffffffffffffffffffffff166370a08231306040518263ffffffff1660e01b815260040161201b91906148f8565b60206040518083038186803b15801561203357600080fd5b505afa158015612047573d6000803e3d6000fd5b505050506040513d601f19601f8201168201806040525081019061206b9190614416565b905090565b6000600960003373ffffffffffffffffffffffffffffffffffffffff1673ffffffffffffffffffffffffffffffffffffffff16815260200190815260200160002060020154905090565b6000600560009054906101000a900473ffffffffffffffffffffffffffffffffffffffff1673ffffffffffffffffffffffffffffffffffffffff1663dd62ed3e307f00000000000000000000000000000000000000000000000000000000000000006040518363ffffffff1660e01b8152600401612139929190614913565b60206040518083038186803b15801561215157600080fd5b505afa158015612165573d6000803e3d6000fd5b505050506040513d601f19601f820116820180604052508101906121899190614416565b905090565b6000600960003373ffffffffffffffffffffffffffffffffffffffff1673ffffffffffffffffffffffffffffffffffffffff168152602001908152602001600020600001541415612214576040517f08c379a000000000000000000000000000000000000000000000000000000000815260040161220b90614bfa565b60405180910390fd5b80600960003373ffffffffffffffffffffffffffffffffffffffff1673ffffffffffffffffffffffffffffffffffffffff1681526020019081526020016000206002018190555050565b6000600560009054906101000a900473ffffffffffffffffffffffffffffffffffffffff1673ffffffffffffffffffffffffffffffffffffffff166370a08231836040518263ffffffff1660e01b81526004016122bb91906148f8565b60206040518083038186803b1580156122d357600080fd5b505afa1580156122e7573d6000803e3d6000fd5b505050506040513d601f19601f8201168201806040525081019061230b9190614416565b9050919050565b600660003373ffffffffffffffffffffffffffffffffffffffff1673ffffffffffffffffffffffffffffffffffffffff16815260200190815260200160002060009054906101000a900460ff1661239e576040517f08c379a000000000000000000000000000000000000000000000000000000000815260040161239590614bda565b60405180910390fd5b600047905060003373ffffffffffffffffffffffffffffffffffffffff16826040516123c9906148e3565b60006040518083038185875af1925050503d8060008114612406576040519150601f19603f3d011682016040523d82523d6000602084013e61240b565b606091505b505090508061244f576040517f08c379a000000000000000000000000000000000000000000000000000000000815260040161244690614b50565b60405180910390fd5b5050565b60008061245f836115df565b119050919050565b7f000000000000000000000000000000000000000000000000000000000000000073ffffffffffffffffffffffffffffffffffffffff1663474cf53d34600460009054906101000a900473ffffffffffffffffffffffffffffffffffffffff163360006040518563ffffffff1660e01b81526004016124e89392919061493c565b6000604051808303818588803b15801561250157600080fd5b505af1158015612515573d6000803e3d6000fd5b5050505050565b600660003373ffffffffffffffffffffffffffffffffffffffff1673ffffffffffffffffffffffffffffffffffffffff16815260200190815260200160002060009054906101000a900460ff166125a8576040517f08c379a000000000000000000000000000000000000000000000000000000000815260040161259f90614bda565b60405180910390fd5b6000600560009054906101000a900473ffffffffffffffffffffffffffffffffffffffff1673ffffffffffffffffffffffffffffffffffffffff166370a08231306040518263ffffffff1660e01b815260040161260591906148f8565b60206040518083038186803b15801561261d57600080fd5b505afa158015612631573d6000803e3d6000fd5b505050506040513d601f19601f820116820180604052508101906126559190614416565b9050600560009054906101000a900473ffffffffffffffffffffffffffffffffffffffff1673ffffffffffffffffffffffffffffffffffffffff1663a9059cbb33836040518363ffffffff1660e01b81526004016126b49291906149aa565b602060405180830381600087803b1580156126ce57600080fd5b505af11580156126e2573d6000803e3d6000fd5b505050506040513d601f19601f820116820180604052508101906127069190614342565b5050565b6000600960003373ffffffffffffffffffffffffffffffffffffffff1673ffffffffffffffffffffffffffffffffffffffff16815260200190815260200160002060040154905090565b600060606000612762613035565b90506000600190505b6008805490508110156128cc5760006008828154811061278e5761278d615209565b5b9060005260206000200160009054906101000a900473ffffffffffffffffffffffffffffffffffffffff1690506000600960008373ffffffffffffffffffffffffffffffffffffffff1673ffffffffffffffffffffffffffffffffffffffff1681526020019081526020016000206040518060e001604052908160008201548152602001600182015481526020016002820154815260200160038201548152602001600482015481526020016005820160009054906101000a900460ff161515151581526020016006820154815250509050806040015184136128b95760006128768361225e565b905060008111801561288d575061288c83612453565b5b156128b75785836040516020016128a59291906148bb565b60405160208183030381529060405295505b505b5050806128c59061510f565b905061276b565b506000825111156128dc57600192505b509250929050565b600660003373ffffffffffffffffffffffffffffffffffffffff1673ffffffffffffffffffffffffffffffffffffffff16815260200190815260200160002060009054906101000a900460ff16612970576040517f08c379a000000000000000000000000000000000000000000000000000000000815260040161296790614bda565b60405180910390fd5b6001600660008373ffffffffffffffffffffffffffffffffffffffff1673ffffffffffffffffffffffffffffffffffffffff16815260200190815260200160002060006101000a81548160ff0219169083151502179055506007600081546129d79061510f565b9190508190555050565b600660003373ffffffffffffffffffffffffffffffffffffffff1673ffffffffffffffffffffffffffffffffffffffff16815260200190815260200160002060009054906101000a900460ff16612a6d576040517f08c379a0000000000000000000000000000000000000000000000000000000008152600401612a6490614bda565b60405180910390fd5b600160075411612ab2576040517f08c379a0000000000000000000000000000000000000000000000000000000008152600401612aa990614af0565b60405180910390fd5b600660008273ffffffffffffffffffffffffffffffffffffffff1673ffffffffffffffffffffffffffffffffffffffff16815260200190815260200160002060009054906101000a900460ff16612b3e576040517f08c379a0000000000000000000000000000000000000000000000000000000008152600401612b3590614c1a565b60405180910390fd5b6000600660008373ffffffffffffffffffffffffffffffffffffffff1673ffffffffffffffffffffffffffffffffffffffff16815260200190815260200160002060006101000a81548160ff021916908315150217905550600760008154612ba5906150e5565b9190508190555050565b6000600560009054906101000a900473ffffffffffffffffffffffffffffffffffffffff1673ffffffffffffffffffffffffffffffffffffffff166370a08231336040518263ffffffff1660e01b8152600401612c0c91906148f8565b60206040518083038186803b158015612c2457600080fd5b505afa158015612c38573d6000803e3d6000fd5b505050506040513d601f19601f82011682018060405250810190612c5c9190614416565b9050612c6781610c3a565b50565b6000600360009054906101000a900473ffffffffffffffffffffffffffffffffffffffff1673ffffffffffffffffffffffffffffffffffffffff166370a08231306040518263ffffffff1660e01b8152600401612cc791906148f8565b60206040518083038186803b158015612cdf57600080fd5b505afa158015612cf3573d6000803e3d6000fd5b505050506040513d601f19601f82011682018060405250810190612d179190614416565b905090565b600047905090565b6000600960003373ffffffffffffffffffffffffffffffffffffffff1673ffffffffffffffffffffffffffffffffffffffff168152602001908152602001600020600001541415612daa576040517f08c379a0000000000000000000000000000000000000000000000000000000008152600401612da190614bfa565b60405180910390fd5b6000600960003373ffffffffffffffffffffffffffffffffffffffff1673ffffffffffffffffffffffffffffffffffffffff1681526020019081526020016000206004015414612e2f576040517f08c379a0000000000000000000000000000000000000000000000000000000008152600401612e2690614c3a565b60405180910390fd5b6000600960003373ffffffffffffffffffffffffffffffffffffffff1673ffffffffffffffffffffffffffffffffffffffff16815260200190815260200160002060000154905060086001600880549050612e8a9190614f5c565b81548110612e9b57612e9a615209565b5b9060005260206000200160009054906101000a900473ffffffffffffffffffffffffffffffffffffffff1660088281548110612eda57612ed9615209565b5b9060005260206000200160006101000a81548173ffffffffffffffffffffffffffffffffffffffff021916908373ffffffffffffffffffffffffffffffffffffffff1602179055506008805480612f3457612f336151da565b5b6001900381819060005260206000200160006101000a81549073ffffffffffffffffffffffffffffffffffffffff02191690559055600960003373ffffffffffffffffffffffffffffffffffffffff1673ffffffffffffffffffffffffffffffffffffffff16815260200190815260200160002060008082016000905560018201600090556002820160009055600382016000905560048201600090556005820160006101000a81549060ff0219169055600682016000905550503373ffffffffffffffffffffffffffffffffffffffff167f4bc56f1321288dfb5b416cb3a7fd188723979f9e866c91d88eccf7fca039d03960405160405180910390a250565b600080600160009054906101000a900473ffffffffffffffffffffffffffffffffffffffff1673ffffffffffffffffffffffffffffffffffffffff1663feaf968c6040518163ffffffff1660e01b815260040160a06040518083038186803b1580156130a057600080fd5b505afa1580156130b4573d6000803e3d6000fd5b505050506040513d601f19601f820116820180604052508101906130d89190614443565b505050915050600a54816130ec9190614ec8565b91505090565b600660003373ffffffffffffffffffffffffffffffffffffffff1673ffffffffffffffffffffffffffffffffffffffff16815260200190815260200160002060009054906101000a900460ff1661317e576040517f08c379a000000000000000000000000000000000000000000000000000000000815260040161317590614bda565b60405180910390fd5b80600a8190555050565b61319061270a565b8111156131d2576040517f08c379a00000000000000000000000000000000000000000000000000000000081526004016131c990614b30565b60405180910390fd5b80600960003373ffffffffffffffffffffffffffffffffffffffff1673ffffffffffffffffffffffffffffffffffffffff16815260200190815260200160002060040160008282546132249190614f5c565b92505081905550600360009054906101000a900473ffffffffffffffffffffffffffffffffffffffff1673ffffffffffffffffffffffffffffffffffffffff1663a9059cbb33836040518363ffffffff1660e01b81526004016132889291906149aa565b602060405180830381600087803b1580156132a257600080fd5b505af11580156132b6573d6000803e3d6000fd5b505050506040513d601f19601f820116820180604052508101906132da9190614342565b503373ffffffffffffffffffffffffffffffffffffffff167f6fe5ac9f9a977355c31c5b06bd52779cc9ad723df5f6f798a5a310cba732e65e826040516133219190614b70565b60405180910390a261333161371b565b80156133445750600061334261270a565b145b156133a5576000600960003373ffffffffffffffffffffffffffffffffffffffff1673ffffffffffffffffffffffffffffffffffffffff16815260200190815260200160002060050160006101000a81548160ff0219169083151502179055505b50565b6000600960003373ffffffffffffffffffffffffffffffffffffffff1673ffffffffffffffffffffffffffffffffffffffff16815260200190815260200160002060010154905090565b60096020528060005260406000206000915090508060000154908060010154908060020154908060030154908060040154908060050160009054906101000a900460ff16908060060154905087565b600a5481565b6000600960003373ffffffffffffffffffffffffffffffffffffffff1673ffffffffffffffffffffffffffffffffffffffff16815260200190815260200160002060060154905090565b80600960003373ffffffffffffffffffffffffffffffffffffffff1673ffffffffffffffffffffffffffffffffffffffff1681526020019081526020016000206001018190555050565b6134e361099c565b80600960003373ffffffffffffffffffffffffffffffffffffffff1673ffffffffffffffffffffffffffffffffffffffff1681526020019081526020016000206002018190555050565b600660003373ffffffffffffffffffffffffffffffffffffffff1673ffffffffffffffffffffffffffffffffffffffff16815260200190815260200160002060009054906101000a900460ff166135b9576040517f08c379a00000000000000000000000000000000000000000000000000000000081526004016135b090614bda565b60405180910390fd5b6000600360009054906101000a900473ffffffffffffffffffffffffffffffffffffffff1673ffffffffffffffffffffffffffffffffffffffff166370a08231306040518263ffffffff1660e01b815260040161361691906148f8565b60206040518083038186803b15801561362e57600080fd5b505afa158015613642573d6000803e3d6000fd5b505050506040513d601f19601f820116820180604052508101906136669190614416565b9050600360009054906101000a900473ffffffffffffffffffffffffffffffffffffffff1673ffffffffffffffffffffffffffffffffffffffff1663a9059cbb33836040518363ffffffff1660e01b81526004016136c59291906149aa565b602060405180830381600087803b1580156136df57600080fd5b505af11580156136f3573d6000803e3d6000fd5b505050506040513d601f19601f820116820180604052508101906137179190614342565b5050565b6000600960003373ffffffffffffffffffffffffffffffffffffffff1673ffffffffffffffffffffffffffffffffffffffff16815260200190815260200160002060050160009054906101000a900460ff16905090565b600660003373ffffffffffffffffffffffffffffffffffffffff1673ffffffffffffffffffffffffffffffffffffffff16815260200190815260200160002060009054906101000a900460ff166137fe576040517f08c379a00000000000000000000000000000000000000000000000000000000081526004016137f590614bda565b60405180910390fd5b80471015613841576040517f08c379a000000000000000000000000000000000000000000000000000000000815260040161383890614c5a565b60405180910390fd5b600073ffffffffffffffffffffffffffffffffffffffff168273ffffffffffffffffffffffffffffffffffffffff1614156138b1576040517f08c379a00000000000000000000000000000000000000000000000000000000081526004016138a890614b10565b60405180910390fd5b60008273ffffffffffffffffffffffffffffffffffffffff16826040516138d7906148e3565b60006040518083038185875af1925050503d8060008114613914576040519150601f19603f3d011682016040523d82523d6000602084013e613919565b606091505b505090508061395d576040517f08c379a000000000000000000000000000000000000000000000000000000000815260040161395490614a90565b60405180910390fd5b8273ffffffffffffffffffffffffffffffffffffffff167f5d8bc849764969eb1bcc6d0a2f55999d0167c1ccec240a4f39cf664ca9c4148e836040516139a39190614cb6565b60405180910390a2505050565b60006139bb336115df565b905090565b6000600560009054906101000a900473ffffffffffffffffffffffffffffffffffffffff1673ffffffffffffffffffffffffffffffffffffffff166370a08231336040518263ffffffff1660e01b8152600401613a1d91906148f8565b60206040518083038186803b158015613a3557600080fd5b505afa158015613a49573d6000803e3d6000fd5b505050506040513d601f19601f82011682018060405250810190613a6d9190614416565b905090565b600660003373ffffffffffffffffffffffffffffffffffffffff1673ffffffffffffffffffffffffffffffffffffffff16815260200190815260200160002060009054906101000a900460ff16613afe576040517f08c379a0000000000000000000000000000000000000000000000000000000008152600401613af590614bda565b60405180910390fd5b60003090506000600560009054906101000a900473ffffffffffffffffffffffffffffffffffffffff1673ffffffffffffffffffffffffffffffffffffffff166370a08231836040518263ffffffff1660e01b8152600401613b6091906148f8565b60206040518083038186803b158015613b7857600080fd5b505afa158015613b8c573d6000803e3d6000fd5b505050506040513d601f19601f82011682018060405250810190613bb09190614416565b9050600560009054906101000a900473ffffffffffffffffffffffffffffffffffffffff1673ffffffffffffffffffffffffffffffffffffffff1663095ea7b37f0000000000000000000000000000000000000000000000000000000000000000836040518363ffffffff1660e01b8152600401613c2f9291906149aa565b602060405180830381600087803b158015613c4957600080fd5b505af1158015613c5d573d6000803e3d6000fd5b505050506040513d601f19601f82011682018060405250810190613c819190614342565b507f000000000000000000000000000000000000000000000000000000000000000073ffffffffffffffffffffffffffffffffffffffff166380500d20600460009054906101000a900473ffffffffffffffffffffffffffffffffffffffff1683856040518463ffffffff1660e01b8152600401613d01939291906149d3565b600060405180830381600087803b158015613d1b57600080fd5b505af1158015613d2f573d6000803e3d6000fd5b505050505050565b600560009054906101000a900473ffffffffffffffffffffffffffffffffffffffff1673ffffffffffffffffffffffffffffffffffffffff166323b872dd3330846040518463ffffffff1660e01b8152600401613d9693929190614973565b602060405180830381600087803b158015613db057600080fd5b505af1158015613dc4573d6000803e3d6000fd5b505050506040513d601f19601f82011682018060405250810190613de89190614342565b5050565b6000600560009054906101000a900473ffffffffffffffffffffffffffffffffffffffff1673ffffffffffffffffffffffffffffffffffffffff166370a08231306040518263ffffffff1660e01b8152600401613e4991906148f8565b60206040518083038186803b158015613e6157600080fd5b505afa158015613e75573d6000803e3d6000fd5b505050506040513d601f19601f82011682018060405250810190613e999190614416565b905080821115613ede576040517f08c379a0000000000000000000000000000000000000000000000000000000008152600401613ed590614b30565b60405180910390fd5b600560009054906101000a900473ffffffffffffffffffffffffffffffffffffffff1673ffffffffffffffffffffffffffffffffffffffff1663095ea7b37f0000000000000000000000000000000000000000000000000000000000000000846040518363ffffffff1660e01b8152600401613f5b9291906149aa565b602060405180830381600087803b158015613f7557600080fd5b505af1158015613f89573d6000803e3d6000fd5b505050506040513d601f19601f82011682018060405250810190613fad9190614342565b507f000000000000000000000000000000000000000000000000000000000000000073ffffffffffffffffffffffffffffffffffffffff166380500d20600460009054906101000a900473ffffffffffffffffffffffffffffffffffffffff1684306040518463ffffffff1660e01b815260040161402d939291906149d3565b600060405180830381600087803b15801561404757600080fd5b505af115801561405b573d6000803e3d6000fd5b505050505050565b600080604051806101000160405280600260009054906101000a900473ffffffffffffffffffffffffffffffffffffffff1673ffffffffffffffffffffffffffffffffffffffff168152602001721b3b4d0f3714ca98ba10f6042daebf0b1b7b6f73ffffffffffffffffffffffffffffffffffffffff168152602001610bb862ffffff1681526020013073ffffffffffffffffffffffffffffffffffffffff16815260200142815260200184815260200160008152602001600073ffffffffffffffffffffffffffffffffffffffff1681525090507f000000000000000000000000000000000000000000000000000000000000000073ffffffffffffffffffffffffffffffffffffffff1663414bf38984836040518363ffffffff1660e01b81526004016141929190614c9a565b6020604051808303818588803b1580156141ab57600080fd5b505af11580156141bf573d6000803e3d6000fd5b50505050506040513d601f19601f820116820180604052508101906141e49190614416565b915050919050565b6000813590506141fb81615519565b92915050565b60008151905061421081615530565b92915050565b60008083601f84011261422c5761422b61523d565b5b8235905067ffffffffffffffff81111561424957614248615238565b5b6020830191508360018202830111156142655761426461524c565b5b9250929050565b60008135905061427b81615547565b92915050565b60008151905061429081615547565b92915050565b6000813590506142a58161555e565b92915050565b6000815190506142ba8161555e565b92915050565b6000815190506142cf81615575565b92915050565b6000602082840312156142eb576142ea615256565b5b60006142f9848285016141ec565b91505092915050565b6000806040838503121561431957614318615256565b5b6000614327858286016141ec565b925050602061433885828601614296565b9150509250929050565b60006020828403121561435857614357615256565b5b600061436684828501614201565b91505092915050565b6000806020838503121561438657614385615256565b5b600083013567ffffffffffffffff8111156143a4576143a3615251565b5b6143b085828601614216565b92509250509250929050565b6000602082840312156143d2576143d1615256565b5b60006143e08482850161426c565b91505092915050565b6000602082840312156143ff576143fe615256565b5b600061440d84828501614296565b91505092915050565b60006020828403121561442c5761442b615256565b5b600061443a848285016142ab565b91505092915050565b600080600080600060a0868803121561445f5761445e615256565b5b600061446d888289016142c0565b955050602061447e88828901614281565b945050604061448f888289016142ab565b93505060606144a0888289016142ab565b92505060806144b1888289016142c0565b9150509295509295909350565b6144c781614f90565b82525050565b6144d681614f90565b82525050565b6144ed6144e882614f90565b615158565b82525050565b6144fc81614fa2565b82525050565b600061450d82614d74565b6145178185614d7f565b93506145278185602086016150b2565b6145308161525b565b840191505092915050565b600061454682614d74565b6145508185614d90565b93506145608185602086016150b2565b80840191505092915050565b61457581614fda565b82525050565b614584816150a0565b82525050565b6000614597601283614d9b565b91506145a282615286565b602082019050919050565b60006145ba600f83614d9b565b91506145c5826152af565b602082019050919050565b60006145dd601b83614d9b565b91506145e8826152d8565b602082019050919050565b6000614600601283614d9b565b915061460b82615301565b602082019050919050565b6000614623601483614d9b565b915061462e8261532a565b602082019050919050565b6000614646600983614d9b565b915061465182615353565b602082019050919050565b6000614669601083614d9b565b91506146748261537c565b602082019050919050565b600061468c601383614d9b565b9150614697826153a5565b602082019050919050565b60006146af600383614d9b565b91506146ba826153ce565b602082019050919050565b60006146d2600583614d9b565b91506146dd826153f7565b602082019050919050565b60006146f5600b83614d9b565b915061470082615420565b602082019050919050565b6000614718600a83614d9b565b915061472382615449565b602082019050919050565b600061473b600083614d90565b915061474682615472565b600082019050919050565b600061475e600c83614d9b565b915061476982615475565b602082019050919050565b6000614781600f83614d9b565b915061478c8261549e565b602082019050919050565b60006147a4601183614d9b565b91506147af826154c7565b602082019050919050565b60006147c7600f83614d9b565b91506147d2826154f0565b602082019050919050565b610100820160008201516147f460008501826144be565b50602082015161480760208501826144be565b50604082015161481a604085018261488e565b50606082015161482d60608501826144be565b506080820151614840608085018261489d565b5060a082015161485360a085018261489d565b5060c082015161486660c085018261489d565b5060e082015161487960e085018261487f565b50505050565b61488881614ff2565b82525050565b61489781615012565b82525050565b6148a681615021565b82525050565b6148b581615021565b82525050565b60006148c7828561453b565b91506148d382846144dc565b6014820191508190509392505050565b60006148ee8261472e565b9150819050919050565b600060208201905061490d60008301846144cd565b92915050565b600060408201905061492860008301856144cd565b61493560208301846144cd565b9392505050565b600060608201905061495160008301866144cd565b61495e60208301856144cd565b61496b604083018461457b565b949350505050565b600060608201905061498860008301866144cd565b61499560208301856144cd565b6149a260408301846148ac565b949350505050565b60006040820190506149bf60008301856144cd565b6149cc60208301846148ac565b9392505050565b60006060820190506149e860008301866144cd565b6149f560208301856148ac565b614a0260408301846144cd565b949350505050565b6000602082019050614a1f60008301846144f3565b92915050565b6000604082019050614a3a60008301856144f3565b8181036020830152614a4c8184614502565b90509392505050565b6000602082019050614a6a600083018461456c565b92915050565b60006020820190508181036000830152614a898161458a565b9050919050565b60006020820190508181036000830152614aa9816145ad565b9050919050565b60006020820190508181036000830152614ac9816145d0565b9050919050565b60006020820190508181036000830152614ae9816145f3565b9050919050565b60006020820190508181036000830152614b0981614616565b9050919050565b60006020820190508181036000830152614b2981614639565b9050919050565b60006020820190508181036000830152614b498161465c565b9050919050565b60006020820190508181036000830152614b698161467f565b9050919050565b60006040820190508181036000830152614b89816146a2565b9050614b9860208301846148ac565b92915050565b60006060820190508181036000830152614bb7816146c5565b9050614bc660208301856148ac565b614bd360408301846148ac565b9392505050565b60006020820190508181036000830152614bf3816146e8565b9050919050565b60006020820190508181036000830152614c138161470b565b9050919050565b60006020820190508181036000830152614c3381614751565b9050919050565b60006020820190508181036000830152614c5381614774565b9050919050565b60006020820190508181036000830152614c7381614797565b9050919050565b60006020820190508181036000830152614c93816147ba565b9050919050565b600061010082019050614cb060008301846147dd565b92915050565b6000602082019050614ccb60008301846148ac565b92915050565b6000604082019050614ce660008301856148ac565b614cf360208301846148ac565b9392505050565b600060e082019050614d0f600083018a6148ac565b614d1c60208301896148ac565b614d29604083018861456c565b614d3660608301876148ac565b614d4360808301866148ac565b614d5060a08301856144f3565b614d5d60c08301846148ac565b98975050505050505050565b600082905092915050565b600081519050919050565b600082825260208201905092915050565b600081905092915050565b600082825260208201905092915050565b60008085851115614dc057614dbf615247565b5b83861115614dd157614dd0615242565b5b6001850283019150848603905094509492505050565b6000614df282615021565b9150614dfd83615021565b9250827fffffffffffffffffffffffffffffffffffffffffffffffffffffffffffffffff03821115614e3257614e3161517c565b5b828201905092915050565b6000614e4882615021565b9150614e5383615021565b925082614e6357614e626151ab565b5b828204905092915050565b6000614e7982615021565b9150614e8483615021565b9250817fffffffffffffffffffffffffffffffffffffffffffffffffffffffffffffffff0483118215151615614ebd57614ebc61517c565b5b828202905092915050565b6000614ed382614fda565b9150614ede83614fda565b9250827f800000000000000000000000000000000000000000000000000000000000000001821260008412151615614f1957614f1861517c565b5b827f7fffffffffffffffffffffffffffffffffffffffffffffffffffffffffffffff018213600084121615614f5157614f5061517c565b5b828203905092915050565b6000614f6782615021565b9150614f7283615021565b925082821015614f8557614f8461517c565b5b828203905092915050565b6000614f9b82614ff2565b9050919050565b60008115159050919050565b60007fffffffffffffffffffffffffffffffffffffffff00000000000000000000000082169050919050565b6000819050919050565b600061ffff82169050919050565b600073ffffffffffffffffffffffffffffffffffffffff82169050919050565b600062ffffff82169050919050565b6000819050919050565b600069ffffffffffffffffffff82169050919050565b600061504d8383614d69565b826150588135614fae565b92506014821015615098576150937fffffffffffffffffffffffffffffffffffffffff00000000000000000000000083601403600802615279565b831692505b505092915050565b60006150ab82614fe4565b9050919050565b60005b838110156150d05780820151818401526020810190506150b5565b838111156150df576000848401525b50505050565b60006150f082615021565b915060008214156151045761510361517c565b5b600182039050919050565b600061511a82615021565b91507fffffffffffffffffffffffffffffffffffffffffffffffffffffffffffffffff82141561514d5761514c61517c565b5b600182019050919050565b60006151638261516a565b9050919050565b60006151758261526c565b9050919050565b7f4e487b7100000000000000000000000000000000000000000000000000000000600052601160045260246000fd5b7f4e487b7100000000000000000000000000000000000000000000000000000000600052601260045260246000fd5b7f4e487b7100000000000000000000000000000000000000000000000000000000600052603160045260246000fd5b7f4e487b7100000000000000000000000000000000000000000000000000000000600052603260045260246000fd5b600080fd5b600080fd5b600080fd5b600080fd5b600080fd5b600080fd5b600080fd5b6000601f19601f8301169050919050565b60008160601b9050919050565b600082821b905092915050565b7f7573657220616c72656164792061646465640000000000000000000000000000600082015250565b7f646f6e6174696f6e206661696c65640000000000000000000000000000000000600082015250565b7f57697468647261775265636f7665724d61746963206661696c65640000000000600082015250565b7f616d6f756e74203e20616c6c6f77616e63650000000000000000000000000000600082015250565b7f63616e27742064656c206c617374206f776e6572000000000000000000000000600082015250565b7f3020616464726573730000000000000000000000000000000000000000000000600082015250565b7f616d6f756e74203e2062616c616e636500000000000000000000000000000000600082015250565b7f5265636f7665724d61746963206661696c656400000000000000000000000000600082015250565b7f4441490000000000000000000000000000000000000000000000000000000000600082015250565b7f4d41544943000000000000000000000000000000000000000000000000000000600082015250565b7f6f6e6c79206f776e657273000000000000000000000000000000000000000000600082015250565b7f6e6f742061207573657200000000000000000000000000000000000000000000600082015250565b50565b7f6e6f7420616e206f776e65720000000000000000000000000000000000000000600082015250565b7f4441492062616c616e6365203e20300000000000000000000000000000000000600082015250565b7f5f616d6f756e74203e2062616c616e6365000000000000000000000000000000600082015250565b7f7769746864726177206661696c65640000000000000000000000000000000000600082015250565b61552281614f90565b811461552d57600080fd5b50565b61553981614fa2565b811461554457600080fd5b50565b61555081614fda565b811461555b57600080fd5b50565b61556781615021565b811461557257600080fd5b50565b61557e8161502b565b811461558957600080fd5b5056fea2646970667358221220aa4017813e9ff6ea163dfb490f85f6169bf92aa1aa463e224c15e35ab90cb78264736f6c63430008070033",
  "linkReferences": {},
  "deployedLinkReferences": {}
}