{
  "_format": "hh-sol-artifact-1",
  "contractName": "LiquiswapV6",
  "sourceName": "contracts/LiquiswapV6.sol",
  "abi": [
    {
      "inputs": [],
      "stateMutability": "nonpayable",
      "type": "constructor"
    },
    {
      "anonymous": false,
      "inputs": [
        {
          "indexed": true,
          "internalType": "address",
          "name": "user",
          "type": "address"
        },
        {
          "indexed": false,
          "internalType": "string",
          "name": "token",
          "type": "string"
        },
        {
          "indexed": false,
          "internalType": "uint256",
          "name": "amount",
          "type": "uint256"
        },
        {
          "indexed": false,
          "internalType": "uint256",
          "name": "balance",
          "type": "uint256"
        }
      ],
      "name": "Deposit",
      "type": "event"
    },
    {
      "anonymous": false,
      "inputs": [
        {
          "indexed": true,
          "internalType": "address",
          "name": "charity",
          "type": "address"
        },
        {
          "indexed": false,
          "internalType": "uint256",
          "name": "amount",
          "type": "uint256"
        }
      ],
      "name": "Donation",
      "type": "event"
    },
    {
      "anonymous": false,
      "inputs": [
        {
          "indexed": true,
          "internalType": "address",
          "name": "user",
          "type": "address"
        },
        {
          "indexed": false,
          "internalType": "uint256",
          "name": "numNFTs",
          "type": "uint256"
        }
      ],
      "name": "EarnedNFT",
      "type": "event"
    },
    {
      "anonymous": false,
      "inputs": [
        {
          "indexed": true,
          "internalType": "int256",
          "name": "price",
          "type": "int256"
        },
        {
          "indexed": false,
          "internalType": "uint256",
          "name": "targetAmount",
          "type": "uint256"
        },
        {
          "indexed": false,
          "internalType": "uint256",
          "name": "actualAmount",
          "type": "uint256"
        }
      ],
      "name": "Liquidation",
      "type": "event"
    },
    {
      "anonymous": false,
      "inputs": [
        {
          "indexed": true,
          "internalType": "address",
          "name": "user",
          "type": "address"
        }
      ],
      "name": "UserAdded",
      "type": "event"
    },
    {
      "anonymous": false,
      "inputs": [
        {
          "indexed": true,
          "internalType": "address",
          "name": "user",
          "type": "address"
        }
      ],
      "name": "UserDeleted",
      "type": "event"
    },
    {
      "anonymous": false,
      "inputs": [
        {
          "indexed": true,
          "internalType": "address",
          "name": "user",
          "type": "address"
        },
        {
          "indexed": false,
          "internalType": "string",
          "name": "token",
          "type": "string"
        },
        {
          "indexed": false,
          "internalType": "uint256",
          "name": "amount",
          "type": "uint256"
        },
        {
          "indexed": false,
          "internalType": "uint256",
          "name": "yield",
          "type": "uint256"
        }
      ],
      "name": "Withdrawal",
      "type": "event"
    },
    {
      "stateMutability": "payable",
      "type": "fallback"
    },
    {
      "inputs": [
        {
          "internalType": "address",
          "name": "_newOwner",
          "type": "address"
        }
      ],
      "name": "addOwner",
      "outputs": [],
      "stateMutability": "nonpayable",
      "type": "function"
    },
    {
      "inputs": [],
      "name": "addUser",
      "outputs": [],
      "stateMutability": "nonpayable",
      "type": "function"
    },
    {
      "inputs": [
        {
          "internalType": "bytes",
          "name": "",
          "type": "bytes"
        }
      ],
      "name": "checkUpkeep",
      "outputs": [
        {
          "internalType": "bool",
          "name": "upkeepNeeded",
          "type": "bool"
        },
        {
          "internalType": "bytes",
          "name": "performData",
          "type": "bytes"
        }
      ],
      "stateMutability": "view",
      "type": "function"
    },
    {
      "inputs": [
        {
          "internalType": "address",
          "name": "_delOwner",
          "type": "address"
        }
      ],
      "name": "delOwner",
      "outputs": [],
      "stateMutability": "nonpayable",
      "type": "function"
    },
    {
      "inputs": [],
      "name": "delUser",
      "outputs": [],
      "stateMutability": "nonpayable",
      "type": "function"
    },
    {
      "inputs": [
        {
          "internalType": "address",
          "name": "_addr",
          "type": "address"
        }
      ],
      "name": "getAaveWMATICAllowance",
      "outputs": [
        {
          "internalType": "uint256",
          "name": "",
          "type": "uint256"
        }
      ],
      "stateMutability": "view",
      "type": "function"
    },
    {
      "inputs": [],
      "name": "getAaveWMATICAllowance",
      "outputs": [
        {
          "internalType": "uint256",
          "name": "",
          "type": "uint256"
        }
      ],
      "stateMutability": "view",
      "type": "function"
    },
    {
      "inputs": [],
      "name": "getBalanceAaveWMATIC",
      "outputs": [
        {
          "internalType": "uint256",
          "name": "",
          "type": "uint256"
        }
      ],
      "stateMutability": "view",
      "type": "function"
    },
    {
      "inputs": [
        {
          "internalType": "address",
          "name": "_addr",
          "type": "address"
        }
      ],
      "name": "getBalanceAaveWMaticAddr",
      "outputs": [
        {
          "internalType": "uint256",
          "name": "",
          "type": "uint256"
        }
      ],
      "stateMutability": "view",
      "type": "function"
    },
    {
      "inputs": [],
      "name": "getBalanceDAI",
      "outputs": [
        {
          "internalType": "uint256",
          "name": "",
          "type": "uint256"
        }
      ],
      "stateMutability": "view",
      "type": "function"
    },
    {
      "inputs": [],
      "name": "getContractBalanceAaveWMATIC",
      "outputs": [
        {
          "internalType": "uint256",
          "name": "",
          "type": "uint256"
        }
      ],
      "stateMutability": "view",
      "type": "function"
    },
    {
      "inputs": [],
      "name": "getContractBalanceDAI",
      "outputs": [
        {
          "internalType": "uint256",
          "name": "",
          "type": "uint256"
        }
      ],
      "stateMutability": "view",
      "type": "function"
    },
    {
      "inputs": [],
      "name": "getContractBalanceMATIC",
      "outputs": [
        {
          "internalType": "uint256",
          "name": "",
          "type": "uint256"
        }
      ],
      "stateMutability": "view",
      "type": "function"
    },
    {
      "inputs": [],
      "name": "getLatestPrice",
      "outputs": [
        {
          "internalType": "int256",
          "name": "",
          "type": "int256"
        }
      ],
      "stateMutability": "view",
      "type": "function"
    },
    {
      "inputs": [
        {
          "internalType": "address",
          "name": "_addr",
          "type": "address"
        }
      ],
      "name": "getLiquidationPrice",
      "outputs": [
        {
          "internalType": "int256",
          "name": "",
          "type": "int256"
        }
      ],
      "stateMutability": "view",
      "type": "function"
    },
    {
      "inputs": [],
      "name": "getLiquidationPrice",
      "outputs": [
        {
          "internalType": "int256",
          "name": "",
          "type": "int256"
        }
      ],
      "stateMutability": "view",
      "type": "function"
    },
    {
      "inputs": [],
      "name": "getNumNFTs",
      "outputs": [
        {
          "internalType": "uint256",
          "name": "",
          "type": "uint256"
        }
      ],
      "stateMutability": "view",
      "type": "function"
    },
    {
      "inputs": [],
      "name": "getPrincipal",
      "outputs": [
        {
          "internalType": "uint256",
          "name": "",
          "type": "uint256"
        }
      ],
      "stateMutability": "view",
      "type": "function"
    },
    {
      "inputs": [],
      "name": "isApproved",
      "outputs": [
        {
          "internalType": "bool",
          "name": "",
          "type": "bool"
        }
      ],
      "stateMutability": "view",
      "type": "function"
    },
    {
      "inputs": [
        {
          "internalType": "address",
          "name": "_user",
          "type": "address"
        }
      ],
      "name": "isApproved",
      "outputs": [
        {
          "internalType": "bool",
          "name": "",
          "type": "bool"
        }
      ],
      "stateMutability": "view",
      "type": "function"
    },
    {
      "inputs": [
        {
          "internalType": "address",
          "name": "",
          "type": "address"
        }
      ],
      "name": "owners",
      "outputs": [
        {
          "internalType": "bool",
          "name": "",
          "type": "bool"
        }
      ],
      "stateMutability": "view",
      "type": "function"
    },
    {
      "inputs": [
        {
          "internalType": "bytes",
          "name": "performData",
          "type": "bytes"
        }
      ],
      "name": "performUpkeep",
      "outputs": [],
      "stateMutability": "nonpayable",
      "type": "function"
    },
    {
      "inputs": [],
      "name": "priceDropAmount",
      "outputs": [
        {
          "internalType": "int256",
          "name": "",
          "type": "int256"
        }
      ],
      "stateMutability": "view",
      "type": "function"
    },
    {
      "inputs": [
        {
          "internalType": "address",
          "name": "_charity",
          "type": "address"
        },
        {
          "internalType": "uint256",
          "name": "_amount",
          "type": "uint256"
        }
      ],
      "name": "sendDonation",
      "outputs": [],
      "stateMutability": "nonpayable",
      "type": "function"
    },
    {
      "inputs": [
        {
          "internalType": "int256",
          "name": "_liquidationPrice",
          "type": "int256"
        }
      ],
      "name": "setLiquidationPrice",
      "outputs": [],
      "stateMutability": "nonpayable",
      "type": "function"
    },
    {
      "inputs": [
        {
          "internalType": "uint256",
          "name": "_principal",
          "type": "uint256"
        }
      ],
      "name": "setPrincipal",
      "outputs": [],
      "stateMutability": "nonpayable",
      "type": "function"
    },
    {
      "inputs": [],
      "name": "supplyLiquidity",
      "outputs": [],
      "stateMutability": "payable",
      "type": "function"
    },
    {
      "inputs": [
        {
          "internalType": "int256",
          "name": "_liquidationPrice",
          "type": "int256"
        }
      ],
      "name": "supplyLiquidity",
      "outputs": [],
      "stateMutability": "payable",
      "type": "function"
    },
    {
      "inputs": [
        {
          "internalType": "address",
          "name": "",
          "type": "address"
        }
      ],
      "name": "users",
      "outputs": [
        {
          "internalType": "uint256",
          "name": "usersIndexPosition",
          "type": "uint256"
        },
        {
          "internalType": "uint256",
          "name": "principalMATIC",
          "type": "uint256"
        },
        {
          "internalType": "int256",
          "name": "liquidationPrice",
          "type": "int256"
        },
        {
          "internalType": "uint256",
          "name": "sharesOfLiquidation",
          "type": "uint256"
        },
        {
          "internalType": "uint256",
          "name": "balanceDAI",
          "type": "uint256"
        },
        {
          "internalType": "uint256",
          "name": "numNFTs",
          "type": "uint256"
        }
      ],
      "stateMutability": "view",
      "type": "function"
    },
    {
      "inputs": [
        {
          "internalType": "uint256",
          "name": "",
          "type": "uint256"
        }
      ],
      "name": "usersIndex",
      "outputs": [
        {
          "internalType": "address",
          "name": "",
          "type": "address"
        }
      ],
      "stateMutability": "view",
      "type": "function"
    },
    {
      "inputs": [],
      "name": "withdrawDAI",
      "outputs": [],
      "stateMutability": "nonpayable",
      "type": "function"
    },
    {
      "inputs": [
        {
          "internalType": "uint256",
          "name": "_amount",
          "type": "uint256"
        }
      ],
      "name": "withdrawLiquidity",
      "outputs": [],
      "stateMutability": "nonpayable",
      "type": "function"
    },
    {
      "inputs": [],
      "name": "withdrawLiquidity",
      "outputs": [],
      "stateMutability": "nonpayable",
      "type": "function"
    },
    {
      "inputs": [
        {
          "internalType": "address",
          "name": "_addr",
          "type": "address"
        },
        {
          "internalType": "uint256",
          "name": "_amount",
          "type": "uint256"
        }
      ],
      "name": "zdevAaveWMATICTransferFrom",
      "outputs": [
        {
          "internalType": "bool",
          "name": "",
          "type": "bool"
        }
      ],
      "stateMutability": "nonpayable",
      "type": "function"
    },
    {
      "inputs": [],
      "name": "zdevBurnContractATokens",
      "outputs": [],
      "stateMutability": "nonpayable",
      "type": "function"
    },
    {
      "inputs": [],
      "name": "zdevGetAaveWMATICAllowanceGateway",
      "outputs": [
        {
          "internalType": "uint256",
          "name": "",
          "type": "uint256"
        }
      ],
      "stateMutability": "view",
      "type": "function"
    },
    {
      "inputs": [],
      "name": "zdevLoadMATIConATokenContract",
      "outputs": [],
      "stateMutability": "payable",
      "type": "function"
    },
    {
      "inputs": [],
      "name": "zdevRecoverAaveWMatic",
      "outputs": [],
      "stateMutability": "nonpayable",
      "type": "function"
    },
    {
      "inputs": [],
      "name": "zdevRecoverDAI",
      "outputs": [],
      "stateMutability": "nonpayable",
      "type": "function"
    },
    {
      "inputs": [],
      "name": "zdevRecoverMatic",
      "outputs": [],
      "stateMutability": "nonpayable",
      "type": "function"
    },
    {
      "inputs": [
        {
          "internalType": "int256",
          "name": "_priceDrop",
          "type": "int256"
        }
      ],
      "name": "zdevSetPriceDrop",
      "outputs": [],
      "stateMutability": "nonpayable",
      "type": "function"
    },
    {
      "inputs": [],
      "name": "zdevWithdrawRecoverMatic",
      "outputs": [],
      "stateMutability": "nonpayable",
      "type": "function"
    },
    {
      "stateMutability": "payable",
      "type": "receive"
    }
  ],
  "bytecode": "0x60c060405273d0d5e3db44de05e9f294bb0a3beeaf030de24ada6000806101000a81548173ffffffffffffffffffffffffffffffffffffffff021916908373ffffffffffffffffffffffffffffffffffffffff16021790555060008054906101000a900473ffffffffffffffffffffffffffffffffffffffff16600160006101000a81548173ffffffffffffffffffffffffffffffffffffffff021916908373ffffffffffffffffffffffffffffffffffffffff16021790555073e592427a0aece92de3edee1f18e0157c0586156473ffffffffffffffffffffffffffffffffffffffff1660809073ffffffffffffffffffffffffffffffffffffffff1660601b815250739c3c9283d3e44854697cd22d3faa240cfb032889600260006101000a81548173ffffffffffffffffffffffffffffffffffffffff021916908373ffffffffffffffffffffffffffffffffffffffff160217905550721b3b4d0f3714ca98ba10f6042daebf0b1b7b6f600360006101000a81548173ffffffffffffffffffffffffffffffffffffffff021916908373ffffffffffffffffffffffffffffffffffffffff160217905550736c9fb0d5bd9429eb9cd96b85b81d872281771e6b600460006101000a81548173ffffffffffffffffffffffffffffffffffffffff021916908373ffffffffffffffffffffffffffffffffffffffff160217905550732a58e9bbb5434fda7ff78051a4b82cb0ef669c1773ffffffffffffffffffffffffffffffffffffffff1660a09073ffffffffffffffffffffffffffffffffffffffff1660601b8152507389a6ae840b3f8f489418933a220315eea36d11ff600560006101000a81548173ffffffffffffffffffffffffffffffffffffffff021916908373ffffffffffffffffffffffffffffffffffffffff160217905550348015620002ad57600080fd5b506001600660003373ffffffffffffffffffffffffffffffffffffffff1673ffffffffffffffffffffffffffffffffffffffff16815260200190815260200160002060006101000a81548160ff0219169083151502179055506200032b73a01c18793c1d8b94849da884fdbcda857af463ab620003d260201b60201c565b6200035073f9739cf1b992e62a1c5c18c33cacb2a27a91f888620003d260201b60201c565b600760008154620003619062000538565b91905081905550600860009080600181540180825580915050600190039060005260206000200160009091909190916101000a81548173ffffffffffffffffffffffffffffffffffffffff021916908373ffffffffffffffffffffffffffffffffffffffff160217905550620005de565b600660003373ffffffffffffffffffffffffffffffffffffffff1673ffffffffffffffffffffffffffffffffffffffff16815260200190815260200160002060009054906101000a900460ff1662000461576040517f08c379a00000000000000000000000000000000000000000000000000000000081526004016200045890620004fb565b60405180910390fd5b6001600660008373ffffffffffffffffffffffffffffffffffffffff1673ffffffffffffffffffffffffffffffffffffffff16815260200190815260200160002060006101000a81548160ff021916908315150217905550600760008154620004ca9062000538565b9190508190555050565b6000620004e3600b836200051d565b9150620004f082620005b5565b602082019050919050565b600060208201905081810360008301526200051681620004d4565b9050919050565b600082825260208201905092915050565b6000819050919050565b600062000545826200052e565b91507fffffffffffffffffffffffffffffffffffffffffffffffffffffffffffffffff8214156200057b576200057a62000586565b5b600182019050919050565b7f4e487b7100000000000000000000000000000000000000000000000000000000600052601160045260246000fd5b7f6f6e6c79206f776e657273000000000000000000000000000000000000000000600082015250565b60805160601c60a05160601c6152f26200065060003960008181610ad901528181611432015281816114c401528181611c3601528181611cc8015281816120c501528181612431015281816139010152818161399301528181613c2d0152613cbf01526000613e4901526152f26000f3fe6080604052600436106102555760003560e01c80636c71689811610139578063a69bdf16116100b6578063c2d6ed141161007a578063c2d6ed1414610836578063c7135dcd14610852578063cd4646cb14610869578063d34c4a7e14610892578063dd45f63b146108bd578063f4d5f56b146108e85761025c565b8063a69bdf161461074a578063a87430ba14610775578063b4576cd1146107b7578063bda4e797146107e2578063bdef476b1461080d5761025c565b806384ef904e116100fd57806384ef904e1461068957806384f2b9c3146106b4578063899478a6146106df5780638e15f473146106f65780638f186aff146107215761025c565b80636c716898146105b75780636e04ff0d146105e25780637065cb481461062057806373984188146106495780637ea382c1146106725761025c565b8063455c928c116101d257806353315c6c1161019657806353315c6c146104dc578063534c197f146105055780635dff7f2514610542578063673448dd1461055957806368b0cb6a146105965780636be69ab0146105a05761025c565b8063455c928c1461041b5780634585e33b14610432578063458c16ab1461045b57806346558d1b146104865780634bed907d146104b15761025c565b806317d8de821161021957806317d8de82146103225780631a4c5def1461035f57806328f371aa1461037657806342a0cc31146103a1578063438b9f0d146103de5761025c565b8063020bcc9e1461025e578063022914a71461027557806307a6bf69146102b25780630a861f2a146102bc57806310fdda09146102e55761025c565b3661025c57005b005b34801561026a57600080fd5b506102736108ff565b005b34801561028157600080fd5b5061029c60048036038101906102979190613fe4565b610a57565b6040516102a99190614728565b60405180910390f35b6102ba610a77565b005b3480156102c857600080fd5b506102e360048036038101906102de91906140f8565b610cac565b005b3480156102f157600080fd5b5061030c600480360381019061030791906140f8565b611227565b6040516103199190614616565b60405180910390f35b34801561032e57600080fd5b5061034960048036038101906103449190613fe4565b611266565b6040516103569190614773565b60405180910390f35b34801561036b57600080fd5b506103746112b2565b005b34801561038257600080fd5b5061038b611641565b6040516103989190614728565b60405180910390f35b3480156103ad57600080fd5b506103c860048036038101906103c39190613fe4565b611651565b6040516103d591906149e2565b60405180910390f35b3480156103ea57600080fd5b5061040560048036038101906104009190614011565b611707565b6040516104129190614728565b60405180910390f35b34801561042757600080fd5b506104306117c2565b005b34801561043e57600080fd5b506104596004803603810190610454919061407e565b6119c3565b005b34801561046757600080fd5b50610470611f86565b60405161047d91906149e2565b60405180910390f35b34801561049257600080fd5b5061049b612038565b6040516104a89190614773565b60405180910390f35b3480156104bd57600080fd5b506104c6612082565b6040516104d391906149e2565b60405180910390f35b3480156104e857600080fd5b5061050360048036038101906104fe91906140cb565b612156565b005b34801561051157600080fd5b5061052c60048036038101906105279190613fe4565b612226565b60405161053991906149e2565b60405180910390f35b34801561054e57600080fd5b506105576122da565b005b34801561056557600080fd5b50610580600480360381019061057b9190613fe4565b61241b565b60405161058d9190614728565b60405180910390f35b61059e61242f565b005b3480156105ac57600080fd5b506105b56124e4565b005b3480156105c357600080fd5b506105cc6126d2565b6040516105d991906149e2565b60405180910390f35b3480156105ee57600080fd5b506106096004803603810190610604919061407e565b61271c565b604051610617929190614743565b60405180910390f35b34801561062c57600080fd5b5061064760048036038101906106429190613fe4565b612891565b005b34801561065557600080fd5b50610670600480360381019061066b9190613fe4565b61298e565b005b34801561067e57600080fd5b50610687612b5c565b005b34801561069557600080fd5b5061069e612c17565b6040516106ab91906149e2565b60405180910390f35b3480156106c057600080fd5b506106c9612cc9565b6040516106d691906149e2565b60405180910390f35b3480156106eb57600080fd5b506106f4612cd1565b005b34801561070257600080fd5b5061070b612fce565b6040516107189190614773565b60405180910390f35b34801561072d57600080fd5b50610748600480360381019061074391906140cb565b61308b565b005b34801561075657600080fd5b5061075f613121565b60405161076c91906149e2565b60405180910390f35b34801561078157600080fd5b5061079c60048036038101906107979190613fe4565b61316b565b6040516107ae96959493929190614a26565b60405180910390f35b3480156107c357600080fd5b506107cc6131a7565b6040516107d99190614773565b60405180910390f35b3480156107ee57600080fd5b506107f76131ad565b60405161080491906149e2565b60405180910390f35b34801561081957600080fd5b50610834600480360381019061082f91906140f8565b6131f7565b005b610850600480360381019061084b91906140cb565b613241565b005b34801561085e57600080fd5b50610867613293565b005b34801561087557600080fd5b50610890600480360381019061088b9190614011565b613481565b005b34801561089e57600080fd5b506108a76136bf565b6040516108b491906149e2565b60405180910390f35b3480156108c957600080fd5b506108d26136cf565b6040516108df91906149e2565b60405180910390f35b3480156108f457600080fd5b506108fd613781565b005b60006109096126d2565b90506000600960003373ffffffffffffffffffffffffffffffffffffffff1673ffffffffffffffffffffffffffffffffffffffff16815260200190815260200160002060040181905550600360009054906101000a900473ffffffffffffffffffffffffffffffffffffffff1673ffffffffffffffffffffffffffffffffffffffff1663a9059cbb33836040518363ffffffff1660e01b81526004016109b09291906146c8565b602060405180830381600087803b1580156109ca57600080fd5b505af11580156109de573d6000803e3d6000fd5b505050506040513d601f19601f82011682018060405250810190610a029190614051565b503373ffffffffffffffffffffffffffffffffffffffff167f8abd2c969830597ba5ec419d56dd04a713cccf5cf1764ca5c55e9e8b2db0d8f1826000604051610a4c92919061488e565b60405180910390a250565b60066020528060005260406000206000915054906101000a900460ff1681565b6000600960003373ffffffffffffffffffffffffffffffffffffffff1673ffffffffffffffffffffffffffffffffffffffff168152602001908152602001600020600001541415610acb57610aca6117c2565b5b6000610ad56136cf565b90507f000000000000000000000000000000000000000000000000000000000000000073ffffffffffffffffffffffffffffffffffffffff1663474cf53d34600460009054906101000a900473ffffffffffffffffffffffffffffffffffffffff163360006040518563ffffffff1660e01b8152600401610b589392919061465a565b6000604051808303818588803b158015610b7157600080fd5b505af1158015610b85573d6000803e3d6000fd5b50505050506000610b946136cf565b9050600080831415610bef5781905080600960003373ffffffffffffffffffffffffffffffffffffffff1673ffffffffffffffffffffffffffffffffffffffff16815260200190815260200160002060010181905550610c57565b8282610bfb9190614c7a565b905080600960003373ffffffffffffffffffffffffffffffffffffffff1673ffffffffffffffffffffffffffffffffffffffff1681526020019081526020016000206001016000828254610c4f9190614b05565b925050819055505b3373ffffffffffffffffffffffffffffffffffffffff167fc9c6fab6ecbdd99f0fff2b919fb3ff1ef9ec3e382592cd5323cbb3571da624fc8284604051610c9f9291906148ca565b60405180910390a2505050565b600560009054906101000a900473ffffffffffffffffffffffffffffffffffffffff1673ffffffffffffffffffffffffffffffffffffffff166370a08231336040518263ffffffff1660e01b8152600401610d079190614616565b60206040518083038186803b158015610d1f57600080fd5b505afa158015610d33573d6000803e3d6000fd5b505050506040513d601f19601f82011682018060405250810190610d579190614125565b811115610d99576040517f08c379a0000000000000000000000000000000000000000000000000000000008152600401610d909061484e565b60405180910390fd5b600560009054906101000a900473ffffffffffffffffffffffffffffffffffffffff1673ffffffffffffffffffffffffffffffffffffffff1663dd62ed3e33306040518363ffffffff1660e01b8152600401610df6929190614631565b60206040518083038186803b158015610e0e57600080fd5b505afa158015610e22573d6000803e3d6000fd5b505050506040513d601f19601f82011682018060405250810190610e469190614125565b811115610e88576040517f08c379a0000000000000000000000000000000000000000000000000000000008152600401610e7f906147ee565b60405180910390fd5b6000610e92611f86565b9050610e9d82613a46565b600081610ea8611f86565b610eb29190614c7a565b9050610ebc612cc9565b9150610ec781613afb565b81610ed0612cc9565b610eda9190614c7a565b9050600080600960003373ffffffffffffffffffffffffffffffffffffffff1673ffffffffffffffffffffffffffffffffffffffff168152602001908152602001600020600101548311156110c6576002600960003373ffffffffffffffffffffffffffffffffffffffff1673ffffffffffffffffffffffffffffffffffffffff1681526020019081526020016000206001015484610f799190614c7a565b610f839190614b5b565b90508083610f919190614c7a565b9150600960003373ffffffffffffffffffffffffffffffffffffffff1673ffffffffffffffffffffffffffffffffffffffff16815260200190815260200160002060050160008154610fe290614e3f565b919050819055506000600960003373ffffffffffffffffffffffffffffffffffffffff1673ffffffffffffffffffffffffffffffffffffffff168152602001908152602001600020600101819055503373ffffffffffffffffffffffffffffffffffffffff167f57958548394d02387e4204984f7d693567c1fd729fe1ed83ae8b233332e7319e600960003373ffffffffffffffffffffffffffffffffffffffff1673ffffffffffffffffffffffffffffffffffffffff168152602001908152602001600020600501546040516110b991906149e2565b60405180910390a2611123565b82915082600960003373ffffffffffffffffffffffffffffffffffffffff1673ffffffffffffffffffffffffffffffffffffffff168152602001908152602001600020600101600082825461111b9190614c7a565b925050819055505b60003373ffffffffffffffffffffffffffffffffffffffff168460405161114990614601565b60006040518083038185875af1925050503d8060008114611186576040519150601f19603f3d011682016040523d82523d6000602084013e61118b565b606091505b50509050806111cf576040517f08c379a00000000000000000000000000000000000000000000000000000000081526004016111c6906149a6565b60405180910390fd5b3373ffffffffffffffffffffffffffffffffffffffff167f8abd2c969830597ba5ec419d56dd04a713cccf5cf1764ca5c55e9e8b2db0d8f184846040516112179291906148ca565b60405180910390a2505050505050565b6008818154811061123757600080fd5b906000526020600020016000915054906101000a900473ffffffffffffffffffffffffffffffffffffffff1681565b6000600960008373ffffffffffffffffffffffffffffffffffffffff1673ffffffffffffffffffffffffffffffffffffffff168152602001908152602001600020600201549050919050565b600660003373ffffffffffffffffffffffffffffffffffffffff1673ffffffffffffffffffffffffffffffffffffffff16815260200190815260200160002060009054906101000a900460ff1661133e576040517f08c379a000000000000000000000000000000000000000000000000000000000815260040161133590614906565b60405180910390fd5b60003090506000600560009054906101000a900473ffffffffffffffffffffffffffffffffffffffff1673ffffffffffffffffffffffffffffffffffffffff166370a08231836040518263ffffffff1660e01b81526004016113a09190614616565b60206040518083038186803b1580156113b857600080fd5b505afa1580156113cc573d6000803e3d6000fd5b505050506040513d601f19601f820116820180604052508101906113f09190614125565b9050600560009054906101000a900473ffffffffffffffffffffffffffffffffffffffff1673ffffffffffffffffffffffffffffffffffffffff1663095ea7b37f0000000000000000000000000000000000000000000000000000000000000000836040518363ffffffff1660e01b815260040161146f9291906146c8565b602060405180830381600087803b15801561148957600080fd5b505af115801561149d573d6000803e3d6000fd5b505050506040513d601f19601f820116820180604052508101906114c19190614051565b507f000000000000000000000000000000000000000000000000000000000000000073ffffffffffffffffffffffffffffffffffffffff166380500d20600460009054906101000a900473ffffffffffffffffffffffffffffffffffffffff1683856040518463ffffffff1660e01b8152600401611541939291906146f1565b600060405180830381600087803b15801561155b57600080fd5b505af115801561156f573d6000803e3d6000fd5b5050505060008273ffffffffffffffffffffffffffffffffffffffff1631905060003373ffffffffffffffffffffffffffffffffffffffff16826040516115b590614601565b60006040518083038185875af1925050503d80600081146115f2576040519150601f19603f3d011682016040523d82523d6000602084013e6115f7565b606091505b505090508061163b576040517f08c379a0000000000000000000000000000000000000000000000000000000008152600401611632906147ce565b60405180910390fd5b50505050565b600061164c3361241b565b905090565b6000600560009054906101000a900473ffffffffffffffffffffffffffffffffffffffff1673ffffffffffffffffffffffffffffffffffffffff1663dd62ed3e83306040518363ffffffff1660e01b81526004016116b0929190614631565b60206040518083038186803b1580156116c857600080fd5b505afa1580156116dc573d6000803e3d6000fd5b505050506040513d601f19601f820116820180604052508101906117009190614125565b9050919050565b6000600560009054906101000a900473ffffffffffffffffffffffffffffffffffffffff1673ffffffffffffffffffffffffffffffffffffffff166323b872dd8430856040518463ffffffff1660e01b815260040161176893929190614691565b602060405180830381600087803b15801561178257600080fd5b505af1158015611796573d6000803e3d6000fd5b505050506040513d601f19601f820116820180604052508101906117ba9190614051565b905092915050565b6000600960003373ffffffffffffffffffffffffffffffffffffffff1673ffffffffffffffffffffffffffffffffffffffff1681526020019081526020016000206000015414611847576040517f08c379a000000000000000000000000000000000000000000000000000000000815260040161183e9061478e565b60405180910390fd5b6008339080600181540180825580915050600190039060005260206000200160009091909190916101000a81548173ffffffffffffffffffffffffffffffffffffffff021916908373ffffffffffffffffffffffffffffffffffffffff1602179055506040518060c001604052806008805490508152602001600081526020017fffffffffffffffffffffffffffffffffffffffffffffffffffffffffffffffff815260200160008152602001600081526020016000815250600960003373ffffffffffffffffffffffffffffffffffffffff1673ffffffffffffffffffffffffffffffffffffffff168152602001908152602001600020600082015181600001556020820151816001015560408201518160020155606082015181600301556080820151816004015560a082015181600501559050503373ffffffffffffffffffffffffffffffffffffffff167f19ef9a4877199f89440a26acb26895ec02ed86f2df1aeaa90dc18041b892f71f60405160405180910390a2565b60006119cd612fce565b905060008060005b85859050811015611be057858582906014846119f19190614b05565b926119fe93929190614aca565b90611a099190614d5f565b60601c9150600960008373ffffffffffffffffffffffffffffffffffffffff1673ffffffffffffffffffffffffffffffffffffffff168152602001908152602001600020600201548413611bcc576000611a6283612226565b90506000611a6f84611651565b9050600082118015611a815750600081115b15611bc9576000818311611a9757829050611a9b565b8190505b6000611aa5611f86565b9050600560009054906101000a900473ffffffffffffffffffffffffffffffffffffffff1673ffffffffffffffffffffffffffffffffffffffff166323b872dd8730856040518463ffffffff1660e01b8152600401611b0693929190614691565b602060405180830381600087803b158015611b2057600080fd5b505af1158015611b34573d6000803e3d6000fd5b505050506040513d601f19601f82011682018060405250810190611b589190614051565b50600081611b64611f86565b611b6e9190614c7a565b905080600960008973ffffffffffffffffffffffffffffffffffffffff1673ffffffffffffffffffffffffffffffffffffffff168152602001908152602001600020600301819055508088611bc39190614b05565b97505050505b50505b601481611bd99190614b05565b90506119d5565b506000821115611f7f576000611bf4612cc9565b9050600560009054906101000a900473ffffffffffffffffffffffffffffffffffffffff1673ffffffffffffffffffffffffffffffffffffffff1663095ea7b37f0000000000000000000000000000000000000000000000000000000000000000856040518363ffffffff1660e01b8152600401611c739291906146c8565b602060405180830381600087803b158015611c8d57600080fd5b505af1158015611ca1573d6000803e3d6000fd5b505050506040513d601f19601f82011682018060405250810190611cc59190614051565b507f000000000000000000000000000000000000000000000000000000000000000073ffffffffffffffffffffffffffffffffffffffff166380500d20600460009054906101000a900473ffffffffffffffffffffffffffffffffffffffff1685306040518463ffffffff1660e01b8152600401611d45939291906146f1565b600060405180830381600087803b158015611d5f57600080fd5b505af1158015611d73573d6000803e3d6000fd5b50505050600081611d82612cc9565b611d8c9190614c7a565b90506000611d9982613d72565b90506000811115611f415760005b88889050811015611f3f5788888290601484611dc39190614b05565b92611dd093929190614aca565b90611ddb9190614d5f565b60601c94506000600960008773ffffffffffffffffffffffffffffffffffffffff1673ffffffffffffffffffffffffffffffffffffffff168152602001908152602001600020600301541115611f2b57600086600960008873ffffffffffffffffffffffffffffffffffffffff1673ffffffffffffffffffffffffffffffffffffffff1681526020019081526020016000206003015484611e7c9190614b8c565b611e869190614b5b565b905080600960008873ffffffffffffffffffffffffffffffffffffffff1673ffffffffffffffffffffffffffffffffffffffff1681526020019081526020016000206004016000828254611eda9190614b05565b925050819055506000600960008873ffffffffffffffffffffffffffffffffffffffff1673ffffffffffffffffffffffffffffffffffffffff16815260200190815260200160002060030181905550505b601481611f389190614b05565b9050611da7565b505b857f6d849981c611af330f71fdd5474d305fe6aaf66db1776f284d113e26b39679418683604051611f739291906149fd565b60405180910390a25050505b5050505050565b6000600560009054906101000a900473ffffffffffffffffffffffffffffffffffffffff1673ffffffffffffffffffffffffffffffffffffffff166370a08231306040518263ffffffff1660e01b8152600401611fe39190614616565b60206040518083038186803b158015611ffb57600080fd5b505afa15801561200f573d6000803e3d6000fd5b505050506040513d601f19601f820116820180604052508101906120339190614125565b905090565b6000600960003373ffffffffffffffffffffffffffffffffffffffff1673ffffffffffffffffffffffffffffffffffffffff16815260200190815260200160002060020154905090565b6000600560009054906101000a900473ffffffffffffffffffffffffffffffffffffffff1673ffffffffffffffffffffffffffffffffffffffff1663dd62ed3e307f00000000000000000000000000000000000000000000000000000000000000006040518363ffffffff1660e01b8152600401612101929190614631565b60206040518083038186803b15801561211957600080fd5b505afa15801561212d573d6000803e3d6000fd5b505050506040513d601f19601f820116820180604052508101906121519190614125565b905090565b6000600960003373ffffffffffffffffffffffffffffffffffffffff1673ffffffffffffffffffffffffffffffffffffffff1681526020019081526020016000206000015414156121dc576040517f08c379a00000000000000000000000000000000000000000000000000000000081526004016121d390614926565b60405180910390fd5b80600960003373ffffffffffffffffffffffffffffffffffffffff1673ffffffffffffffffffffffffffffffffffffffff1681526020019081526020016000206002018190555050565b6000600560009054906101000a900473ffffffffffffffffffffffffffffffffffffffff1673ffffffffffffffffffffffffffffffffffffffff166370a08231836040518263ffffffff1660e01b81526004016122839190614616565b60206040518083038186803b15801561229b57600080fd5b505afa1580156122af573d6000803e3d6000fd5b505050506040513d601f19601f820116820180604052508101906122d39190614125565b9050919050565b600660003373ffffffffffffffffffffffffffffffffffffffff1673ffffffffffffffffffffffffffffffffffffffff16815260200190815260200160002060009054906101000a900460ff16612366576040517f08c379a000000000000000000000000000000000000000000000000000000000815260040161235d90614906565b60405180910390fd5b600047905060003373ffffffffffffffffffffffffffffffffffffffff168260405161239190614601565b60006040518083038185875af1925050503d80600081146123ce576040519150601f19603f3d011682016040523d82523d6000602084013e6123d3565b606091505b5050905080612417576040517f08c379a000000000000000000000000000000000000000000000000000000000815260040161240e9061486e565b60405180910390fd5b5050565b60008061242783611651565b119050919050565b7f000000000000000000000000000000000000000000000000000000000000000073ffffffffffffffffffffffffffffffffffffffff1663474cf53d34600460009054906101000a900473ffffffffffffffffffffffffffffffffffffffff163360006040518563ffffffff1660e01b81526004016124b09392919061465a565b6000604051808303818588803b1580156124c957600080fd5b505af11580156124dd573d6000803e3d6000fd5b5050505050565b600660003373ffffffffffffffffffffffffffffffffffffffff1673ffffffffffffffffffffffffffffffffffffffff16815260200190815260200160002060009054906101000a900460ff16612570576040517f08c379a000000000000000000000000000000000000000000000000000000000815260040161256790614906565b60405180910390fd5b6000600560009054906101000a900473ffffffffffffffffffffffffffffffffffffffff1673ffffffffffffffffffffffffffffffffffffffff166370a08231306040518263ffffffff1660e01b81526004016125cd9190614616565b60206040518083038186803b1580156125e557600080fd5b505afa1580156125f9573d6000803e3d6000fd5b505050506040513d601f19601f8201168201806040525081019061261d9190614125565b9050600560009054906101000a900473ffffffffffffffffffffffffffffffffffffffff1673ffffffffffffffffffffffffffffffffffffffff1663a9059cbb33836040518363ffffffff1660e01b815260040161267c9291906146c8565b602060405180830381600087803b15801561269657600080fd5b505af11580156126aa573d6000803e3d6000fd5b505050506040513d601f19601f820116820180604052508101906126ce9190614051565b5050565b6000600960003373ffffffffffffffffffffffffffffffffffffffff1673ffffffffffffffffffffffffffffffffffffffff16815260200190815260200160002060040154905090565b60006060600061272a612fce565b90506000600190505b6008805490508110156128795760006008828154811061275657612755614f39565b5b9060005260206000200160009054906101000a900473ffffffffffffffffffffffffffffffffffffffff1690506000600960008373ffffffffffffffffffffffffffffffffffffffff1673ffffffffffffffffffffffffffffffffffffffff1681526020019081526020016000206040518060c0016040529081600082015481526020016001820154815260200160028201548152602001600382015481526020016004820154815260200160058201548152505090508060400151841361286657600061282383612226565b905060008111801561283a57506128398361241b565b5b156128645785836040516020016128529291906145d9565b60405160208183030381529060405295505b505b50508061287290614e3f565b9050612733565b5060008251111561288957600192505b509250929050565b600660003373ffffffffffffffffffffffffffffffffffffffff1673ffffffffffffffffffffffffffffffffffffffff16815260200190815260200160002060009054906101000a900460ff1661291d576040517f08c379a000000000000000000000000000000000000000000000000000000000815260040161291490614906565b60405180910390fd5b6001600660008373ffffffffffffffffffffffffffffffffffffffff1673ffffffffffffffffffffffffffffffffffffffff16815260200190815260200160002060006101000a81548160ff02191690831515021790555060076000815461298490614e3f565b9190508190555050565b600660003373ffffffffffffffffffffffffffffffffffffffff1673ffffffffffffffffffffffffffffffffffffffff16815260200190815260200160002060009054906101000a900460ff16612a1a576040517f08c379a0000000000000000000000000000000000000000000000000000000008152600401612a1190614906565b60405180910390fd5b600160075411612a5f576040517f08c379a0000000000000000000000000000000000000000000000000000000008152600401612a569061480e565b60405180910390fd5b600660008273ffffffffffffffffffffffffffffffffffffffff1673ffffffffffffffffffffffffffffffffffffffff16815260200190815260200160002060009054906101000a900460ff16612aeb576040517f08c379a0000000000000000000000000000000000000000000000000000000008152600401612ae290614946565b60405180910390fd5b6000600660008373ffffffffffffffffffffffffffffffffffffffff1673ffffffffffffffffffffffffffffffffffffffff16815260200190815260200160002060006101000a81548160ff021916908315150217905550600760008154612b5290614e15565b9190508190555050565b6000600560009054906101000a900473ffffffffffffffffffffffffffffffffffffffff1673ffffffffffffffffffffffffffffffffffffffff166370a08231336040518263ffffffff1660e01b8152600401612bb99190614616565b60206040518083038186803b158015612bd157600080fd5b505afa158015612be5573d6000803e3d6000fd5b505050506040513d601f19601f82011682018060405250810190612c099190614125565b9050612c1481610cac565b50565b6000600360009054906101000a900473ffffffffffffffffffffffffffffffffffffffff1673ffffffffffffffffffffffffffffffffffffffff166370a08231306040518263ffffffff1660e01b8152600401612c749190614616565b60206040518083038186803b158015612c8c57600080fd5b505afa158015612ca0573d6000803e3d6000fd5b505050506040513d601f19601f82011682018060405250810190612cc49190614125565b905090565b600047905090565b6000600960003373ffffffffffffffffffffffffffffffffffffffff1673ffffffffffffffffffffffffffffffffffffffff168152602001908152602001600020600001541415612d57576040517f08c379a0000000000000000000000000000000000000000000000000000000008152600401612d4e90614926565b60405180910390fd5b6000600960003373ffffffffffffffffffffffffffffffffffffffff1673ffffffffffffffffffffffffffffffffffffffff1681526020019081526020016000206004015414612ddc576040517f08c379a0000000000000000000000000000000000000000000000000000000008152600401612dd390614966565b60405180910390fd5b6000600960003373ffffffffffffffffffffffffffffffffffffffff1673ffffffffffffffffffffffffffffffffffffffff16815260200190815260200160002060000154905060086001600880549050612e379190614c7a565b81548110612e4857612e47614f39565b5b9060005260206000200160009054906101000a900473ffffffffffffffffffffffffffffffffffffffff1660088281548110612e8757612e86614f39565b5b9060005260206000200160006101000a81548173ffffffffffffffffffffffffffffffffffffffff021916908373ffffffffffffffffffffffffffffffffffffffff1602179055506008805480612ee157612ee0614f0a565b5b6001900381819060005260206000200160006101000a81549073ffffffffffffffffffffffffffffffffffffffff02191690559055600960003373ffffffffffffffffffffffffffffffffffffffff1673ffffffffffffffffffffffffffffffffffffffff1681526020019081526020016000206000808201600090556001820160009055600282016000905560038201600090556004820160009055600582016000905550503373ffffffffffffffffffffffffffffffffffffffff167f4bc56f1321288dfb5b416cb3a7fd188723979f9e866c91d88eccf7fca039d03960405160405180910390a250565b600080600160009054906101000a900473ffffffffffffffffffffffffffffffffffffffff1673ffffffffffffffffffffffffffffffffffffffff1663feaf968c6040518163ffffffff1660e01b815260040160a06040518083038186803b15801561303957600080fd5b505afa15801561304d573d6000803e3d6000fd5b505050506040513d601f19601f820116820180604052508101906130719190614152565b505050915050600a54816130859190614be6565b91505090565b600660003373ffffffffffffffffffffffffffffffffffffffff1673ffffffffffffffffffffffffffffffffffffffff16815260200190815260200160002060009054906101000a900460ff16613117576040517f08c379a000000000000000000000000000000000000000000000000000000000815260040161310e90614906565b60405180910390fd5b80600a8190555050565b6000600960003373ffffffffffffffffffffffffffffffffffffffff1673ffffffffffffffffffffffffffffffffffffffff16815260200190815260200160002060010154905090565b60096020528060005260406000206000915090508060000154908060010154908060020154908060030154908060040154908060050154905086565b600a5481565b6000600960003373ffffffffffffffffffffffffffffffffffffffff1673ffffffffffffffffffffffffffffffffffffffff16815260200190815260200160002060050154905090565b80600960003373ffffffffffffffffffffffffffffffffffffffff1673ffffffffffffffffffffffffffffffffffffffff1681526020019081526020016000206001018190555050565b613249610a77565b80600960003373ffffffffffffffffffffffffffffffffffffffff1673ffffffffffffffffffffffffffffffffffffffff1681526020019081526020016000206002018190555050565b600660003373ffffffffffffffffffffffffffffffffffffffff1673ffffffffffffffffffffffffffffffffffffffff16815260200190815260200160002060009054906101000a900460ff1661331f576040517f08c379a000000000000000000000000000000000000000000000000000000000815260040161331690614906565b60405180910390fd5b6000600360009054906101000a900473ffffffffffffffffffffffffffffffffffffffff1673ffffffffffffffffffffffffffffffffffffffff166370a08231306040518263ffffffff1660e01b815260040161337c9190614616565b60206040518083038186803b15801561339457600080fd5b505afa1580156133a8573d6000803e3d6000fd5b505050506040513d601f19601f820116820180604052508101906133cc9190614125565b9050600360009054906101000a900473ffffffffffffffffffffffffffffffffffffffff1673ffffffffffffffffffffffffffffffffffffffff1663a9059cbb33836040518363ffffffff1660e01b815260040161342b9291906146c8565b602060405180830381600087803b15801561344557600080fd5b505af1158015613459573d6000803e3d6000fd5b505050506040513d601f19601f8201168201806040525081019061347d9190614051565b5050565b600660003373ffffffffffffffffffffffffffffffffffffffff1673ffffffffffffffffffffffffffffffffffffffff16815260200190815260200160002060009054906101000a900460ff1661350d576040517f08c379a000000000000000000000000000000000000000000000000000000000815260040161350490614906565b60405180910390fd5b80471015613550576040517f08c379a000000000000000000000000000000000000000000000000000000000815260040161354790614986565b60405180910390fd5b600073ffffffffffffffffffffffffffffffffffffffff168273ffffffffffffffffffffffffffffffffffffffff1614156135c0576040517f08c379a00000000000000000000000000000000000000000000000000000000081526004016135b79061482e565b60405180910390fd5b60008273ffffffffffffffffffffffffffffffffffffffff16826040516135e690614601565b60006040518083038185875af1925050503d8060008114613623576040519150601f19603f3d011682016040523d82523d6000602084013e613628565b606091505b505090508061366c576040517f08c379a0000000000000000000000000000000000000000000000000000000008152600401613663906147ae565b60405180910390fd5b8273ffffffffffffffffffffffffffffffffffffffff167f5d8bc849764969eb1bcc6d0a2f55999d0167c1ccec240a4f39cf664ca9c4148e836040516136b291906149e2565b60405180910390a2505050565b60006136ca33611651565b905090565b6000600560009054906101000a900473ffffffffffffffffffffffffffffffffffffffff1673ffffffffffffffffffffffffffffffffffffffff166370a08231336040518263ffffffff1660e01b815260040161372c9190614616565b60206040518083038186803b15801561374457600080fd5b505afa158015613758573d6000803e3d6000fd5b505050506040513d601f19601f8201168201806040525081019061377c9190614125565b905090565b600660003373ffffffffffffffffffffffffffffffffffffffff1673ffffffffffffffffffffffffffffffffffffffff16815260200190815260200160002060009054906101000a900460ff1661380d576040517f08c379a000000000000000000000000000000000000000000000000000000000815260040161380490614906565b60405180910390fd5b60003090506000600560009054906101000a900473ffffffffffffffffffffffffffffffffffffffff1673ffffffffffffffffffffffffffffffffffffffff166370a08231836040518263ffffffff1660e01b815260040161386f9190614616565b60206040518083038186803b15801561388757600080fd5b505afa15801561389b573d6000803e3d6000fd5b505050506040513d601f19601f820116820180604052508101906138bf9190614125565b9050600560009054906101000a900473ffffffffffffffffffffffffffffffffffffffff1673ffffffffffffffffffffffffffffffffffffffff1663095ea7b37f0000000000000000000000000000000000000000000000000000000000000000836040518363ffffffff1660e01b815260040161393e9291906146c8565b602060405180830381600087803b15801561395857600080fd5b505af115801561396c573d6000803e3d6000fd5b505050506040513d601f19601f820116820180604052508101906139909190614051565b507f000000000000000000000000000000000000000000000000000000000000000073ffffffffffffffffffffffffffffffffffffffff166380500d20600460009054906101000a900473ffffffffffffffffffffffffffffffffffffffff1683856040518463ffffffff1660e01b8152600401613a10939291906146f1565b600060405180830381600087803b158015613a2a57600080fd5b505af1158015613a3e573d6000803e3d6000fd5b505050505050565b600560009054906101000a900473ffffffffffffffffffffffffffffffffffffffff1673ffffffffffffffffffffffffffffffffffffffff166323b872dd3330846040518463ffffffff1660e01b8152600401613aa593929190614691565b602060405180830381600087803b158015613abf57600080fd5b505af1158015613ad3573d6000803e3d6000fd5b505050506040513d601f19601f82011682018060405250810190613af79190614051565b5050565b6000600560009054906101000a900473ffffffffffffffffffffffffffffffffffffffff1673ffffffffffffffffffffffffffffffffffffffff166370a08231306040518263ffffffff1660e01b8152600401613b589190614616565b60206040518083038186803b158015613b7057600080fd5b505afa158015613b84573d6000803e3d6000fd5b505050506040513d601f19601f82011682018060405250810190613ba89190614125565b905080821115613bed576040517f08c379a0000000000000000000000000000000000000000000000000000000008152600401613be49061484e565b60405180910390fd5b600560009054906101000a900473ffffffffffffffffffffffffffffffffffffffff1673ffffffffffffffffffffffffffffffffffffffff1663095ea7b37f0000000000000000000000000000000000000000000000000000000000000000846040518363ffffffff1660e01b8152600401613c6a9291906146c8565b602060405180830381600087803b158015613c8457600080fd5b505af1158015613c98573d6000803e3d6000fd5b505050506040513d601f19601f82011682018060405250810190613cbc9190614051565b507f000000000000000000000000000000000000000000000000000000000000000073ffffffffffffffffffffffffffffffffffffffff166380500d20600460009054906101000a900473ffffffffffffffffffffffffffffffffffffffff1684306040518463ffffffff1660e01b8152600401613d3c939291906146f1565b600060405180830381600087803b158015613d5657600080fd5b505af1158015613d6a573d6000803e3d6000fd5b505050505050565b600080604051806101000160405280600260009054906101000a900473ffffffffffffffffffffffffffffffffffffffff1673ffffffffffffffffffffffffffffffffffffffff168152602001721b3b4d0f3714ca98ba10f6042daebf0b1b7b6f73ffffffffffffffffffffffffffffffffffffffff168152602001610bb862ffffff1681526020013073ffffffffffffffffffffffffffffffffffffffff16815260200142815260200184815260200160008152602001600073ffffffffffffffffffffffffffffffffffffffff1681525090507f000000000000000000000000000000000000000000000000000000000000000073ffffffffffffffffffffffffffffffffffffffff1663414bf38984836040518363ffffffff1660e01b8152600401613ea191906149c6565b6020604051808303818588803b158015613eba57600080fd5b505af1158015613ece573d6000803e3d6000fd5b50505050506040513d601f19601f82011682018060405250810190613ef39190614125565b915050919050565b600081359050613f0a81615249565b92915050565b600081519050613f1f81615260565b92915050565b60008083601f840112613f3b57613f3a614f6d565b5b8235905067ffffffffffffffff811115613f5857613f57614f68565b5b602083019150836001820283011115613f7457613f73614f7c565b5b9250929050565b600081359050613f8a81615277565b92915050565b600081519050613f9f81615277565b92915050565b600081359050613fb48161528e565b92915050565b600081519050613fc98161528e565b92915050565b600081519050613fde816152a5565b92915050565b600060208284031215613ffa57613ff9614f86565b5b600061400884828501613efb565b91505092915050565b6000806040838503121561402857614027614f86565b5b600061403685828601613efb565b925050602061404785828601613fa5565b9150509250929050565b60006020828403121561406757614066614f86565b5b600061407584828501613f10565b91505092915050565b6000806020838503121561409557614094614f86565b5b600083013567ffffffffffffffff8111156140b3576140b2614f81565b5b6140bf85828601613f25565b92509250509250929050565b6000602082840312156140e1576140e0614f86565b5b60006140ef84828501613f7b565b91505092915050565b60006020828403121561410e5761410d614f86565b5b600061411c84828501613fa5565b91505092915050565b60006020828403121561413b5761413a614f86565b5b600061414984828501613fba565b91505092915050565b600080600080600060a0868803121561416e5761416d614f86565b5b600061417c88828901613fcf565b955050602061418d88828901613f90565b945050604061419e88828901613fba565b93505060606141af88828901613fba565b92505060806141c088828901613fcf565b9150509295509295909350565b6141d681614cae565b82525050565b6141e581614cae565b82525050565b6141fc6141f782614cae565b614e88565b82525050565b61420b81614cc0565b82525050565b600061421c82614a92565b6142268185614a9d565b9350614236818560208601614de2565b61423f81614f8b565b840191505092915050565b600061425582614a92565b61425f8185614aae565b935061426f818560208601614de2565b80840191505092915050565b61428481614cf8565b82525050565b61429381614dbe565b82525050565b6142a281614dd0565b82525050565b60006142b5601283614ab9565b91506142c082614fb6565b602082019050919050565b60006142d8600f83614ab9565b91506142e382614fdf565b602082019050919050565b60006142fb601b83614ab9565b915061430682615008565b602082019050919050565b600061431e601283614ab9565b915061432982615031565b602082019050919050565b6000614341601483614ab9565b915061434c8261505a565b602082019050919050565b6000614364600983614ab9565b915061436f82615083565b602082019050919050565b6000614387601083614ab9565b9150614392826150ac565b602082019050919050565b60006143aa601383614ab9565b91506143b5826150d5565b602082019050919050565b60006143cd600383614ab9565b91506143d8826150fe565b602082019050919050565b60006143f0600583614ab9565b91506143fb82615127565b602082019050919050565b6000614413600b83614ab9565b915061441e82615150565b602082019050919050565b6000614436600a83614ab9565b915061444182615179565b602082019050919050565b6000614459600083614aae565b9150614464826151a2565b600082019050919050565b600061447c600c83614ab9565b9150614487826151a5565b602082019050919050565b600061449f600f83614ab9565b91506144aa826151ce565b602082019050919050565b60006144c2601183614ab9565b91506144cd826151f7565b602082019050919050565b60006144e5600f83614ab9565b91506144f082615220565b602082019050919050565b6101008201600082015161451260008501826141cd565b50602082015161452560208501826141cd565b50604082015161453860408501826145ac565b50606082015161454b60608501826141cd565b50608082015161455e60808501826145bb565b5060a082015161457160a08501826145bb565b5060c082015161458460c08501826145bb565b5060e082015161459760e085018261459d565b50505050565b6145a681614d10565b82525050565b6145b581614d30565b82525050565b6145c481614d3f565b82525050565b6145d381614d3f565b82525050565b60006145e5828561424a565b91506145f182846141eb565b6014820191508190509392505050565b600061460c8261444c565b9150819050919050565b600060208201905061462b60008301846141dc565b92915050565b600060408201905061464660008301856141dc565b61465360208301846141dc565b9392505050565b600060608201905061466f60008301866141dc565b61467c60208301856141dc565b614689604083018461428a565b949350505050565b60006060820190506146a660008301866141dc565b6146b360208301856141dc565b6146c060408301846145ca565b949350505050565b60006040820190506146dd60008301856141dc565b6146ea60208301846145ca565b9392505050565b600060608201905061470660008301866141dc565b61471360208301856145ca565b61472060408301846141dc565b949350505050565b600060208201905061473d6000830184614202565b92915050565b60006040820190506147586000830185614202565b818103602083015261476a8184614211565b90509392505050565b6000602082019050614788600083018461427b565b92915050565b600060208201905081810360008301526147a7816142a8565b9050919050565b600060208201905081810360008301526147c7816142cb565b9050919050565b600060208201905081810360008301526147e7816142ee565b9050919050565b6000602082019050818103600083015261480781614311565b9050919050565b6000602082019050818103600083015261482781614334565b9050919050565b6000602082019050818103600083015261484781614357565b9050919050565b600060208201905081810360008301526148678161437a565b9050919050565b600060208201905081810360008301526148878161439d565b9050919050565b600060608201905081810360008301526148a7816143c0565b90506148b660208301856145ca565b6148c36040830184614299565b9392505050565b600060608201905081810360008301526148e3816143e3565b90506148f260208301856145ca565b6148ff60408301846145ca565b9392505050565b6000602082019050818103600083015261491f81614406565b9050919050565b6000602082019050818103600083015261493f81614429565b9050919050565b6000602082019050818103600083015261495f8161446f565b9050919050565b6000602082019050818103600083015261497f81614492565b9050919050565b6000602082019050818103600083015261499f816144b5565b9050919050565b600060208201905081810360008301526149bf816144d8565b9050919050565b6000610100820190506149dc60008301846144fb565b92915050565b60006020820190506149f760008301846145ca565b92915050565b6000604082019050614a1260008301856145ca565b614a1f60208301846145ca565b9392505050565b600060c082019050614a3b60008301896145ca565b614a4860208301886145ca565b614a55604083018761427b565b614a6260608301866145ca565b614a6f60808301856145ca565b614a7c60a08301846145ca565b979650505050505050565b600082905092915050565b600081519050919050565b600082825260208201905092915050565b600081905092915050565b600082825260208201905092915050565b60008085851115614ade57614add614f77565b5b83861115614aef57614aee614f72565b5b6001850283019150848603905094509492505050565b6000614b1082614d3f565b9150614b1b83614d3f565b9250827fffffffffffffffffffffffffffffffffffffffffffffffffffffffffffffffff03821115614b5057614b4f614eac565b5b828201905092915050565b6000614b6682614d3f565b9150614b7183614d3f565b925082614b8157614b80614edb565b5b828204905092915050565b6000614b9782614d3f565b9150614ba283614d3f565b9250817fffffffffffffffffffffffffffffffffffffffffffffffffffffffffffffffff0483118215151615614bdb57614bda614eac565b5b828202905092915050565b6000614bf182614cf8565b9150614bfc83614cf8565b9250827f800000000000000000000000000000000000000000000000000000000000000001821260008412151615614c3757614c36614eac565b5b827f7fffffffffffffffffffffffffffffffffffffffffffffffffffffffffffffff018213600084121615614c6f57614c6e614eac565b5b828203905092915050565b6000614c8582614d3f565b9150614c9083614d3f565b925082821015614ca357614ca2614eac565b5b828203905092915050565b6000614cb982614d10565b9050919050565b60008115159050919050565b60007fffffffffffffffffffffffffffffffffffffffff00000000000000000000000082169050919050565b6000819050919050565b600061ffff82169050919050565b600073ffffffffffffffffffffffffffffffffffffffff82169050919050565b600062ffffff82169050919050565b6000819050919050565b600069ffffffffffffffffffff82169050919050565b6000614d6b8383614a87565b82614d768135614ccc565b92506014821015614db657614db17fffffffffffffffffffffffffffffffffffffffff00000000000000000000000083601403600802614fa9565b831692505b505092915050565b6000614dc982614d02565b9050919050565b6000614ddb82614d3f565b9050919050565b60005b83811015614e00578082015181840152602081019050614de5565b83811115614e0f576000848401525b50505050565b6000614e2082614d3f565b91506000821415614e3457614e33614eac565b5b600182039050919050565b6000614e4a82614d3f565b91507fffffffffffffffffffffffffffffffffffffffffffffffffffffffffffffffff821415614e7d57614e7c614eac565b5b600182019050919050565b6000614e9382614e9a565b9050919050565b6000614ea582614f9c565b9050919050565b7f4e487b7100000000000000000000000000000000000000000000000000000000600052601160045260246000fd5b7f4e487b7100000000000000000000000000000000000000000000000000000000600052601260045260246000fd5b7f4e487b7100000000000000000000000000000000000000000000000000000000600052603160045260246000fd5b7f4e487b7100000000000000000000000000000000000000000000000000000000600052603260045260246000fd5b600080fd5b600080fd5b600080fd5b600080fd5b600080fd5b600080fd5b600080fd5b6000601f19601f8301169050919050565b60008160601b9050919050565b600082821b905092915050565b7f7573657220616c72656164792061646465640000000000000000000000000000600082015250565b7f646f6e6174696f6e206661696c65640000000000000000000000000000000000600082015250565b7f57697468647261775265636f7665724d61746963206661696c65640000000000600082015250565b7f616d6f756e74203e20616c6c6f77616e63650000000000000000000000000000600082015250565b7f63616e27742064656c206c617374206f776e6572000000000000000000000000600082015250565b7f3020616464726573730000000000000000000000000000000000000000000000600082015250565b7f616d6f756e74203e2062616c616e636500000000000000000000000000000000600082015250565b7f5265636f7665724d61746963206661696c656400000000000000000000000000600082015250565b7f4441490000000000000000000000000000000000000000000000000000000000600082015250565b7f4d41544943000000000000000000000000000000000000000000000000000000600082015250565b7f6f6e6c79206f776e657273000000000000000000000000000000000000000000600082015250565b7f6e6f742061207573657200000000000000000000000000000000000000000000600082015250565b50565b7f6e6f7420616e206f776e65720000000000000000000000000000000000000000600082015250565b7f4441492062616c616e6365203e20300000000000000000000000000000000000600082015250565b7f5f616d6f756e74203e2062616c616e6365000000000000000000000000000000600082015250565b7f7769746864726177206661696c65640000000000000000000000000000000000600082015250565b61525281614cae565b811461525d57600080fd5b50565b61526981614cc0565b811461527457600080fd5b50565b61528081614cf8565b811461528b57600080fd5b50565b61529781614d3f565b81146152a257600080fd5b50565b6152ae81614d49565b81146152b957600080fd5b5056fea2646970667358221220109e27329e806fe9c85af5fc9c6e1cdaa86adaf4c1c838414f91a82aa557bd8b64736f6c63430008070033",
  "linkReferences": {},
  "deployedLinkReferences": {}
}