{"contracts/AnyApiTrial.sol":{"FetchVotes":{"abi":[{"inputs":[],"stateMutability":"nonpayable","type":"constructor"},{"anonymous":false,"inputs":[{"indexed":true,"internalType":"bytes32","name":"id","type":"bytes32"}],"name":"ChainlinkCancelled","type":"event"},{"anonymous":false,"inputs":[{"indexed":true,"internalType":"bytes32","name":"id","type":"bytes32"}],"name":"ChainlinkFulfilled","type":"event"},{"anonymous":false,"inputs":[{"indexed":true,"internalType":"bytes32","name":"id","type":"bytes32"}],"name":"ChainlinkRequested","type":"event"},{"inputs":[],"name":"blockNumber","outputs":[{"internalType":"string","name":"","type":"string"}],"stateMutability":"view","type":"function"},{"inputs":[{"internalType":"bytes32","name":"_requestId","type":"bytes32"},{"internalType":"string","name":"_votes","type":"string"}],"name":"fulfill","outputs":[],"stateMutability":"nonpayable","type":"function"},{"inputs":[],"name":"requestVotes","outputs":[{"internalType":"bytes32","name":"requestId","type":"bytes32"}],"stateMutability":"nonpayable","type":"function"}],"evm":{"bytecode":{"linkReferences":{},"object":"6080604052600160045534801561001557600080fd5b5061003973326c977e6efc84e512bb9c30f76e30c160ed06fb61009760201b60201c565b61005c7340193c8518bb267228fc409a613bdbd8ec5a97b36100db60201b60201c565b7f376438306136333836656635343361336162623532383137663637303765336260078190555067016345785d8a000060088190555061011f565b80600260006101000a81548173ffffffffffffffffffffffffffffffffffffffff021916908373ffffffffffffffffffffffffffffffffffffffff16021790555050565b80600360006101000a81548173ffffffffffffffffffffffffffffffffffffffff021916908373ffffffffffffffffffffffffffffffffffffffff16021790555050565b6117a08061012e6000396000f3fe608060405234801561001057600080fd5b50600436106100415760003560e01c8063374419961461004657806357e871e714610062578063c44bee1e14610080575b600080fd5b610060600480360381019061005b9190610d91565b61009e565b005b61006a6101bf565b6040516100779190611019565b60405180910390f35b61008861024d565b6040516100959190610ffe565b60405180910390f35b816005600082815260200190815260200160002060009054906101000a900473ffffffffffffffffffffffffffffffffffffffff1673ffffffffffffffffffffffffffffffffffffffff163373ffffffffffffffffffffffffffffffffffffffff1614610140576040517f08c379a00000000000000000000000000000000000000000000000000000000081526004016101379061105b565b60405180910390fd5b6005600082815260200190815260200160002060006101000a81549073ffffffffffffffffffffffffffffffffffffffff0219169055807f7cc135e0cebb02c3480ae5d74d377283180a2601f8f644edf7987b009316c63a60405160405180910390a281600690805190602001906101b9929190610ba0565b50505050565b600680546101cc90611454565b80601f01602080910402602001604051908101604052809291908181526020018280546101f890611454565b80156102455780601f1061021a57610100808354040283529160200191610245565b820191906000526020600020905b81548152906001019060200180831161022857829003601f168201915b505050505081565b60008061026460075430633744199660e01b610359565b90506102c86040518060400160405280600381526020017f67657400000000000000000000000000000000000000000000000000000000008152506040518060c00160405280608d81526020016116de608d91398361038a9092919063ffffffff16565b6103476040518060400160405280600481526020017f70617468000000000000000000000000000000000000000000000000000000008152506040518060400160405280600b81526020017f626c6f636b4e756d6265720000000000000000000000000000000000000000008152508361038a9092919063ffffffff16565b610353816008546103bd565b91505090565b610361610c26565b610369610c26565b610380858585846103f4909392919063ffffffff16565b9150509392505050565b6103a18284608001516104a490919063ffffffff16565b6103b88184608001516104a490919063ffffffff16565b505050565b60006103ec600360009054906101000a900473ffffffffffffffffffffffffffffffffffffffff1684846104c9565b905092915050565b6103fc610c26565b61040c8560800151610100610595565b508385600001818152505082856020019073ffffffffffffffffffffffffffffffffffffffff16908173ffffffffffffffffffffffffffffffffffffffff16815250508185604001907bffffffffffffffffffffffffffffffffffffffffffffffffffffffff191690817bffffffffffffffffffffffffffffffffffffffffffffffffffffffff191681525050849050949350505050565b6104b182600383516105ff565b6104c4818361078490919063ffffffff16565b505050565b60008060045490506001816104de9190611109565b6004819055506000634042994660e01b60008087600001513089604001518760018c608001516000015160405160240161051f989796959493929190610f3b565b604051602081830303815290604052907bffffffffffffffffffffffffffffffffffffffffffffffffffffffff19166020820180517bffffffffffffffffffffffffffffffffffffffffffffffffffffffff8381831617835250505050905061058a868386846107a6565b925050509392505050565b61059d610c93565b60006020836105ac91906114e5565b146105d8576020826105be91906114e5565b60206105ca919061132a565b826105d59190611109565b91505b81836020018181525050604051808452600081528281016020016040525082905092915050565b60178167ffffffffffffffff1611610636576106308160058460ff16901b60ff16178461094a90919063ffffffff16565b5061077f565b60ff8167ffffffffffffffff161161068c57610665601860058460ff16901b178461094a90919063ffffffff16565b506106868167ffffffffffffffff1660018561096a9092919063ffffffff16565b5061077e565b61ffff8167ffffffffffffffff16116106e3576106bc601960058460ff16901b178461094a90919063ffffffff16565b506106dd8167ffffffffffffffff1660028561096a9092919063ffffffff16565b5061077d565b63ffffffff8167ffffffffffffffff161161073c57610715601a60058460ff16901b178461094a90919063ffffffff16565b506107368167ffffffffffffffff1660048561096a9092919063ffffffff16565b5061077c565b610759601b60058460ff16901b178461094a90919063ffffffff16565b5061077a8167ffffffffffffffff1660088561096a9092919063ffffffff16565b505b5b5b5b505050565b61078c610c93565b61079e8384600001515184855161098c565b905092915050565b600030846040516020016107bb929190610f0f565b604051602081830303815290604052805190602001209050846005600083815260200190815260200160002060006101000a81548173ffffffffffffffffffffffffffffffffffffffff021916908373ffffffffffffffffffffffffffffffffffffffff160217905550807fb5e6e01e79f91267dc17b4e6314d5d4d03593d2ceee0fbb452b750bd70ea5af960405160405180910390a2600260009054906101000a900473ffffffffffffffffffffffffffffffffffffffff1673ffffffffffffffffffffffffffffffffffffffff16634000aea08685856040518463ffffffff1660e01b81526004016108b193929190610fc0565b602060405180830381600087803b1580156108cb57600080fd5b505af11580156108df573d6000803e3d6000fd5b505050506040513d601f19601f820116820180604052508101906109039190610d64565b610942576040517f08c379a00000000000000000000000000000000000000000000000000000000081526004016109399061103b565b60405180910390fd5b949350505050565b610952610c93565b6109628384600001515184610a7b565b905092915050565b610972610c93565b610983848560000151518585610ad2565b90509392505050565b610994610c93565b82518211156109a257600080fd5b846020015182856109b39190611109565b11156109e8576109e78560026109d8886020015188876109d39190611109565b610b60565b6109e291906112d0565b610b7c565b5b600080865180518760208301019350808887011115610a075787860182525b60208701925050505b60208410610a4e5780518252602082610a299190611109565b9150602081610a389190611109565b9050602084610a47919061132a565b9350610a10565b60006001856020036101000a03905080198251168184511681811785525050508692505050949350505050565b610a83610c93565b83602001518310610aa957610aa88460028660200151610aa391906112d0565b610b7c565b5b8351805160208583010184815381861415610ac5576001820183525b5050508390509392505050565b610ada610c93565b84602001518483610aeb9190611109565b1115610b1357610b128560028685610b039190611109565b610b0d91906112d0565b610b7c565b5b6000600183610100610b2591906111b2565b610b2f919061132a565b90508551838682010185831982511617815281518588011115610b525784870182525b505085915050949350505050565b600081831115610b7257829050610b76565b8190505b92915050565b600082600001519050610b8f8383610595565b50610b9a8382610784565b50505050565b828054610bac90611454565b90600052602060002090601f016020900481019282610bce5760008555610c15565b82601f10610be757805160ff1916838001178555610c15565b82800160010185558215610c15579182015b82811115610c14578251825591602001919060010190610bf9565b5b509050610c229190610cad565b5090565b6040518060a0016040528060008019168152602001600073ffffffffffffffffffffffffffffffffffffffff16815260200160007bffffffffffffffffffffffffffffffffffffffffffffffffffffffff1916815260200160008152602001610c8d610c93565b81525090565b604051806040016040528060608152602001600081525090565b5b80821115610cc6576000816000905550600101610cae565b5090565b6000610cdd610cd8846110a0565b61107b565b905082815260208101848484011115610cf957610cf86115d7565b5b610d04848285611412565b509392505050565b600081519050610d1b816116af565b92915050565b600081359050610d30816116c6565b92915050565b600082601f830112610d4b57610d4a6115d2565b5b8135610d5b848260208601610cca565b91505092915050565b600060208284031215610d7a57610d796115e1565b5b6000610d8884828501610d0c565b91505092915050565b60008060408385031215610da857610da76115e1565b5b6000610db685828601610d21565b925050602083013567ffffffffffffffff811115610dd757610dd66115dc565b5b610de385828601610d36565b9150509250929050565b610df68161135e565b82525050565b610e058161137c565b82525050565b610e1481611386565b82525050565b6000610e25826110d1565b610e2f81856110e7565b9350610e3f818560208601611421565b610e48816115e6565b840191505092915050565b610e64610e5f826113dc565b6114b7565b82525050565b6000610e75826110dc565b610e7f81856110f8565b9350610e8f818560208601611421565b610e98816115e6565b840191505092915050565b6000610eb06023836110f8565b9150610ebb82611611565b604082019050919050565b6000610ed36028836110f8565b9150610ede82611660565b604082019050919050565b610ef2816113d2565b82525050565b610f09610f04826113d2565b6114db565b82525050565b6000610f1b8285610e53565b601482019150610f2b8284610ef8565b6020820191508190509392505050565b600061010082019050610f51600083018b610ded565b610f5e602083018a610ee9565b610f6b6040830189610dfc565b610f786060830188610ded565b610f856080830187610e0b565b610f9260a0830186610ee9565b610f9f60c0830185610ee9565b81810360e0830152610fb18184610e1a565b90509998505050505050505050565b6000606082019050610fd56000830186610ded565b610fe26020830185610ee9565b8181036040830152610ff48184610e1a565b9050949350505050565b60006020820190506110136000830184610dfc565b92915050565b600060208201905081810360008301526110338184610e6a565b905092915050565b6000602082019050818103600083015261105481610ea3565b9050919050565b6000602082019050818103600083015261107481610ec6565b9050919050565b6000611085611096565b90506110918282611486565b919050565b6000604051905090565b600067ffffffffffffffff8211156110bb576110ba6115a3565b5b6110c4826115e6565b9050602081019050919050565b600081519050919050565b600081519050919050565b600082825260208201905092915050565b600082825260208201905092915050565b6000611114826113d2565b915061111f836113d2565b9250827fffffffffffffffffffffffffffffffffffffffffffffffffffffffffffffffff0382111561115457611153611516565b5b828201905092915050565b6000808291508390505b60018511156111a95780860481111561118557611184611516565b5b60018516156111945780820291505b80810290506111a285611604565b9450611169565b94509492505050565b60006111bd826113d2565b91506111c8836113d2565b92506111f57fffffffffffffffffffffffffffffffffffffffffffffffffffffffffffffffff84846111fd565b905092915050565b60008261120d57600190506112c9565b8161121b57600090506112c9565b8160018114611231576002811461123b5761126a565b60019150506112c9565b60ff84111561124d5761124c611516565b5b8360020a91508482111561126457611263611516565b5b506112c9565b5060208310610133831016604e8410600b841016171561129f5782820a90508381111561129a57611299611516565b5b6112c9565b6112ac848484600161115f565b925090508184048111156112c3576112c2611516565b5b81810290505b9392505050565b60006112db826113d2565b91506112e6836113d2565b9250817fffffffffffffffffffffffffffffffffffffffffffffffffffffffffffffffff048311821515161561131f5761131e611516565b5b828202905092915050565b6000611335826113d2565b9150611340836113d2565b92508282101561135357611352611516565b5b828203905092915050565b6000611369826113b2565b9050919050565b60008115159050919050565b6000819050919050565b60007fffffffff0000000000000000000000000000000000000000000000000000000082169050919050565b600073ffffffffffffffffffffffffffffffffffffffff82169050919050565b6000819050919050565b60006113e7826113ee565b9050919050565b60006113f982611400565b9050919050565b600061140b826113b2565b9050919050565b82818337600083830152505050565b60005b8381101561143f578082015181840152602081019050611424565b8381111561144e576000848401525b50505050565b6000600282049050600182168061146c57607f821691505b602082108114156114805761147f611574565b5b50919050565b61148f826115e6565b810181811067ffffffffffffffff821117156114ae576114ad6115a3565b5b80604052505050565b60006114c2826114c9565b9050919050565b60006114d4826115f7565b9050919050565b6000819050919050565b60006114f0826113d2565b91506114fb836113d2565b92508261150b5761150a611545565b5b828206905092915050565b7f4e487b7100000000000000000000000000000000000000000000000000000000600052601160045260246000fd5b7f4e487b7100000000000000000000000000000000000000000000000000000000600052601260045260246000fd5b7f4e487b7100000000000000000000000000000000000000000000000000000000600052602260045260246000fd5b7f4e487b7100000000000000000000000000000000000000000000000000000000600052604160045260246000fd5b600080fd5b600080fd5b600080fd5b600080fd5b6000601f19601f8301169050919050565b60008160601b9050919050565b60008160011c9050919050565b7f756e61626c6520746f207472616e73666572416e6443616c6c20746f206f726160008201527f636c650000000000000000000000000000000000000000000000000000000000602082015250565b7f536f75726365206d75737420626520746865206f7261636c65206f662074686560008201527f2072657175657374000000000000000000000000000000000000000000000000602082015250565b6116b881611370565b81146116c357600080fd5b50565b6116cf8161137c565b81146116da57600080fd5b5056fe68747470733a2f2f676973742e67697468756275736572636f6e74656e742e636f6d2f4268616b74693038372f66666435336138343038663130653263323238626234613231633731663530332f7261772f343131303461313130313232363734353761316137323366323262343665366133303838653562622f62797465732d6578616d706c652e6a736f6ea2646970667358221220256ba130c9b005ebffe87f0067ba0a67a65401904421f1ee10243a789b8ed99d64736f6c63430008070033","opcodes":"PUSH1 0x80 PUSH1 0x40 MSTORE PUSH1 0x1 PUSH1 0x4 SSTORE CALLVALUE DUP1 ISZERO PUSH2 0x15 JUMPI PUSH1 0x0 DUP1 REVERT JUMPDEST POP PUSH2 0x39 PUSH20 0x326C977E6EFC84E512BB9C30F76E30C160ED06FB PUSH2 0x97 PUSH1 0x20 SHL PUSH1 0x20 SHR JUMP JUMPDEST PUSH2 0x5C PUSH20 0x40193C8518BB267228FC409A613BDBD8EC5A97B3 PUSH2 0xDB PUSH1 0x20 SHL PUSH1 0x20 SHR JUMP JUMPDEST PUSH32 0x3764383061363338366566353433613361626235323831376636373037653362 PUSH1 0x7 DUP2 SWAP1 SSTORE POP PUSH8 0x16345785D8A0000 PUSH1 0x8 DUP2 SWAP1 SSTORE POP PUSH2 0x11F JUMP JUMPDEST DUP1 PUSH1 0x2 PUSH1 0x0 PUSH2 0x100 EXP DUP2 SLOAD DUP2 PUSH20 0xFFFFFFFFFFFFFFFFFFFFFFFFFFFFFFFFFFFFFFFF MUL NOT AND SWAP1 DUP4 PUSH20 0xFFFFFFFFFFFFFFFFFFFFFFFFFFFFFFFFFFFFFFFF AND MUL OR SWAP1 SSTORE POP POP JUMP JUMPDEST DUP1 PUSH1 0x3 PUSH1 0x0 PUSH2 0x100 EXP DUP2 SLOAD DUP2 PUSH20 0xFFFFFFFFFFFFFFFFFFFFFFFFFFFFFFFFFFFFFFFF MUL NOT AND SWAP1 DUP4 PUSH20 0xFFFFFFFFFFFFFFFFFFFFFFFFFFFFFFFFFFFFFFFF AND MUL OR SWAP1 SSTORE POP POP JUMP JUMPDEST PUSH2 0x17A0 DUP1 PUSH2 0x12E PUSH1 0x0 CODECOPY PUSH1 0x0 RETURN INVALID PUSH1 0x80 PUSH1 0x40 MSTORE CALLVALUE DUP1 ISZERO PUSH2 0x10 JUMPI PUSH1 0x0 DUP1 REVERT JUMPDEST POP PUSH1 0x4 CALLDATASIZE LT PUSH2 0x41 JUMPI PUSH1 0x0 CALLDATALOAD PUSH1 0xE0 SHR DUP1 PUSH4 0x37441996 EQ PUSH2 0x46 JUMPI DUP1 PUSH4 0x57E871E7 EQ PUSH2 0x62 JUMPI DUP1 PUSH4 0xC44BEE1E EQ PUSH2 0x80 JUMPI JUMPDEST PUSH1 0x0 DUP1 REVERT JUMPDEST PUSH2 0x60 PUSH1 0x4 DUP1 CALLDATASIZE SUB DUP2 ADD SWAP1 PUSH2 0x5B SWAP2 SWAP1 PUSH2 0xD91 JUMP JUMPDEST PUSH2 0x9E JUMP JUMPDEST STOP JUMPDEST PUSH2 0x6A PUSH2 0x1BF JUMP JUMPDEST PUSH1 0x40 MLOAD PUSH2 0x77 SWAP2 SWAP1 PUSH2 0x1019 JUMP JUMPDEST PUSH1 0x40 MLOAD DUP1 SWAP2 SUB SWAP1 RETURN JUMPDEST PUSH2 0x88 PUSH2 0x24D JUMP JUMPDEST PUSH1 0x40 MLOAD PUSH2 0x95 SWAP2 SWAP1 PUSH2 0xFFE JUMP JUMPDEST PUSH1 0x40 MLOAD DUP1 SWAP2 SUB SWAP1 RETURN JUMPDEST DUP2 PUSH1 0x5 PUSH1 0x0 DUP3 DUP2 MSTORE PUSH1 0x20 ADD SWAP1 DUP2 MSTORE PUSH1 0x20 ADD PUSH1 0x0 KECCAK256 PUSH1 0x0 SWAP1 SLOAD SWAP1 PUSH2 0x100 EXP SWAP1 DIV PUSH20 0xFFFFFFFFFFFFFFFFFFFFFFFFFFFFFFFFFFFFFFFF AND PUSH20 0xFFFFFFFFFFFFFFFFFFFFFFFFFFFFFFFFFFFFFFFF AND CALLER PUSH20 0xFFFFFFFFFFFFFFFFFFFFFFFFFFFFFFFFFFFFFFFF AND EQ PUSH2 0x140 JUMPI PUSH1 0x40 MLOAD PUSH32 0x8C379A000000000000000000000000000000000000000000000000000000000 DUP2 MSTORE PUSH1 0x4 ADD PUSH2 0x137 SWAP1 PUSH2 0x105B JUMP JUMPDEST PUSH1 0x40 MLOAD DUP1 SWAP2 SUB SWAP1 REVERT JUMPDEST PUSH1 0x5 PUSH1 0x0 DUP3 DUP2 MSTORE PUSH1 0x20 ADD SWAP1 DUP2 MSTORE PUSH1 0x20 ADD PUSH1 0x0 KECCAK256 PUSH1 0x0 PUSH2 0x100 EXP DUP2 SLOAD SWAP1 PUSH20 0xFFFFFFFFFFFFFFFFFFFFFFFFFFFFFFFFFFFFFFFF MUL NOT AND SWAP1 SSTORE DUP1 PUSH32 0x7CC135E0CEBB02C3480AE5D74D377283180A2601F8F644EDF7987B009316C63A PUSH1 0x40 MLOAD PUSH1 0x40 MLOAD DUP1 SWAP2 SUB SWAP1 LOG2 DUP2 PUSH1 0x6 SWAP1 DUP1 MLOAD SWAP1 PUSH1 0x20 ADD SWAP1 PUSH2 0x1B9 SWAP3 SWAP2 SWAP1 PUSH2 0xBA0 JUMP JUMPDEST POP POP POP POP JUMP JUMPDEST PUSH1 0x6 DUP1 SLOAD PUSH2 0x1CC SWAP1 PUSH2 0x1454 JUMP JUMPDEST DUP1 PUSH1 0x1F ADD PUSH1 0x20 DUP1 SWAP2 DIV MUL PUSH1 0x20 ADD PUSH1 0x40 MLOAD SWAP1 DUP2 ADD PUSH1 0x40 MSTORE DUP1 SWAP3 SWAP2 SWAP1 DUP2 DUP2 MSTORE PUSH1 0x20 ADD DUP3 DUP1 SLOAD PUSH2 0x1F8 SWAP1 PUSH2 0x1454 JUMP JUMPDEST DUP1 ISZERO PUSH2 0x245 JUMPI DUP1 PUSH1 0x1F LT PUSH2 0x21A JUMPI PUSH2 0x100 DUP1 DUP4 SLOAD DIV MUL DUP4 MSTORE SWAP2 PUSH1 0x20 ADD SWAP2 PUSH2 0x245 JUMP JUMPDEST DUP3 ADD SWAP2 SWAP1 PUSH1 0x0 MSTORE PUSH1 0x20 PUSH1 0x0 KECCAK256 SWAP1 JUMPDEST DUP2 SLOAD DUP2 MSTORE SWAP1 PUSH1 0x1 ADD SWAP1 PUSH1 0x20 ADD DUP1 DUP4 GT PUSH2 0x228 JUMPI DUP3 SWAP1 SUB PUSH1 0x1F AND DUP3 ADD SWAP2 JUMPDEST POP POP POP POP POP DUP2 JUMP JUMPDEST PUSH1 0x0 DUP1 PUSH2 0x264 PUSH1 0x7 SLOAD ADDRESS PUSH4 0x37441996 PUSH1 0xE0 SHL PUSH2 0x359 JUMP JUMPDEST SWAP1 POP PUSH2 0x2C8 PUSH1 0x40 MLOAD DUP1 PUSH1 0x40 ADD PUSH1 0x40 MSTORE DUP1 PUSH1 0x3 DUP2 MSTORE PUSH1 0x20 ADD PUSH32 0x6765740000000000000000000000000000000000000000000000000000000000 DUP2 MSTORE POP PUSH1 0x40 MLOAD DUP1 PUSH1 0xC0 ADD PUSH1 0x40 MSTORE DUP1 PUSH1 0x8D DUP2 MSTORE PUSH1 0x20 ADD PUSH2 0x16DE PUSH1 0x8D SWAP2 CODECOPY DUP4 PUSH2 0x38A SWAP1 SWAP3 SWAP2 SWAP1 PUSH4 0xFFFFFFFF AND JUMP JUMPDEST PUSH2 0x347 PUSH1 0x40 MLOAD DUP1 PUSH1 0x40 ADD PUSH1 0x40 MSTORE DUP1 PUSH1 0x4 DUP2 MSTORE PUSH1 0x20 ADD PUSH32 0x7061746800000000000000000000000000000000000000000000000000000000 DUP2 MSTORE POP PUSH1 0x40 MLOAD DUP1 PUSH1 0x40 ADD PUSH1 0x40 MSTORE DUP1 PUSH1 0xB DUP2 MSTORE PUSH1 0x20 ADD PUSH32 0x626C6F636B4E756D626572000000000000000000000000000000000000000000 DUP2 MSTORE POP DUP4 PUSH2 0x38A SWAP1 SWAP3 SWAP2 SWAP1 PUSH4 0xFFFFFFFF AND JUMP JUMPDEST PUSH2 0x353 DUP2 PUSH1 0x8 SLOAD PUSH2 0x3BD JUMP JUMPDEST SWAP2 POP POP SWAP1 JUMP JUMPDEST PUSH2 0x361 PUSH2 0xC26 JUMP JUMPDEST PUSH2 0x369 PUSH2 0xC26 JUMP JUMPDEST PUSH2 0x380 DUP6 DUP6 DUP6 DUP5 PUSH2 0x3F4 SWAP1 SWAP4 SWAP3 SWAP2 SWAP1 PUSH4 0xFFFFFFFF AND JUMP JUMPDEST SWAP2 POP POP SWAP4 SWAP3 POP POP POP JUMP JUMPDEST PUSH2 0x3A1 DUP3 DUP5 PUSH1 0x80 ADD MLOAD PUSH2 0x4A4 SWAP1 SWAP2 SWAP1 PUSH4 0xFFFFFFFF AND JUMP JUMPDEST PUSH2 0x3B8 DUP2 DUP5 PUSH1 0x80 ADD MLOAD PUSH2 0x4A4 SWAP1 SWAP2 SWAP1 PUSH4 0xFFFFFFFF AND JUMP JUMPDEST POP POP POP JUMP JUMPDEST PUSH1 0x0 PUSH2 0x3EC PUSH1 0x3 PUSH1 0x0 SWAP1 SLOAD SWAP1 PUSH2 0x100 EXP SWAP1 DIV PUSH20 0xFFFFFFFFFFFFFFFFFFFFFFFFFFFFFFFFFFFFFFFF AND DUP5 DUP5 PUSH2 0x4C9 JUMP JUMPDEST SWAP1 POP SWAP3 SWAP2 POP POP JUMP JUMPDEST PUSH2 0x3FC PUSH2 0xC26 JUMP JUMPDEST PUSH2 0x40C DUP6 PUSH1 0x80 ADD MLOAD PUSH2 0x100 PUSH2 0x595 JUMP JUMPDEST POP DUP4 DUP6 PUSH1 0x0 ADD DUP2 DUP2 MSTORE POP POP DUP3 DUP6 PUSH1 0x20 ADD SWAP1 PUSH20 0xFFFFFFFFFFFFFFFFFFFFFFFFFFFFFFFFFFFFFFFF AND SWAP1 DUP2 PUSH20 0xFFFFFFFFFFFFFFFFFFFFFFFFFFFFFFFFFFFFFFFF AND DUP2 MSTORE POP POP DUP2 DUP6 PUSH1 0x40 ADD SWAP1 PUSH28 0xFFFFFFFFFFFFFFFFFFFFFFFFFFFFFFFFFFFFFFFFFFFFFFFFFFFFFFFF NOT AND SWAP1 DUP2 PUSH28 0xFFFFFFFFFFFFFFFFFFFFFFFFFFFFFFFFFFFFFFFFFFFFFFFFFFFFFFFF NOT AND DUP2 MSTORE POP POP DUP5 SWAP1 POP SWAP5 SWAP4 POP POP POP POP JUMP JUMPDEST PUSH2 0x4B1 DUP3 PUSH1 0x3 DUP4 MLOAD PUSH2 0x5FF JUMP JUMPDEST PUSH2 0x4C4 DUP2 DUP4 PUSH2 0x784 SWAP1 SWAP2 SWAP1 PUSH4 0xFFFFFFFF AND JUMP JUMPDEST POP POP POP JUMP JUMPDEST PUSH1 0x0 DUP1 PUSH1 0x4 SLOAD SWAP1 POP PUSH1 0x1 DUP2 PUSH2 0x4DE SWAP2 SWAP1 PUSH2 0x1109 JUMP JUMPDEST PUSH1 0x4 DUP2 SWAP1 SSTORE POP PUSH1 0x0 PUSH4 0x40429946 PUSH1 0xE0 SHL PUSH1 0x0 DUP1 DUP8 PUSH1 0x0 ADD MLOAD ADDRESS DUP10 PUSH1 0x40 ADD MLOAD DUP8 PUSH1 0x1 DUP13 PUSH1 0x80 ADD MLOAD PUSH1 0x0 ADD MLOAD PUSH1 0x40 MLOAD PUSH1 0x24 ADD PUSH2 0x51F SWAP9 SWAP8 SWAP7 SWAP6 SWAP5 SWAP4 SWAP3 SWAP2 SWAP1 PUSH2 0xF3B JUMP JUMPDEST PUSH1 0x40 MLOAD PUSH1 0x20 DUP2 DUP4 SUB SUB DUP2 MSTORE SWAP1 PUSH1 0x40 MSTORE SWAP1 PUSH28 0xFFFFFFFFFFFFFFFFFFFFFFFFFFFFFFFFFFFFFFFFFFFFFFFFFFFFFFFF NOT AND PUSH1 0x20 DUP3 ADD DUP1 MLOAD PUSH28 0xFFFFFFFFFFFFFFFFFFFFFFFFFFFFFFFFFFFFFFFFFFFFFFFFFFFFFFFF DUP4 DUP2 DUP4 AND OR DUP4 MSTORE POP POP POP POP SWAP1 POP PUSH2 0x58A DUP7 DUP4 DUP7 DUP5 PUSH2 0x7A6 JUMP JUMPDEST SWAP3 POP POP POP SWAP4 SWAP3 POP POP POP JUMP JUMPDEST PUSH2 0x59D PUSH2 0xC93 JUMP JUMPDEST PUSH1 0x0 PUSH1 0x20 DUP4 PUSH2 0x5AC SWAP2 SWAP1 PUSH2 0x14E5 JUMP JUMPDEST EQ PUSH2 0x5D8 JUMPI PUSH1 0x20 DUP3 PUSH2 0x5BE SWAP2 SWAP1 PUSH2 0x14E5 JUMP JUMPDEST PUSH1 0x20 PUSH2 0x5CA SWAP2 SWAP1 PUSH2 0x132A JUMP JUMPDEST DUP3 PUSH2 0x5D5 SWAP2 SWAP1 PUSH2 0x1109 JUMP JUMPDEST SWAP2 POP JUMPDEST DUP2 DUP4 PUSH1 0x20 ADD DUP2 DUP2 MSTORE POP POP PUSH1 0x40 MLOAD DUP1 DUP5 MSTORE PUSH1 0x0 DUP2 MSTORE DUP3 DUP2 ADD PUSH1 0x20 ADD PUSH1 0x40 MSTORE POP DUP3 SWAP1 POP SWAP3 SWAP2 POP POP JUMP JUMPDEST PUSH1 0x17 DUP2 PUSH8 0xFFFFFFFFFFFFFFFF AND GT PUSH2 0x636 JUMPI PUSH2 0x630 DUP2 PUSH1 0x5 DUP5 PUSH1 0xFF AND SWAP1 SHL PUSH1 0xFF AND OR DUP5 PUSH2 0x94A SWAP1 SWAP2 SWAP1 PUSH4 0xFFFFFFFF AND JUMP JUMPDEST POP PUSH2 0x77F JUMP JUMPDEST PUSH1 0xFF DUP2 PUSH8 0xFFFFFFFFFFFFFFFF AND GT PUSH2 0x68C JUMPI PUSH2 0x665 PUSH1 0x18 PUSH1 0x5 DUP5 PUSH1 0xFF AND SWAP1 SHL OR DUP5 PUSH2 0x94A SWAP1 SWAP2 SWAP1 PUSH4 0xFFFFFFFF AND JUMP JUMPDEST POP PUSH2 0x686 DUP2 PUSH8 0xFFFFFFFFFFFFFFFF AND PUSH1 0x1 DUP6 PUSH2 0x96A SWAP1 SWAP3 SWAP2 SWAP1 PUSH4 0xFFFFFFFF AND JUMP JUMPDEST POP PUSH2 0x77E JUMP JUMPDEST PUSH2 0xFFFF DUP2 PUSH8 0xFFFFFFFFFFFFFFFF AND GT PUSH2 0x6E3 JUMPI PUSH2 0x6BC PUSH1 0x19 PUSH1 0x5 DUP5 PUSH1 0xFF AND SWAP1 SHL OR DUP5 PUSH2 0x94A SWAP1 SWAP2 SWAP1 PUSH4 0xFFFFFFFF AND JUMP JUMPDEST POP PUSH2 0x6DD DUP2 PUSH8 0xFFFFFFFFFFFFFFFF AND PUSH1 0x2 DUP6 PUSH2 0x96A SWAP1 SWAP3 SWAP2 SWAP1 PUSH4 0xFFFFFFFF AND JUMP JUMPDEST POP PUSH2 0x77D JUMP JUMPDEST PUSH4 0xFFFFFFFF DUP2 PUSH8 0xFFFFFFFFFFFFFFFF AND GT PUSH2 0x73C JUMPI PUSH2 0x715 PUSH1 0x1A PUSH1 0x5 DUP5 PUSH1 0xFF AND SWAP1 SHL OR DUP5 PUSH2 0x94A SWAP1 SWAP2 SWAP1 PUSH4 0xFFFFFFFF AND JUMP JUMPDEST POP PUSH2 0x736 DUP2 PUSH8 0xFFFFFFFFFFFFFFFF AND PUSH1 0x4 DUP6 PUSH2 0x96A SWAP1 SWAP3 SWAP2 SWAP1 PUSH4 0xFFFFFFFF AND JUMP JUMPDEST POP PUSH2 0x77C JUMP JUMPDEST PUSH2 0x759 PUSH1 0x1B PUSH1 0x5 DUP5 PUSH1 0xFF AND SWAP1 SHL OR DUP5 PUSH2 0x94A SWAP1 SWAP2 SWAP1 PUSH4 0xFFFFFFFF AND JUMP JUMPDEST POP PUSH2 0x77A DUP2 PUSH8 0xFFFFFFFFFFFFFFFF AND PUSH1 0x8 DUP6 PUSH2 0x96A SWAP1 SWAP3 SWAP2 SWAP1 PUSH4 0xFFFFFFFF AND JUMP JUMPDEST POP JUMPDEST JUMPDEST JUMPDEST JUMPDEST POP POP POP JUMP JUMPDEST PUSH2 0x78C PUSH2 0xC93 JUMP JUMPDEST PUSH2 0x79E DUP4 DUP5 PUSH1 0x0 ADD MLOAD MLOAD DUP5 DUP6 MLOAD PUSH2 0x98C JUMP JUMPDEST SWAP1 POP SWAP3 SWAP2 POP POP JUMP JUMPDEST PUSH1 0x0 ADDRESS DUP5 PUSH1 0x40 MLOAD PUSH1 0x20 ADD PUSH2 0x7BB SWAP3 SWAP2 SWAP1 PUSH2 0xF0F JUMP JUMPDEST PUSH1 0x40 MLOAD PUSH1 0x20 DUP2 DUP4 SUB SUB DUP2 MSTORE SWAP1 PUSH1 0x40 MSTORE DUP1 MLOAD SWAP1 PUSH1 0x20 ADD KECCAK256 SWAP1 POP DUP5 PUSH1 0x5 PUSH1 0x0 DUP4 DUP2 MSTORE PUSH1 0x20 ADD SWAP1 DUP2 MSTORE PUSH1 0x20 ADD PUSH1 0x0 KECCAK256 PUSH1 0x0 PUSH2 0x100 EXP DUP2 SLOAD DUP2 PUSH20 0xFFFFFFFFFFFFFFFFFFFFFFFFFFFFFFFFFFFFFFFF MUL NOT AND SWAP1 DUP4 PUSH20 0xFFFFFFFFFFFFFFFFFFFFFFFFFFFFFFFFFFFFFFFF AND MUL OR SWAP1 SSTORE POP DUP1 PUSH32 0xB5E6E01E79F91267DC17B4E6314D5D4D03593D2CEEE0FBB452B750BD70EA5AF9 PUSH1 0x40 MLOAD PUSH1 0x40 MLOAD DUP1 SWAP2 SUB SWAP1 LOG2 PUSH1 0x2 PUSH1 0x0 SWAP1 SLOAD SWAP1 PUSH2 0x100 EXP SWAP1 DIV PUSH20 0xFFFFFFFFFFFFFFFFFFFFFFFFFFFFFFFFFFFFFFFF AND PUSH20 0xFFFFFFFFFFFFFFFFFFFFFFFFFFFFFFFFFFFFFFFF AND PUSH4 0x4000AEA0 DUP7 DUP6 DUP6 PUSH1 0x40 MLOAD DUP5 PUSH4 0xFFFFFFFF AND PUSH1 0xE0 SHL DUP2 MSTORE PUSH1 0x4 ADD PUSH2 0x8B1 SWAP4 SWAP3 SWAP2 SWAP1 PUSH2 0xFC0 JUMP JUMPDEST PUSH1 0x20 PUSH1 0x40 MLOAD DUP1 DUP4 SUB DUP2 PUSH1 0x0 DUP8 DUP1 EXTCODESIZE ISZERO DUP1 ISZERO PUSH2 0x8CB JUMPI PUSH1 0x0 DUP1 REVERT JUMPDEST POP GAS CALL ISZERO DUP1 ISZERO PUSH2 0x8DF JUMPI RETURNDATASIZE PUSH1 0x0 DUP1 RETURNDATACOPY RETURNDATASIZE PUSH1 0x0 REVERT JUMPDEST POP POP POP POP PUSH1 0x40 MLOAD RETURNDATASIZE PUSH1 0x1F NOT PUSH1 0x1F DUP3 ADD AND DUP3 ADD DUP1 PUSH1 0x40 MSTORE POP DUP2 ADD SWAP1 PUSH2 0x903 SWAP2 SWAP1 PUSH2 0xD64 JUMP JUMPDEST PUSH2 0x942 JUMPI PUSH1 0x40 MLOAD PUSH32 0x8C379A000000000000000000000000000000000000000000000000000000000 DUP2 MSTORE PUSH1 0x4 ADD PUSH2 0x939 SWAP1 PUSH2 0x103B JUMP JUMPDEST PUSH1 0x40 MLOAD DUP1 SWAP2 SUB SWAP1 REVERT JUMPDEST SWAP5 SWAP4 POP POP POP POP JUMP JUMPDEST PUSH2 0x952 PUSH2 0xC93 JUMP JUMPDEST PUSH2 0x962 DUP4 DUP5 PUSH1 0x0 ADD MLOAD MLOAD DUP5 PUSH2 0xA7B JUMP JUMPDEST SWAP1 POP SWAP3 SWAP2 POP POP JUMP JUMPDEST PUSH2 0x972 PUSH2 0xC93 JUMP JUMPDEST PUSH2 0x983 DUP5 DUP6 PUSH1 0x0 ADD MLOAD MLOAD DUP6 DUP6 PUSH2 0xAD2 JUMP JUMPDEST SWAP1 POP SWAP4 SWAP3 POP POP POP JUMP JUMPDEST PUSH2 0x994 PUSH2 0xC93 JUMP JUMPDEST DUP3 MLOAD DUP3 GT ISZERO PUSH2 0x9A2 JUMPI PUSH1 0x0 DUP1 REVERT JUMPDEST DUP5 PUSH1 0x20 ADD MLOAD DUP3 DUP6 PUSH2 0x9B3 SWAP2 SWAP1 PUSH2 0x1109 JUMP JUMPDEST GT ISZERO PUSH2 0x9E8 JUMPI PUSH2 0x9E7 DUP6 PUSH1 0x2 PUSH2 0x9D8 DUP9 PUSH1 0x20 ADD MLOAD DUP9 DUP8 PUSH2 0x9D3 SWAP2 SWAP1 PUSH2 0x1109 JUMP JUMPDEST PUSH2 0xB60 JUMP JUMPDEST PUSH2 0x9E2 SWAP2 SWAP1 PUSH2 0x12D0 JUMP JUMPDEST PUSH2 0xB7C JUMP JUMPDEST JUMPDEST PUSH1 0x0 DUP1 DUP7 MLOAD DUP1 MLOAD DUP8 PUSH1 0x20 DUP4 ADD ADD SWAP4 POP DUP1 DUP9 DUP8 ADD GT ISZERO PUSH2 0xA07 JUMPI DUP8 DUP7 ADD DUP3 MSTORE JUMPDEST PUSH1 0x20 DUP8 ADD SWAP3 POP POP POP JUMPDEST PUSH1 0x20 DUP5 LT PUSH2 0xA4E JUMPI DUP1 MLOAD DUP3 MSTORE PUSH1 0x20 DUP3 PUSH2 0xA29 SWAP2 SWAP1 PUSH2 0x1109 JUMP JUMPDEST SWAP2 POP PUSH1 0x20 DUP2 PUSH2 0xA38 SWAP2 SWAP1 PUSH2 0x1109 JUMP JUMPDEST SWAP1 POP PUSH1 0x20 DUP5 PUSH2 0xA47 SWAP2 SWAP1 PUSH2 0x132A JUMP JUMPDEST SWAP4 POP PUSH2 0xA10 JUMP JUMPDEST PUSH1 0x0 PUSH1 0x1 DUP6 PUSH1 0x20 SUB PUSH2 0x100 EXP SUB SWAP1 POP DUP1 NOT DUP3 MLOAD AND DUP2 DUP5 MLOAD AND DUP2 DUP2 OR DUP6 MSTORE POP POP POP DUP7 SWAP3 POP POP POP SWAP5 SWAP4 POP POP POP POP JUMP JUMPDEST PUSH2 0xA83 PUSH2 0xC93 JUMP JUMPDEST DUP4 PUSH1 0x20 ADD MLOAD DUP4 LT PUSH2 0xAA9 JUMPI PUSH2 0xAA8 DUP5 PUSH1 0x2 DUP7 PUSH1 0x20 ADD MLOAD PUSH2 0xAA3 SWAP2 SWAP1 PUSH2 0x12D0 JUMP JUMPDEST PUSH2 0xB7C JUMP JUMPDEST JUMPDEST DUP4 MLOAD DUP1 MLOAD PUSH1 0x20 DUP6 DUP4 ADD ADD DUP5 DUP2 MSTORE8 DUP2 DUP7 EQ ISZERO PUSH2 0xAC5 JUMPI PUSH1 0x1 DUP3 ADD DUP4 MSTORE JUMPDEST POP POP POP DUP4 SWAP1 POP SWAP4 SWAP3 POP POP POP JUMP JUMPDEST PUSH2 0xADA PUSH2 0xC93 JUMP JUMPDEST DUP5 PUSH1 0x20 ADD MLOAD DUP5 DUP4 PUSH2 0xAEB SWAP2 SWAP1 PUSH2 0x1109 JUMP JUMPDEST GT ISZERO PUSH2 0xB13 JUMPI PUSH2 0xB12 DUP6 PUSH1 0x2 DUP7 DUP6 PUSH2 0xB03 SWAP2 SWAP1 PUSH2 0x1109 JUMP JUMPDEST PUSH2 0xB0D SWAP2 SWAP1 PUSH2 0x12D0 JUMP JUMPDEST PUSH2 0xB7C JUMP JUMPDEST JUMPDEST PUSH1 0x0 PUSH1 0x1 DUP4 PUSH2 0x100 PUSH2 0xB25 SWAP2 SWAP1 PUSH2 0x11B2 JUMP JUMPDEST PUSH2 0xB2F SWAP2 SWAP1 PUSH2 0x132A JUMP JUMPDEST SWAP1 POP DUP6 MLOAD DUP4 DUP7 DUP3 ADD ADD DUP6 DUP4 NOT DUP3 MLOAD AND OR DUP2 MSTORE DUP2 MLOAD DUP6 DUP9 ADD GT ISZERO PUSH2 0xB52 JUMPI DUP5 DUP8 ADD DUP3 MSTORE JUMPDEST POP POP DUP6 SWAP2 POP POP SWAP5 SWAP4 POP POP POP POP JUMP JUMPDEST PUSH1 0x0 DUP2 DUP4 GT ISZERO PUSH2 0xB72 JUMPI DUP3 SWAP1 POP PUSH2 0xB76 JUMP JUMPDEST DUP2 SWAP1 POP JUMPDEST SWAP3 SWAP2 POP POP JUMP JUMPDEST PUSH1 0x0 DUP3 PUSH1 0x0 ADD MLOAD SWAP1 POP PUSH2 0xB8F DUP4 DUP4 PUSH2 0x595 JUMP JUMPDEST POP PUSH2 0xB9A DUP4 DUP3 PUSH2 0x784 JUMP JUMPDEST POP POP POP POP JUMP JUMPDEST DUP3 DUP1 SLOAD PUSH2 0xBAC SWAP1 PUSH2 0x1454 JUMP JUMPDEST SWAP1 PUSH1 0x0 MSTORE PUSH1 0x20 PUSH1 0x0 KECCAK256 SWAP1 PUSH1 0x1F ADD PUSH1 0x20 SWAP1 DIV DUP2 ADD SWAP3 DUP3 PUSH2 0xBCE JUMPI PUSH1 0x0 DUP6 SSTORE PUSH2 0xC15 JUMP JUMPDEST DUP3 PUSH1 0x1F LT PUSH2 0xBE7 JUMPI DUP1 MLOAD PUSH1 0xFF NOT AND DUP4 DUP1 ADD OR DUP6 SSTORE PUSH2 0xC15 JUMP JUMPDEST DUP3 DUP1 ADD PUSH1 0x1 ADD DUP6 SSTORE DUP3 ISZERO PUSH2 0xC15 JUMPI SWAP2 DUP3 ADD JUMPDEST DUP3 DUP2 GT ISZERO PUSH2 0xC14 JUMPI DUP3 MLOAD DUP3 SSTORE SWAP2 PUSH1 0x20 ADD SWAP2 SWAP1 PUSH1 0x1 ADD SWAP1 PUSH2 0xBF9 JUMP JUMPDEST JUMPDEST POP SWAP1 POP PUSH2 0xC22 SWAP2 SWAP1 PUSH2 0xCAD JUMP JUMPDEST POP SWAP1 JUMP JUMPDEST PUSH1 0x40 MLOAD DUP1 PUSH1 0xA0 ADD PUSH1 0x40 MSTORE DUP1 PUSH1 0x0 DUP1 NOT AND DUP2 MSTORE PUSH1 0x20 ADD PUSH1 0x0 PUSH20 0xFFFFFFFFFFFFFFFFFFFFFFFFFFFFFFFFFFFFFFFF AND DUP2 MSTORE PUSH1 0x20 ADD PUSH1 0x0 PUSH28 0xFFFFFFFFFFFFFFFFFFFFFFFFFFFFFFFFFFFFFFFFFFFFFFFFFFFFFFFF NOT AND DUP2 MSTORE PUSH1 0x20 ADD PUSH1 0x0 DUP2 MSTORE PUSH1 0x20 ADD PUSH2 0xC8D PUSH2 0xC93 JUMP JUMPDEST DUP2 MSTORE POP SWAP1 JUMP JUMPDEST PUSH1 0x40 MLOAD DUP1 PUSH1 0x40 ADD PUSH1 0x40 MSTORE DUP1 PUSH1 0x60 DUP2 MSTORE PUSH1 0x20 ADD PUSH1 0x0 DUP2 MSTORE POP SWAP1 JUMP JUMPDEST JUMPDEST DUP1 DUP3 GT ISZERO PUSH2 0xCC6 JUMPI PUSH1 0x0 DUP2 PUSH1 0x0 SWAP1 SSTORE POP PUSH1 0x1 ADD PUSH2 0xCAE JUMP JUMPDEST POP SWAP1 JUMP JUMPDEST PUSH1 0x0 PUSH2 0xCDD PUSH2 0xCD8 DUP5 PUSH2 0x10A0 JUMP JUMPDEST PUSH2 0x107B JUMP JUMPDEST SWAP1 POP DUP3 DUP2 MSTORE PUSH1 0x20 DUP2 ADD DUP5 DUP5 DUP5 ADD GT ISZERO PUSH2 0xCF9 JUMPI PUSH2 0xCF8 PUSH2 0x15D7 JUMP JUMPDEST JUMPDEST PUSH2 0xD04 DUP5 DUP3 DUP6 PUSH2 0x1412 JUMP JUMPDEST POP SWAP4 SWAP3 POP POP POP JUMP JUMPDEST PUSH1 0x0 DUP2 MLOAD SWAP1 POP PUSH2 0xD1B DUP2 PUSH2 0x16AF JUMP JUMPDEST SWAP3 SWAP2 POP POP JUMP JUMPDEST PUSH1 0x0 DUP2 CALLDATALOAD SWAP1 POP PUSH2 0xD30 DUP2 PUSH2 0x16C6 JUMP JUMPDEST SWAP3 SWAP2 POP POP JUMP JUMPDEST PUSH1 0x0 DUP3 PUSH1 0x1F DUP4 ADD SLT PUSH2 0xD4B JUMPI PUSH2 0xD4A PUSH2 0x15D2 JUMP JUMPDEST JUMPDEST DUP2 CALLDATALOAD PUSH2 0xD5B DUP5 DUP3 PUSH1 0x20 DUP7 ADD PUSH2 0xCCA JUMP JUMPDEST SWAP2 POP POP SWAP3 SWAP2 POP POP JUMP JUMPDEST PUSH1 0x0 PUSH1 0x20 DUP3 DUP5 SUB SLT ISZERO PUSH2 0xD7A JUMPI PUSH2 0xD79 PUSH2 0x15E1 JUMP JUMPDEST JUMPDEST PUSH1 0x0 PUSH2 0xD88 DUP5 DUP3 DUP6 ADD PUSH2 0xD0C JUMP JUMPDEST SWAP2 POP POP SWAP3 SWAP2 POP POP JUMP JUMPDEST PUSH1 0x0 DUP1 PUSH1 0x40 DUP4 DUP6 SUB SLT ISZERO PUSH2 0xDA8 JUMPI PUSH2 0xDA7 PUSH2 0x15E1 JUMP JUMPDEST JUMPDEST PUSH1 0x0 PUSH2 0xDB6 DUP6 DUP3 DUP7 ADD PUSH2 0xD21 JUMP JUMPDEST SWAP3 POP POP PUSH1 0x20 DUP4 ADD CALLDATALOAD PUSH8 0xFFFFFFFFFFFFFFFF DUP2 GT ISZERO PUSH2 0xDD7 JUMPI PUSH2 0xDD6 PUSH2 0x15DC JUMP JUMPDEST JUMPDEST PUSH2 0xDE3 DUP6 DUP3 DUP7 ADD PUSH2 0xD36 JUMP JUMPDEST SWAP2 POP POP SWAP3 POP SWAP3 SWAP1 POP JUMP JUMPDEST PUSH2 0xDF6 DUP2 PUSH2 0x135E JUMP JUMPDEST DUP3 MSTORE POP POP JUMP JUMPDEST PUSH2 0xE05 DUP2 PUSH2 0x137C JUMP JUMPDEST DUP3 MSTORE POP POP JUMP JUMPDEST PUSH2 0xE14 DUP2 PUSH2 0x1386 JUMP JUMPDEST DUP3 MSTORE POP POP JUMP JUMPDEST PUSH1 0x0 PUSH2 0xE25 DUP3 PUSH2 0x10D1 JUMP JUMPDEST PUSH2 0xE2F DUP2 DUP6 PUSH2 0x10E7 JUMP JUMPDEST SWAP4 POP PUSH2 0xE3F DUP2 DUP6 PUSH1 0x20 DUP7 ADD PUSH2 0x1421 JUMP JUMPDEST PUSH2 0xE48 DUP2 PUSH2 0x15E6 JUMP JUMPDEST DUP5 ADD SWAP2 POP POP SWAP3 SWAP2 POP POP JUMP JUMPDEST PUSH2 0xE64 PUSH2 0xE5F DUP3 PUSH2 0x13DC JUMP JUMPDEST PUSH2 0x14B7 JUMP JUMPDEST DUP3 MSTORE POP POP JUMP JUMPDEST PUSH1 0x0 PUSH2 0xE75 DUP3 PUSH2 0x10DC JUMP JUMPDEST PUSH2 0xE7F DUP2 DUP6 PUSH2 0x10F8 JUMP JUMPDEST SWAP4 POP PUSH2 0xE8F DUP2 DUP6 PUSH1 0x20 DUP7 ADD PUSH2 0x1421 JUMP JUMPDEST PUSH2 0xE98 DUP2 PUSH2 0x15E6 JUMP JUMPDEST DUP5 ADD SWAP2 POP POP SWAP3 SWAP2 POP POP JUMP JUMPDEST PUSH1 0x0 PUSH2 0xEB0 PUSH1 0x23 DUP4 PUSH2 0x10F8 JUMP JUMPDEST SWAP2 POP PUSH2 0xEBB DUP3 PUSH2 0x1611 JUMP JUMPDEST PUSH1 0x40 DUP3 ADD SWAP1 POP SWAP2 SWAP1 POP JUMP JUMPDEST PUSH1 0x0 PUSH2 0xED3 PUSH1 0x28 DUP4 PUSH2 0x10F8 JUMP JUMPDEST SWAP2 POP PUSH2 0xEDE DUP3 PUSH2 0x1660 JUMP JUMPDEST PUSH1 0x40 DUP3 ADD SWAP1 POP SWAP2 SWAP1 POP JUMP JUMPDEST PUSH2 0xEF2 DUP2 PUSH2 0x13D2 JUMP JUMPDEST DUP3 MSTORE POP POP JUMP JUMPDEST PUSH2 0xF09 PUSH2 0xF04 DUP3 PUSH2 0x13D2 JUMP JUMPDEST PUSH2 0x14DB JUMP JUMPDEST DUP3 MSTORE POP POP JUMP JUMPDEST PUSH1 0x0 PUSH2 0xF1B DUP3 DUP6 PUSH2 0xE53 JUMP JUMPDEST PUSH1 0x14 DUP3 ADD SWAP2 POP PUSH2 0xF2B DUP3 DUP5 PUSH2 0xEF8 JUMP JUMPDEST PUSH1 0x20 DUP3 ADD SWAP2 POP DUP2 SWAP1 POP SWAP4 SWAP3 POP POP POP JUMP JUMPDEST PUSH1 0x0 PUSH2 0x100 DUP3 ADD SWAP1 POP PUSH2 0xF51 PUSH1 0x0 DUP4 ADD DUP12 PUSH2 0xDED JUMP JUMPDEST PUSH2 0xF5E PUSH1 0x20 DUP4 ADD DUP11 PUSH2 0xEE9 JUMP JUMPDEST PUSH2 0xF6B PUSH1 0x40 DUP4 ADD DUP10 PUSH2 0xDFC JUMP JUMPDEST PUSH2 0xF78 PUSH1 0x60 DUP4 ADD DUP9 PUSH2 0xDED JUMP JUMPDEST PUSH2 0xF85 PUSH1 0x80 DUP4 ADD DUP8 PUSH2 0xE0B JUMP JUMPDEST PUSH2 0xF92 PUSH1 0xA0 DUP4 ADD DUP7 PUSH2 0xEE9 JUMP JUMPDEST PUSH2 0xF9F PUSH1 0xC0 DUP4 ADD DUP6 PUSH2 0xEE9 JUMP JUMPDEST DUP2 DUP2 SUB PUSH1 0xE0 DUP4 ADD MSTORE PUSH2 0xFB1 DUP2 DUP5 PUSH2 0xE1A JUMP JUMPDEST SWAP1 POP SWAP10 SWAP9 POP POP POP POP POP POP POP POP POP JUMP JUMPDEST PUSH1 0x0 PUSH1 0x60 DUP3 ADD SWAP1 POP PUSH2 0xFD5 PUSH1 0x0 DUP4 ADD DUP7 PUSH2 0xDED JUMP JUMPDEST PUSH2 0xFE2 PUSH1 0x20 DUP4 ADD DUP6 PUSH2 0xEE9 JUMP JUMPDEST DUP2 DUP2 SUB PUSH1 0x40 DUP4 ADD MSTORE PUSH2 0xFF4 DUP2 DUP5 PUSH2 0xE1A JUMP JUMPDEST SWAP1 POP SWAP5 SWAP4 POP POP POP POP JUMP JUMPDEST PUSH1 0x0 PUSH1 0x20 DUP3 ADD SWAP1 POP PUSH2 0x1013 PUSH1 0x0 DUP4 ADD DUP5 PUSH2 0xDFC JUMP JUMPDEST SWAP3 SWAP2 POP POP JUMP JUMPDEST PUSH1 0x0 PUSH1 0x20 DUP3 ADD SWAP1 POP DUP2 DUP2 SUB PUSH1 0x0 DUP4 ADD MSTORE PUSH2 0x1033 DUP2 DUP5 PUSH2 0xE6A JUMP JUMPDEST SWAP1 POP SWAP3 SWAP2 POP POP JUMP JUMPDEST PUSH1 0x0 PUSH1 0x20 DUP3 ADD SWAP1 POP DUP2 DUP2 SUB PUSH1 0x0 DUP4 ADD MSTORE PUSH2 0x1054 DUP2 PUSH2 0xEA3 JUMP JUMPDEST SWAP1 POP SWAP2 SWAP1 POP JUMP JUMPDEST PUSH1 0x0 PUSH1 0x20 DUP3 ADD SWAP1 POP DUP2 DUP2 SUB PUSH1 0x0 DUP4 ADD MSTORE PUSH2 0x1074 DUP2 PUSH2 0xEC6 JUMP JUMPDEST SWAP1 POP SWAP2 SWAP1 POP JUMP JUMPDEST PUSH1 0x0 PUSH2 0x1085 PUSH2 0x1096 JUMP JUMPDEST SWAP1 POP PUSH2 0x1091 DUP3 DUP3 PUSH2 0x1486 JUMP JUMPDEST SWAP2 SWAP1 POP JUMP JUMPDEST PUSH1 0x0 PUSH1 0x40 MLOAD SWAP1 POP SWAP1 JUMP JUMPDEST PUSH1 0x0 PUSH8 0xFFFFFFFFFFFFFFFF DUP3 GT ISZERO PUSH2 0x10BB JUMPI PUSH2 0x10BA PUSH2 0x15A3 JUMP JUMPDEST JUMPDEST PUSH2 0x10C4 DUP3 PUSH2 0x15E6 JUMP JUMPDEST SWAP1 POP PUSH1 0x20 DUP2 ADD SWAP1 POP SWAP2 SWAP1 POP JUMP JUMPDEST PUSH1 0x0 DUP2 MLOAD SWAP1 POP SWAP2 SWAP1 POP JUMP JUMPDEST PUSH1 0x0 DUP2 MLOAD SWAP1 POP SWAP2 SWAP1 POP JUMP JUMPDEST PUSH1 0x0 DUP3 DUP3 MSTORE PUSH1 0x20 DUP3 ADD SWAP1 POP SWAP3 SWAP2 POP POP JUMP JUMPDEST PUSH1 0x0 DUP3 DUP3 MSTORE PUSH1 0x20 DUP3 ADD SWAP1 POP SWAP3 SWAP2 POP POP JUMP JUMPDEST PUSH1 0x0 PUSH2 0x1114 DUP3 PUSH2 0x13D2 JUMP JUMPDEST SWAP2 POP PUSH2 0x111F DUP4 PUSH2 0x13D2 JUMP JUMPDEST SWAP3 POP DUP3 PUSH32 0xFFFFFFFFFFFFFFFFFFFFFFFFFFFFFFFFFFFFFFFFFFFFFFFFFFFFFFFFFFFFFFFF SUB DUP3 GT ISZERO PUSH2 0x1154 JUMPI PUSH2 0x1153 PUSH2 0x1516 JUMP JUMPDEST JUMPDEST DUP3 DUP3 ADD SWAP1 POP SWAP3 SWAP2 POP POP JUMP JUMPDEST PUSH1 0x0 DUP1 DUP3 SWAP2 POP DUP4 SWAP1 POP JUMPDEST PUSH1 0x1 DUP6 GT ISZERO PUSH2 0x11A9 JUMPI DUP1 DUP7 DIV DUP2 GT ISZERO PUSH2 0x1185 JUMPI PUSH2 0x1184 PUSH2 0x1516 JUMP JUMPDEST JUMPDEST PUSH1 0x1 DUP6 AND ISZERO PUSH2 0x1194 JUMPI DUP1 DUP3 MUL SWAP2 POP JUMPDEST DUP1 DUP2 MUL SWAP1 POP PUSH2 0x11A2 DUP6 PUSH2 0x1604 JUMP JUMPDEST SWAP5 POP PUSH2 0x1169 JUMP JUMPDEST SWAP5 POP SWAP5 SWAP3 POP POP POP JUMP JUMPDEST PUSH1 0x0 PUSH2 0x11BD DUP3 PUSH2 0x13D2 JUMP JUMPDEST SWAP2 POP PUSH2 0x11C8 DUP4 PUSH2 0x13D2 JUMP JUMPDEST SWAP3 POP PUSH2 0x11F5 PUSH32 0xFFFFFFFFFFFFFFFFFFFFFFFFFFFFFFFFFFFFFFFFFFFFFFFFFFFFFFFFFFFFFFFF DUP5 DUP5 PUSH2 0x11FD JUMP JUMPDEST SWAP1 POP SWAP3 SWAP2 POP POP JUMP JUMPDEST PUSH1 0x0 DUP3 PUSH2 0x120D JUMPI PUSH1 0x1 SWAP1 POP PUSH2 0x12C9 JUMP JUMPDEST DUP2 PUSH2 0x121B JUMPI PUSH1 0x0 SWAP1 POP PUSH2 0x12C9 JUMP JUMPDEST DUP2 PUSH1 0x1 DUP2 EQ PUSH2 0x1231 JUMPI PUSH1 0x2 DUP2 EQ PUSH2 0x123B JUMPI PUSH2 0x126A JUMP JUMPDEST PUSH1 0x1 SWAP2 POP POP PUSH2 0x12C9 JUMP JUMPDEST PUSH1 0xFF DUP5 GT ISZERO PUSH2 0x124D JUMPI PUSH2 0x124C PUSH2 0x1516 JUMP JUMPDEST JUMPDEST DUP4 PUSH1 0x2 EXP SWAP2 POP DUP5 DUP3 GT ISZERO PUSH2 0x1264 JUMPI PUSH2 0x1263 PUSH2 0x1516 JUMP JUMPDEST JUMPDEST POP PUSH2 0x12C9 JUMP JUMPDEST POP PUSH1 0x20 DUP4 LT PUSH2 0x133 DUP4 LT AND PUSH1 0x4E DUP5 LT PUSH1 0xB DUP5 LT AND OR ISZERO PUSH2 0x129F JUMPI DUP3 DUP3 EXP SWAP1 POP DUP4 DUP2 GT ISZERO PUSH2 0x129A JUMPI PUSH2 0x1299 PUSH2 0x1516 JUMP JUMPDEST JUMPDEST PUSH2 0x12C9 JUMP JUMPDEST PUSH2 0x12AC DUP5 DUP5 DUP5 PUSH1 0x1 PUSH2 0x115F JUMP JUMPDEST SWAP3 POP SWAP1 POP DUP2 DUP5 DIV DUP2 GT ISZERO PUSH2 0x12C3 JUMPI PUSH2 0x12C2 PUSH2 0x1516 JUMP JUMPDEST JUMPDEST DUP2 DUP2 MUL SWAP1 POP JUMPDEST SWAP4 SWAP3 POP POP POP JUMP JUMPDEST PUSH1 0x0 PUSH2 0x12DB DUP3 PUSH2 0x13D2 JUMP JUMPDEST SWAP2 POP PUSH2 0x12E6 DUP4 PUSH2 0x13D2 JUMP JUMPDEST SWAP3 POP DUP2 PUSH32 0xFFFFFFFFFFFFFFFFFFFFFFFFFFFFFFFFFFFFFFFFFFFFFFFFFFFFFFFFFFFFFFFF DIV DUP4 GT DUP3 ISZERO ISZERO AND ISZERO PUSH2 0x131F JUMPI PUSH2 0x131E PUSH2 0x1516 JUMP JUMPDEST JUMPDEST DUP3 DUP3 MUL SWAP1 POP SWAP3 SWAP2 POP POP JUMP JUMPDEST PUSH1 0x0 PUSH2 0x1335 DUP3 PUSH2 0x13D2 JUMP JUMPDEST SWAP2 POP PUSH2 0x1340 DUP4 PUSH2 0x13D2 JUMP JUMPDEST SWAP3 POP DUP3 DUP3 LT ISZERO PUSH2 0x1353 JUMPI PUSH2 0x1352 PUSH2 0x1516 JUMP JUMPDEST JUMPDEST DUP3 DUP3 SUB SWAP1 POP SWAP3 SWAP2 POP POP JUMP JUMPDEST PUSH1 0x0 PUSH2 0x1369 DUP3 PUSH2 0x13B2 JUMP JUMPDEST SWAP1 POP SWAP2 SWAP1 POP JUMP JUMPDEST PUSH1 0x0 DUP2 ISZERO ISZERO SWAP1 POP SWAP2 SWAP1 POP JUMP JUMPDEST PUSH1 0x0 DUP2 SWAP1 POP SWAP2 SWAP1 POP JUMP JUMPDEST PUSH1 0x0 PUSH32 0xFFFFFFFF00000000000000000000000000000000000000000000000000000000 DUP3 AND SWAP1 POP SWAP2 SWAP1 POP JUMP JUMPDEST PUSH1 0x0 PUSH20 0xFFFFFFFFFFFFFFFFFFFFFFFFFFFFFFFFFFFFFFFF DUP3 AND SWAP1 POP SWAP2 SWAP1 POP JUMP JUMPDEST PUSH1 0x0 DUP2 SWAP1 POP SWAP2 SWAP1 POP JUMP JUMPDEST PUSH1 0x0 PUSH2 0x13E7 DUP3 PUSH2 0x13EE JUMP JUMPDEST SWAP1 POP SWAP2 SWAP1 POP JUMP JUMPDEST PUSH1 0x0 PUSH2 0x13F9 DUP3 PUSH2 0x1400 JUMP JUMPDEST SWAP1 POP SWAP2 SWAP1 POP JUMP JUMPDEST PUSH1 0x0 PUSH2 0x140B DUP3 PUSH2 0x13B2 JUMP JUMPDEST SWAP1 POP SWAP2 SWAP1 POP JUMP JUMPDEST DUP3 DUP2 DUP4 CALLDATACOPY PUSH1 0x0 DUP4 DUP4 ADD MSTORE POP POP POP JUMP JUMPDEST PUSH1 0x0 JUMPDEST DUP4 DUP2 LT ISZERO PUSH2 0x143F JUMPI DUP1 DUP3 ADD MLOAD DUP2 DUP5 ADD MSTORE PUSH1 0x20 DUP2 ADD SWAP1 POP PUSH2 0x1424 JUMP JUMPDEST DUP4 DUP2 GT ISZERO PUSH2 0x144E JUMPI PUSH1 0x0 DUP5 DUP5 ADD MSTORE JUMPDEST POP POP POP POP JUMP JUMPDEST PUSH1 0x0 PUSH1 0x2 DUP3 DIV SWAP1 POP PUSH1 0x1 DUP3 AND DUP1 PUSH2 0x146C JUMPI PUSH1 0x7F DUP3 AND SWAP2 POP JUMPDEST PUSH1 0x20 DUP3 LT DUP2 EQ ISZERO PUSH2 0x1480 JUMPI PUSH2 0x147F PUSH2 0x1574 JUMP JUMPDEST JUMPDEST POP SWAP2 SWAP1 POP JUMP JUMPDEST PUSH2 0x148F DUP3 PUSH2 0x15E6 JUMP JUMPDEST DUP2 ADD DUP2 DUP2 LT PUSH8 0xFFFFFFFFFFFFFFFF DUP3 GT OR ISZERO PUSH2 0x14AE JUMPI PUSH2 0x14AD PUSH2 0x15A3 JUMP JUMPDEST JUMPDEST DUP1 PUSH1 0x40 MSTORE POP POP POP JUMP JUMPDEST PUSH1 0x0 PUSH2 0x14C2 DUP3 PUSH2 0x14C9 JUMP JUMPDEST SWAP1 POP SWAP2 SWAP1 POP JUMP JUMPDEST PUSH1 0x0 PUSH2 0x14D4 DUP3 PUSH2 0x15F7 JUMP JUMPDEST SWAP1 POP SWAP2 SWAP1 POP JUMP JUMPDEST PUSH1 0x0 DUP2 SWAP1 POP SWAP2 SWAP1 POP JUMP JUMPDEST PUSH1 0x0 PUSH2 0x14F0 DUP3 PUSH2 0x13D2 JUMP JUMPDEST SWAP2 POP PUSH2 0x14FB DUP4 PUSH2 0x13D2 JUMP JUMPDEST SWAP3 POP DUP3 PUSH2 0x150B JUMPI PUSH2 0x150A PUSH2 0x1545 JUMP JUMPDEST JUMPDEST DUP3 DUP3 MOD SWAP1 POP SWAP3 SWAP2 POP POP JUMP JUMPDEST PUSH32 0x4E487B7100000000000000000000000000000000000000000000000000000000 PUSH1 0x0 MSTORE PUSH1 0x11 PUSH1 0x4 MSTORE PUSH1 0x24 PUSH1 0x0 REVERT JUMPDEST PUSH32 0x4E487B7100000000000000000000000000000000000000000000000000000000 PUSH1 0x0 MSTORE PUSH1 0x12 PUSH1 0x4 MSTORE PUSH1 0x24 PUSH1 0x0 REVERT JUMPDEST PUSH32 0x4E487B7100000000000000000000000000000000000000000000000000000000 PUSH1 0x0 MSTORE PUSH1 0x22 PUSH1 0x4 MSTORE PUSH1 0x24 PUSH1 0x0 REVERT JUMPDEST PUSH32 0x4E487B7100000000000000000000000000000000000000000000000000000000 PUSH1 0x0 MSTORE PUSH1 0x41 PUSH1 0x4 MSTORE PUSH1 0x24 PUSH1 0x0 REVERT JUMPDEST PUSH1 0x0 DUP1 REVERT JUMPDEST PUSH1 0x0 DUP1 REVERT JUMPDEST PUSH1 0x0 DUP1 REVERT JUMPDEST PUSH1 0x0 DUP1 REVERT JUMPDEST PUSH1 0x0 PUSH1 0x1F NOT PUSH1 0x1F DUP4 ADD AND SWAP1 POP SWAP2 SWAP1 POP JUMP JUMPDEST PUSH1 0x0 DUP2 PUSH1 0x60 SHL SWAP1 POP SWAP2 SWAP1 POP JUMP JUMPDEST PUSH1 0x0 DUP2 PUSH1 0x1 SHR SWAP1 POP SWAP2 SWAP1 POP JUMP JUMPDEST PUSH32 0x756E61626C6520746F207472616E73666572416E6443616C6C20746F206F7261 PUSH1 0x0 DUP3 ADD MSTORE PUSH32 0x636C650000000000000000000000000000000000000000000000000000000000 PUSH1 0x20 DUP3 ADD MSTORE POP JUMP JUMPDEST PUSH32 0x536F75726365206D75737420626520746865206F7261636C65206F6620746865 PUSH1 0x0 DUP3 ADD MSTORE PUSH32 0x2072657175657374000000000000000000000000000000000000000000000000 PUSH1 0x20 DUP3 ADD MSTORE POP JUMP JUMPDEST PUSH2 0x16B8 DUP2 PUSH2 0x1370 JUMP JUMPDEST DUP2 EQ PUSH2 0x16C3 JUMPI PUSH1 0x0 DUP1 REVERT JUMPDEST POP JUMP JUMPDEST PUSH2 0x16CF DUP2 PUSH2 0x137C JUMP JUMPDEST DUP2 EQ PUSH2 0x16DA JUMPI PUSH1 0x0 DUP1 REVERT JUMPDEST POP JUMP INVALID PUSH9 0x747470733A2F2F6769 PUSH20 0x742E67697468756275736572636F6E74656E742E PUSH4 0x6F6D2F42 PUSH9 0x616B74693038372F66 PUSH7 0x64353361383430 CODESIZE PUSH7 0x31306532633232 CODESIZE PUSH3 0x623461 ORIGIN BALANCE PUSH4 0x37316635 ADDRESS CALLER 0x2F PUSH19 0x61772F34313130346131313031323236373435 CALLDATACOPY PUSH2 0x3161 CALLDATACOPY ORIGIN CALLER PUSH7 0x32326234366536 PUSH2 0x3330 CODESIZE CODESIZE PUSH6 0x3562622F6279 PUSH21 0x65732D6578616D706C652E6A736F6EA26469706673 PC 0x22 SLT KECCAK256 0x25 PUSH12 0xA130C9B005EBFFE87F0067BA EXP PUSH8 0xA65401904421F1EE LT 0x24 GASPRICE PUSH25 0x9B8ED99D64736F6C6343000807003300000000000000000000 "},"methodIdentifiers":{"blockNumber()":"57e871e7","fulfill(bytes32,string)":"37441996","requestVotes()":"c44bee1e"}}}}}