{"contracts/AutomationTrial.sol":{"UpkeepIDConsumerExample":{"abi":[{"inputs":[{"internalType":"contract LinkTokenInterface","name":"_link","type":"address"},{"internalType":"address","name":"_registrar","type":"address"},{"internalType":"contract AutomationRegistryInterface","name":"_registry","type":"address"}],"stateMutability":"nonpayable","type":"constructor"},{"inputs":[],"name":"i_link","outputs":[{"internalType":"contract LinkTokenInterface","name":"","type":"address"}],"stateMutability":"view","type":"function"},{"inputs":[],"name":"i_registry","outputs":[{"internalType":"contract AutomationRegistryInterface","name":"","type":"address"}],"stateMutability":"view","type":"function"},{"inputs":[{"internalType":"string","name":"name","type":"string"},{"internalType":"bytes","name":"encryptedEmail","type":"bytes"},{"internalType":"address","name":"upkeepContract","type":"address"},{"internalType":"uint32","name":"gasLimit","type":"uint32"},{"internalType":"address","name":"adminAddress","type":"address"},{"internalType":"bytes","name":"checkData","type":"bytes"},{"internalType":"uint96","name":"amount","type":"uint96"},{"internalType":"uint8","name":"source","type":"uint8"}],"name":"registerAndPredictID","outputs":[],"stateMutability":"nonpayable","type":"function"},{"inputs":[],"name":"registrar","outputs":[{"internalType":"address","name":"","type":"address"}],"stateMutability":"view","type":"function"}],"evm":{"bytecode":{"linkReferences":{},"object":"60e0604052633659d66660e01b6000806101000a81548163ffffffff021916908360e01c02179055503480156200003557600080fd5b506040516200155f3803806200155f83398181016040528101906200005b91906200014e565b8273ffffffffffffffffffffffffffffffffffffffff1660808173ffffffffffffffffffffffffffffffffffffffff1660601b815250508173ffffffffffffffffffffffffffffffffffffffff1660a08173ffffffffffffffffffffffffffffffffffffffff1660601b815250508073ffffffffffffffffffffffffffffffffffffffff1660c08173ffffffffffffffffffffffffffffffffffffffff1660601b8152505050505062000259565b6000815190506200011a816200020b565b92915050565b600081519050620001318162000225565b92915050565b60008151905062000148816200023f565b92915050565b6000806000606084860312156200016a576200016962000206565b5b60006200017a8682870162000137565b93505060206200018d8682870162000109565b9250506040620001a08682870162000120565b9150509250925092565b6000620001b782620001e6565b9050919050565b6000620001cb82620001aa565b9050919050565b6000620001df82620001aa565b9050919050565b600073ffffffffffffffffffffffffffffffffffffffff82169050919050565b600080fd5b6200021681620001aa565b81146200022257600080fd5b50565b6200023081620001be565b81146200023c57600080fd5b50565b6200024a81620001d2565b81146200025657600080fd5b50565b60805160601c60a05160601c60c05160601c6112ab620002b46000396000818160ce015281816102bc0152818161039e01526104400152600081816101fa01526104640152600081816101be015261048801526112ab6000f3fe608060405234801561001057600080fd5b506004361061004c5760003560e01c806318a9fb8a146100515780632a6636061461006d5780632b20e3971461008b5780637d253aff146100a9575b600080fd5b61006b600480360381019061006691906108bc565b6100c7565b005b61007561043e565b6040516100829190610cb6565b60405180910390f35b610093610462565b6040516100a09190610c5d565b60405180910390f35b6100b1610486565b6040516100be9190610cd1565b60405180910390f35b60008060007f000000000000000000000000000000000000000000000000000000000000000073ffffffffffffffffffffffffffffffffffffffff16631865c57d6040518163ffffffff1660e01b815260040160006040518083038186803b15801561013257600080fd5b505afa158015610146573d6000803e3d6000fd5b505050506040513d6000823e3d601f19601f8201168201806040525081019061016f91906109cf565b9250925092506000836000015163ffffffff16905060008e8e8e8e8e8e8e8e8e8e306040516020016101ab9b9a99989796959493929190610cec565b60405160208183030381529060405290507f000000000000000000000000000000000000000000000000000000000000000073ffffffffffffffffffffffffffffffffffffffff16634000aea07f00000000000000000000000000000000000000000000000000000000000000008960008054906101000a900460e01b8560405160200161023a929190610c35565b6040516020818303038152906040526040518463ffffffff1660e01b815260040161026793929190610c78565b602060405180830381600087803b15801561028157600080fd5b505af1158015610295573d6000803e3d6000fd5b505050506040513d601f19601f820116820180604052508101906102b9919061088f565b507f000000000000000000000000000000000000000000000000000000000000000073ffffffffffffffffffffffffffffffffffffffff16631865c57d6040518163ffffffff1660e01b815260040160006040518083038186803b15801561032057600080fd5b505afa158015610334573d6000803e3d6000fd5b505050506040513d6000823e3d601f19601f8201168201806040525081019061035d91906109cf565b8095508196508297505050506000856000015163ffffffff1690506001836103859190610e77565b8114156103f157600060014361039b9190610ecd565b407f0000000000000000000000000000000000000000000000000000000000000000856040516020016103d093929190610bf8565b6040516020818303038152906040528051906020012060001c90505061042c565b6040517f08c379a000000000000000000000000000000000000000000000000000000000815260040161042390610d92565b60405180910390fd5b50505050505050505050505050505050565b7f000000000000000000000000000000000000000000000000000000000000000081565b7f000000000000000000000000000000000000000000000000000000000000000081565b7f000000000000000000000000000000000000000000000000000000000000000081565b60006104bd6104b884610dd7565b610db2565b905080838252602082019050828560208602820111156104e0576104df611155565b5b60005b8581101561051057816104f68882610571565b8452602084019350602083019250506001810190506104e3565b5050509392505050565b600061052d61052884610e03565b610db2565b9050828152602081018484840111156105495761054861115a565b5b61055484828561102b565b509392505050565b60008135905061056b816111bd565b92915050565b600081519050610580816111bd565b92915050565b600082601f83011261059b5761059a61114b565b5b81516105ab8482602086016104aa565b91505092915050565b6000815190506105c3816111d4565b92915050565b60008083601f8401126105df576105de61114b565b5b8235905067ffffffffffffffff8111156105fc576105fb611146565b5b60208301915083600182028301111561061857610617611155565b5b9250929050565b600082601f8301126106345761063361114b565b5b813561064484826020860161051a565b91505092915050565b6000610180828403121561066457610663611150565b5b61066f610180610db2565b9050600061067f8482850161083b565b60008301525060206106938482850161083b565b60208301525060406106a7848285016107fc565b60408301525060606106bb8482850161083b565b60608301525060806106cf848285016107fc565b60808301525060a06106e3848285016107e7565b60a08301525060c06106f78482850161087a565b60c08301525060e061070b8482850161083b565b60e08301525061010061072084828501610811565b6101008301525061012061073684828501610811565b6101208301525061014061074c84828501610571565b6101408301525061016061076284828501610571565b6101608301525092915050565b60006080828403121561078557610784611150565b5b61078f6080610db2565b9050600061079f8482850161083b565b60008301525060206107b38482850161087a565b60208301525060406107c784828501610811565b60408301525060606107db84828501610811565b60608301525092915050565b6000815190506107f6816111eb565b92915050565b60008151905061080b81611202565b92915050565b60008151905061082081611219565b92915050565b60008135905061083581611230565b92915050565b60008151905061084a81611230565b92915050565b60008135905061085f81611247565b92915050565b6000813590506108748161125e565b92915050565b6000815190506108898161125e565b92915050565b6000602082840312156108a5576108a4611164565b5b60006108b3848285016105b4565b91505092915050565b6000806000806000806000806000806101008b8d0312156108e0576108df611164565b5b60008b013567ffffffffffffffff8111156108fe576108fd61115f565b5b61090a8d828e0161061f565b9a505060208b013567ffffffffffffffff81111561092b5761092a61115f565b5b6109378d828e016105c9565b9950995050604061094a8d828e0161055c565b975050606061095b8d828e01610826565b965050608061096c8d828e0161055c565b95505060a08b013567ffffffffffffffff81111561098d5761098c61115f565b5b6109998d828e016105c9565b945094505060c06109ac8d828e01610865565b92505060e06109bd8d828e01610850565b9150509295989b9194979a5092959850565b600080600061022084860312156109e9576109e8611164565b5b60006109f78682870161076f565b9350506080610a088682870161064d565b92505061020084015167ffffffffffffffff811115610a2a57610a2961115f565b5b610a3686828701610586565b9150509250925092565b610a4981610f01565b82525050565b610a60610a5b82610f01565b61109e565b82525050565b610a77610a7282610f1f565b6110b0565b82525050565b610a8e610a8982610f29565b6110ba565b82525050565b6000610aa08385610e4a565b9350610aad83858461102b565b610ab683611169565b840190509392505050565b6000610acc82610e34565b610ad68185610e4a565b9350610ae681856020860161103a565b610aef81611169565b840191505092915050565b6000610b0582610e34565b610b0f8185610e5b565b9350610b1f81856020860161103a565b80840191505092915050565b610b3481610fd1565b82525050565b610b4381610fe3565b82525050565b6000610b5482610e3f565b610b5e8185610e66565b9350610b6e81856020860161103a565b610b7781611169565b840191505092915050565b6000610b8f601583610e66565b9150610b9a82611194565b602082019050919050565b610bae81610f9c565b82525050565b610bc5610bc082610f9c565b6110d6565b82525050565b610bd481610fac565b82525050565b610be381611019565b82525050565b610bf281610fb9565b82525050565b6000610c048286610a66565b602082019150610c148285610a4f565b601482019150610c248284610bb4565b600482019150819050949350505050565b6000610c418285610a7d565b600482019150610c518284610afa565b91508190509392505050565b6000602082019050610c726000830184610a40565b92915050565b6000606082019050610c8d6000830186610a40565b610c9a6020830185610bda565b8181036040830152610cac8184610ac1565b9050949350505050565b6000602082019050610ccb6000830184610b2b565b92915050565b6000602082019050610ce66000830184610b3a565b92915050565b6000610120820190508181036000830152610d07818e610b49565b90508181036020830152610d1c818c8e610a94565b9050610d2b604083018b610a40565b610d38606083018a610ba5565b610d456080830189610a40565b81810360a0830152610d58818789610a94565b9050610d6760c0830186610be9565b610d7460e0830185610bcb565b610d82610100830184610a40565b9c9b505050505050505050505050565b60006020820190508181036000830152610dab81610b82565b9050919050565b6000610dbc610dcd565b9050610dc8828261106d565b919050565b6000604051905090565b600067ffffffffffffffff821115610df257610df1611117565b5b602082029050602081019050919050565b600067ffffffffffffffff821115610e1e57610e1d611117565b5b610e2782611169565b9050602081019050919050565b600081519050919050565b600081519050919050565b600082825260208201905092915050565b600081905092915050565b600082825260208201905092915050565b6000610e8282610f92565b9150610e8d83610f92565b9250827fffffffffffffffffffffffffffffffffffffffffffffffffffffffffffffffff03821115610ec257610ec16110e8565b5b828201905092915050565b6000610ed882610f92565b9150610ee383610f92565b925082821015610ef657610ef56110e8565b5b828203905092915050565b6000610f0c82610f63565b9050919050565b60008115159050919050565b6000819050919050565b60007fffffffff0000000000000000000000000000000000000000000000000000000082169050919050565b600061ffff82169050919050565b600073ffffffffffffffffffffffffffffffffffffffff82169050919050565b600062ffffff82169050919050565b6000819050919050565b600063ffffffff82169050919050565b600060ff82169050919050565b60006bffffffffffffffffffffffff82169050919050565b6000610fdc82610ff5565b9050919050565b6000610fee82610ff5565b9050919050565b600061100082611007565b9050919050565b600061101282610f63565b9050919050565b600061102482610fb9565b9050919050565b82818337600083830152505050565b60005b8381101561105857808201518184015260208101905061103d565b83811115611067576000848401525b50505050565b61107682611169565b810181811067ffffffffffffffff8211171561109557611094611117565b5b80604052505050565b60006110a9826110c4565b9050919050565b6000819050919050565b6000819050919050565b60006110cf82611187565b9050919050565b60006110e18261117a565b9050919050565b7f4e487b7100000000000000000000000000000000000000000000000000000000600052601160045260246000fd5b7f4e487b7100000000000000000000000000000000000000000000000000000000600052604160045260246000fd5b600080fd5b600080fd5b600080fd5b600080fd5b600080fd5b600080fd5b600080fd5b6000601f19601f8301169050919050565b60008160e01b9050919050565b60008160601b9050919050565b7f6175746f2d617070726f76652064697361626c65640000000000000000000000600082015250565b6111c681610f01565b81146111d157600080fd5b50565b6111dd81610f13565b81146111e857600080fd5b50565b6111f481610f55565b81146111ff57600080fd5b50565b61120b81610f83565b811461121657600080fd5b50565b61122281610f92565b811461122d57600080fd5b50565b61123981610f9c565b811461124457600080fd5b50565b61125081610fac565b811461125b57600080fd5b50565b61126781610fb9565b811461127257600080fd5b5056fea26469706673582212204061ec0ab0c0325f8b888da87df92c85b353a02c785cb4780cd4c884d442ae4e64736f6c63430008070033","opcodes":"PUSH1 0xE0 PUSH1 0x40 MSTORE PUSH4 0x3659D666 PUSH1 0xE0 SHL PUSH1 0x0 DUP1 PUSH2 0x100 EXP DUP2 SLOAD DUP2 PUSH4 0xFFFFFFFF MUL NOT AND SWAP1 DUP4 PUSH1 0xE0 SHR MUL OR SWAP1 SSTORE POP CALLVALUE DUP1 ISZERO PUSH3 0x35 JUMPI PUSH1 0x0 DUP1 REVERT JUMPDEST POP PUSH1 0x40 MLOAD PUSH3 0x155F CODESIZE SUB DUP1 PUSH3 0x155F DUP4 CODECOPY DUP2 DUP2 ADD PUSH1 0x40 MSTORE DUP2 ADD SWAP1 PUSH3 0x5B SWAP2 SWAP1 PUSH3 0x14E JUMP JUMPDEST DUP3 PUSH20 0xFFFFFFFFFFFFFFFFFFFFFFFFFFFFFFFFFFFFFFFF AND PUSH1 0x80 DUP2 PUSH20 0xFFFFFFFFFFFFFFFFFFFFFFFFFFFFFFFFFFFFFFFF AND PUSH1 0x60 SHL DUP2 MSTORE POP POP DUP2 PUSH20 0xFFFFFFFFFFFFFFFFFFFFFFFFFFFFFFFFFFFFFFFF AND PUSH1 0xA0 DUP2 PUSH20 0xFFFFFFFFFFFFFFFFFFFFFFFFFFFFFFFFFFFFFFFF AND PUSH1 0x60 SHL DUP2 MSTORE POP POP DUP1 PUSH20 0xFFFFFFFFFFFFFFFFFFFFFFFFFFFFFFFFFFFFFFFF AND PUSH1 0xC0 DUP2 PUSH20 0xFFFFFFFFFFFFFFFFFFFFFFFFFFFFFFFFFFFFFFFF AND PUSH1 0x60 SHL DUP2 MSTORE POP POP POP POP POP PUSH3 0x259 JUMP JUMPDEST PUSH1 0x0 DUP2 MLOAD SWAP1 POP PUSH3 0x11A DUP2 PUSH3 0x20B JUMP JUMPDEST SWAP3 SWAP2 POP POP JUMP JUMPDEST PUSH1 0x0 DUP2 MLOAD SWAP1 POP PUSH3 0x131 DUP2 PUSH3 0x225 JUMP JUMPDEST SWAP3 SWAP2 POP POP JUMP JUMPDEST PUSH1 0x0 DUP2 MLOAD SWAP1 POP PUSH3 0x148 DUP2 PUSH3 0x23F JUMP JUMPDEST SWAP3 SWAP2 POP POP JUMP JUMPDEST PUSH1 0x0 DUP1 PUSH1 0x0 PUSH1 0x60 DUP5 DUP7 SUB SLT ISZERO PUSH3 0x16A JUMPI PUSH3 0x169 PUSH3 0x206 JUMP JUMPDEST JUMPDEST PUSH1 0x0 PUSH3 0x17A DUP7 DUP3 DUP8 ADD PUSH3 0x137 JUMP JUMPDEST SWAP4 POP POP PUSH1 0x20 PUSH3 0x18D DUP7 DUP3 DUP8 ADD PUSH3 0x109 JUMP JUMPDEST SWAP3 POP POP PUSH1 0x40 PUSH3 0x1A0 DUP7 DUP3 DUP8 ADD PUSH3 0x120 JUMP JUMPDEST SWAP2 POP POP SWAP3 POP SWAP3 POP SWAP3 JUMP JUMPDEST PUSH1 0x0 PUSH3 0x1B7 DUP3 PUSH3 0x1E6 JUMP JUMPDEST SWAP1 POP SWAP2 SWAP1 POP JUMP JUMPDEST PUSH1 0x0 PUSH3 0x1CB DUP3 PUSH3 0x1AA JUMP JUMPDEST SWAP1 POP SWAP2 SWAP1 POP JUMP JUMPDEST PUSH1 0x0 PUSH3 0x1DF DUP3 PUSH3 0x1AA JUMP JUMPDEST SWAP1 POP SWAP2 SWAP1 POP JUMP JUMPDEST PUSH1 0x0 PUSH20 0xFFFFFFFFFFFFFFFFFFFFFFFFFFFFFFFFFFFFFFFF DUP3 AND SWAP1 POP SWAP2 SWAP1 POP JUMP JUMPDEST PUSH1 0x0 DUP1 REVERT JUMPDEST PUSH3 0x216 DUP2 PUSH3 0x1AA JUMP JUMPDEST DUP2 EQ PUSH3 0x222 JUMPI PUSH1 0x0 DUP1 REVERT JUMPDEST POP JUMP JUMPDEST PUSH3 0x230 DUP2 PUSH3 0x1BE JUMP JUMPDEST DUP2 EQ PUSH3 0x23C JUMPI PUSH1 0x0 DUP1 REVERT JUMPDEST POP JUMP JUMPDEST PUSH3 0x24A DUP2 PUSH3 0x1D2 JUMP JUMPDEST DUP2 EQ PUSH3 0x256 JUMPI PUSH1 0x0 DUP1 REVERT JUMPDEST POP JUMP JUMPDEST PUSH1 0x80 MLOAD PUSH1 0x60 SHR PUSH1 0xA0 MLOAD PUSH1 0x60 SHR PUSH1 0xC0 MLOAD PUSH1 0x60 SHR PUSH2 0x12AB PUSH3 0x2B4 PUSH1 0x0 CODECOPY PUSH1 0x0 DUP2 DUP2 PUSH1 0xCE ADD MSTORE DUP2 DUP2 PUSH2 0x2BC ADD MSTORE DUP2 DUP2 PUSH2 0x39E ADD MSTORE PUSH2 0x440 ADD MSTORE PUSH1 0x0 DUP2 DUP2 PUSH2 0x1FA ADD MSTORE PUSH2 0x464 ADD MSTORE PUSH1 0x0 DUP2 DUP2 PUSH2 0x1BE ADD MSTORE PUSH2 0x488 ADD MSTORE PUSH2 0x12AB PUSH1 0x0 RETURN INVALID PUSH1 0x80 PUSH1 0x40 MSTORE CALLVALUE DUP1 ISZERO PUSH2 0x10 JUMPI PUSH1 0x0 DUP1 REVERT JUMPDEST POP PUSH1 0x4 CALLDATASIZE LT PUSH2 0x4C JUMPI PUSH1 0x0 CALLDATALOAD PUSH1 0xE0 SHR DUP1 PUSH4 0x18A9FB8A EQ PUSH2 0x51 JUMPI DUP1 PUSH4 0x2A663606 EQ PUSH2 0x6D JUMPI DUP1 PUSH4 0x2B20E397 EQ PUSH2 0x8B JUMPI DUP1 PUSH4 0x7D253AFF EQ PUSH2 0xA9 JUMPI JUMPDEST PUSH1 0x0 DUP1 REVERT JUMPDEST PUSH2 0x6B PUSH1 0x4 DUP1 CALLDATASIZE SUB DUP2 ADD SWAP1 PUSH2 0x66 SWAP2 SWAP1 PUSH2 0x8BC JUMP JUMPDEST PUSH2 0xC7 JUMP JUMPDEST STOP JUMPDEST PUSH2 0x75 PUSH2 0x43E JUMP JUMPDEST PUSH1 0x40 MLOAD PUSH2 0x82 SWAP2 SWAP1 PUSH2 0xCB6 JUMP JUMPDEST PUSH1 0x40 MLOAD DUP1 SWAP2 SUB SWAP1 RETURN JUMPDEST PUSH2 0x93 PUSH2 0x462 JUMP JUMPDEST PUSH1 0x40 MLOAD PUSH2 0xA0 SWAP2 SWAP1 PUSH2 0xC5D JUMP JUMPDEST PUSH1 0x40 MLOAD DUP1 SWAP2 SUB SWAP1 RETURN JUMPDEST PUSH2 0xB1 PUSH2 0x486 JUMP JUMPDEST PUSH1 0x40 MLOAD PUSH2 0xBE SWAP2 SWAP1 PUSH2 0xCD1 JUMP JUMPDEST PUSH1 0x40 MLOAD DUP1 SWAP2 SUB SWAP1 RETURN JUMPDEST PUSH1 0x0 DUP1 PUSH1 0x0 PUSH32 0x0 PUSH20 0xFFFFFFFFFFFFFFFFFFFFFFFFFFFFFFFFFFFFFFFF AND PUSH4 0x1865C57D PUSH1 0x40 MLOAD DUP2 PUSH4 0xFFFFFFFF AND PUSH1 0xE0 SHL DUP2 MSTORE PUSH1 0x4 ADD PUSH1 0x0 PUSH1 0x40 MLOAD DUP1 DUP4 SUB DUP2 DUP7 DUP1 EXTCODESIZE ISZERO DUP1 ISZERO PUSH2 0x132 JUMPI PUSH1 0x0 DUP1 REVERT JUMPDEST POP GAS STATICCALL ISZERO DUP1 ISZERO PUSH2 0x146 JUMPI RETURNDATASIZE PUSH1 0x0 DUP1 RETURNDATACOPY RETURNDATASIZE PUSH1 0x0 REVERT JUMPDEST POP POP POP POP PUSH1 0x40 MLOAD RETURNDATASIZE PUSH1 0x0 DUP3 RETURNDATACOPY RETURNDATASIZE PUSH1 0x1F NOT PUSH1 0x1F DUP3 ADD AND DUP3 ADD DUP1 PUSH1 0x40 MSTORE POP DUP2 ADD SWAP1 PUSH2 0x16F SWAP2 SWAP1 PUSH2 0x9CF JUMP JUMPDEST SWAP3 POP SWAP3 POP SWAP3 POP PUSH1 0x0 DUP4 PUSH1 0x0 ADD MLOAD PUSH4 0xFFFFFFFF AND SWAP1 POP PUSH1 0x0 DUP15 DUP15 DUP15 DUP15 DUP15 DUP15 DUP15 DUP15 DUP15 DUP15 ADDRESS PUSH1 0x40 MLOAD PUSH1 0x20 ADD PUSH2 0x1AB SWAP12 SWAP11 SWAP10 SWAP9 SWAP8 SWAP7 SWAP6 SWAP5 SWAP4 SWAP3 SWAP2 SWAP1 PUSH2 0xCEC JUMP JUMPDEST PUSH1 0x40 MLOAD PUSH1 0x20 DUP2 DUP4 SUB SUB DUP2 MSTORE SWAP1 PUSH1 0x40 MSTORE SWAP1 POP PUSH32 0x0 PUSH20 0xFFFFFFFFFFFFFFFFFFFFFFFFFFFFFFFFFFFFFFFF AND PUSH4 0x4000AEA0 PUSH32 0x0 DUP10 PUSH1 0x0 DUP1 SLOAD SWAP1 PUSH2 0x100 EXP SWAP1 DIV PUSH1 0xE0 SHL DUP6 PUSH1 0x40 MLOAD PUSH1 0x20 ADD PUSH2 0x23A SWAP3 SWAP2 SWAP1 PUSH2 0xC35 JUMP JUMPDEST PUSH1 0x40 MLOAD PUSH1 0x20 DUP2 DUP4 SUB SUB DUP2 MSTORE SWAP1 PUSH1 0x40 MSTORE PUSH1 0x40 MLOAD DUP5 PUSH4 0xFFFFFFFF AND PUSH1 0xE0 SHL DUP2 MSTORE PUSH1 0x4 ADD PUSH2 0x267 SWAP4 SWAP3 SWAP2 SWAP1 PUSH2 0xC78 JUMP JUMPDEST PUSH1 0x20 PUSH1 0x40 MLOAD DUP1 DUP4 SUB DUP2 PUSH1 0x0 DUP8 DUP1 EXTCODESIZE ISZERO DUP1 ISZERO PUSH2 0x281 JUMPI PUSH1 0x0 DUP1 REVERT JUMPDEST POP GAS CALL ISZERO DUP1 ISZERO PUSH2 0x295 JUMPI RETURNDATASIZE PUSH1 0x0 DUP1 RETURNDATACOPY RETURNDATASIZE PUSH1 0x0 REVERT JUMPDEST POP POP POP POP PUSH1 0x40 MLOAD RETURNDATASIZE PUSH1 0x1F NOT PUSH1 0x1F DUP3 ADD AND DUP3 ADD DUP1 PUSH1 0x40 MSTORE POP DUP2 ADD SWAP1 PUSH2 0x2B9 SWAP2 SWAP1 PUSH2 0x88F JUMP JUMPDEST POP PUSH32 0x0 PUSH20 0xFFFFFFFFFFFFFFFFFFFFFFFFFFFFFFFFFFFFFFFF AND PUSH4 0x1865C57D PUSH1 0x40 MLOAD DUP2 PUSH4 0xFFFFFFFF AND PUSH1 0xE0 SHL DUP2 MSTORE PUSH1 0x4 ADD PUSH1 0x0 PUSH1 0x40 MLOAD DUP1 DUP4 SUB DUP2 DUP7 DUP1 EXTCODESIZE ISZERO DUP1 ISZERO PUSH2 0x320 JUMPI PUSH1 0x0 DUP1 REVERT JUMPDEST POP GAS STATICCALL ISZERO DUP1 ISZERO PUSH2 0x334 JUMPI RETURNDATASIZE PUSH1 0x0 DUP1 RETURNDATACOPY RETURNDATASIZE PUSH1 0x0 REVERT JUMPDEST POP POP POP POP PUSH1 0x40 MLOAD RETURNDATASIZE PUSH1 0x0 DUP3 RETURNDATACOPY RETURNDATASIZE PUSH1 0x1F NOT PUSH1 0x1F DUP3 ADD AND DUP3 ADD DUP1 PUSH1 0x40 MSTORE POP DUP2 ADD SWAP1 PUSH2 0x35D SWAP2 SWAP1 PUSH2 0x9CF JUMP JUMPDEST DUP1 SWAP6 POP DUP2 SWAP7 POP DUP3 SWAP8 POP POP POP POP PUSH1 0x0 DUP6 PUSH1 0x0 ADD MLOAD PUSH4 0xFFFFFFFF AND SWAP1 POP PUSH1 0x1 DUP4 PUSH2 0x385 SWAP2 SWAP1 PUSH2 0xE77 JUMP JUMPDEST DUP2 EQ ISZERO PUSH2 0x3F1 JUMPI PUSH1 0x0 PUSH1 0x1 NUMBER PUSH2 0x39B SWAP2 SWAP1 PUSH2 0xECD JUMP JUMPDEST BLOCKHASH PUSH32 0x0 DUP6 PUSH1 0x40 MLOAD PUSH1 0x20 ADD PUSH2 0x3D0 SWAP4 SWAP3 SWAP2 SWAP1 PUSH2 0xBF8 JUMP JUMPDEST PUSH1 0x40 MLOAD PUSH1 0x20 DUP2 DUP4 SUB SUB DUP2 MSTORE SWAP1 PUSH1 0x40 MSTORE DUP1 MLOAD SWAP1 PUSH1 0x20 ADD KECCAK256 PUSH1 0x0 SHR SWAP1 POP POP PUSH2 0x42C JUMP JUMPDEST PUSH1 0x40 MLOAD PUSH32 0x8C379A000000000000000000000000000000000000000000000000000000000 DUP2 MSTORE PUSH1 0x4 ADD PUSH2 0x423 SWAP1 PUSH2 0xD92 JUMP JUMPDEST PUSH1 0x40 MLOAD DUP1 SWAP2 SUB SWAP1 REVERT JUMPDEST POP POP POP POP POP POP POP POP POP POP POP POP POP POP POP POP JUMP JUMPDEST PUSH32 0x0 DUP2 JUMP JUMPDEST PUSH32 0x0 DUP2 JUMP JUMPDEST PUSH32 0x0 DUP2 JUMP JUMPDEST PUSH1 0x0 PUSH2 0x4BD PUSH2 0x4B8 DUP5 PUSH2 0xDD7 JUMP JUMPDEST PUSH2 0xDB2 JUMP JUMPDEST SWAP1 POP DUP1 DUP4 DUP3 MSTORE PUSH1 0x20 DUP3 ADD SWAP1 POP DUP3 DUP6 PUSH1 0x20 DUP7 MUL DUP3 ADD GT ISZERO PUSH2 0x4E0 JUMPI PUSH2 0x4DF PUSH2 0x1155 JUMP JUMPDEST JUMPDEST PUSH1 0x0 JUMPDEST DUP6 DUP2 LT ISZERO PUSH2 0x510 JUMPI DUP2 PUSH2 0x4F6 DUP9 DUP3 PUSH2 0x571 JUMP JUMPDEST DUP5 MSTORE PUSH1 0x20 DUP5 ADD SWAP4 POP PUSH1 0x20 DUP4 ADD SWAP3 POP POP PUSH1 0x1 DUP2 ADD SWAP1 POP PUSH2 0x4E3 JUMP JUMPDEST POP POP POP SWAP4 SWAP3 POP POP POP JUMP JUMPDEST PUSH1 0x0 PUSH2 0x52D PUSH2 0x528 DUP5 PUSH2 0xE03 JUMP JUMPDEST PUSH2 0xDB2 JUMP JUMPDEST SWAP1 POP DUP3 DUP2 MSTORE PUSH1 0x20 DUP2 ADD DUP5 DUP5 DUP5 ADD GT ISZERO PUSH2 0x549 JUMPI PUSH2 0x548 PUSH2 0x115A JUMP JUMPDEST JUMPDEST PUSH2 0x554 DUP5 DUP3 DUP6 PUSH2 0x102B JUMP JUMPDEST POP SWAP4 SWAP3 POP POP POP JUMP JUMPDEST PUSH1 0x0 DUP2 CALLDATALOAD SWAP1 POP PUSH2 0x56B DUP2 PUSH2 0x11BD JUMP JUMPDEST SWAP3 SWAP2 POP POP JUMP JUMPDEST PUSH1 0x0 DUP2 MLOAD SWAP1 POP PUSH2 0x580 DUP2 PUSH2 0x11BD JUMP JUMPDEST SWAP3 SWAP2 POP POP JUMP JUMPDEST PUSH1 0x0 DUP3 PUSH1 0x1F DUP4 ADD SLT PUSH2 0x59B JUMPI PUSH2 0x59A PUSH2 0x114B JUMP JUMPDEST JUMPDEST DUP2 MLOAD PUSH2 0x5AB DUP5 DUP3 PUSH1 0x20 DUP7 ADD PUSH2 0x4AA JUMP JUMPDEST SWAP2 POP POP SWAP3 SWAP2 POP POP JUMP JUMPDEST PUSH1 0x0 DUP2 MLOAD SWAP1 POP PUSH2 0x5C3 DUP2 PUSH2 0x11D4 JUMP JUMPDEST SWAP3 SWAP2 POP POP JUMP JUMPDEST PUSH1 0x0 DUP1 DUP4 PUSH1 0x1F DUP5 ADD SLT PUSH2 0x5DF JUMPI PUSH2 0x5DE PUSH2 0x114B JUMP JUMPDEST JUMPDEST DUP3 CALLDATALOAD SWAP1 POP PUSH8 0xFFFFFFFFFFFFFFFF DUP2 GT ISZERO PUSH2 0x5FC JUMPI PUSH2 0x5FB PUSH2 0x1146 JUMP JUMPDEST JUMPDEST PUSH1 0x20 DUP4 ADD SWAP2 POP DUP4 PUSH1 0x1 DUP3 MUL DUP4 ADD GT ISZERO PUSH2 0x618 JUMPI PUSH2 0x617 PUSH2 0x1155 JUMP JUMPDEST JUMPDEST SWAP3 POP SWAP3 SWAP1 POP JUMP JUMPDEST PUSH1 0x0 DUP3 PUSH1 0x1F DUP4 ADD SLT PUSH2 0x634 JUMPI PUSH2 0x633 PUSH2 0x114B JUMP JUMPDEST JUMPDEST DUP2 CALLDATALOAD PUSH2 0x644 DUP5 DUP3 PUSH1 0x20 DUP7 ADD PUSH2 0x51A JUMP JUMPDEST SWAP2 POP POP SWAP3 SWAP2 POP POP JUMP JUMPDEST PUSH1 0x0 PUSH2 0x180 DUP3 DUP5 SUB SLT ISZERO PUSH2 0x664 JUMPI PUSH2 0x663 PUSH2 0x1150 JUMP JUMPDEST JUMPDEST PUSH2 0x66F PUSH2 0x180 PUSH2 0xDB2 JUMP JUMPDEST SWAP1 POP PUSH1 0x0 PUSH2 0x67F DUP5 DUP3 DUP6 ADD PUSH2 0x83B JUMP JUMPDEST PUSH1 0x0 DUP4 ADD MSTORE POP PUSH1 0x20 PUSH2 0x693 DUP5 DUP3 DUP6 ADD PUSH2 0x83B JUMP JUMPDEST PUSH1 0x20 DUP4 ADD MSTORE POP PUSH1 0x40 PUSH2 0x6A7 DUP5 DUP3 DUP6 ADD PUSH2 0x7FC JUMP JUMPDEST PUSH1 0x40 DUP4 ADD MSTORE POP PUSH1 0x60 PUSH2 0x6BB DUP5 DUP3 DUP6 ADD PUSH2 0x83B JUMP JUMPDEST PUSH1 0x60 DUP4 ADD MSTORE POP PUSH1 0x80 PUSH2 0x6CF DUP5 DUP3 DUP6 ADD PUSH2 0x7FC JUMP JUMPDEST PUSH1 0x80 DUP4 ADD MSTORE POP PUSH1 0xA0 PUSH2 0x6E3 DUP5 DUP3 DUP6 ADD PUSH2 0x7E7 JUMP JUMPDEST PUSH1 0xA0 DUP4 ADD MSTORE POP PUSH1 0xC0 PUSH2 0x6F7 DUP5 DUP3 DUP6 ADD PUSH2 0x87A JUMP JUMPDEST PUSH1 0xC0 DUP4 ADD MSTORE POP PUSH1 0xE0 PUSH2 0x70B DUP5 DUP3 DUP6 ADD PUSH2 0x83B JUMP JUMPDEST PUSH1 0xE0 DUP4 ADD MSTORE POP PUSH2 0x100 PUSH2 0x720 DUP5 DUP3 DUP6 ADD PUSH2 0x811 JUMP JUMPDEST PUSH2 0x100 DUP4 ADD MSTORE POP PUSH2 0x120 PUSH2 0x736 DUP5 DUP3 DUP6 ADD PUSH2 0x811 JUMP JUMPDEST PUSH2 0x120 DUP4 ADD MSTORE POP PUSH2 0x140 PUSH2 0x74C DUP5 DUP3 DUP6 ADD PUSH2 0x571 JUMP JUMPDEST PUSH2 0x140 DUP4 ADD MSTORE POP PUSH2 0x160 PUSH2 0x762 DUP5 DUP3 DUP6 ADD PUSH2 0x571 JUMP JUMPDEST PUSH2 0x160 DUP4 ADD MSTORE POP SWAP3 SWAP2 POP POP JUMP JUMPDEST PUSH1 0x0 PUSH1 0x80 DUP3 DUP5 SUB SLT ISZERO PUSH2 0x785 JUMPI PUSH2 0x784 PUSH2 0x1150 JUMP JUMPDEST JUMPDEST PUSH2 0x78F PUSH1 0x80 PUSH2 0xDB2 JUMP JUMPDEST SWAP1 POP PUSH1 0x0 PUSH2 0x79F DUP5 DUP3 DUP6 ADD PUSH2 0x83B JUMP JUMPDEST PUSH1 0x0 DUP4 ADD MSTORE POP PUSH1 0x20 PUSH2 0x7B3 DUP5 DUP3 DUP6 ADD PUSH2 0x87A JUMP JUMPDEST PUSH1 0x20 DUP4 ADD MSTORE POP PUSH1 0x40 PUSH2 0x7C7 DUP5 DUP3 DUP6 ADD PUSH2 0x811 JUMP JUMPDEST PUSH1 0x40 DUP4 ADD MSTORE POP PUSH1 0x60 PUSH2 0x7DB DUP5 DUP3 DUP6 ADD PUSH2 0x811 JUMP JUMPDEST PUSH1 0x60 DUP4 ADD MSTORE POP SWAP3 SWAP2 POP POP JUMP JUMPDEST PUSH1 0x0 DUP2 MLOAD SWAP1 POP PUSH2 0x7F6 DUP2 PUSH2 0x11EB JUMP JUMPDEST SWAP3 SWAP2 POP POP JUMP JUMPDEST PUSH1 0x0 DUP2 MLOAD SWAP1 POP PUSH2 0x80B DUP2 PUSH2 0x1202 JUMP JUMPDEST SWAP3 SWAP2 POP POP JUMP JUMPDEST PUSH1 0x0 DUP2 MLOAD SWAP1 POP PUSH2 0x820 DUP2 PUSH2 0x1219 JUMP JUMPDEST SWAP3 SWAP2 POP POP JUMP JUMPDEST PUSH1 0x0 DUP2 CALLDATALOAD SWAP1 POP PUSH2 0x835 DUP2 PUSH2 0x1230 JUMP JUMPDEST SWAP3 SWAP2 POP POP JUMP JUMPDEST PUSH1 0x0 DUP2 MLOAD SWAP1 POP PUSH2 0x84A DUP2 PUSH2 0x1230 JUMP JUMPDEST SWAP3 SWAP2 POP POP JUMP JUMPDEST PUSH1 0x0 DUP2 CALLDATALOAD SWAP1 POP PUSH2 0x85F DUP2 PUSH2 0x1247 JUMP JUMPDEST SWAP3 SWAP2 POP POP JUMP JUMPDEST PUSH1 0x0 DUP2 CALLDATALOAD SWAP1 POP PUSH2 0x874 DUP2 PUSH2 0x125E JUMP JUMPDEST SWAP3 SWAP2 POP POP JUMP JUMPDEST PUSH1 0x0 DUP2 MLOAD SWAP1 POP PUSH2 0x889 DUP2 PUSH2 0x125E JUMP JUMPDEST SWAP3 SWAP2 POP POP JUMP JUMPDEST PUSH1 0x0 PUSH1 0x20 DUP3 DUP5 SUB SLT ISZERO PUSH2 0x8A5 JUMPI PUSH2 0x8A4 PUSH2 0x1164 JUMP JUMPDEST JUMPDEST PUSH1 0x0 PUSH2 0x8B3 DUP5 DUP3 DUP6 ADD PUSH2 0x5B4 JUMP JUMPDEST SWAP2 POP POP SWAP3 SWAP2 POP POP JUMP JUMPDEST PUSH1 0x0 DUP1 PUSH1 0x0 DUP1 PUSH1 0x0 DUP1 PUSH1 0x0 DUP1 PUSH1 0x0 DUP1 PUSH2 0x100 DUP12 DUP14 SUB SLT ISZERO PUSH2 0x8E0 JUMPI PUSH2 0x8DF PUSH2 0x1164 JUMP JUMPDEST JUMPDEST PUSH1 0x0 DUP12 ADD CALLDATALOAD PUSH8 0xFFFFFFFFFFFFFFFF DUP2 GT ISZERO PUSH2 0x8FE JUMPI PUSH2 0x8FD PUSH2 0x115F JUMP JUMPDEST JUMPDEST PUSH2 0x90A DUP14 DUP3 DUP15 ADD PUSH2 0x61F JUMP JUMPDEST SWAP11 POP POP PUSH1 0x20 DUP12 ADD CALLDATALOAD PUSH8 0xFFFFFFFFFFFFFFFF DUP2 GT ISZERO PUSH2 0x92B JUMPI PUSH2 0x92A PUSH2 0x115F JUMP JUMPDEST JUMPDEST PUSH2 0x937 DUP14 DUP3 DUP15 ADD PUSH2 0x5C9 JUMP JUMPDEST SWAP10 POP SWAP10 POP POP PUSH1 0x40 PUSH2 0x94A DUP14 DUP3 DUP15 ADD PUSH2 0x55C JUMP JUMPDEST SWAP8 POP POP PUSH1 0x60 PUSH2 0x95B DUP14 DUP3 DUP15 ADD PUSH2 0x826 JUMP JUMPDEST SWAP7 POP POP PUSH1 0x80 PUSH2 0x96C DUP14 DUP3 DUP15 ADD PUSH2 0x55C JUMP JUMPDEST SWAP6 POP POP PUSH1 0xA0 DUP12 ADD CALLDATALOAD PUSH8 0xFFFFFFFFFFFFFFFF DUP2 GT ISZERO PUSH2 0x98D JUMPI PUSH2 0x98C PUSH2 0x115F JUMP JUMPDEST JUMPDEST PUSH2 0x999 DUP14 DUP3 DUP15 ADD PUSH2 0x5C9 JUMP JUMPDEST SWAP5 POP SWAP5 POP POP PUSH1 0xC0 PUSH2 0x9AC DUP14 DUP3 DUP15 ADD PUSH2 0x865 JUMP JUMPDEST SWAP3 POP POP PUSH1 0xE0 PUSH2 0x9BD DUP14 DUP3 DUP15 ADD PUSH2 0x850 JUMP JUMPDEST SWAP2 POP POP SWAP3 SWAP6 SWAP9 SWAP12 SWAP2 SWAP5 SWAP8 SWAP11 POP SWAP3 SWAP6 SWAP9 POP JUMP JUMPDEST PUSH1 0x0 DUP1 PUSH1 0x0 PUSH2 0x220 DUP5 DUP7 SUB SLT ISZERO PUSH2 0x9E9 JUMPI PUSH2 0x9E8 PUSH2 0x1164 JUMP JUMPDEST JUMPDEST PUSH1 0x0 PUSH2 0x9F7 DUP7 DUP3 DUP8 ADD PUSH2 0x76F JUMP JUMPDEST SWAP4 POP POP PUSH1 0x80 PUSH2 0xA08 DUP7 DUP3 DUP8 ADD PUSH2 0x64D JUMP JUMPDEST SWAP3 POP POP PUSH2 0x200 DUP5 ADD MLOAD PUSH8 0xFFFFFFFFFFFFFFFF DUP2 GT ISZERO PUSH2 0xA2A JUMPI PUSH2 0xA29 PUSH2 0x115F JUMP JUMPDEST JUMPDEST PUSH2 0xA36 DUP7 DUP3 DUP8 ADD PUSH2 0x586 JUMP JUMPDEST SWAP2 POP POP SWAP3 POP SWAP3 POP SWAP3 JUMP JUMPDEST PUSH2 0xA49 DUP2 PUSH2 0xF01 JUMP JUMPDEST DUP3 MSTORE POP POP JUMP JUMPDEST PUSH2 0xA60 PUSH2 0xA5B DUP3 PUSH2 0xF01 JUMP JUMPDEST PUSH2 0x109E JUMP JUMPDEST DUP3 MSTORE POP POP JUMP JUMPDEST PUSH2 0xA77 PUSH2 0xA72 DUP3 PUSH2 0xF1F JUMP JUMPDEST PUSH2 0x10B0 JUMP JUMPDEST DUP3 MSTORE POP POP JUMP JUMPDEST PUSH2 0xA8E PUSH2 0xA89 DUP3 PUSH2 0xF29 JUMP JUMPDEST PUSH2 0x10BA JUMP JUMPDEST DUP3 MSTORE POP POP JUMP JUMPDEST PUSH1 0x0 PUSH2 0xAA0 DUP4 DUP6 PUSH2 0xE4A JUMP JUMPDEST SWAP4 POP PUSH2 0xAAD DUP4 DUP6 DUP5 PUSH2 0x102B JUMP JUMPDEST PUSH2 0xAB6 DUP4 PUSH2 0x1169 JUMP JUMPDEST DUP5 ADD SWAP1 POP SWAP4 SWAP3 POP POP POP JUMP JUMPDEST PUSH1 0x0 PUSH2 0xACC DUP3 PUSH2 0xE34 JUMP JUMPDEST PUSH2 0xAD6 DUP2 DUP6 PUSH2 0xE4A JUMP JUMPDEST SWAP4 POP PUSH2 0xAE6 DUP2 DUP6 PUSH1 0x20 DUP7 ADD PUSH2 0x103A JUMP JUMPDEST PUSH2 0xAEF DUP2 PUSH2 0x1169 JUMP JUMPDEST DUP5 ADD SWAP2 POP POP SWAP3 SWAP2 POP POP JUMP JUMPDEST PUSH1 0x0 PUSH2 0xB05 DUP3 PUSH2 0xE34 JUMP JUMPDEST PUSH2 0xB0F DUP2 DUP6 PUSH2 0xE5B JUMP JUMPDEST SWAP4 POP PUSH2 0xB1F DUP2 DUP6 PUSH1 0x20 DUP7 ADD PUSH2 0x103A JUMP JUMPDEST DUP1 DUP5 ADD SWAP2 POP POP SWAP3 SWAP2 POP POP JUMP JUMPDEST PUSH2 0xB34 DUP2 PUSH2 0xFD1 JUMP JUMPDEST DUP3 MSTORE POP POP JUMP JUMPDEST PUSH2 0xB43 DUP2 PUSH2 0xFE3 JUMP JUMPDEST DUP3 MSTORE POP POP JUMP JUMPDEST PUSH1 0x0 PUSH2 0xB54 DUP3 PUSH2 0xE3F JUMP JUMPDEST PUSH2 0xB5E DUP2 DUP6 PUSH2 0xE66 JUMP JUMPDEST SWAP4 POP PUSH2 0xB6E DUP2 DUP6 PUSH1 0x20 DUP7 ADD PUSH2 0x103A JUMP JUMPDEST PUSH2 0xB77 DUP2 PUSH2 0x1169 JUMP JUMPDEST DUP5 ADD SWAP2 POP POP SWAP3 SWAP2 POP POP JUMP JUMPDEST PUSH1 0x0 PUSH2 0xB8F PUSH1 0x15 DUP4 PUSH2 0xE66 JUMP JUMPDEST SWAP2 POP PUSH2 0xB9A DUP3 PUSH2 0x1194 JUMP JUMPDEST PUSH1 0x20 DUP3 ADD SWAP1 POP SWAP2 SWAP1 POP JUMP JUMPDEST PUSH2 0xBAE DUP2 PUSH2 0xF9C JUMP JUMPDEST DUP3 MSTORE POP POP JUMP JUMPDEST PUSH2 0xBC5 PUSH2 0xBC0 DUP3 PUSH2 0xF9C JUMP JUMPDEST PUSH2 0x10D6 JUMP JUMPDEST DUP3 MSTORE POP POP JUMP JUMPDEST PUSH2 0xBD4 DUP2 PUSH2 0xFAC JUMP JUMPDEST DUP3 MSTORE POP POP JUMP JUMPDEST PUSH2 0xBE3 DUP2 PUSH2 0x1019 JUMP JUMPDEST DUP3 MSTORE POP POP JUMP JUMPDEST PUSH2 0xBF2 DUP2 PUSH2 0xFB9 JUMP JUMPDEST DUP3 MSTORE POP POP JUMP JUMPDEST PUSH1 0x0 PUSH2 0xC04 DUP3 DUP7 PUSH2 0xA66 JUMP JUMPDEST PUSH1 0x20 DUP3 ADD SWAP2 POP PUSH2 0xC14 DUP3 DUP6 PUSH2 0xA4F JUMP JUMPDEST PUSH1 0x14 DUP3 ADD SWAP2 POP PUSH2 0xC24 DUP3 DUP5 PUSH2 0xBB4 JUMP JUMPDEST PUSH1 0x4 DUP3 ADD SWAP2 POP DUP2 SWAP1 POP SWAP5 SWAP4 POP POP POP POP JUMP JUMPDEST PUSH1 0x0 PUSH2 0xC41 DUP3 DUP6 PUSH2 0xA7D JUMP JUMPDEST PUSH1 0x4 DUP3 ADD SWAP2 POP PUSH2 0xC51 DUP3 DUP5 PUSH2 0xAFA JUMP JUMPDEST SWAP2 POP DUP2 SWAP1 POP SWAP4 SWAP3 POP POP POP JUMP JUMPDEST PUSH1 0x0 PUSH1 0x20 DUP3 ADD SWAP1 POP PUSH2 0xC72 PUSH1 0x0 DUP4 ADD DUP5 PUSH2 0xA40 JUMP JUMPDEST SWAP3 SWAP2 POP POP JUMP JUMPDEST PUSH1 0x0 PUSH1 0x60 DUP3 ADD SWAP1 POP PUSH2 0xC8D PUSH1 0x0 DUP4 ADD DUP7 PUSH2 0xA40 JUMP JUMPDEST PUSH2 0xC9A PUSH1 0x20 DUP4 ADD DUP6 PUSH2 0xBDA JUMP JUMPDEST DUP2 DUP2 SUB PUSH1 0x40 DUP4 ADD MSTORE PUSH2 0xCAC DUP2 DUP5 PUSH2 0xAC1 JUMP JUMPDEST SWAP1 POP SWAP5 SWAP4 POP POP POP POP JUMP JUMPDEST PUSH1 0x0 PUSH1 0x20 DUP3 ADD SWAP1 POP PUSH2 0xCCB PUSH1 0x0 DUP4 ADD DUP5 PUSH2 0xB2B JUMP JUMPDEST SWAP3 SWAP2 POP POP JUMP JUMPDEST PUSH1 0x0 PUSH1 0x20 DUP3 ADD SWAP1 POP PUSH2 0xCE6 PUSH1 0x0 DUP4 ADD DUP5 PUSH2 0xB3A JUMP JUMPDEST SWAP3 SWAP2 POP POP JUMP JUMPDEST PUSH1 0x0 PUSH2 0x120 DUP3 ADD SWAP1 POP DUP2 DUP2 SUB PUSH1 0x0 DUP4 ADD MSTORE PUSH2 0xD07 DUP2 DUP15 PUSH2 0xB49 JUMP JUMPDEST SWAP1 POP DUP2 DUP2 SUB PUSH1 0x20 DUP4 ADD MSTORE PUSH2 0xD1C DUP2 DUP13 DUP15 PUSH2 0xA94 JUMP JUMPDEST SWAP1 POP PUSH2 0xD2B PUSH1 0x40 DUP4 ADD DUP12 PUSH2 0xA40 JUMP JUMPDEST PUSH2 0xD38 PUSH1 0x60 DUP4 ADD DUP11 PUSH2 0xBA5 JUMP JUMPDEST PUSH2 0xD45 PUSH1 0x80 DUP4 ADD DUP10 PUSH2 0xA40 JUMP JUMPDEST DUP2 DUP2 SUB PUSH1 0xA0 DUP4 ADD MSTORE PUSH2 0xD58 DUP2 DUP8 DUP10 PUSH2 0xA94 JUMP JUMPDEST SWAP1 POP PUSH2 0xD67 PUSH1 0xC0 DUP4 ADD DUP7 PUSH2 0xBE9 JUMP JUMPDEST PUSH2 0xD74 PUSH1 0xE0 DUP4 ADD DUP6 PUSH2 0xBCB JUMP JUMPDEST PUSH2 0xD82 PUSH2 0x100 DUP4 ADD DUP5 PUSH2 0xA40 JUMP JUMPDEST SWAP13 SWAP12 POP POP POP POP POP POP POP POP POP POP POP POP JUMP JUMPDEST PUSH1 0x0 PUSH1 0x20 DUP3 ADD SWAP1 POP DUP2 DUP2 SUB PUSH1 0x0 DUP4 ADD MSTORE PUSH2 0xDAB DUP2 PUSH2 0xB82 JUMP JUMPDEST SWAP1 POP SWAP2 SWAP1 POP JUMP JUMPDEST PUSH1 0x0 PUSH2 0xDBC PUSH2 0xDCD JUMP JUMPDEST SWAP1 POP PUSH2 0xDC8 DUP3 DUP3 PUSH2 0x106D JUMP JUMPDEST SWAP2 SWAP1 POP JUMP JUMPDEST PUSH1 0x0 PUSH1 0x40 MLOAD SWAP1 POP SWAP1 JUMP JUMPDEST PUSH1 0x0 PUSH8 0xFFFFFFFFFFFFFFFF DUP3 GT ISZERO PUSH2 0xDF2 JUMPI PUSH2 0xDF1 PUSH2 0x1117 JUMP JUMPDEST JUMPDEST PUSH1 0x20 DUP3 MUL SWAP1 POP PUSH1 0x20 DUP2 ADD SWAP1 POP SWAP2 SWAP1 POP JUMP JUMPDEST PUSH1 0x0 PUSH8 0xFFFFFFFFFFFFFFFF DUP3 GT ISZERO PUSH2 0xE1E JUMPI PUSH2 0xE1D PUSH2 0x1117 JUMP JUMPDEST JUMPDEST PUSH2 0xE27 DUP3 PUSH2 0x1169 JUMP JUMPDEST SWAP1 POP PUSH1 0x20 DUP2 ADD SWAP1 POP SWAP2 SWAP1 POP JUMP JUMPDEST PUSH1 0x0 DUP2 MLOAD SWAP1 POP SWAP2 SWAP1 POP JUMP JUMPDEST PUSH1 0x0 DUP2 MLOAD SWAP1 POP SWAP2 SWAP1 POP JUMP JUMPDEST PUSH1 0x0 DUP3 DUP3 MSTORE PUSH1 0x20 DUP3 ADD SWAP1 POP SWAP3 SWAP2 POP POP JUMP JUMPDEST PUSH1 0x0 DUP2 SWAP1 POP SWAP3 SWAP2 POP POP JUMP JUMPDEST PUSH1 0x0 DUP3 DUP3 MSTORE PUSH1 0x20 DUP3 ADD SWAP1 POP SWAP3 SWAP2 POP POP JUMP JUMPDEST PUSH1 0x0 PUSH2 0xE82 DUP3 PUSH2 0xF92 JUMP JUMPDEST SWAP2 POP PUSH2 0xE8D DUP4 PUSH2 0xF92 JUMP JUMPDEST SWAP3 POP DUP3 PUSH32 0xFFFFFFFFFFFFFFFFFFFFFFFFFFFFFFFFFFFFFFFFFFFFFFFFFFFFFFFFFFFFFFFF SUB DUP3 GT ISZERO PUSH2 0xEC2 JUMPI PUSH2 0xEC1 PUSH2 0x10E8 JUMP JUMPDEST JUMPDEST DUP3 DUP3 ADD SWAP1 POP SWAP3 SWAP2 POP POP JUMP JUMPDEST PUSH1 0x0 PUSH2 0xED8 DUP3 PUSH2 0xF92 JUMP JUMPDEST SWAP2 POP PUSH2 0xEE3 DUP4 PUSH2 0xF92 JUMP JUMPDEST SWAP3 POP DUP3 DUP3 LT ISZERO PUSH2 0xEF6 JUMPI PUSH2 0xEF5 PUSH2 0x10E8 JUMP JUMPDEST JUMPDEST DUP3 DUP3 SUB SWAP1 POP SWAP3 SWAP2 POP POP JUMP JUMPDEST PUSH1 0x0 PUSH2 0xF0C DUP3 PUSH2 0xF63 JUMP JUMPDEST SWAP1 POP SWAP2 SWAP1 POP JUMP JUMPDEST PUSH1 0x0 DUP2 ISZERO ISZERO SWAP1 POP SWAP2 SWAP1 POP JUMP JUMPDEST PUSH1 0x0 DUP2 SWAP1 POP SWAP2 SWAP1 POP JUMP JUMPDEST PUSH1 0x0 PUSH32 0xFFFFFFFF00000000000000000000000000000000000000000000000000000000 DUP3 AND SWAP1 POP SWAP2 SWAP1 POP JUMP JUMPDEST PUSH1 0x0 PUSH2 0xFFFF DUP3 AND SWAP1 POP SWAP2 SWAP1 POP JUMP JUMPDEST PUSH1 0x0 PUSH20 0xFFFFFFFFFFFFFFFFFFFFFFFFFFFFFFFFFFFFFFFF DUP3 AND SWAP1 POP SWAP2 SWAP1 POP JUMP JUMPDEST PUSH1 0x0 PUSH3 0xFFFFFF DUP3 AND SWAP1 POP SWAP2 SWAP1 POP JUMP JUMPDEST PUSH1 0x0 DUP2 SWAP1 POP SWAP2 SWAP1 POP JUMP JUMPDEST PUSH1 0x0 PUSH4 0xFFFFFFFF DUP3 AND SWAP1 POP SWAP2 SWAP1 POP JUMP JUMPDEST PUSH1 0x0 PUSH1 0xFF DUP3 AND SWAP1 POP SWAP2 SWAP1 POP JUMP JUMPDEST PUSH1 0x0 PUSH12 0xFFFFFFFFFFFFFFFFFFFFFFFF DUP3 AND SWAP1 POP SWAP2 SWAP1 POP JUMP JUMPDEST PUSH1 0x0 PUSH2 0xFDC DUP3 PUSH2 0xFF5 JUMP JUMPDEST SWAP1 POP SWAP2 SWAP1 POP JUMP JUMPDEST PUSH1 0x0 PUSH2 0xFEE DUP3 PUSH2 0xFF5 JUMP JUMPDEST SWAP1 POP SWAP2 SWAP1 POP JUMP JUMPDEST PUSH1 0x0 PUSH2 0x1000 DUP3 PUSH2 0x1007 JUMP JUMPDEST SWAP1 POP SWAP2 SWAP1 POP JUMP JUMPDEST PUSH1 0x0 PUSH2 0x1012 DUP3 PUSH2 0xF63 JUMP JUMPDEST SWAP1 POP SWAP2 SWAP1 POP JUMP JUMPDEST PUSH1 0x0 PUSH2 0x1024 DUP3 PUSH2 0xFB9 JUMP JUMPDEST SWAP1 POP SWAP2 SWAP1 POP JUMP JUMPDEST DUP3 DUP2 DUP4 CALLDATACOPY PUSH1 0x0 DUP4 DUP4 ADD MSTORE POP POP POP JUMP JUMPDEST PUSH1 0x0 JUMPDEST DUP4 DUP2 LT ISZERO PUSH2 0x1058 JUMPI DUP1 DUP3 ADD MLOAD DUP2 DUP5 ADD MSTORE PUSH1 0x20 DUP2 ADD SWAP1 POP PUSH2 0x103D JUMP JUMPDEST DUP4 DUP2 GT ISZERO PUSH2 0x1067 JUMPI PUSH1 0x0 DUP5 DUP5 ADD MSTORE JUMPDEST POP POP POP POP JUMP JUMPDEST PUSH2 0x1076 DUP3 PUSH2 0x1169 JUMP JUMPDEST DUP2 ADD DUP2 DUP2 LT PUSH8 0xFFFFFFFFFFFFFFFF DUP3 GT OR ISZERO PUSH2 0x1095 JUMPI PUSH2 0x1094 PUSH2 0x1117 JUMP JUMPDEST JUMPDEST DUP1 PUSH1 0x40 MSTORE POP POP POP JUMP JUMPDEST PUSH1 0x0 PUSH2 0x10A9 DUP3 PUSH2 0x10C4 JUMP JUMPDEST SWAP1 POP SWAP2 SWAP1 POP JUMP JUMPDEST PUSH1 0x0 DUP2 SWAP1 POP SWAP2 SWAP1 POP JUMP JUMPDEST PUSH1 0x0 DUP2 SWAP1 POP SWAP2 SWAP1 POP JUMP JUMPDEST PUSH1 0x0 PUSH2 0x10CF DUP3 PUSH2 0x1187 JUMP JUMPDEST SWAP1 POP SWAP2 SWAP1 POP JUMP JUMPDEST PUSH1 0x0 PUSH2 0x10E1 DUP3 PUSH2 0x117A JUMP JUMPDEST SWAP1 POP SWAP2 SWAP1 POP JUMP JUMPDEST PUSH32 0x4E487B7100000000000000000000000000000000000000000000000000000000 PUSH1 0x0 MSTORE PUSH1 0x11 PUSH1 0x4 MSTORE PUSH1 0x24 PUSH1 0x0 REVERT JUMPDEST PUSH32 0x4E487B7100000000000000000000000000000000000000000000000000000000 PUSH1 0x0 MSTORE PUSH1 0x41 PUSH1 0x4 MSTORE PUSH1 0x24 PUSH1 0x0 REVERT JUMPDEST PUSH1 0x0 DUP1 REVERT JUMPDEST PUSH1 0x0 DUP1 REVERT JUMPDEST PUSH1 0x0 DUP1 REVERT JUMPDEST PUSH1 0x0 DUP1 REVERT JUMPDEST PUSH1 0x0 DUP1 REVERT JUMPDEST PUSH1 0x0 DUP1 REVERT JUMPDEST PUSH1 0x0 DUP1 REVERT JUMPDEST PUSH1 0x0 PUSH1 0x1F NOT PUSH1 0x1F DUP4 ADD AND SWAP1 POP SWAP2 SWAP1 POP JUMP JUMPDEST PUSH1 0x0 DUP2 PUSH1 0xE0 SHL SWAP1 POP SWAP2 SWAP1 POP JUMP JUMPDEST PUSH1 0x0 DUP2 PUSH1 0x60 SHL SWAP1 POP SWAP2 SWAP1 POP JUMP JUMPDEST PUSH32 0x6175746F2D617070726F76652064697361626C65640000000000000000000000 PUSH1 0x0 DUP3 ADD MSTORE POP JUMP JUMPDEST PUSH2 0x11C6 DUP2 PUSH2 0xF01 JUMP JUMPDEST DUP2 EQ PUSH2 0x11D1 JUMPI PUSH1 0x0 DUP1 REVERT JUMPDEST POP JUMP JUMPDEST PUSH2 0x11DD DUP2 PUSH2 0xF13 JUMP JUMPDEST DUP2 EQ PUSH2 0x11E8 JUMPI PUSH1 0x0 DUP1 REVERT JUMPDEST POP JUMP JUMPDEST PUSH2 0x11F4 DUP2 PUSH2 0xF55 JUMP JUMPDEST DUP2 EQ PUSH2 0x11FF JUMPI PUSH1 0x0 DUP1 REVERT JUMPDEST POP JUMP JUMPDEST PUSH2 0x120B DUP2 PUSH2 0xF83 JUMP JUMPDEST DUP2 EQ PUSH2 0x1216 JUMPI PUSH1 0x0 DUP1 REVERT JUMPDEST POP JUMP JUMPDEST PUSH2 0x1222 DUP2 PUSH2 0xF92 JUMP JUMPDEST DUP2 EQ PUSH2 0x122D JUMPI PUSH1 0x0 DUP1 REVERT JUMPDEST POP JUMP JUMPDEST PUSH2 0x1239 DUP2 PUSH2 0xF9C JUMP JUMPDEST DUP2 EQ PUSH2 0x1244 JUMPI PUSH1 0x0 DUP1 REVERT JUMPDEST POP JUMP JUMPDEST PUSH2 0x1250 DUP2 PUSH2 0xFAC JUMP JUMPDEST DUP2 EQ PUSH2 0x125B JUMPI PUSH1 0x0 DUP1 REVERT JUMPDEST POP JUMP JUMPDEST PUSH2 0x1267 DUP2 PUSH2 0xFB9 JUMP JUMPDEST DUP2 EQ PUSH2 0x1272 JUMPI PUSH1 0x0 DUP1 REVERT JUMPDEST POP JUMP INVALID LOG2 PUSH5 0x6970667358 0x22 SLT KECCAK256 BLOCKHASH PUSH2 0xEC0A 0xB0 0xC0 ORIGIN 0x5F DUP12 DUP9 DUP14 0xA8 PUSH30 0xF92C85B353A02C785CB4780CD4C884D442AE4E64736F6C63430008070033 "},"methodIdentifiers":{"i_link()":"7d253aff","i_registry()":"2a663606","registerAndPredictID(string,bytes,address,uint32,address,bytes,uint96,uint8)":"18a9fb8a","registrar()":"2b20e397"}}}}}