{
  "_format": "hh-sol-artifact-1",
  "contractName": "LiquiSwapV5",
  "sourceName": "contracts/LiquiswapV5.sol",
  "abi": [
    {
      "inputs": [],
      "stateMutability": "nonpayable",
      "type": "constructor"
    },
    {
      "anonymous": false,
      "inputs": [
        {
          "indexed": true,
          "internalType": "address",
          "name": "user",
          "type": "address"
        },
        {
          "indexed": false,
          "internalType": "string",
          "name": "token",
          "type": "string"
        },
        {
          "indexed": false,
          "internalType": "uint256",
          "name": "amount",
          "type": "uint256"
        }
      ],
      "name": "Deposit",
      "type": "event"
    },
    {
      "anonymous": false,
      "inputs": [
        {
          "indexed": true,
          "internalType": "int256",
          "name": "price",
          "type": "int256"
        },
        {
          "indexed": false,
          "internalType": "uint256",
          "name": "targetAmount",
          "type": "uint256"
        },
        {
          "indexed": false,
          "internalType": "uint256",
          "name": "actualAmount",
          "type": "uint256"
        }
      ],
      "name": "Liquidation",
      "type": "event"
    },
    {
      "anonymous": false,
      "inputs": [
        {
          "indexed": true,
          "internalType": "address",
          "name": "user",
          "type": "address"
        }
      ],
      "name": "UserAdded",
      "type": "event"
    },
    {
      "anonymous": false,
      "inputs": [
        {
          "indexed": true,
          "internalType": "address",
          "name": "user",
          "type": "address"
        }
      ],
      "name": "UserDeleted",
      "type": "event"
    },
    {
      "anonymous": false,
      "inputs": [
        {
          "indexed": true,
          "internalType": "address",
          "name": "user",
          "type": "address"
        },
        {
          "indexed": false,
          "internalType": "string",
          "name": "token",
          "type": "string"
        },
        {
          "indexed": false,
          "internalType": "uint256",
          "name": "amount",
          "type": "uint256"
        }
      ],
      "name": "Withdrawal",
      "type": "event"
    },
    {
      "stateMutability": "payable",
      "type": "fallback"
    },
    {
      "inputs": [
        {
          "internalType": "address",
          "name": "_newOwner",
          "type": "address"
        }
      ],
      "name": "addOwner",
      "outputs": [],
      "stateMutability": "nonpayable",
      "type": "function"
    },
    {
      "inputs": [],
      "name": "addUser",
      "outputs": [],
      "stateMutability": "nonpayable",
      "type": "function"
    },
    {
      "inputs": [
        {
          "internalType": "bytes",
          "name": "checkData",
          "type": "bytes"
        }
      ],
      "name": "checkUpkeep",
      "outputs": [
        {
          "internalType": "bool",
          "name": "upkeepNeeded",
          "type": "bool"
        },
        {
          "internalType": "bytes",
          "name": "performData",
          "type": "bytes"
        }
      ],
      "stateMutability": "view",
      "type": "function"
    },
    {
      "inputs": [
        {
          "internalType": "address",
          "name": "_delOwner",
          "type": "address"
        }
      ],
      "name": "delOwner",
      "outputs": [],
      "stateMutability": "nonpayable",
      "type": "function"
    },
    {
      "inputs": [],
      "name": "delUser",
      "outputs": [],
      "stateMutability": "nonpayable",
      "type": "function"
    },
    {
      "inputs": [
        {
          "internalType": "address",
          "name": "_addr",
          "type": "address"
        }
      ],
      "name": "getAaveWMATICAllowance",
      "outputs": [
        {
          "internalType": "uint256",
          "name": "",
          "type": "uint256"
        }
      ],
      "stateMutability": "view",
      "type": "function"
    },
    {
      "inputs": [],
      "name": "getAaveWMATICAllowance",
      "outputs": [
        {
          "internalType": "uint256",
          "name": "",
          "type": "uint256"
        }
      ],
      "stateMutability": "view",
      "type": "function"
    },
    {
      "inputs": [],
      "name": "getBalanceAaveWMATIC",
      "outputs": [
        {
          "internalType": "uint256",
          "name": "",
          "type": "uint256"
        }
      ],
      "stateMutability": "view",
      "type": "function"
    },
    {
      "inputs": [
        {
          "internalType": "address",
          "name": "_addr",
          "type": "address"
        }
      ],
      "name": "getBalanceAaveWMaticAddr",
      "outputs": [
        {
          "internalType": "uint256",
          "name": "",
          "type": "uint256"
        }
      ],
      "stateMutability": "view",
      "type": "function"
    },
    {
      "inputs": [],
      "name": "getBalanceDAI",
      "outputs": [
        {
          "internalType": "uint256",
          "name": "",
          "type": "uint256"
        }
      ],
      "stateMutability": "view",
      "type": "function"
    },
    {
      "inputs": [],
      "name": "getContractBalanceAaveWMATIC",
      "outputs": [
        {
          "internalType": "uint256",
          "name": "",
          "type": "uint256"
        }
      ],
      "stateMutability": "view",
      "type": "function"
    },
    {
      "inputs": [],
      "name": "getContractBalanceDAI",
      "outputs": [
        {
          "internalType": "uint256",
          "name": "",
          "type": "uint256"
        }
      ],
      "stateMutability": "view",
      "type": "function"
    },
    {
      "inputs": [],
      "name": "getContractBalanceMATIC",
      "outputs": [
        {
          "internalType": "uint256",
          "name": "",
          "type": "uint256"
        }
      ],
      "stateMutability": "view",
      "type": "function"
    },
    {
      "inputs": [],
      "name": "getLatestPrice",
      "outputs": [
        {
          "internalType": "int256",
          "name": "",
          "type": "int256"
        }
      ],
      "stateMutability": "view",
      "type": "function"
    },
    {
      "inputs": [
        {
          "internalType": "address",
          "name": "_addr",
          "type": "address"
        }
      ],
      "name": "getLiquidationPrice",
      "outputs": [
        {
          "internalType": "int256",
          "name": "",
          "type": "int256"
        }
      ],
      "stateMutability": "view",
      "type": "function"
    },
    {
      "inputs": [],
      "name": "getLiquidationPrice",
      "outputs": [
        {
          "internalType": "int256",
          "name": "",
          "type": "int256"
        }
      ],
      "stateMutability": "view",
      "type": "function"
    },
    {
      "inputs": [],
      "name": "isApproved",
      "outputs": [
        {
          "internalType": "bool",
          "name": "",
          "type": "bool"
        }
      ],
      "stateMutability": "view",
      "type": "function"
    },
    {
      "inputs": [
        {
          "internalType": "address",
          "name": "_user",
          "type": "address"
        }
      ],
      "name": "isApproved",
      "outputs": [
        {
          "internalType": "bool",
          "name": "",
          "type": "bool"
        }
      ],
      "stateMutability": "view",
      "type": "function"
    },
    {
      "inputs": [
        {
          "internalType": "address",
          "name": "",
          "type": "address"
        }
      ],
      "name": "owners",
      "outputs": [
        {
          "internalType": "bool",
          "name": "",
          "type": "bool"
        }
      ],
      "stateMutability": "view",
      "type": "function"
    },
    {
      "inputs": [
        {
          "internalType": "bytes",
          "name": "performData",
          "type": "bytes"
        }
      ],
      "name": "performUpkeep",
      "outputs": [],
      "stateMutability": "nonpayable",
      "type": "function"
    },
    {
      "inputs": [],
      "name": "priceDropAmount",
      "outputs": [
        {
          "internalType": "int256",
          "name": "",
          "type": "int256"
        }
      ],
      "stateMutability": "view",
      "type": "function"
    },
    {
      "inputs": [
        {
          "internalType": "int256",
          "name": "_liquidationPrice",
          "type": "int256"
        }
      ],
      "name": "setLiquidationPrice",
      "outputs": [],
      "stateMutability": "nonpayable",
      "type": "function"
    },
    {
      "inputs": [],
      "name": "supplyLiquidity",
      "outputs": [],
      "stateMutability": "payable",
      "type": "function"
    },
    {
      "inputs": [
        {
          "internalType": "int256",
          "name": "_liquidationPrice",
          "type": "int256"
        }
      ],
      "name": "supplyLiquidity",
      "outputs": [],
      "stateMutability": "payable",
      "type": "function"
    },
    {
      "inputs": [
        {
          "internalType": "address",
          "name": "",
          "type": "address"
        }
      ],
      "name": "users",
      "outputs": [
        {
          "internalType": "uint256",
          "name": "usersIndexPosition",
          "type": "uint256"
        },
        {
          "internalType": "int256",
          "name": "liquidationPrice",
          "type": "int256"
        },
        {
          "internalType": "uint256",
          "name": "sharesOfLiquidation",
          "type": "uint256"
        },
        {
          "internalType": "uint256",
          "name": "balanceDAI",
          "type": "uint256"
        }
      ],
      "stateMutability": "view",
      "type": "function"
    },
    {
      "inputs": [
        {
          "internalType": "uint256",
          "name": "",
          "type": "uint256"
        }
      ],
      "name": "usersIndex",
      "outputs": [
        {
          "internalType": "address",
          "name": "",
          "type": "address"
        }
      ],
      "stateMutability": "view",
      "type": "function"
    },
    {
      "inputs": [],
      "name": "withdrawDAI",
      "outputs": [],
      "stateMutability": "nonpayable",
      "type": "function"
    },
    {
      "inputs": [
        {
          "internalType": "uint256",
          "name": "_amount",
          "type": "uint256"
        }
      ],
      "name": "withdrawLiquidity",
      "outputs": [],
      "stateMutability": "nonpayable",
      "type": "function"
    },
    {
      "inputs": [],
      "name": "withdrawLiquidity",
      "outputs": [],
      "stateMutability": "nonpayable",
      "type": "function"
    },
    {
      "inputs": [
        {
          "internalType": "address",
          "name": "_addr",
          "type": "address"
        },
        {
          "internalType": "uint256",
          "name": "_amount",
          "type": "uint256"
        }
      ],
      "name": "zdevAaveWMATICTransferFrom",
      "outputs": [
        {
          "internalType": "bool",
          "name": "",
          "type": "bool"
        }
      ],
      "stateMutability": "nonpayable",
      "type": "function"
    },
    {
      "inputs": [],
      "name": "zdevBurnContractATokens",
      "outputs": [],
      "stateMutability": "nonpayable",
      "type": "function"
    },
    {
      "inputs": [],
      "name": "zdevGetAaveWMATICAllowanceGateway",
      "outputs": [
        {
          "internalType": "uint256",
          "name": "",
          "type": "uint256"
        }
      ],
      "stateMutability": "view",
      "type": "function"
    },
    {
      "inputs": [],
      "name": "zdevLoadMATIConATokenContract",
      "outputs": [],
      "stateMutability": "payable",
      "type": "function"
    },
    {
      "inputs": [],
      "name": "zdevRecoverAaveWMatic",
      "outputs": [],
      "stateMutability": "nonpayable",
      "type": "function"
    },
    {
      "inputs": [],
      "name": "zdevRecoverDAI",
      "outputs": [],
      "stateMutability": "nonpayable",
      "type": "function"
    },
    {
      "inputs": [],
      "name": "zdevRecoverMATIC",
      "outputs": [],
      "stateMutability": "nonpayable",
      "type": "function"
    },
    {
      "inputs": [],
      "name": "zdevRecoverMatic",
      "outputs": [],
      "stateMutability": "nonpayable",
      "type": "function"
    },
    {
      "inputs": [
        {
          "internalType": "int256",
          "name": "_priceDrop",
          "type": "int256"
        }
      ],
      "name": "zdevSetPriceDrop",
      "outputs": [],
      "stateMutability": "nonpayable",
      "type": "function"
    },
    {
      "stateMutability": "payable",
      "type": "receive"
    }
  ],
  "bytecode": "0x60c060405273d0d5e3db44de05e9f294bb0a3beeaf030de24ada6000806101000a81548173ffffffffffffffffffffffffffffffffffffffff021916908373ffffffffffffffffffffffffffffffffffffffff16021790555060008054906101000a900473ffffffffffffffffffffffffffffffffffffffff16600160006101000a81548173ffffffffffffffffffffffffffffffffffffffff021916908373ffffffffffffffffffffffffffffffffffffffff16021790555073e592427a0aece92de3edee1f18e0157c0586156473ffffffffffffffffffffffffffffffffffffffff1660809073ffffffffffffffffffffffffffffffffffffffff1660601b815250739c3c9283d3e44854697cd22d3faa240cfb032889600260006101000a81548173ffffffffffffffffffffffffffffffffffffffff021916908373ffffffffffffffffffffffffffffffffffffffff160217905550721b3b4d0f3714ca98ba10f6042daebf0b1b7b6f600360006101000a81548173ffffffffffffffffffffffffffffffffffffffff021916908373ffffffffffffffffffffffffffffffffffffffff160217905550736c9fb0d5bd9429eb9cd96b85b81d872281771e6b600460006101000a81548173ffffffffffffffffffffffffffffffffffffffff021916908373ffffffffffffffffffffffffffffffffffffffff160217905550732a58e9bbb5434fda7ff78051a4b82cb0ef669c1773ffffffffffffffffffffffffffffffffffffffff1660a09073ffffffffffffffffffffffffffffffffffffffff1660601b8152507389a6ae840b3f8f489418933a220315eea36d11ff600560006101000a81548173ffffffffffffffffffffffffffffffffffffffff021916908373ffffffffffffffffffffffffffffffffffffffff160217905550348015620002ad57600080fd5b506001600660003373ffffffffffffffffffffffffffffffffffffffff1673ffffffffffffffffffffffffffffffffffffffff16815260200190815260200160002060006101000a81548160ff021916908315150217905550600760008154620003179062000392565b91905081905550600860009080600181540180825580915050600190039060005260206000200160009091909190916101000a81548173ffffffffffffffffffffffffffffffffffffffff021916908373ffffffffffffffffffffffffffffffffffffffff1602179055506200040f565b6000819050919050565b60006200039f8262000388565b91507fffffffffffffffffffffffffffffffffffffffffffffffffffffffffffffffff821415620003d557620003d4620003e0565b5b600182019050919050565b7f4e487b7100000000000000000000000000000000000000000000000000000000600052601160045260246000fd5b60805160601c60a05160601c61484562000481600039600081816109f401528181611532015281816115c4015281816119c101528181611d5601528181611de801528181611f37015281816130c90152818161315b015281816133f501526134870152600061361101526148456000f3fe6080604052600436106102295760003560e01c806368b0cb6a11610123578063899478a6116100ab578063c2d6ed141161006f578063c2d6ed1414610789578063c7135dcd146107a5578063d34c4a7e146107bc578063dd45f63b146107e7578063f4d5f56b1461081257610230565b8063899478a6146106b35780638e15f473146106ca5780638f186aff146106f5578063a87430ba1461071e578063b4576cd11461075e57610230565b80637065cb48116100f25780637065cb48146105f4578063739841881461061d5780637ea382c11461064657806384ef904e1461065d57806384f2b9c31461068857610230565b806368b0cb6a1461056a5780636be69ab0146105745780636c7168981461058b5780636e04ff0d146105b657610230565b8063438b9f0d116101b15780634bed907d116101755780634bed907d1461048557806353315c6c146104b0578063534c197f146104d95780635dff7f2514610516578063673448dd1461052d57610230565b8063438b9f0d146103b2578063455c928c146103ef5780634585e33b14610406578063458c16ab1461042f57806346558d1b1461045a57610230565b806310fdda09116101f857806310fdda09146102b957806317d8de82146102f65780631f0e01b61461033357806328f371aa1461034a57806342a0cc311461037557610230565b8063020bcc9e14610232578063022914a71461024957806307a6bf69146102865780630a861f2a1461029057610230565b3661023057005b005b34801561023e57600080fd5b50610247610829565b005b34801561025557600080fd5b50610270600480360381019061026b91906137ac565b61097e565b60405161027d9190613e32565b60405180910390f35b61028e61099e565b005b34801561029c57600080fd5b506102b760048036038101906102b291906138c0565b610af5565b005b3480156102c557600080fd5b506102e060048036038101906102db91906138c0565b610dd7565b6040516102ed9190613d20565b60405180910390f35b34801561030257600080fd5b5061031d600480360381019061031891906137ac565b610e16565b60405161032a9190613e7d565b60405180910390f35b34801561033f57600080fd5b50610348610e62565b005b34801561035657600080fd5b5061035f610f5f565b60405161036c9190613e32565b60405180910390f35b34801561038157600080fd5b5061039c600480360381019061039791906137ac565b610f6f565b6040516103a99190614030565b60405180910390f35b3480156103be57600080fd5b506103d960048036038101906103d491906137d9565b611025565b6040516103e69190613e32565b60405180910390f35b3480156103fb57600080fd5b506104046110e0565b005b34801561041257600080fd5b5061042d60048036038101906104289190613846565b6112bf565b005b34801561043b57600080fd5b50610444611882565b6040516104519190614030565b60405180910390f35b34801561046657600080fd5b5061046f611934565b60405161047c9190613e7d565b60405180910390f35b34801561049157600080fd5b5061049a61197e565b6040516104a79190614030565b60405180910390f35b3480156104bc57600080fd5b506104d760048036038101906104d29190613893565b611a52565b005b3480156104e557600080fd5b5061050060048036038101906104fb91906137ac565b611b22565b60405161050d9190614030565b60405180910390f35b34801561052257600080fd5b5061052b611bd6565b005b34801561053957600080fd5b50610554600480360381019061054f91906137ac565b611f21565b6040516105619190613e32565b60405180910390f35b610572611f35565b005b34801561058057600080fd5b50610589611fea565b005b34801561059757600080fd5b506105a06121d8565b6040516105ad9190614030565b60405180910390f35b3480156105c257600080fd5b506105dd60048036038101906105d89190613846565b612222565b6040516105eb929190613e4d565b60405180910390f35b34801561060057600080fd5b5061061b600480360381019061061691906137ac565b612383565b005b34801561062957600080fd5b50610644600480360381019061063f91906137ac565b612480565b005b34801561065257600080fd5b5061065b61264e565b005b34801561066957600080fd5b50610672612709565b60405161067f9190614030565b60405180910390f35b34801561069457600080fd5b5061069d6127bb565b6040516106aa9190614030565b60405180910390f35b3480156106bf57600080fd5b506106c86127c3565b005b3480156106d657600080fd5b506106df612ab0565b6040516106ec9190613e7d565b60405180910390f35b34801561070157600080fd5b5061071c60048036038101906107179190613893565b612b7b565b005b34801561072a57600080fd5b50610745600480360381019061074091906137ac565b612c11565b604051610755949392919061404b565b60405180910390f35b34801561076a57600080fd5b50610773612c41565b6040516107809190613e7d565b60405180910390f35b6107a3600480360381019061079e9190613893565b612c47565b005b3480156107b157600080fd5b506107ba612c99565b005b3480156107c857600080fd5b506107d1612e87565b6040516107de9190614030565b60405180910390f35b3480156107f357600080fd5b506107fc612e97565b6040516108099190614030565b60405180910390f35b34801561081e57600080fd5b50610827612f49565b005b60006108336121d8565b90506000600960003373ffffffffffffffffffffffffffffffffffffffff1673ffffffffffffffffffffffffffffffffffffffff16815260200190815260200160002060030181905550600360009054906101000a900473ffffffffffffffffffffffffffffffffffffffff1673ffffffffffffffffffffffffffffffffffffffff1663a9059cbb33836040518363ffffffff1660e01b81526004016108da929190613dd2565b602060405180830381600087803b1580156108f457600080fd5b505af1158015610908573d6000803e3d6000fd5b505050506040513d601f19601f8201168201806040525081019061092c9190613819565b503373ffffffffffffffffffffffffffffffffffffffff167f323cefffcafc4dae937c4a852e3866ecde9e8c1d723e1187230b982201040fb6826040516109739190613f18565b60405180910390a250565b60066020528060005260406000206000915054906101000a900460ff1681565b6000600960003373ffffffffffffffffffffffffffffffffffffffff1673ffffffffffffffffffffffffffffffffffffffff1681526020019081526020016000206000015414156109f2576109f16110e0565b5b7f000000000000000000000000000000000000000000000000000000000000000073ffffffffffffffffffffffffffffffffffffffff1663474cf53d34600460009054906101000a900473ffffffffffffffffffffffffffffffffffffffff163360006040518563ffffffff1660e01b8152600401610a7393929190613d64565b6000604051808303818588803b158015610a8c57600080fd5b505af1158015610aa0573d6000803e3d6000fd5b50505050503373ffffffffffffffffffffffffffffffffffffffff167f2d4b597935f3cd67fb2eebf1db4debc934cee5c7baa7153f980fdbeb2e74084e34604051610aeb9190613f46565b60405180910390a2565b600560009054906101000a900473ffffffffffffffffffffffffffffffffffffffff1673ffffffffffffffffffffffffffffffffffffffff166370a08231336040518263ffffffff1660e01b8152600401610b509190613d20565b60206040518083038186803b158015610b6857600080fd5b505afa158015610b7c573d6000803e3d6000fd5b505050506040513d601f19601f82011682018060405250810190610ba091906138ed565b811115610be2576040517f08c379a0000000000000000000000000000000000000000000000000000000008152600401610bd990613ef8565b60405180910390fd5b600560009054906101000a900473ffffffffffffffffffffffffffffffffffffffff1673ffffffffffffffffffffffffffffffffffffffff1663dd62ed3e33306040518363ffffffff1660e01b8152600401610c3f929190613d3b565b60206040518083038186803b158015610c5757600080fd5b505afa158015610c6b573d6000803e3d6000fd5b505050506040513d601f19601f82011682018060405250810190610c8f91906138ed565b811115610cd1576040517f08c379a0000000000000000000000000000000000000000000000000000000008152600401610cc890613eb8565b60405180910390fd5b6000610cdb611882565b9050610ce68261320e565b600081610cf1611882565b610cfb91906142ac565b9050610d056127bb565b9150610d10816132c3565b81610d196127bb565b610d2391906142ac565b905060003373ffffffffffffffffffffffffffffffffffffffff1682604051610d4b90613d0b565b60006040518083038185875af1925050503d8060008114610d88576040519150601f19603f3d011682016040523d82523d6000602084013e610d8d565b606091505b5050905080610dd1576040517f08c379a0000000000000000000000000000000000000000000000000000000008152600401610dc890613ff4565b60405180910390fd5b50505050565b60088181548110610de757600080fd5b906000526020600020016000915054906101000a900473ffffffffffffffffffffffffffffffffffffffff1681565b6000600960008373ffffffffffffffffffffffffffffffffffffffff1673ffffffffffffffffffffffffffffffffffffffff168152602001908152602001600020600101549050919050565b600660003373ffffffffffffffffffffffffffffffffffffffff1673ffffffffffffffffffffffffffffffffffffffff16815260200190815260200160002060009054906101000a900460ff16610eee576040517f08c379a0000000000000000000000000000000000000000000000000000000008152600401610ee590613f74565b60405180910390fd5b60004790503373ffffffffffffffffffffffffffffffffffffffff1681604051610f1790613d0b565b60006040518083038185875af1925050503d8060008114610f54576040519150601f19603f3d011682016040523d82523d6000602084013e610f59565b606091505b50505050565b6000610f6a33611f21565b905090565b6000600560009054906101000a900473ffffffffffffffffffffffffffffffffffffffff1673ffffffffffffffffffffffffffffffffffffffff1663dd62ed3e83306040518363ffffffff1660e01b8152600401610fce929190613d3b565b60206040518083038186803b158015610fe657600080fd5b505afa158015610ffa573d6000803e3d6000fd5b505050506040513d601f19601f8201168201806040525081019061101e91906138ed565b9050919050565b6000600560009054906101000a900473ffffffffffffffffffffffffffffffffffffffff1673ffffffffffffffffffffffffffffffffffffffff166323b872dd8430856040518463ffffffff1660e01b815260040161108693929190613d9b565b602060405180830381600087803b1580156110a057600080fd5b505af11580156110b4573d6000803e3d6000fd5b505050506040513d601f19601f820116820180604052508101906110d89190613819565b905092915050565b6000600960003373ffffffffffffffffffffffffffffffffffffffff1673ffffffffffffffffffffffffffffffffffffffff1681526020019081526020016000206000015414611165576040517f08c379a000000000000000000000000000000000000000000000000000000000815260040161115c90613e98565b60405180910390fd5b6008339080600181540180825580915050600190039060005260206000200160009091909190916101000a81548173ffffffffffffffffffffffffffffffffffffffff021916908373ffffffffffffffffffffffffffffffffffffffff160217905550604051806080016040528060088054905081526020017fffffffffffffffffffffffffffffffffffffffffffffffffffffffffffffffff8152602001600081526020016000815250600960003373ffffffffffffffffffffffffffffffffffffffff1673ffffffffffffffffffffffffffffffffffffffff168152602001908152602001600020600082015181600001556020820151816001015560408201518160020155606082015181600301559050503373ffffffffffffffffffffffffffffffffffffffff167f19ef9a4877199f89440a26acb26895ec02ed86f2df1aeaa90dc18041b892f71f60405160405180910390a2565b60006112c9612ab0565b905060008060005b858590508110156114dc57858582906014846112ed9190614137565b926112fa939291906140fc565b906113059190614391565b60601c9150600960008373ffffffffffffffffffffffffffffffffffffffff1673ffffffffffffffffffffffffffffffffffffffff1681526020019081526020016000206001015484136114c857600061135e83611b22565b9050600061136b84610f6f565b905060008211801561137d5750600081115b156114c557600081831161139357829050611397565b8190505b60006113a1611882565b9050600560009054906101000a900473ffffffffffffffffffffffffffffffffffffffff1673ffffffffffffffffffffffffffffffffffffffff166323b872dd8730856040518463ffffffff1660e01b815260040161140293929190613d9b565b602060405180830381600087803b15801561141c57600080fd5b505af1158015611430573d6000803e3d6000fd5b505050506040513d601f19601f820116820180604052508101906114549190613819565b50600081611460611882565b61146a91906142ac565b905080600960008973ffffffffffffffffffffffffffffffffffffffff1673ffffffffffffffffffffffffffffffffffffffff1681526020019081526020016000206002018190555080886114bf9190614137565b97505050505b50505b6014816114d59190614137565b90506112d1565b50600082111561187b5760006114f06127bb565b9050600560009054906101000a900473ffffffffffffffffffffffffffffffffffffffff1673ffffffffffffffffffffffffffffffffffffffff1663095ea7b37f0000000000000000000000000000000000000000000000000000000000000000856040518363ffffffff1660e01b815260040161156f929190613dd2565b602060405180830381600087803b15801561158957600080fd5b505af115801561159d573d6000803e3d6000fd5b505050506040513d601f19601f820116820180604052508101906115c19190613819565b507f000000000000000000000000000000000000000000000000000000000000000073ffffffffffffffffffffffffffffffffffffffff166380500d20600460009054906101000a900473ffffffffffffffffffffffffffffffffffffffff1685306040518463ffffffff1660e01b815260040161164193929190613dfb565b600060405180830381600087803b15801561165b57600080fd5b505af115801561166f573d6000803e3d6000fd5b5050505060008161167e6127bb565b61168891906142ac565b905060006116958261353a565b9050600081111561183d5760005b8888905081101561183b57888882906014846116bf9190614137565b926116cc939291906140fc565b906116d79190614391565b60601c94506000600960008773ffffffffffffffffffffffffffffffffffffffff1673ffffffffffffffffffffffffffffffffffffffff16815260200190815260200160002060020154111561182757600086600960008873ffffffffffffffffffffffffffffffffffffffff1673ffffffffffffffffffffffffffffffffffffffff168152602001908152602001600020600201548461177891906141be565b611782919061418d565b905080600960008873ffffffffffffffffffffffffffffffffffffffff1673ffffffffffffffffffffffffffffffffffffffff16815260200190815260200160002060030160008282546117d69190614137565b925050819055506000600960008873ffffffffffffffffffffffffffffffffffffffff1673ffffffffffffffffffffffffffffffffffffffff16815260200190815260200160002060020181905550505b6014816118349190614137565b90506116a3565b505b857f6d849981c611af330f71fdd5474d305fe6aaf66db1776f284d113e26b3967941868360405161186f929190614090565b60405180910390a25050505b5050505050565b6000600560009054906101000a900473ffffffffffffffffffffffffffffffffffffffff1673ffffffffffffffffffffffffffffffffffffffff166370a08231306040518263ffffffff1660e01b81526004016118df9190613d20565b60206040518083038186803b1580156118f757600080fd5b505afa15801561190b573d6000803e3d6000fd5b505050506040513d601f19601f8201168201806040525081019061192f91906138ed565b905090565b6000600960003373ffffffffffffffffffffffffffffffffffffffff1673ffffffffffffffffffffffffffffffffffffffff16815260200190815260200160002060010154905090565b6000600560009054906101000a900473ffffffffffffffffffffffffffffffffffffffff1673ffffffffffffffffffffffffffffffffffffffff1663dd62ed3e307f00000000000000000000000000000000000000000000000000000000000000006040518363ffffffff1660e01b81526004016119fd929190613d3b565b60206040518083038186803b158015611a1557600080fd5b505afa158015611a29573d6000803e3d6000fd5b505050506040513d601f19601f82011682018060405250810190611a4d91906138ed565b905090565b6000600960003373ffffffffffffffffffffffffffffffffffffffff1673ffffffffffffffffffffffffffffffffffffffff168152602001908152602001600020600001541415611ad8576040517f08c379a0000000000000000000000000000000000000000000000000000000008152600401611acf90613f94565b60405180910390fd5b80600960003373ffffffffffffffffffffffffffffffffffffffff1673ffffffffffffffffffffffffffffffffffffffff1681526020019081526020016000206001018190555050565b6000600560009054906101000a900473ffffffffffffffffffffffffffffffffffffffff1673ffffffffffffffffffffffffffffffffffffffff166370a08231836040518263ffffffff1660e01b8152600401611b7f9190613d20565b60206040518083038186803b158015611b9757600080fd5b505afa158015611bab573d6000803e3d6000fd5b505050506040513d601f19601f82011682018060405250810190611bcf91906138ed565b9050919050565b600660003373ffffffffffffffffffffffffffffffffffffffff1673ffffffffffffffffffffffffffffffffffffffff16815260200190815260200160002060009054906101000a900460ff16611c62576040517f08c379a0000000000000000000000000000000000000000000000000000000008152600401611c5990613f74565b60405180910390fd5b60003090506000600560009054906101000a900473ffffffffffffffffffffffffffffffffffffffff1673ffffffffffffffffffffffffffffffffffffffff166370a08231836040518263ffffffff1660e01b8152600401611cc49190613d20565b60206040518083038186803b158015611cdc57600080fd5b505afa158015611cf0573d6000803e3d6000fd5b505050506040513d601f19601f82011682018060405250810190611d1491906138ed565b9050600560009054906101000a900473ffffffffffffffffffffffffffffffffffffffff1673ffffffffffffffffffffffffffffffffffffffff1663095ea7b37f0000000000000000000000000000000000000000000000000000000000000000836040518363ffffffff1660e01b8152600401611d93929190613dd2565b602060405180830381600087803b158015611dad57600080fd5b505af1158015611dc1573d6000803e3d6000fd5b505050506040513d601f19601f82011682018060405250810190611de59190613819565b507f000000000000000000000000000000000000000000000000000000000000000073ffffffffffffffffffffffffffffffffffffffff166380500d20600460009054906101000a900473ffffffffffffffffffffffffffffffffffffffff1683856040518463ffffffff1660e01b8152600401611e6593929190613dfb565b600060405180830381600087803b158015611e7f57600080fd5b505af1158015611e93573d6000803e3d6000fd5b5050505060008273ffffffffffffffffffffffffffffffffffffffff163190503373ffffffffffffffffffffffffffffffffffffffff1681604051611ed790613d0b565b60006040518083038185875af1925050503d8060008114611f14576040519150601f19603f3d011682016040523d82523d6000602084013e611f19565b606091505b505050505050565b600080611f2d83610f6f565b119050919050565b7f000000000000000000000000000000000000000000000000000000000000000073ffffffffffffffffffffffffffffffffffffffff1663474cf53d34600460009054906101000a900473ffffffffffffffffffffffffffffffffffffffff163360006040518563ffffffff1660e01b8152600401611fb693929190613d64565b6000604051808303818588803b158015611fcf57600080fd5b505af1158015611fe3573d6000803e3d6000fd5b5050505050565b600660003373ffffffffffffffffffffffffffffffffffffffff1673ffffffffffffffffffffffffffffffffffffffff16815260200190815260200160002060009054906101000a900460ff16612076576040517f08c379a000000000000000000000000000000000000000000000000000000000815260040161206d90613f74565b60405180910390fd5b6000600560009054906101000a900473ffffffffffffffffffffffffffffffffffffffff1673ffffffffffffffffffffffffffffffffffffffff166370a08231306040518263ffffffff1660e01b81526004016120d39190613d20565b60206040518083038186803b1580156120eb57600080fd5b505afa1580156120ff573d6000803e3d6000fd5b505050506040513d601f19601f8201168201806040525081019061212391906138ed565b9050600560009054906101000a900473ffffffffffffffffffffffffffffffffffffffff1673ffffffffffffffffffffffffffffffffffffffff1663a9059cbb33836040518363ffffffff1660e01b8152600401612182929190613dd2565b602060405180830381600087803b15801561219c57600080fd5b505af11580156121b0573d6000803e3d6000fd5b505050506040513d601f19601f820116820180604052508101906121d49190613819565b5050565b6000600960003373ffffffffffffffffffffffffffffffffffffffff1673ffffffffffffffffffffffffffffffffffffffff16815260200190815260200160002060030154905090565b600060606000612230612ab0565b90506000600190505b60088054905081101561236b5760006008828154811061225c5761225b614559565b5b9060005260206000200160009054906101000a900473ffffffffffffffffffffffffffffffffffffffff1690506000600960008373ffffffffffffffffffffffffffffffffffffffff1673ffffffffffffffffffffffffffffffffffffffff16815260200190815260200160002060405180608001604052908160008201548152602001600182015481526020016002820154815260200160038201548152505090508060200151841361235857600061231583611b22565b905060008111801561232c575061232b83611f21565b5b15612356578583604051602001612344929190613ce3565b60405160208183030381529060405295505b505b5050806123649061445f565b9050612239565b5060008251111561237b57600192505b509250929050565b600660003373ffffffffffffffffffffffffffffffffffffffff1673ffffffffffffffffffffffffffffffffffffffff16815260200190815260200160002060009054906101000a900460ff1661240f576040517f08c379a000000000000000000000000000000000000000000000000000000000815260040161240690613f74565b60405180910390fd5b6001600660008373ffffffffffffffffffffffffffffffffffffffff1673ffffffffffffffffffffffffffffffffffffffff16815260200190815260200160002060006101000a81548160ff0219169083151502179055506007600081546124769061445f565b9190508190555050565b600660003373ffffffffffffffffffffffffffffffffffffffff1673ffffffffffffffffffffffffffffffffffffffff16815260200190815260200160002060009054906101000a900460ff1661250c576040517f08c379a000000000000000000000000000000000000000000000000000000000815260040161250390613f74565b60405180910390fd5b600160075411612551576040517f08c379a000000000000000000000000000000000000000000000000000000000815260040161254890613ed8565b60405180910390fd5b600660008273ffffffffffffffffffffffffffffffffffffffff1673ffffffffffffffffffffffffffffffffffffffff16815260200190815260200160002060009054906101000a900460ff166125dd576040517f08c379a00000000000000000000000000000000000000000000000000000000081526004016125d490613fb4565b60405180910390fd5b6000600660008373ffffffffffffffffffffffffffffffffffffffff1673ffffffffffffffffffffffffffffffffffffffff16815260200190815260200160002060006101000a81548160ff02191690831515021790555060076000815461264490614435565b9190508190555050565b6000600560009054906101000a900473ffffffffffffffffffffffffffffffffffffffff1673ffffffffffffffffffffffffffffffffffffffff166370a08231336040518263ffffffff1660e01b81526004016126ab9190613d20565b60206040518083038186803b1580156126c357600080fd5b505afa1580156126d7573d6000803e3d6000fd5b505050506040513d601f19601f820116820180604052508101906126fb91906138ed565b905061270681610af5565b50565b6000600360009054906101000a900473ffffffffffffffffffffffffffffffffffffffff1673ffffffffffffffffffffffffffffffffffffffff166370a08231306040518263ffffffff1660e01b81526004016127669190613d20565b60206040518083038186803b15801561277e57600080fd5b505afa158015612792573d6000803e3d6000fd5b505050506040513d601f19601f820116820180604052508101906127b691906138ed565b905090565b600047905090565b6000600960003373ffffffffffffffffffffffffffffffffffffffff1673ffffffffffffffffffffffffffffffffffffffff168152602001908152602001600020600001541415612849576040517f08c379a000000000000000000000000000000000000000000000000000000000815260040161284090613f94565b60405180910390fd5b6000600960003373ffffffffffffffffffffffffffffffffffffffff1673ffffffffffffffffffffffffffffffffffffffff16815260200190815260200160002060030154146128ce576040517f08c379a00000000000000000000000000000000000000000000000000000000081526004016128c590613fd4565b60405180910390fd5b6000600960003373ffffffffffffffffffffffffffffffffffffffff1673ffffffffffffffffffffffffffffffffffffffff1681526020019081526020016000206000015490506008600160088054905061292991906142ac565b8154811061293a57612939614559565b5b9060005260206000200160009054906101000a900473ffffffffffffffffffffffffffffffffffffffff166008828154811061297957612978614559565b5b9060005260206000200160006101000a81548173ffffffffffffffffffffffffffffffffffffffff021916908373ffffffffffffffffffffffffffffffffffffffff16021790555060088054806129d3576129d261452a565b5b6001900381819060005260206000200160006101000a81549073ffffffffffffffffffffffffffffffffffffffff02191690559055600960003373ffffffffffffffffffffffffffffffffffffffff1673ffffffffffffffffffffffffffffffffffffffff16815260200190815260200160002060008082016000905560018201600090556002820160009055600382016000905550503373ffffffffffffffffffffffffffffffffffffffff167f4bc56f1321288dfb5b416cb3a7fd188723979f9e866c91d88eccf7fca039d03960405160405180910390a250565b600080600080600080600160009054906101000a900473ffffffffffffffffffffffffffffffffffffffff1673ffffffffffffffffffffffffffffffffffffffff1663feaf968c6040518163ffffffff1660e01b815260040160a06040518083038186803b158015612b2157600080fd5b505afa158015612b35573d6000803e3d6000fd5b505050506040513d601f19601f82011682018060405250810190612b59919061391a565b94509450945094509450600a5484612b719190614218565b9550505050505090565b600660003373ffffffffffffffffffffffffffffffffffffffff1673ffffffffffffffffffffffffffffffffffffffff16815260200190815260200160002060009054906101000a900460ff16612c07576040517f08c379a0000000000000000000000000000000000000000000000000000000008152600401612bfe90613f74565b60405180910390fd5b80600a8190555050565b60096020528060005260406000206000915090508060000154908060010154908060020154908060030154905084565b600a5481565b612c4f61099e565b80600960003373ffffffffffffffffffffffffffffffffffffffff1673ffffffffffffffffffffffffffffffffffffffff1681526020019081526020016000206001018190555050565b600660003373ffffffffffffffffffffffffffffffffffffffff1673ffffffffffffffffffffffffffffffffffffffff16815260200190815260200160002060009054906101000a900460ff16612d25576040517f08c379a0000000000000000000000000000000000000000000000000000000008152600401612d1c90613f74565b60405180910390fd5b6000600360009054906101000a900473ffffffffffffffffffffffffffffffffffffffff1673ffffffffffffffffffffffffffffffffffffffff166370a08231306040518263ffffffff1660e01b8152600401612d829190613d20565b60206040518083038186803b158015612d9a57600080fd5b505afa158015612dae573d6000803e3d6000fd5b505050506040513d601f19601f82011682018060405250810190612dd291906138ed565b9050600360009054906101000a900473ffffffffffffffffffffffffffffffffffffffff1673ffffffffffffffffffffffffffffffffffffffff1663a9059cbb33836040518363ffffffff1660e01b8152600401612e31929190613dd2565b602060405180830381600087803b158015612e4b57600080fd5b505af1158015612e5f573d6000803e3d6000fd5b505050506040513d601f19601f82011682018060405250810190612e839190613819565b5050565b6000612e9233610f6f565b905090565b6000600560009054906101000a900473ffffffffffffffffffffffffffffffffffffffff1673ffffffffffffffffffffffffffffffffffffffff166370a08231336040518263ffffffff1660e01b8152600401612ef49190613d20565b60206040518083038186803b158015612f0c57600080fd5b505afa158015612f20573d6000803e3d6000fd5b505050506040513d601f19601f82011682018060405250810190612f4491906138ed565b905090565b600660003373ffffffffffffffffffffffffffffffffffffffff1673ffffffffffffffffffffffffffffffffffffffff16815260200190815260200160002060009054906101000a900460ff16612fd5576040517f08c379a0000000000000000000000000000000000000000000000000000000008152600401612fcc90613f74565b60405180910390fd5b60003090506000600560009054906101000a900473ffffffffffffffffffffffffffffffffffffffff1673ffffffffffffffffffffffffffffffffffffffff166370a08231836040518263ffffffff1660e01b81526004016130379190613d20565b60206040518083038186803b15801561304f57600080fd5b505afa158015613063573d6000803e3d6000fd5b505050506040513d601f19601f8201168201806040525081019061308791906138ed565b9050600560009054906101000a900473ffffffffffffffffffffffffffffffffffffffff1673ffffffffffffffffffffffffffffffffffffffff1663095ea7b37f0000000000000000000000000000000000000000000000000000000000000000836040518363ffffffff1660e01b8152600401613106929190613dd2565b602060405180830381600087803b15801561312057600080fd5b505af1158015613134573d6000803e3d6000fd5b505050506040513d601f19601f820116820180604052508101906131589190613819565b507f000000000000000000000000000000000000000000000000000000000000000073ffffffffffffffffffffffffffffffffffffffff166380500d20600460009054906101000a900473ffffffffffffffffffffffffffffffffffffffff1683856040518463ffffffff1660e01b81526004016131d893929190613dfb565b600060405180830381600087803b1580156131f257600080fd5b505af1158015613206573d6000803e3d6000fd5b505050505050565b600560009054906101000a900473ffffffffffffffffffffffffffffffffffffffff1673ffffffffffffffffffffffffffffffffffffffff166323b872dd3330846040518463ffffffff1660e01b815260040161326d93929190613d9b565b602060405180830381600087803b15801561328757600080fd5b505af115801561329b573d6000803e3d6000fd5b505050506040513d601f19601f820116820180604052508101906132bf9190613819565b5050565b6000600560009054906101000a900473ffffffffffffffffffffffffffffffffffffffff1673ffffffffffffffffffffffffffffffffffffffff166370a08231306040518263ffffffff1660e01b81526004016133209190613d20565b60206040518083038186803b15801561333857600080fd5b505afa15801561334c573d6000803e3d6000fd5b505050506040513d601f19601f8201168201806040525081019061337091906138ed565b9050808211156133b5576040517f08c379a00000000000000000000000000000000000000000000000000000000081526004016133ac90613ef8565b60405180910390fd5b600560009054906101000a900473ffffffffffffffffffffffffffffffffffffffff1673ffffffffffffffffffffffffffffffffffffffff1663095ea7b37f0000000000000000000000000000000000000000000000000000000000000000846040518363ffffffff1660e01b8152600401613432929190613dd2565b602060405180830381600087803b15801561344c57600080fd5b505af1158015613460573d6000803e3d6000fd5b505050506040513d601f19601f820116820180604052508101906134849190613819565b507f000000000000000000000000000000000000000000000000000000000000000073ffffffffffffffffffffffffffffffffffffffff166380500d20600460009054906101000a900473ffffffffffffffffffffffffffffffffffffffff1684306040518463ffffffff1660e01b815260040161350493929190613dfb565b600060405180830381600087803b15801561351e57600080fd5b505af1158015613532573d6000803e3d6000fd5b505050505050565b600080604051806101000160405280600260009054906101000a900473ffffffffffffffffffffffffffffffffffffffff1673ffffffffffffffffffffffffffffffffffffffff168152602001721b3b4d0f3714ca98ba10f6042daebf0b1b7b6f73ffffffffffffffffffffffffffffffffffffffff168152602001610bb862ffffff1681526020013073ffffffffffffffffffffffffffffffffffffffff16815260200142815260200184815260200160008152602001600073ffffffffffffffffffffffffffffffffffffffff1681525090507f000000000000000000000000000000000000000000000000000000000000000073ffffffffffffffffffffffffffffffffffffffff1663414bf38984836040518363ffffffff1660e01b81526004016136699190614014565b6020604051808303818588803b15801561368257600080fd5b505af1158015613696573d6000803e3d6000fd5b50505050506040513d601f19601f820116820180604052508101906136bb91906138ed565b915050919050565b6000813590506136d28161479c565b92915050565b6000815190506136e7816147b3565b92915050565b60008083601f8401126137035761370261458d565b5b8235905067ffffffffffffffff8111156137205761371f614588565b5b60208301915083600182028301111561373c5761373b61459c565b5b9250929050565b600081359050613752816147ca565b92915050565b600081519050613767816147ca565b92915050565b60008135905061377c816147e1565b92915050565b600081519050613791816147e1565b92915050565b6000815190506137a6816147f8565b92915050565b6000602082840312156137c2576137c16145a6565b5b60006137d0848285016136c3565b91505092915050565b600080604083850312156137f0576137ef6145a6565b5b60006137fe858286016136c3565b925050602061380f8582860161376d565b9150509250929050565b60006020828403121561382f5761382e6145a6565b5b600061383d848285016136d8565b91505092915050565b6000806020838503121561385d5761385c6145a6565b5b600083013567ffffffffffffffff81111561387b5761387a6145a1565b5b613887858286016136ed565b92509250509250929050565b6000602082840312156138a9576138a86145a6565b5b60006138b784828501613743565b91505092915050565b6000602082840312156138d6576138d56145a6565b5b60006138e48482850161376d565b91505092915050565b600060208284031215613903576139026145a6565b5b600061391184828501613782565b91505092915050565b600080600080600060a08688031215613936576139356145a6565b5b600061394488828901613797565b955050602061395588828901613758565b945050604061396688828901613782565b935050606061397788828901613782565b925050608061398888828901613797565b9150509295509295909350565b61399e816142e0565b82525050565b6139ad816142e0565b82525050565b6139c46139bf826142e0565b6144a8565b82525050565b6139d3816142f2565b82525050565b60006139e4826140c4565b6139ee81856140cf565b93506139fe818560208601614402565b613a07816145ab565b840191505092915050565b6000613a1d826140c4565b613a2781856140e0565b9350613a37818560208601614402565b80840191505092915050565b613a4c8161432a565b82525050565b613a5b816143f0565b82525050565b6000613a6e6012836140eb565b9150613a79826145d6565b602082019050919050565b6000613a916012836140eb565b9150613a9c826145ff565b602082019050919050565b6000613ab46014836140eb565b9150613abf82614628565b602082019050919050565b6000613ad76010836140eb565b9150613ae282614651565b602082019050919050565b6000613afa6003836140eb565b9150613b058261467a565b602082019050919050565b6000613b1d6005836140eb565b9150613b28826146a3565b602082019050919050565b6000613b40600b836140eb565b9150613b4b826146cc565b602082019050919050565b6000613b63600a836140eb565b9150613b6e826146f5565b602082019050919050565b6000613b866000836140e0565b9150613b918261471e565b600082019050919050565b6000613ba9600c836140eb565b9150613bb482614721565b602082019050919050565b6000613bcc600f836140eb565b9150613bd78261474a565b602082019050919050565b6000613bef600f836140eb565b9150613bfa82614773565b602082019050919050565b61010082016000820151613c1c6000850182613995565b506020820151613c2f6020850182613995565b506040820151613c426040850182613cb6565b506060820151613c556060850182613995565b506080820151613c686080850182613cc5565b5060a0820151613c7b60a0850182613cc5565b5060c0820151613c8e60c0850182613cc5565b5060e0820151613ca160e0850182613ca7565b50505050565b613cb081614342565b82525050565b613cbf81614362565b82525050565b613cce81614371565b82525050565b613cdd81614371565b82525050565b6000613cef8285613a12565b9150613cfb82846139b3565b6014820191508190509392505050565b6000613d1682613b79565b9150819050919050565b6000602082019050613d3560008301846139a4565b92915050565b6000604082019050613d5060008301856139a4565b613d5d60208301846139a4565b9392505050565b6000606082019050613d7960008301866139a4565b613d8660208301856139a4565b613d936040830184613a52565b949350505050565b6000606082019050613db060008301866139a4565b613dbd60208301856139a4565b613dca6040830184613cd4565b949350505050565b6000604082019050613de760008301856139a4565b613df46020830184613cd4565b9392505050565b6000606082019050613e1060008301866139a4565b613e1d6020830185613cd4565b613e2a60408301846139a4565b949350505050565b6000602082019050613e4760008301846139ca565b92915050565b6000604082019050613e6260008301856139ca565b8181036020830152613e7481846139d9565b90509392505050565b6000602082019050613e926000830184613a43565b92915050565b60006020820190508181036000830152613eb181613a61565b9050919050565b60006020820190508181036000830152613ed181613a84565b9050919050565b60006020820190508181036000830152613ef181613aa7565b9050919050565b60006020820190508181036000830152613f1181613aca565b9050919050565b60006040820190508181036000830152613f3181613aed565b9050613f406020830184613cd4565b92915050565b60006040820190508181036000830152613f5f81613b10565b9050613f6e6020830184613cd4565b92915050565b60006020820190508181036000830152613f8d81613b33565b9050919050565b60006020820190508181036000830152613fad81613b56565b9050919050565b60006020820190508181036000830152613fcd81613b9c565b9050919050565b60006020820190508181036000830152613fed81613bbf565b9050919050565b6000602082019050818103600083015261400d81613be2565b9050919050565b60006101008201905061402a6000830184613c05565b92915050565b60006020820190506140456000830184613cd4565b92915050565b60006080820190506140606000830187613cd4565b61406d6020830186613a43565b61407a6040830185613cd4565b6140876060830184613cd4565b95945050505050565b60006040820190506140a56000830185613cd4565b6140b26020830184613cd4565b9392505050565b600082905092915050565b600081519050919050565b600082825260208201905092915050565b600081905092915050565b600082825260208201905092915050565b600080858511156141105761410f614597565b5b8386111561412157614120614592565b5b6001850283019150848603905094509492505050565b600061414282614371565b915061414d83614371565b9250827fffffffffffffffffffffffffffffffffffffffffffffffffffffffffffffffff03821115614182576141816144cc565b5b828201905092915050565b600061419882614371565b91506141a383614371565b9250826141b3576141b26144fb565b5b828204905092915050565b60006141c982614371565b91506141d483614371565b9250817fffffffffffffffffffffffffffffffffffffffffffffffffffffffffffffffff048311821515161561420d5761420c6144cc565b5b828202905092915050565b60006142238261432a565b915061422e8361432a565b9250827f800000000000000000000000000000000000000000000000000000000000000001821260008412151615614269576142686144cc565b5b827f7fffffffffffffffffffffffffffffffffffffffffffffffffffffffffffffff0182136000841216156142a1576142a06144cc565b5b828203905092915050565b60006142b782614371565b91506142c283614371565b9250828210156142d5576142d46144cc565b5b828203905092915050565b60006142eb82614342565b9050919050565b60008115159050919050565b60007fffffffffffffffffffffffffffffffffffffffff00000000000000000000000082169050919050565b6000819050919050565b600061ffff82169050919050565b600073ffffffffffffffffffffffffffffffffffffffff82169050919050565b600062ffffff82169050919050565b6000819050919050565b600069ffffffffffffffffffff82169050919050565b600061439d83836140b9565b826143a881356142fe565b925060148210156143e8576143e37fffffffffffffffffffffffffffffffffffffffff000000000000000000000000836014036008026145c9565b831692505b505092915050565b60006143fb82614334565b9050919050565b60005b83811015614420578082015181840152602081019050614405565b8381111561442f576000848401525b50505050565b600061444082614371565b91506000821415614454576144536144cc565b5b600182039050919050565b600061446a82614371565b91507fffffffffffffffffffffffffffffffffffffffffffffffffffffffffffffffff82141561449d5761449c6144cc565b5b600182019050919050565b60006144b3826144ba565b9050919050565b60006144c5826145bc565b9050919050565b7f4e487b7100000000000000000000000000000000000000000000000000000000600052601160045260246000fd5b7f4e487b7100000000000000000000000000000000000000000000000000000000600052601260045260246000fd5b7f4e487b7100000000000000000000000000000000000000000000000000000000600052603160045260246000fd5b7f4e487b7100000000000000000000000000000000000000000000000000000000600052603260045260246000fd5b600080fd5b600080fd5b600080fd5b600080fd5b600080fd5b600080fd5b600080fd5b6000601f19601f8301169050919050565b60008160601b9050919050565b600082821b905092915050565b7f7573657220616c72656164792061646465640000000000000000000000000000600082015250565b7f616d6f756e74203e20616c6c6f77616e63650000000000000000000000000000600082015250565b7f63616e27742064656c206c617374206f776e6572000000000000000000000000600082015250565b7f616d6f756e74203e2062616c616e636500000000000000000000000000000000600082015250565b7f4441490000000000000000000000000000000000000000000000000000000000600082015250565b7f4d41544943000000000000000000000000000000000000000000000000000000600082015250565b7f6f6e6c79206f776e657273000000000000000000000000000000000000000000600082015250565b7f6e6f742061207573657200000000000000000000000000000000000000000000600082015250565b50565b7f6e6f7420616e206f776e65720000000000000000000000000000000000000000600082015250565b7f4441492062616c616e6365203e20300000000000000000000000000000000000600082015250565b7f7769746864726177206661696c65640000000000000000000000000000000000600082015250565b6147a5816142e0565b81146147b057600080fd5b50565b6147bc816142f2565b81146147c757600080fd5b50565b6147d38161432a565b81146147de57600080fd5b50565b6147ea81614371565b81146147f557600080fd5b50565b6148018161437b565b811461480c57600080fd5b5056fea2646970667358221220d2c1ea03367aab2b37f756bd2d7652cbc1f0aae6580550414284e24cde99b78c64736f6c63430008070033",
  "linkReferences": {},
  "deployedLinkReferences": {}
}